{
  "_format": "hh-sol-artifact-1",
  "contractName": "TokenStake",
  "sourceName": "src/blockchain/hardhat/contracts/TokenStake.sol",
  "abi": [
    {
      "inputs": [
        {
          "internalType": "address",
          "name": "_erc20Token",
          "type": "address"
        }
      ],
      "stateMutability": "nonpayable",
      "type": "constructor"
    },
    {
      "inputs": [
        {
          "internalType": "uint256",
          "name": "_amount",
          "type": "uint256"
        }
      ],
      "name": "stakeTokens",
      "outputs": [],
      "stateMutability": "nonpayable",
      "type": "function"
    },
    {
      "inputs": [
        {
          "internalType": "address",
          "name": "",
          "type": "address"
        }
      ],
      "name": "stakingBalance",
      "outputs": [
        {
          "internalType": "uint256",
          "name": "",
          "type": "uint256"
        }
      ],
      "stateMutability": "view",
      "type": "function"
    }
  ],
  "bytecode": "0x608060405234801561001057600080fd5b5060405161067b38038061067b8339818101604052810190610032919061011c565b806000806101000a81548173ffffffffffffffffffffffffffffffffffffffff021916908373ffffffffffffffffffffffffffffffffffffffff16021790555033600160006101000a81548173ffffffffffffffffffffffffffffffffffffffff021916908373ffffffffffffffffffffffffffffffffffffffff16021790555050610149565b600080fd5b600073ffffffffffffffffffffffffffffffffffffffff82169050919050565b60006100e9826100be565b9050919050565b6100f9816100de565b811461010457600080fd5b50565b600081519050610116816100f0565b92915050565b600060208284031215610132576101316100b9565b5b600061014084828501610107565b91505092915050565b610523806101586000396000f3fe608060405234801561001057600080fd5b50600436106100365760003560e01c806345bc78ab1461003b5780637547c7a31461006b575b600080fd5b61005560048036038101906100509190610286565b610087565b60405161006291906102cc565b60405180910390f35b61008560048036038101906100809190610313565b61009f565b005b60026020528060005260406000206000915090505481565b600081116100e2576040517f08c379a00000000000000000000000000000000000000000000000000000000081526004016100d99061039d565b60405180910390fd5b60008054906101000a900473ffffffffffffffffffffffffffffffffffffffff1673ffffffffffffffffffffffffffffffffffffffff166323b872dd3330846040518463ffffffff1660e01b815260040161013f939291906103cc565b602060405180830381600087803b15801561015957600080fd5b505af115801561016d573d6000803e3d6000fd5b505050506040513d601f19601f82011682018060405250810190610191919061043b565b5080600260003373ffffffffffffffffffffffffffffffffffffffff1673ffffffffffffffffffffffffffffffffffffffff168152602001908152602001600020546101dd9190610497565b600260003373ffffffffffffffffffffffffffffffffffffffff1673ffffffffffffffffffffffffffffffffffffffff1681526020019081526020016000208190555050565b600080fd5b600073ffffffffffffffffffffffffffffffffffffffff82169050919050565b600061025382610228565b9050919050565b61026381610248565b811461026e57600080fd5b50565b6000813590506102808161025a565b92915050565b60006020828403121561029c5761029b610223565b5b60006102aa84828501610271565b91505092915050565b6000819050919050565b6102c6816102b3565b82525050565b60006020820190506102e160008301846102bd565b92915050565b6102f0816102b3565b81146102fb57600080fd5b50565b60008135905061030d816102e7565b92915050565b60006020828403121561032957610328610223565b5b6000610337848285016102fe565b91505092915050565b600082825260208201905092915050565b7f616d6f756e742073686f756c64206265203e2030000000000000000000000000600082015250565b6000610387601483610340565b915061039282610351565b602082019050919050565b600060208201905081810360008301526103b68161037a565b9050919050565b6103c681610248565b82525050565b60006060820190506103e160008301866103bd565b6103ee60208301856103bd565b6103fb60408301846102bd565b949350505050565b60008115159050919050565b61041881610403565b811461042357600080fd5b50565b6000815190506104358161040f565b92915050565b60006020828403121561045157610450610223565b5b600061045f84828501610426565b91505092915050565b7f4e487b7100000000000000000000000000000000000000000000000000000000600052601160045260246000fd5b60006104a2826102b3565b91506104ad836102b3565b9250827fffffffffffffffffffffffffffffffffffffffffffffffffffffffffffffffff038211156104e2576104e1610468565b5b82820190509291505056fea2646970667358221220bd376dd480a2df663115ca5d2b41e4751e75c19c49249ebca3a1c16c4041e4e264736f6c63430008090033",
  "linkReferences": {},
  "deployedLinkReferences": {}
}