{
  "_format": "hh-sol-artifact-1",
  "contractName": "Pension",
  "sourceName": "src/blockchain/hardhat/contracts/Pension.sol",
  "abi": [
    {
      "inputs": [],
      "stateMutability": "nonpayable",
      "type": "constructor"
    },
    {
      "anonymous": false,
      "inputs": [
        {
          "indexed": true,
          "internalType": "address",
          "name": "owner",
          "type": "address"
        },
        {
          "indexed": true,
          "internalType": "address",
          "name": "approved",
          "type": "address"
        },
        {
          "indexed": true,
          "internalType": "uint256",
          "name": "tokenId",
          "type": "uint256"
        }
      ],
      "name": "Approval",
      "type": "event"
    },
    {
      "anonymous": false,
      "inputs": [
        {
          "indexed": true,
          "internalType": "address",
          "name": "owner",
          "type": "address"
        },
        {
          "indexed": true,
          "internalType": "address",
          "name": "operator",
          "type": "address"
        },
        {
          "indexed": false,
          "internalType": "bool",
          "name": "approved",
          "type": "bool"
        }
      ],
      "name": "ApprovalForAll",
      "type": "event"
    },
    {
      "anonymous": false,
      "inputs": [
        {
          "components": [
            {
              "internalType": "int256",
              "name": "solvent",
              "type": "int256"
            },
            {
              "internalType": "uint256",
              "name": "totalAmount",
              "type": "uint256"
            },
            {
              "internalType": "uint256",
              "name": "totalToPay",
              "type": "uint256"
            },
            {
              "components": [
                {
                  "internalType": "uint256",
                  "name": "totalAmount",
                  "type": "uint256"
                },
                {
                  "internalType": "uint256",
                  "name": "totalToPay",
                  "type": "uint256"
                },
                {
                  "components": [
                    {
                      "internalType": "address payable",
                      "name": "owner",
                      "type": "address"
                    },
                    {
                      "internalType": "uint256",
                      "name": "monthlyQuote",
                      "type": "uint256"
                    },
                    {
                      "internalType": "uint256",
                      "name": "quantityQuotes",
                      "type": "uint256"
                    },
                    {
                      "internalType": "uint256",
                      "name": "totalPaidQuotes",
                      "type": "uint256"
                    },
                    {
                      "internalType": "uint256",
                      "name": "totalPensionValue",
                      "type": "uint256"
                    }
                  ],
                  "internalType": "struct Pension.RetairedQuote[]",
                  "name": "retairedQuotes",
                  "type": "tuple[]"
                }
              ],
              "internalType": "struct Pension.RetairedRecord[]",
              "name": "retairedRecords",
              "type": "tuple[]"
            },
            {
              "components": [
                {
                  "internalType": "uint256",
                  "name": "totalAmount",
                  "type": "uint256"
                },
                {
                  "components": [
                    {
                      "internalType": "address payable",
                      "name": "owner",
                      "type": "address"
                    },
                    {
                      "internalType": "bytes32",
                      "name": "id",
                      "type": "bytes32"
                    },
                    {
                      "components": [
                        {
                          "internalType": "address payable",
                          "name": "owner",
                          "type": "address"
                        },
                        {
                          "internalType": "string",
                          "name": "biologySex",
                          "type": "string"
                        },
                        {
                          "internalType": "uint256",
                          "name": "age",
                          "type": "uint256"
                        },
                        {
                          "internalType": "uint256",
                          "name": "bornAge",
                          "type": "uint256"
                        },
                        {
                          "internalType": "uint256",
                          "name": "retirentmentDate",
                          "type": "uint256"
                        },
                        {
                          "internalType": "uint256",
                          "name": "pensionCreatedTime",
                          "type": "uint256"
                        },
                        {
                          "internalType": "uint256",
                          "name": "pensionId",
                          "type": "uint256"
                        },
                        {
                          "internalType": "uint256",
                          "name": "totalSavings",
                          "type": "uint256"
                        },
                        {
                          "internalType": "uint256",
                          "name": "totalSolidary",
                          "type": "uint256"
                        }
                      ],
                      "internalType": "struct Pension.DataPension",
                      "name": "dataPension",
                      "type": "tuple"
                    },
                    {
                      "internalType": "uint256",
                      "name": "contributionDate",
                      "type": "uint256"
                    },
                    {
                      "internalType": "uint256",
                      "name": "savingAmount",
                      "type": "uint256"
                    },
                    {
                      "internalType": "uint256",
                      "name": "solidaryAmount",
                      "type": "uint256"
                    },
                    {
                      "internalType": "uint256",
                      "name": "totalAmount",
                      "type": "uint256"
                    }
                  ],
                  "internalType": "struct Pension.MonthlyQuote[]",
                  "name": "monthlyQuotes",
                  "type": "tuple[]"
                }
              ],
              "internalType": "struct Pension.MonthlyRecord[]",
              "name": "monthlyRecords",
              "type": "tuple[]"
            }
          ],
          "indexed": false,
          "internalType": "struct Pension.GeneralRecord",
          "name": "_generalBalance",
          "type": "tuple"
        }
      ],
      "name": "RegisterGeneralBalance",
      "type": "event"
    },
    {
      "anonymous": false,
      "inputs": [
        {
          "indexed": true,
          "internalType": "address",
          "name": "_owner",
          "type": "address"
        },
        {
          "indexed": false,
          "internalType": "string",
          "name": "_biologySex",
          "type": "string"
        },
        {
          "indexed": false,
          "internalType": "uint256",
          "name": "_age",
          "type": "uint256"
        },
        {
          "indexed": false,
          "internalType": "uint256",
          "name": "_bornAge",
          "type": "uint256"
        },
        {
          "indexed": false,
          "internalType": "uint256",
          "name": "_retirentmentDate",
          "type": "uint256"
        },
        {
          "indexed": false,
          "internalType": "uint256",
          "name": "_pensionCreatedTime",
          "type": "uint256"
        },
        {
          "indexed": true,
          "internalType": "uint256",
          "name": "_pensionId",
          "type": "uint256"
        }
      ],
      "name": "RegisterPension",
      "type": "event"
    },
    {
      "anonymous": false,
      "inputs": [
        {
          "indexed": true,
          "internalType": "address",
          "name": "_owner",
          "type": "address"
        },
        {
          "indexed": true,
          "internalType": "bytes32",
          "name": "_id",
          "type": "bytes32"
        },
        {
          "components": [
            {
              "internalType": "address payable",
              "name": "owner",
              "type": "address"
            },
            {
              "internalType": "string",
              "name": "biologySex",
              "type": "string"
            },
            {
              "internalType": "uint256",
              "name": "age",
              "type": "uint256"
            },
            {
              "internalType": "uint256",
              "name": "bornAge",
              "type": "uint256"
            },
            {
              "internalType": "uint256",
              "name": "retirentmentDate",
              "type": "uint256"
            },
            {
              "internalType": "uint256",
              "name": "pensionCreatedTime",
              "type": "uint256"
            },
            {
              "internalType": "uint256",
              "name": "pensionId",
              "type": "uint256"
            },
            {
              "internalType": "uint256",
              "name": "totalSavings",
              "type": "uint256"
            },
            {
              "internalType": "uint256",
              "name": "totalSolidary",
              "type": "uint256"
            }
          ],
          "indexed": false,
          "internalType": "struct Pension.DataPension",
          "name": "_dataPension",
          "type": "tuple"
        },
        {
          "indexed": false,
          "internalType": "uint256",
          "name": "_contributionDate",
          "type": "uint256"
        },
        {
          "indexed": false,
          "internalType": "uint256",
          "name": "_savingAmount",
          "type": "uint256"
        },
        {
          "indexed": false,
          "internalType": "uint256",
          "name": "_solidaryAmount",
          "type": "uint256"
        },
        {
          "indexed": false,
          "internalType": "uint256",
          "name": "_totalAmount",
          "type": "uint256"
        }
      ],
      "name": "RegisterQuote",
      "type": "event"
    },
    {
      "anonymous": false,
      "inputs": [
        {
          "indexed": true,
          "internalType": "address",
          "name": "_owner",
          "type": "address"
        },
        {
          "indexed": true,
          "internalType": "bytes32",
          "name": "_id",
          "type": "bytes32"
        },
        {
          "indexed": false,
          "internalType": "uint256",
          "name": "_monthlyQuote",
          "type": "uint256"
        },
        {
          "indexed": false,
          "internalType": "uint256",
          "name": "_quantityQuotes",
          "type": "uint256"
        },
        {
          "indexed": false,
          "internalType": "uint256",
          "name": "_totalPaidQuotes",
          "type": "uint256"
        },
        {
          "indexed": false,
          "internalType": "uint256",
          "name": "_totalPensionValue",
          "type": "uint256"
        }
      ],
      "name": "RegisterQuoteRetaired",
      "type": "event"
    },
    {
      "anonymous": false,
      "inputs": [
        {
          "indexed": true,
          "internalType": "address",
          "name": "from",
          "type": "address"
        },
        {
          "indexed": true,
          "internalType": "address",
          "name": "to",
          "type": "address"
        },
        {
          "indexed": true,
          "internalType": "uint256",
          "name": "tokenId",
          "type": "uint256"
        }
      ],
      "name": "Transfer",
      "type": "event"
    },
    {
      "inputs": [
        {
          "internalType": "address",
          "name": "to",
          "type": "address"
        },
        {
          "internalType": "uint256",
          "name": "tokenId",
          "type": "uint256"
        }
      ],
      "name": "approve",
      "outputs": [],
      "stateMutability": "nonpayable",
      "type": "function"
    },
    {
      "inputs": [
        {
          "internalType": "address",
          "name": "owner",
          "type": "address"
        }
      ],
      "name": "balanceOf",
      "outputs": [
        {
          "internalType": "uint256",
          "name": "",
          "type": "uint256"
        }
      ],
      "stateMutability": "view",
      "type": "function"
    },
    {
      "inputs": [
        {
          "internalType": "bytes",
          "name": "",
          "type": "bytes"
        }
      ],
      "name": "checkUpkeep",
      "outputs": [
        {
          "internalType": "bool",
          "name": "upkeepNeeded",
          "type": "bool"
        },
        {
          "internalType": "bytes",
          "name": "",
          "type": "bytes"
        }
      ],
      "stateMutability": "view",
      "type": "function"
    },
    {
      "inputs": [],
      "name": "cutoffDate",
      "outputs": [
        {
          "internalType": "uint256",
          "name": "",
          "type": "uint256"
        }
      ],
      "stateMutability": "view",
      "type": "function"
    },
    {
      "inputs": [
        {
          "internalType": "uint256",
          "name": "_pensionId",
          "type": "uint256"
        },
        {
          "internalType": "uint256",
          "name": "_amount",
          "type": "uint256"
        }
      ],
      "name": "depositAmount",
      "outputs": [],
      "stateMutability": "payable",
      "type": "function"
    },
    {
      "inputs": [
        {
          "internalType": "uint256",
          "name": "tokenId",
          "type": "uint256"
        }
      ],
      "name": "getApproved",
      "outputs": [
        {
          "internalType": "address",
          "name": "",
          "type": "address"
        }
      ],
      "stateMutability": "view",
      "type": "function"
    },
    {
      "inputs": [
        {
          "internalType": "address",
          "name": "owner",
          "type": "address"
        },
        {
          "internalType": "address",
          "name": "operator",
          "type": "address"
        }
      ],
      "name": "isApprovedForAll",
      "outputs": [
        {
          "internalType": "bool",
          "name": "",
          "type": "bool"
        }
      ],
      "stateMutability": "view",
      "type": "function"
    },
    {
      "inputs": [],
      "name": "name",
      "outputs": [
        {
          "internalType": "string",
          "name": "",
          "type": "string"
        }
      ],
      "stateMutability": "view",
      "type": "function"
    },
    {
      "inputs": [
        {
          "internalType": "uint256",
          "name": "tokenId",
          "type": "uint256"
        }
      ],
      "name": "ownerOf",
      "outputs": [
        {
          "internalType": "address",
          "name": "",
          "type": "address"
        }
      ],
      "stateMutability": "view",
      "type": "function"
    },
    {
      "inputs": [],
      "name": "pensionIdCounter",
      "outputs": [
        {
          "internalType": "uint256",
          "name": "_value",
          "type": "uint256"
        }
      ],
      "stateMutability": "view",
      "type": "function"
    },
    {
      "inputs": [
        {
          "internalType": "bytes",
          "name": "",
          "type": "bytes"
        }
      ],
      "name": "performUpkeep",
      "outputs": [],
      "stateMutability": "nonpayable",
      "type": "function"
    },
    {
      "inputs": [],
      "name": "retirentmentAge",
      "outputs": [
        {
          "internalType": "uint256",
          "name": "",
          "type": "uint256"
        }
      ],
      "stateMutability": "view",
      "type": "function"
    },
    {
      "inputs": [
        {
          "internalType": "string",
          "name": "_biologySex",
          "type": "string"
        },
        {
          "internalType": "uint256",
          "name": "_age",
          "type": "uint256"
        },
        {
          "internalType": "uint256",
          "name": "_bornAge",
          "type": "uint256"
        },
        {
          "internalType": "uint256",
          "name": "_firstQuote",
          "type": "uint256"
        }
      ],
      "name": "safeMint",
      "outputs": [],
      "stateMutability": "payable",
      "type": "function"
    },
    {
      "inputs": [
        {
          "internalType": "address",
          "name": "from",
          "type": "address"
        },
        {
          "internalType": "address",
          "name": "to",
          "type": "address"
        },
        {
          "internalType": "uint256",
          "name": "tokenId",
          "type": "uint256"
        }
      ],
      "name": "safeTransferFrom",
      "outputs": [],
      "stateMutability": "nonpayable",
      "type": "function"
    },
    {
      "inputs": [
        {
          "internalType": "address",
          "name": "from",
          "type": "address"
        },
        {
          "internalType": "address",
          "name": "to",
          "type": "address"
        },
        {
          "internalType": "uint256",
          "name": "tokenId",
          "type": "uint256"
        },
        {
          "internalType": "bytes",
          "name": "data",
          "type": "bytes"
        }
      ],
      "name": "safeTransferFrom",
      "outputs": [],
      "stateMutability": "nonpayable",
      "type": "function"
    },
    {
      "inputs": [
        {
          "internalType": "address",
          "name": "operator",
          "type": "address"
        },
        {
          "internalType": "bool",
          "name": "approved",
          "type": "bool"
        }
      ],
      "name": "setApprovalForAll",
      "outputs": [],
      "stateMutability": "nonpayable",
      "type": "function"
    },
    {
      "inputs": [
        {
          "internalType": "bytes4",
          "name": "interfaceId",
          "type": "bytes4"
        }
      ],
      "name": "supportsInterface",
      "outputs": [
        {
          "internalType": "bool",
          "name": "",
          "type": "bool"
        }
      ],
      "stateMutability": "view",
      "type": "function"
    },
    {
      "inputs": [],
      "name": "symbol",
      "outputs": [
        {
          "internalType": "string",
          "name": "",
          "type": "string"
        }
      ],
      "stateMutability": "view",
      "type": "function"
    },
    {
      "inputs": [
        {
          "internalType": "uint256",
          "name": "tokenId",
          "type": "uint256"
        }
      ],
      "name": "tokenURI",
      "outputs": [
        {
          "internalType": "string",
          "name": "",
          "type": "string"
        }
      ],
      "stateMutability": "view",
      "type": "function"
    },
    {
      "inputs": [
        {
          "internalType": "address",
          "name": "from",
          "type": "address"
        },
        {
          "internalType": "address",
          "name": "to",
          "type": "address"
        },
        {
          "internalType": "uint256",
          "name": "tokenId",
          "type": "uint256"
        }
      ],
      "name": "transferFrom",
      "outputs": [],
      "stateMutability": "nonpayable",
      "type": "function"
    },
    {
      "inputs": [],
      "name": "updateCutoffDate",
      "outputs": [],
      "stateMutability": "nonpayable",
      "type": "function"
    },
    {
      "inputs": [
        {
          "internalType": "address",
          "name": "_owner",
          "type": "address"
        }
      ],
      "name": "verifyIfTheContributorAlreadyMinted",
      "outputs": [
        {
          "internalType": "bool",
          "name": "",
          "type": "bool"
        }
      ],
      "stateMutability": "view",
      "type": "function"
    }
  ],
  "bytecode": "0x60806040523480156200001157600080fd5b506040518060400160405280600781526020017f50656e73696f6e000000000000000000000000000000000000000000000000008152506040518060400160405280600381526020017f504e5300000000000000000000000000000000000000000000000000000000008152508160009080519060200190620000969291906200019b565b508060019080519060200190620000af9291906200019b565b505050426019819055506000600e600181600181540180825580915050039060005260206000209060020201905080601760006019548152602001908152602001600020600082015481600001556001820181600101908054620001159291906200022c565b509050506000600c6001816001815401808255809150500390600052602060002090600502019050806007600082015481600001556001820154816001015560028201548160020155600382018160030190805462000176929190620003fd565b5060048201816004019080546200018f92919062000487565b5090505050506200094f565b828054620001a99062000919565b90600052602060002090601f016020900481019282620001cd576000855562000219565b82601f10620001e857805160ff191683800117855562000219565b8280016001018555821562000219579182015b8281111562000218578251825591602001919060010190620001fb565b5b50905062000228919062000507565b5090565b82805482825590600052602060002090600f028101928215620003ea57600052602060002091600f0282015b82811115620003e95782826000820160009054906101000a900473ffffffffffffffffffffffffffffffffffffffff168160000160006101000a81548173ffffffffffffffffffffffffffffffffffffffff021916908373ffffffffffffffffffffffffffffffffffffffff1602179055506001820154816001015560028201816002016000820160009054906101000a900473ffffffffffffffffffffffffffffffffffffffff168160000160006101000a81548173ffffffffffffffffffffffffffffffffffffffff021916908373ffffffffffffffffffffffffffffffffffffffff1602179055506001820181600101908054620003599062000919565b6200036692919062000526565b50600282015481600201556003820154816003015560048201548160040155600582015481600501556006820154816006015560078201548160070155600882015481600801555050600b82015481600b0155600c82015481600c0155600d82015481600d0155600e82015481600e0155505091600f019190600f019062000258565b5b509050620003f99190620005be565b5090565b828054828255906000526020600020906003028101928215620004745760005260206000209160030282015b828111156200047357828260008201548160000155600182015481600101556002820181600201908054620004609291906200069e565b5050509160030191906003019062000429565b5b5090506200048391906200078a565b5090565b828054828255906000526020600020906002028101928215620004f45760005260206000209160020282015b82811115620004f3578282600082015481600001556001820181600101908054620004e09291906200022c565b50505091600201919060020190620004b3565b5b509050620005039190620007c5565b5090565b5b808211156200052257600081600090555060010162000508565b5090565b828054620005349062000919565b90600052602060002090601f016020900481019282620005585760008555620005ab565b82601f106200056b5780548555620005ab565b82800160010185558215620005ab57600052602060002091601f016020900482015b82811115620005aa5782548255916001019190600101906200058d565b5b509050620005ba919062000507565b5090565b5b808211156200069a57600080820160006101000a81549073ffffffffffffffffffffffffffffffffffffffff0219169055600182016000905560028201600080820160006101000a81549073ffffffffffffffffffffffffffffffffffffffff0219169055600182016000620006369190620007f8565b60028201600090556003820160009055600482016000905560058201600090556006820160009055600782016000905560088201600090555050600b820160009055600c820160009055600d820160009055600e82016000905550600f01620005bf565b5090565b828054828255906000526020600020906005028101928215620007775760005260206000209160050282015b82811115620007765782826000820160009054906101000a900473ffffffffffffffffffffffffffffffffffffffff168160000160006101000a81548173ffffffffffffffffffffffffffffffffffffffff021916908373ffffffffffffffffffffffffffffffffffffffff16021790555060018201548160010155600282015481600201556003820154816003015560048201548160040155505091600501919060050190620006ca565b5b5090506200078691906200083e565b5090565b5b80821115620007c1576000808201600090556001820160009055600282016000620007b791906200089e565b506003016200078b565b5090565b5b80821115620007f457600080820160009055600182016000620007ea9190620008c4565b50600201620007c6565b5090565b508054620008069062000919565b6000825580601f106200081a57506200083b565b601f0160209004906000526020600020908101906200083a919062000507565b5b50565b5b808211156200089a57600080820160006101000a81549073ffffffffffffffffffffffffffffffffffffffff02191690556001820160009055600282016000905560038201600090556004820160009055506005016200083f565b5090565b5080546000825560050290600052602060002090810190620008c191906200083e565b50565b50805460008255600f0290600052602060002090810190620008e79190620005be565b50565b7f4e487b7100000000000000000000000000000000000000000000000000000000600052602260045260246000fd5b600060028204905060018216806200093257607f821691505b60208210811415620009495762000948620008ea565b5b50919050565b615988806200095f6000396000f3fe6080604052600436106101355760003560e01c806370a08231116100ab578063ca00ed2b1161006f578063ca00ed2b14610449578063e985e9c514610474578063ec9b9a6f146104b1578063ed759375146104cd578063f1bc9316146104e9578063fb293d4d1461051457610135565b806370a082311461035257806395d89b411461038f578063a22cb465146103ba578063b88d4fde146103e3578063c87b56dd1461040c57610135565b8063275d38af116100fd578063275d38af1461023157806342842e0e146102485780634585e33b146102715780635b06291c1461029a5780636352211e146102d75780636e04ff0d1461031457610135565b806301ffc9a71461013a57806306fdde0314610177578063081812fc146101a2578063095ea7b3146101df57806323b872dd14610208575b600080fd5b34801561014657600080fd5b50610161600480360381019061015c919061393e565b61053f565b60405161016e9190613986565b60405180910390f35b34801561018357600080fd5b5061018c610621565b6040516101999190613a3a565b60405180910390f35b3480156101ae57600080fd5b506101c960048036038101906101c49190613a92565b6106b3565b6040516101d69190613b00565b60405180910390f35b3480156101eb57600080fd5b5061020660048036038101906102019190613b47565b6106f9565b005b34801561021457600080fd5b5061022f600480360381019061022a9190613b87565b610811565b005b34801561023d57600080fd5b50610246610871565b005b34801561025457600080fd5b5061026f600480360381019061026a9190613b87565b610aa1565b005b34801561027d57600080fd5b5061029860048036038101906102939190613c3f565b610ac1565b005b3480156102a657600080fd5b506102c160048036038101906102bc9190613c8c565b610ae6565b6040516102ce9190613986565b60405180910390f35b3480156102e357600080fd5b506102fe60048036038101906102f99190613a92565b610b4d565b60405161030b9190613b00565b60405180910390f35b34801561032057600080fd5b5061033b60048036038101906103369190613c3f565b610bff565b604051610349929190613d0e565b60405180910390f35b34801561035e57600080fd5b5061037960048036038101906103749190613c8c565b610c2c565b6040516103869190613d4d565b60405180910390f35b34801561039b57600080fd5b506103a4610ce4565b6040516103b19190613a3a565b60405180910390f35b3480156103c657600080fd5b506103e160048036038101906103dc9190613d94565b610d76565b005b3480156103ef57600080fd5b5061040a60048036038101906104059190613f04565b610d8c565b005b34801561041857600080fd5b50610433600480360381019061042e9190613a92565b610dee565b6040516104409190613a3a565b60405180910390f35b34801561045557600080fd5b5061045e610e56565b60405161046b9190613d4d565b60405180910390f35b34801561048057600080fd5b5061049b60048036038101906104969190613f87565b610e5c565b6040516104a89190613986565b60405180910390f35b6104cb60048036038101906104c69190613fc7565b610ef0565b005b6104e760048036038101906104e291906140a8565b6113cb565b005b3480156104f557600080fd5b506104fe611833565b60405161050b9190613d4d565b60405180910390f35b34801561052057600080fd5b5061052961183b565b6040516105369190613d4d565b60405180910390f35b60007f80ac58cd000000000000000000000000000000000000000000000000000000007bffffffffffffffffffffffffffffffffffffffffffffffffffffffff1916827bffffffffffffffffffffffffffffffffffffffffffffffffffffffff1916148061060a57507f5b5e139f000000000000000000000000000000000000000000000000000000007bffffffffffffffffffffffffffffffffffffffffffffffffffffffff1916827bffffffffffffffffffffffffffffffffffffffffffffffffffffffff1916145b8061061a575061061982611847565b5b9050919050565b6060600080546106309061415a565b80601f016020809104026020016040519081016040528092919081815260200182805461065c9061415a565b80156106a95780601f1061067e576101008083540402835291602001916106a9565b820191906000526020600020905b81548152906001019060200180831161068c57829003601f168201915b5050505050905090565b60006106be826118b1565b6004600083815260200190815260200160002060009054906101000a900473ffffffffffffffffffffffffffffffffffffffff169050919050565b600061070482610b4d565b90508073ffffffffffffffffffffffffffffffffffffffff168373ffffffffffffffffffffffffffffffffffffffff161415610775576040517f08c379a000000000000000000000000000000000000000000000000000000000815260040161076c906141fe565b60405180910390fd5b8073ffffffffffffffffffffffffffffffffffffffff166107946118fc565b73ffffffffffffffffffffffffffffffffffffffff1614806107c357506107c2816107bd6118fc565b610e5c565b5b610802576040517f08c379a00000000000000000000000000000000000000000000000000000000081526004016107f990614290565b60405180910390fd5b61080c8383611904565b505050565b61082261081c6118fc565b826119bd565b610861576040517f08c379a000000000000000000000000000000000000000000000000000000000815260040161085890614322565b60405180910390fd5b61086c838383611a52565b505050565b600760040160176000601954815260200190815260200160002090806001815401808255809150506001900390600052602060002090600202016000909190919091506000820154816000015560018201816001019080546108d4929190613458565b50505060176000601954815260200190815260200160002060000154600760010160008282546109049190614371565b9250508190555060186000601954815260200190815260200160002060010154600760020160008282546109389190614371565b92505081905550600060076002015460076001015461095791906143d1565b905060008112156109b9578061096c90614465565b6007600001600082825461098091906143d1565b925050819055508061099190614465565b600760010160008282546109a59190614371565b925050819055506109b4611cb9565b6109f5565b60008113156109eb576109ca611cb9565b80600760000160008282546109df91906144ae565b925050819055506109f4565b6109f3611cb9565b5b5b42601981905550610a07601954612036565b6000600e600181600181540180825580915050039060005260206000209060020201905080601760006019548152602001908152602001600020600082015481600001556001820181600101908054610a61929190613458565b509050507f5e6e19c1ccaef24c9bb7c1f397614572eb00cf48960aa6f3222788b297b416366007604051610a959190614de3565b60405180910390a15050565b610abc83838360405180602001604052806000815250610d8c565b505050565b62278d0060195442610ad39190614e05565b1115610ae257610ae1610871565b5b5050565b6000601260008373ffffffffffffffffffffffffffffffffffffffff1673ffffffffffffffffffffffffffffffffffffffff16815260200190815260200160002060009054906101000a900460ff1615610b435760019050610b48565b600090505b919050565b6000806002600084815260200190815260200160002060009054906101000a900473ffffffffffffffffffffffffffffffffffffffff169050600073ffffffffffffffffffffffffffffffffffffffff168173ffffffffffffffffffffffffffffffffffffffff161415610bf6576040517f08c379a0000000000000000000000000000000000000000000000000000000008152600401610bed90614e85565b60405180910390fd5b80915050919050565b60006060600080158015610c22575062278d0060195442610c209190614e05565b115b9250509250929050565b60008073ffffffffffffffffffffffffffffffffffffffff168273ffffffffffffffffffffffffffffffffffffffff161415610c9d576040517f08c379a0000000000000000000000000000000000000000000000000000000008152600401610c9490614f17565b60405180910390fd5b600360008373ffffffffffffffffffffffffffffffffffffffff1673ffffffffffffffffffffffffffffffffffffffff168152602001908152602001600020549050919050565b606060018054610cf39061415a565b80601f0160208091040260200160405190810160405280929190818152602001828054610d1f9061415a565b8015610d6c5780601f10610d4157610100808354040283529160200191610d6c565b820191906000526020600020905b815481529060010190602001808311610d4f57829003601f168201915b5050505050905090565b610d88610d816118fc565b8383612220565b5050565b610d9d610d976118fc565b836119bd565b610ddc576040517f08c379a0000000000000000000000000000000000000000000000000000000008152600401610dd390614322565b60405180910390fd5b610de88484848461238d565b50505050565b6060610df9826118b1565b6000610e036123e9565b90506000815111610e235760405180602001604052806000815250610e4e565b80610e2d84612400565b604051602001610e3e929190614f73565b6040516020818303038152906040525b915050919050565b60195481565b6000600560008473ffffffffffffffffffffffffffffffffffffffff1673ffffffffffffffffffffffffffffffffffffffff16815260200190815260200160002060008373ffffffffffffffffffffffffffffffffffffffff1673ffffffffffffffffffffffffffffffffffffffff16815260200190815260200160002060009054906101000a900460ff16905092915050565b3382601560008373ffffffffffffffffffffffffffffffffffffffff1673ffffffffffffffffffffffffffffffffffffffff168152602001908152602001600020600082815260200190815260200160002060000160009054906101000a900473ffffffffffffffffffffffffffffffffffffffff1673ffffffffffffffffffffffffffffffffffffffff168273ffffffffffffffffffffffffffffffffffffffff16148015610fd35750610fa481610b4d565b73ffffffffffffffffffffffffffffffffffffffff168273ffffffffffffffffffffffffffffffffffffffff16145b611012576040517f08c379a000000000000000000000000000000000000000000000000000000000815260040161100990614fe3565b60405180910390fd5b346019811015611057576040517f08c379a000000000000000000000000000000000000000000000000000000000815260040161104e90615075565b60405180910390fd5b60004290506000606460188761106d9190615095565b611077919061511e565b9050600081876110879190614e05565b905081601560003373ffffffffffffffffffffffffffffffffffffffff1673ffffffffffffffffffffffffffffffffffffffff16815260200190815260200160002060008a815260200190815260200160002060070160008282546110ec9190614371565b9250508190555080601560003373ffffffffffffffffffffffffffffffffffffffff1673ffffffffffffffffffffffffffffffffffffffff16815260200190815260200160002060008a815260200190815260200160002060080160008282546111569190614371565b9250508190555080601460003373ffffffffffffffffffffffffffffffffffffffff1673ffffffffffffffffffffffffffffffffffffffff16815260200190815260200160002060008a815260200190815260200160002060008282546111bd9190614371565b9250508190555081601360003373ffffffffffffffffffffffffffffffffffffffff1673ffffffffffffffffffffffffffffffffffffffff16815260200190815260200160002060008a815260200190815260200160002060008282546112249190614371565b925050819055506113c1601560003373ffffffffffffffffffffffffffffffffffffffff1673ffffffffffffffffffffffffffffffffffffffff16815260200190815260200160002060008a8152602001908152602001600020604051806101200160405290816000820160009054906101000a900473ffffffffffffffffffffffffffffffffffffffff1673ffffffffffffffffffffffffffffffffffffffff1673ffffffffffffffffffffffffffffffffffffffff1681526020016001820180546112f09061415a565b80601f016020809104026020016040519081016040528092919081815260200182805461131c9061415a565b80156113695780601f1061133e57610100808354040283529160200191611369565b820191906000526020600020905b81548152906001019060200180831161134c57829003601f168201915b5050505050815260200160028201548152602001600382015481526020016004820154815260200160058201548152602001600682015481526020016007820154815260200160088201548152505088858585612561565b5050505050505050565b346019811015611410576040517f08c379a000000000000000000000000000000000000000000000000000000000815260040161140790615075565b60405180910390fd5b61141933610ae6565b15611459576040517f08c379a00000000000000000000000000000000000000000000000000000000081526004016114509061519b565b60405180910390fd5b601284101561149d576040517f08c379a00000000000000000000000000000000000000000000000000000000081526004016114949061522d565b60405180910390fd5b60006301e13380856114af9190615095565b9050600042905060006114c260066127dd565b90506114ce60066127eb565b6114d83382612801565b6000836372a945806114ea9190614e05565b9050600081846114fa9190614371565b9050600062278d0080601954846115119190614e05565b61151b919061511e565b6115259190614371565b905060006040518061012001604052803373ffffffffffffffffffffffffffffffffffffffff1681526020018d81526020018c81526020018b8152602001848152602001878152602001868152602001600081526020016000815250905080601560003373ffffffffffffffffffffffffffffffffffffffff1673ffffffffffffffffffffffffffffffffffffffff168152602001908152602001600020600087815260200190815260200160002060008201518160000160006101000a81548173ffffffffffffffffffffffffffffffffffffffff021916908373ffffffffffffffffffffffffffffffffffffffff1602179055506020820151816001019080519060200190611637929190613620565b5060408201518160020155606082015181600301556080820151816004015560a0820151816005015560c0820151816006015560e08201518160070155610100820151816008015590505061168c818a61281f565b6016600083815260200190815260200160002081908060018154018082558091505060019003906000526020600020906009020160009091909190915060008201518160000160006101000a81548173ffffffffffffffffffffffffffffffffffffffff021916908373ffffffffffffffffffffffffffffffffffffffff160217905550602082015181600101908051906020019061172c929190613620565b5060408201518160020155606082015181600301556080820151816004015560a0820151816005015560c0820151816006015560e08201518160070155610100820151816008015550506001601260003373ffffffffffffffffffffffffffffffffffffffff1673ffffffffffffffffffffffffffffffffffffffff16815260200190815260200160002060006101000a81548160ff021916908315150217905550843373ffffffffffffffffffffffffffffffffffffffff167f886d229bc4b4304a1a9207604f5e63cc4031e1eba5c012eea277ea15f005db9b8e8e8e888c60405161181d95949392919061524d565b60405180910390a3505050505050505050505050565b6372a9458081565b60068060000154905081565b60007f01ffc9a7000000000000000000000000000000000000000000000000000000007bffffffffffffffffffffffffffffffffffffffffffffffffffffffff1916827bffffffffffffffffffffffffffffffffffffffffffffffffffffffff1916149050919050565b6118ba81612bd7565b6118f9576040517f08c379a00000000000000000000000000000000000000000000000000000000081526004016118f090614e85565b60405180910390fd5b50565b600033905090565b816004600083815260200190815260200160002060006101000a81548173ffffffffffffffffffffffffffffffffffffffff021916908373ffffffffffffffffffffffffffffffffffffffff160217905550808273ffffffffffffffffffffffffffffffffffffffff1661197783610b4d565b73ffffffffffffffffffffffffffffffffffffffff167f8c5be1e5ebec7d5bd14f71427d1e84f3dd0314c0f7b2291e5b200ac8c7c3b92560405160405180910390a45050565b6000806119c983610b4d565b90508073ffffffffffffffffffffffffffffffffffffffff168473ffffffffffffffffffffffffffffffffffffffff161480611a0b5750611a0a8185610e5c565b5b80611a4957508373ffffffffffffffffffffffffffffffffffffffff16611a31846106b3565b73ffffffffffffffffffffffffffffffffffffffff16145b91505092915050565b8273ffffffffffffffffffffffffffffffffffffffff16611a7282610b4d565b73ffffffffffffffffffffffffffffffffffffffff1614611ac8576040517f08c379a0000000000000000000000000000000000000000000000000000000008152600401611abf90615319565b60405180910390fd5b600073ffffffffffffffffffffffffffffffffffffffff168273ffffffffffffffffffffffffffffffffffffffff161415611b38576040517f08c379a0000000000000000000000000000000000000000000000000000000008152600401611b2f906153ab565b60405180910390fd5b611b43838383612c43565b611b4e600082611904565b6001600360008573ffffffffffffffffffffffffffffffffffffffff1673ffffffffffffffffffffffffffffffffffffffff1681526020019081526020016000206000828254611b9e9190614e05565b925050819055506001600360008473ffffffffffffffffffffffffffffffffffffffff1673ffffffffffffffffffffffffffffffffffffffff1681526020019081526020016000206000828254611bf59190614371565b92505081905550816002600083815260200190815260200160002060006101000a81548173ffffffffffffffffffffffffffffffffffffffff021916908373ffffffffffffffffffffffffffffffffffffffff160217905550808273ffffffffffffffffffffffffffffffffffffffff168473ffffffffffffffffffffffffffffffffffffffff167fddf252ad1be2c89b69c2b068fc378daa952ba7f163c4a11628f55a4df523b3ef60405160405180910390a4611cb4838383612c48565b505050565b600042604051602001611ccc91906153ec565b60405160208183030381529060405280519060200120905060006007600301805480602002602001604051908101604052809291908181526020016000905b82821015611e2e5783829060005260206000209060030201604051806060016040529081600082015481526020016001820154815260200160028201805480602002602001604051908101604052809291908181526020016000905b82821015611e1757838290600052602060002090600502016040518060a00160405290816000820160009054906101000a900473ffffffffffffffffffffffffffffffffffffffff1673ffffffffffffffffffffffffffffffffffffffff1673ffffffffffffffffffffffffffffffffffffffff16815260200160018201548152602001600282015481526020016003820154815260200160048201548152505081526020019060010190611d67565b505050508152505081526020019060010190611d0b565b50505050905060005b8151811115612031576000828281518110611e5557611e54615407565b5b602002602001015160400151905060005b815181111561201c576000828281518110611e8457611e83615407565b5b60200260200101519050806020015160076002016000828254611ea79190614e05565b92505081905550806020015160076001016000828254611ec79190614e05565b92505081905550806000015173ffffffffffffffffffffffffffffffffffffffff166108fc82602001519081150290604051600060405180830381858888f19350505050158015611f1c573d6000803e3d6000fd5b50806020015181606001818151611f339190614371565b915081815250508060800151816060015110611f9f57828281518110611f5c57611f5b615407565b5b60200260200101611f6b6136a6565b815250600083511415611f9e57848481518110611f8b57611f8a615407565b5b60200260200101611f9a6136eb565b8152505b5b85816000015173ffffffffffffffffffffffffffffffffffffffff167f7736ee7b2ff59661d3b4d76a02d278cad454edef0efc9f919ef078eea93b254183602001518460400151856060015186608001516040516120009493929190615436565b60405180910390a35080806120149061547b565b915050611e66565b505080806120299061547b565b915050611e37565b505050565b600060166000838152602001908152602001600020805480602002602001604051908101604052809291908181526020016000905b828210156121cc5783829060005260206000209060090201604051806101200160405290816000820160009054906101000a900473ffffffffffffffffffffffffffffffffffffffff1673ffffffffffffffffffffffffffffffffffffffff1673ffffffffffffffffffffffffffffffffffffffff1681526020016001820180546120f59061415a565b80601f01602080910402602001604051908101604052809291908181526020018280546121219061415a565b801561216e5780601f106121435761010080835404028352916020019161216e565b820191906000526020600020905b81548152906001019060200180831161215157829003601f168201915b505050505081526020016002820154815260200160038201548152602001600482015481526020016005820154815260200160068201548152602001600782015481526020016008820154815250508152602001906001019061206b565b50505050905060005b815181111561221b5760008282815181106121f3576121f2615407565b5b602002602001015190506122078185612c4d565b5080806122139061547b565b9150506121d5565b505050565b8173ffffffffffffffffffffffffffffffffffffffff168373ffffffffffffffffffffffffffffffffffffffff16141561228f576040517f08c379a000000000000000000000000000000000000000000000000000000000815260040161228690615510565b60405180910390fd5b80600560008573ffffffffffffffffffffffffffffffffffffffff1673ffffffffffffffffffffffffffffffffffffffff16815260200190815260200160002060008473ffffffffffffffffffffffffffffffffffffffff1673ffffffffffffffffffffffffffffffffffffffff16815260200190815260200160002060006101000a81548160ff0219169083151502179055508173ffffffffffffffffffffffffffffffffffffffff168373ffffffffffffffffffffffffffffffffffffffff167f17307eab39ab6107e8899845ad3d59bd9653f200f220920489ca2b5937696c31836040516123809190613986565b60405180910390a3505050565b612398848484611a52565b6123a484848484612f2e565b6123e3576040517f08c379a00000000000000000000000000000000000000000000000000000000081526004016123da906155a2565b60405180910390fd5b50505050565b606060405180602001604052806000815250905090565b60606000821415612448576040518060400160405280600181526020017f3000000000000000000000000000000000000000000000000000000000000000815250905061255c565b600082905060005b6000821461247a5780806124639061547b565b915050600a82612473919061511e565b9150612450565b60008167ffffffffffffffff81111561249657612495613dd9565b5b6040519080825280601f01601f1916602001820160405280156124c85781602001600182028036833780820191505090505b5090505b60008514612555576001826124e19190614e05565b9150600a856124f091906155c2565b60306124fc9190614371565b60f81b81838151811061251257612511615407565b5b60200101907effffffffffffffffffffffffffffffffffffffffffffffffffffffffffffff1916908160001a905350600a8561254e919061511e565b94506124cc565b8093505050505b919050565b60008360405160200161257491906153ec565b6040516020818303038152906040528051906020012090508460176000601954815260200190815260200160002060000160008282546125b49190614371565b925050819055506017600060195481526020019081526020016000206001016040518060e00160405280886000015173ffffffffffffffffffffffffffffffffffffffff1681526020018381526020018881526020018681526020018581526020018481526020018781525090806001815401808255809150506001900390600052602060002090600f020160009091909190915060008201518160000160006101000a81548173ffffffffffffffffffffffffffffffffffffffff021916908373ffffffffffffffffffffffffffffffffffffffff1602179055506020820151816001015560408201518160020160008201518160000160006101000a81548173ffffffffffffffffffffffffffffffffffffffff021916908373ffffffffffffffffffffffffffffffffffffffff1602179055506020820151816001019080519060200190612706929190613620565b5060408201518160020155606082015181600301556080820151816004015560a0820151816005015560c0820151816006015560e0820151816007015561010082015181600801555050606082015181600b0155608082015181600c015560a082015181600d015560c082015181600e0155505080866000015173ffffffffffffffffffffffffffffffffffffffff167ffca076065dabe926f55da37dd3b41c975bcf1b295bf8ee17d2b212d9b837cff3888787878b6040516127cd9594939291906156f1565b60405180910390a3505050505050565b600081600001549050919050565b6001816000016000828254019250508190555050565b61281b8282604051806020016040528060008152506130c5565b5050565b6000429050600060646018846128359190615095565b61283f919061511e565b90506000818461284f9190614e05565b9050818560e0018181516128639190614371565b9150818152505080856101000181815161287d9190614371565b9150818152505081601560003373ffffffffffffffffffffffffffffffffffffffff1673ffffffffffffffffffffffffffffffffffffffff16815260200190815260200160002060008760c00151815260200190815260200160002060070160008282546128eb9190614371565b9250508190555080601560003373ffffffffffffffffffffffffffffffffffffffff1673ffffffffffffffffffffffffffffffffffffffff16815260200190815260200160002060008760c00151815260200190815260200160002060080160008282546129599190614371565b9250508190555080601460003373ffffffffffffffffffffffffffffffffffffffff1673ffffffffffffffffffffffffffffffffffffffff16815260200190815260200160002060008760c00151815260200190815260200160002060008282546129c49190614371565b9250508190555081601360003373ffffffffffffffffffffffffffffffffffffffff1673ffffffffffffffffffffffffffffffffffffffff16815260200190815260200160002060008760c0015181526020019081526020016000206000828254612a2f9190614371565b92505081905550612bd0601560003373ffffffffffffffffffffffffffffffffffffffff1673ffffffffffffffffffffffffffffffffffffffff16815260200190815260200160002060008760c001518152602001908152602001600020604051806101200160405290816000820160009054906101000a900473ffffffffffffffffffffffffffffffffffffffff1673ffffffffffffffffffffffffffffffffffffffff1673ffffffffffffffffffffffffffffffffffffffff168152602001600182018054612aff9061415a565b80601f0160208091040260200160405190810160405280929190818152602001828054612b2b9061415a565b8015612b785780601f10612b4d57610100808354040283529160200191612b78565b820191906000526020600020905b815481529060010190602001808311612b5b57829003601f168201915b5050505050815260200160028201548152602001600382015481526020016004820154815260200160058201548152602001600682015481526020016007820154815260200160088201548152505085858585612561565b5050505050565b60008073ffffffffffffffffffffffffffffffffffffffff166002600084815260200190815260200160002060009054906101000a900473ffffffffffffffffffffffffffffffffffffffff1673ffffffffffffffffffffffffffffffffffffffff1614159050919050565b505050565b505050565b600042604051602001612c6091906153ec565b604051602081830303815290604052805190602001209050600060136000856000015173ffffffffffffffffffffffffffffffffffffffff1673ffffffffffffffffffffffffffffffffffffffff16815260200190815260200160002060008560c001518152602001908152602001600020549050600060146000866000015173ffffffffffffffffffffffffffffffffffffffff1673ffffffffffffffffffffffffffffffffffffffff16815260200190815260200160002060008660c00151815260200190815260200160002054905060008183612d409190614371565b90506000600c601583612d53919061511e565b612d5d919061511e565b90506000612d6e8860200151613120565b905060006040518060a001604052808a6000015173ffffffffffffffffffffffffffffffffffffffff168152602001848152602001838152602001600081526020018581525090508060800151601860008a81526020019081526020016000206000016000828254612de09190614371565b925050819055508060200151601860008a81526020019081526020016000206001016000828254612e119190614371565b925050819055506018600089815260200190815260200160002060020181908060018154018082558091505060019003906000526020600020906005020160009091909190915060008201518160000160006101000a81548173ffffffffffffffffffffffffffffffffffffffff021916908373ffffffffffffffffffffffffffffffffffffffff16021790555060208201518160010155604082015181600201556060820151816003015560808201518160040155505086896000015173ffffffffffffffffffffffffffffffffffffffff167f7736ee7b2ff59661d3b4d76a02d278cad454edef0efc9f919ef078eea93b25418585600089604051612f1b9493929190615790565b60405180910390a3505050505050505050565b6000612f4f8473ffffffffffffffffffffffffffffffffffffffff16613202565b156130b8578373ffffffffffffffffffffffffffffffffffffffff1663150b7a02612f786118fc565b8786866040518563ffffffff1660e01b8152600401612f9a94939291906157d5565b602060405180830381600087803b158015612fb457600080fd5b505af1925050508015612fe557506040513d601f19601f82011682018060405250810190612fe29190615836565b60015b613068573d8060008114613015576040519150601f19603f3d011682016040523d82523d6000602084013e61301a565b606091505b50600081511415613060576040517f08c379a0000000000000000000000000000000000000000000000000000000008152600401613057906155a2565b60405180910390fd5b805181602001fd5b63150b7a0260e01b7bffffffffffffffffffffffffffffffffffffffffffffffffffffffff1916817bffffffffffffffffffffffffffffffffffffffffffffffffffffffff1916149150506130bd565b600190505b949350505050565b6130cf8383613225565b6130dc6000848484612f2e565b61311b576040517f08c379a0000000000000000000000000000000000000000000000000000000008152600401613112906155a2565b60405180910390fd5b505050565b6000613161826040518060400160405280600481526020017f6d616c65000000000000000000000000000000000000000000000000000000008152506133ff565b1561318d57600c6372a94580639fc6198061317c9190614e05565b613186919061511e565b90506131fd565b6131cc826040518060400160405280600681526020017f66656d616c6500000000000000000000000000000000000000000000000000008152506133ff565b156131f857600c6372a9458063966018006131e79190614e05565b6131f1919061511e565b90506131fd565b600090505b919050565b6000808273ffffffffffffffffffffffffffffffffffffffff163b119050919050565b600073ffffffffffffffffffffffffffffffffffffffff168273ffffffffffffffffffffffffffffffffffffffff161415613295576040517f08c379a000000000000000000000000000000000000000000000000000000000815260040161328c906158af565b60405180910390fd5b61329e81612bd7565b156132de576040517f08c379a00000000000000000000000000000000000000000000000000000000081526004016132d59061591b565b60405180910390fd5b6132ea60008383612c43565b6001600360008473ffffffffffffffffffffffffffffffffffffffff1673ffffffffffffffffffffffffffffffffffffffff168152602001908152602001600020600082825461333a9190614371565b92505081905550816002600083815260200190815260200160002060006101000a81548173ffffffffffffffffffffffffffffffffffffffff021916908373ffffffffffffffffffffffffffffffffffffffff160217905550808273ffffffffffffffffffffffffffffffffffffffff16600073ffffffffffffffffffffffffffffffffffffffff167fddf252ad1be2c89b69c2b068fc378daa952ba7f163c4a11628f55a4df523b3ef60405160405180910390a46133fb60008383612c48565b5050565b600081604051602001613412919061593b565b6040516020818303038152906040528051906020012083604051602001613439919061593b565b6040516020818303038152906040528051906020012014905092915050565b82805482825590600052602060002090600f02810192821561360f57600052602060002091600f0282015b8281111561360e5782826000820160009054906101000a900473ffffffffffffffffffffffffffffffffffffffff168160000160006101000a81548173ffffffffffffffffffffffffffffffffffffffff021916908373ffffffffffffffffffffffffffffffffffffffff1602179055506001820154816001015560028201816002016000820160009054906101000a900473ffffffffffffffffffffffffffffffffffffffff168160000160006101000a81548173ffffffffffffffffffffffffffffffffffffffff021916908373ffffffffffffffffffffffffffffffffffffffff16021790555060018201816001019080546135819061415a565b61358c92919061370c565b50600282015481600201556003820154816003015560048201548160040155600582015481600501556006820154816006015560078201548160070155600882015481600801555050600b82015481600b0155600c82015481600c0155600d82015481600d0155600e82015481600e0155505091600f019190600f0190613483565b5b50905061361c9190613799565b5090565b82805461362c9061415a565b90600052602060002090601f01602090048101928261364e5760008555613695565b82601f1061366757805160ff1916838001178555613695565b82800160010185558215613695579182015b82811115613694578251825591602001919060010190613679565b5b5090506136a29190613875565b5090565b6040518060a00160405280600073ffffffffffffffffffffffffffffffffffffffff168152602001600081526020016000815260200160008152602001600081525090565b60405180606001604052806000815260200160008152602001606081525090565b8280546137189061415a565b90600052602060002090601f01602090048101928261373a5760008555613788565b82601f1061374b5780548555613788565b8280016001018555821561378857600052602060002091601f016020900482015b8281111561378757825482559160010191906001019061376c565b5b5090506137959190613875565b5090565b5b8082111561387157600080820160006101000a81549073ffffffffffffffffffffffffffffffffffffffff0219169055600182016000905560028201600080820160006101000a81549073ffffffffffffffffffffffffffffffffffffffff021916905560018201600061380e9190613892565b60028201600090556003820160009055600482016000905560058201600090556006820160009055600782016000905560088201600090555050600b820160009055600c820160009055600d820160009055600e82016000905550600f0161379a565b5090565b5b8082111561388e576000816000905550600101613876565b5090565b50805461389e9061415a565b6000825580601f106138b057506138cf565b601f0160209004906000526020600020908101906138ce9190613875565b5b50565b6000604051905090565b600080fd5b600080fd5b60007fffffffff0000000000000000000000000000000000000000000000000000000082169050919050565b61391b816138e6565b811461392657600080fd5b50565b60008135905061393881613912565b92915050565b600060208284031215613954576139536138dc565b5b600061396284828501613929565b91505092915050565b60008115159050919050565b6139808161396b565b82525050565b600060208201905061399b6000830184613977565b92915050565b600081519050919050565b600082825260208201905092915050565b60005b838110156139db5780820151818401526020810190506139c0565b838111156139ea576000848401525b50505050565b6000601f19601f8301169050919050565b6000613a0c826139a1565b613a1681856139ac565b9350613a268185602086016139bd565b613a2f816139f0565b840191505092915050565b60006020820190508181036000830152613a548184613a01565b905092915050565b6000819050919050565b613a6f81613a5c565b8114613a7a57600080fd5b50565b600081359050613a8c81613a66565b92915050565b600060208284031215613aa857613aa76138dc565b5b6000613ab684828501613a7d565b91505092915050565b600073ffffffffffffffffffffffffffffffffffffffff82169050919050565b6000613aea82613abf565b9050919050565b613afa81613adf565b82525050565b6000602082019050613b156000830184613af1565b92915050565b613b2481613adf565b8114613b2f57600080fd5b50565b600081359050613b4181613b1b565b92915050565b60008060408385031215613b5e57613b5d6138dc565b5b6000613b6c85828601613b32565b9250506020613b7d85828601613a7d565b9150509250929050565b600080600060608486031215613ba057613b9f6138dc565b5b6000613bae86828701613b32565b9350506020613bbf86828701613b32565b9250506040613bd086828701613a7d565b9150509250925092565b600080fd5b600080fd5b600080fd5b60008083601f840112613bff57613bfe613bda565b5b8235905067ffffffffffffffff811115613c1c57613c1b613bdf565b5b602083019150836001820283011115613c3857613c37613be4565b5b9250929050565b60008060208385031215613c5657613c556138dc565b5b600083013567ffffffffffffffff811115613c7457613c736138e1565b5b613c8085828601613be9565b92509250509250929050565b600060208284031215613ca257613ca16138dc565b5b6000613cb084828501613b32565b91505092915050565b600081519050919050565b600082825260208201905092915050565b6000613ce082613cb9565b613cea8185613cc4565b9350613cfa8185602086016139bd565b613d03816139f0565b840191505092915050565b6000604082019050613d236000830185613977565b8181036020830152613d358184613cd5565b90509392505050565b613d4781613a5c565b82525050565b6000602082019050613d626000830184613d3e565b92915050565b613d718161396b565b8114613d7c57600080fd5b50565b600081359050613d8e81613d68565b92915050565b60008060408385031215613dab57613daa6138dc565b5b6000613db985828601613b32565b9250506020613dca85828601613d7f565b9150509250929050565b600080fd5b7f4e487b7100000000000000000000000000000000000000000000000000000000600052604160045260246000fd5b613e11826139f0565b810181811067ffffffffffffffff82111715613e3057613e2f613dd9565b5b80604052505050565b6000613e436138d2565b9050613e4f8282613e08565b919050565b600067ffffffffffffffff821115613e6f57613e6e613dd9565b5b613e78826139f0565b9050602081019050919050565b82818337600083830152505050565b6000613ea7613ea284613e54565b613e39565b905082815260208101848484011115613ec357613ec2613dd4565b5b613ece848285613e85565b509392505050565b600082601f830112613eeb57613eea613bda565b5b8135613efb848260208601613e94565b91505092915050565b60008060008060808587031215613f1e57613f1d6138dc565b5b6000613f2c87828801613b32565b9450506020613f3d87828801613b32565b9350506040613f4e87828801613a7d565b925050606085013567ffffffffffffffff811115613f6f57613f6e6138e1565b5b613f7b87828801613ed6565b91505092959194509250565b60008060408385031215613f9e57613f9d6138dc565b5b6000613fac85828601613b32565b9250506020613fbd85828601613b32565b9150509250929050565b60008060408385031215613fde57613fdd6138dc565b5b6000613fec85828601613a7d565b9250506020613ffd85828601613a7d565b9150509250929050565b600067ffffffffffffffff82111561402257614021613dd9565b5b61402b826139f0565b9050602081019050919050565b600061404b61404684614007565b613e39565b90508281526020810184848401111561406757614066613dd4565b5b614072848285613e85565b509392505050565b600082601f83011261408f5761408e613bda565b5b813561409f848260208601614038565b91505092915050565b600080600080608085870312156140c2576140c16138dc565b5b600085013567ffffffffffffffff8111156140e0576140df6138e1565b5b6140ec8782880161407a565b94505060206140fd87828801613a7d565b935050604061410e87828801613a7d565b925050606061411f87828801613a7d565b91505092959194509250565b7f4e487b7100000000000000000000000000000000000000000000000000000000600052602260045260246000fd5b6000600282049050600182168061417257607f821691505b602082108114156141865761418561412b565b5b50919050565b7f4552433732313a20617070726f76616c20746f2063757272656e74206f776e6560008201527f7200000000000000000000000000000000000000000000000000000000000000602082015250565b60006141e86021836139ac565b91506141f38261418c565b604082019050919050565b60006020820190508181036000830152614217816141db565b9050919050565b7f4552433732313a20617070726f76652063616c6c6572206973206e6f7420746f60008201527f6b656e206f776e6572206e6f7220617070726f76656420666f7220616c6c0000602082015250565b600061427a603e836139ac565b91506142858261421e565b604082019050919050565b600060208201905081810360008301526142a98161426d565b9050919050565b7f4552433732313a2063616c6c6572206973206e6f7420746f6b656e206f776e6560008201527f72206e6f7220617070726f766564000000000000000000000000000000000000602082015250565b600061430c602e836139ac565b9150614317826142b0565b604082019050919050565b6000602082019050818103600083015261433b816142ff565b9050919050565b7f4e487b7100000000000000000000000000000000000000000000000000000000600052601160045260246000fd5b600061437c82613a5c565b915061438783613a5c565b9250827fffffffffffffffffffffffffffffffffffffffffffffffffffffffffffffffff038211156143bc576143bb614342565b5b828201905092915050565b6000819050919050565b60006143dc826143c7565b91506143e7836143c7565b9250827f80000000000000000000000000000000000000000000000000000000000000000182126000841215161561442257614421614342565b5b827f7fffffffffffffffffffffffffffffffffffffffffffffffffffffffffffffff01821360008412161561445a57614459614342565b5b828203905092915050565b6000614470826143c7565b91507f80000000000000000000000000000000000000000000000000000000000000008214156144a3576144a2614342565b5b816000039050919050565b60006144b9826143c7565b91506144c4836143c7565b9250817f7fffffffffffffffffffffffffffffffffffffffffffffffffffffffffffffff038313600083121516156144ff576144fe614342565b5b817f800000000000000000000000000000000000000000000000000000000000000003831260008312161561453757614536614342565b5b828201905092915050565b60008160001c9050919050565b6000819050919050565b600061456c61456783614542565b61454f565b9050919050565b61457c816143c7565b82525050565b6000819050919050565b600061459f61459a83614542565b614582565b9050919050565b6145af81613a5c565b82525050565b600081549050919050565b600082825260208201905092915050565b60008190508160005260206000209050919050565b600081549050919050565b600082825260208201905092915050565b60008190508160005260206000209050919050565b600073ffffffffffffffffffffffffffffffffffffffff82169050919050565b600061464a61464583614542565b614617565b9050919050565b600061465c82613abf565b9050919050565b61466c81614651565b82525050565b60a08201600080830154905061468781614637565b6146946000860182614663565b50600183015490506146a58161458c565b6146b260208601826145a6565b50600283015490506146c38161458c565b6146d060408601826145a6565b50600383015490506146e18161458c565b6146ee60608601826145a6565b50600483015490506146ff8161458c565b61470c60808601826145a6565b5050505050565b600061471f8383614672565b60a08301905092915050565b6000600582019050919050565b6000614743826145e6565b61474d81856145f1565b935061475883614602565b8060005b83811015614788578161476f8882614713565b975061477a8361472b565b92505060018101905061475c565b5085935050505092915050565b60006060830160008084015490506147ac8161458c565b6147b960008701826145a6565b50600184015490506147ca8161458c565b6147d760208701826145a6565b506002840185830360408701526147ee8382614738565b925050819250505092915050565b60006148088383614795565b905092915050565b6000600382019050919050565b6000614828826145b5565b61483281856145c0565b935083602082028501614844856145d1565b8060005b8581101561487f5784840389528161486085826147fc565b945061486b83614810565b925060208a01995050600181019050614848565b50829750879550505050505092915050565b600081549050919050565b600082825260208201905092915050565b60008190508160005260206000209050919050565b600081549050919050565b600082825260208201905092915050565b60008190508160005260206000209050919050565b6000819050919050565b600061491061490b83614542565b6148f3565b9050919050565b6000819050919050565b61492a81614917565b82525050565b600082825260208201905092915050565b60008190508160005260206000209050919050565b600081546149638161415a565b61496d8186614930565b94506001821660008114614988576001811461499a576149cd565b60ff19831686526020860193506149cd565b6149a385614941565b60005b838110156149c5578154818901526001820191506020810190506149a6565b808801955050505b50505092915050565b6000610120830160008084015490506149ee81614637565b6149fb6000870182614663565b50600184018583036020870152614a128382614956565b92505060028401549050614a258161458c565b614a3260408701826145a6565b5060038401549050614a438161458c565b614a5060608701826145a6565b5060048401549050614a618161458c565b614a6e60808701826145a6565b5060058401549050614a7f8161458c565b614a8c60a08701826145a6565b5060068401549050614a9d8161458c565b614aaa60c08701826145a6565b5060078401549050614abb8161458c565b614ac860e08701826145a6565b5060088401549050614ad98161458c565b614ae76101008701826145a6565b50819250505092915050565b600060e083016000808401549050614b0a81614637565b614b176000870182614663565b5060018401549050614b28816148fd565b614b356020870182614921565b50600284018583036040870152614b4c83826149d6565b925050600b8401549050614b5f8161458c565b614b6c60608701826145a6565b50600c8401549050614b7d8161458c565b614b8a60808701826145a6565b50600d8401549050614b9b8161458c565b614ba860a08701826145a6565b50600e8401549050614bb98161458c565b614bc660c08701826145a6565b50819250505092915050565b6000614bde8383614af3565b905092915050565b6000600f82019050919050565b6000614bfe826148c2565b614c0881856148cd565b935083602082028501614c1a856148de565b8060005b85811015614c5557848403895281614c368582614bd2565b9450614c4183614be6565b925060208a01995050600181019050614c1e565b50829750879550505050505092915050565b6000604083016000808401549050614c7e8161458c565b614c8b60008701826145a6565b50600184018583036020870152614ca28382614bf3565b925050819250505092915050565b6000614cbc8383614c67565b905092915050565b6000600282019050919050565b6000614cdc82614891565b614ce6818561489c565b935083602082028501614cf8856148ad565b8060005b85811015614d3357848403895281614d148582614cb0565b9450614d1f83614cc4565b925060208a01995050600181019050614cfc565b50829750879550505050505092915050565b600060a083016000808401549050614d5c81614559565b614d696000870182614573565b5060018401549050614d7a8161458c565b614d8760208701826145a6565b5060028401549050614d988161458c565b614da560408701826145a6565b50600384018583036060870152614dbc838261481d565b925050600484018583036080870152614dd58382614cd1565b925050819250505092915050565b60006020820190508181036000830152614dfd8184614d45565b905092915050565b6000614e1082613a5c565b9150614e1b83613a5c565b925082821015614e2e57614e2d614342565b5b828203905092915050565b7f4552433732313a20696e76616c696420746f6b656e2049440000000000000000600082015250565b6000614e6f6018836139ac565b9150614e7a82614e39565b602082019050919050565b60006020820190508181036000830152614e9e81614e62565b9050919050565b7f4552433732313a2061646472657373207a65726f206973206e6f74206120766160008201527f6c6964206f776e65720000000000000000000000000000000000000000000000602082015250565b6000614f016029836139ac565b9150614f0c82614ea5565b604082019050919050565b60006020820190508181036000830152614f3081614ef4565b9050919050565b600081905092915050565b6000614f4d826139a1565b614f578185614f37565b9350614f678185602086016139bd565b80840191505092915050565b6000614f7f8285614f42565b9150614f8b8284614f42565b91508190509392505050565b7f596f7520646f6e2774206f776e20746869732070656e73696f6e000000000000600082015250565b6000614fcd601a836139ac565b9150614fd882614f97565b602082019050919050565b60006020820190508181036000830152614ffc81614fc0565b9050919050565b7f54686520616d6f756e7420646f65736e277420726561636820746865206d696e60008201527f696d756d20726571756972656400000000000000000000000000000000000000602082015250565b600061505f602d836139ac565b915061506a82615003565b604082019050919050565b6000602082019050818103600083015261508e81615052565b9050919050565b60006150a082613a5c565b91506150ab83613a5c565b9250817fffffffffffffffffffffffffffffffffffffffffffffffffffffffffffffffff04831182151516156150e4576150e3614342565b5b828202905092915050565b7f4e487b7100000000000000000000000000000000000000000000000000000000600052601260045260246000fd5b600061512982613a5c565b915061513483613a5c565b925082615144576151436150ef565b5b828204905092915050565b7f416c72656164792067656e657261746564206869732070656e73696f6e000000600082015250565b6000615185601d836139ac565b91506151908261514f565b602082019050919050565b600060208201905081810360008301526151b481615178565b9050919050565b7f596f75206d757374206265203138207965617273206f72206f6c64657220746f60008201527f2067656e657261746520612070656e73696f6e00000000000000000000000000602082015250565b60006152176033836139ac565b9150615222826151bb565b604082019050919050565b600060208201905081810360008301526152468161520a565b9050919050565b600060a08201905081810360008301526152678188613a01565b90506152766020830187613d3e565b6152836040830186613d3e565b6152906060830185613d3e565b61529d6080830184613d3e565b9695505050505050565b7f4552433732313a207472616e736665722066726f6d20696e636f72726563742060008201527f6f776e6572000000000000000000000000000000000000000000000000000000602082015250565b60006153036025836139ac565b915061530e826152a7565b604082019050919050565b60006020820190508181036000830152615332816152f6565b9050919050565b7f4552433732313a207472616e7366657220746f20746865207a65726f2061646460008201527f7265737300000000000000000000000000000000000000000000000000000000602082015250565b60006153956024836139ac565b91506153a082615339565b604082019050919050565b600060208201905081810360008301526153c481615388565b9050919050565b6000819050919050565b6153e66153e182613a5c565b6153cb565b82525050565b60006153f882846153d5565b60208201915081905092915050565b7f4e487b7100000000000000000000000000000000000000000000000000000000600052603260045260246000fd5b600060808201905061544b6000830187613d3e565b6154586020830186613d3e565b6154656040830185613d3e565b6154726060830184613d3e565b95945050505050565b600061548682613a5c565b91507fffffffffffffffffffffffffffffffffffffffffffffffffffffffffffffffff8214156154b9576154b8614342565b5b600182019050919050565b7f4552433732313a20617070726f766520746f2063616c6c657200000000000000600082015250565b60006154fa6019836139ac565b9150615505826154c4565b602082019050919050565b60006020820190508181036000830152615529816154ed565b9050919050565b7f4552433732313a207472616e7366657220746f206e6f6e20455243373231526560008201527f63656976657220696d706c656d656e7465720000000000000000000000000000602082015250565b600061558c6032836139ac565b915061559782615530565b604082019050919050565b600060208201905081810360008301526155bb8161557f565b9050919050565b60006155cd82613a5c565b91506155d883613a5c565b9250826155e8576155e76150ef565b5b828206905092915050565b60006155fe826139a1565b6156088185614930565b93506156188185602086016139bd565b615621816139f0565b840191505092915050565b6000610120830160008301516156456000860182614663565b506020830151848203602086015261565d82826155f3565b915050604083015161567260408601826145a6565b50606083015161568560608601826145a6565b50608083015161569860808601826145a6565b5060a08301516156ab60a08601826145a6565b5060c08301516156be60c08601826145a6565b5060e08301516156d160e08601826145a6565b506101008301516156e66101008601826145a6565b508091505092915050565b600060a082019050818103600083015261570b818861562c565b905061571a6020830187613d3e565b6157276040830186613d3e565b6157346060830185613d3e565b6157416080830184613d3e565b9695505050505050565b6000819050919050565b6000819050919050565b600061577a6157756157708461574b565b615755565b613a5c565b9050919050565b61578a8161575f565b82525050565b60006080820190506157a56000830187613d3e565b6157b26020830186613d3e565b6157bf6040830185615781565b6157cc6060830184613d3e565b95945050505050565b60006080820190506157ea6000830187613af1565b6157f76020830186613af1565b6158046040830185613d3e565b81810360608301526158168184613cd5565b905095945050505050565b60008151905061583081613912565b92915050565b60006020828403121561584c5761584b6138dc565b5b600061585a84828501615821565b91505092915050565b7f4552433732313a206d696e7420746f20746865207a65726f2061646472657373600082015250565b60006158996020836139ac565b91506158a482615863565b602082019050919050565b600060208201905081810360008301526158c88161588c565b9050919050565b7f4552433732313a20746f6b656e20616c7265616479206d696e74656400000000600082015250565b6000615905601c836139ac565b9150615910826158cf565b602082019050919050565b60006020820190508181036000830152615934816158f8565b9050919050565b60006159478284614f42565b91508190509291505056fea264697066735822122089ae9cbb01ad8327492812fd85d35e06d77c4cdd62e08846542b25aae3d7713064736f6c63430008090033",
  "linkReferences": {},
  "deployedLinkReferences": {}
}