{
  "_format": "hh-sol-artifact-1",
  "contractName": "Pension",
  "sourceName": "src/blockchain/hardhat/contracts/Pension.sol",
  "abi": [
    {
      "inputs": [],
      "stateMutability": "nonpayable",
      "type": "constructor"
    },
    {
      "anonymous": false,
      "inputs": [
        {
          "indexed": true,
          "internalType": "address",
          "name": "owner",
          "type": "address"
        },
        {
          "indexed": true,
          "internalType": "address",
          "name": "approved",
          "type": "address"
        },
        {
          "indexed": true,
          "internalType": "uint256",
          "name": "tokenId",
          "type": "uint256"
        }
      ],
      "name": "Approval",
      "type": "event"
    },
    {
      "anonymous": false,
      "inputs": [
        {
          "indexed": true,
          "internalType": "address",
          "name": "owner",
          "type": "address"
        },
        {
          "indexed": true,
          "internalType": "address",
          "name": "operator",
          "type": "address"
        },
        {
          "indexed": false,
          "internalType": "bool",
          "name": "approved",
          "type": "bool"
        }
      ],
      "name": "ApprovalForAll",
      "type": "event"
    },
    {
      "anonymous": false,
      "inputs": [
        {
          "indexed": true,
          "internalType": "address",
          "name": "from",
          "type": "address"
        },
        {
          "indexed": true,
          "internalType": "address",
          "name": "to",
          "type": "address"
        },
        {
          "indexed": true,
          "internalType": "uint256",
          "name": "tokenId",
          "type": "uint256"
        }
      ],
      "name": "Transfer",
      "type": "event"
    },
    {
      "anonymous": false,
      "inputs": [
        {
          "indexed": false,
          "internalType": "address",
          "name": "contributorAddress",
          "type": "address"
        },
        {
          "indexed": false,
          "internalType": "uint256",
          "name": "contributorAmount",
          "type": "uint256"
        },
        {
          "indexed": false,
          "internalType": "uint256",
          "name": "timeDeposit",
          "type": "uint256"
        }
      ],
      "name": "depositContributor",
      "type": "event"
    },
    {
      "inputs": [
        {
          "internalType": "address",
          "name": "to",
          "type": "address"
        },
        {
          "internalType": "uint256",
          "name": "tokenId",
          "type": "uint256"
        }
      ],
      "name": "approve",
      "outputs": [],
      "stateMutability": "nonpayable",
      "type": "function"
    },
    {
      "inputs": [
        {
          "internalType": "address",
          "name": "owner",
          "type": "address"
        }
      ],
      "name": "balanceOf",
      "outputs": [
        {
          "internalType": "uint256",
          "name": "",
          "type": "uint256"
        }
      ],
      "stateMutability": "view",
      "type": "function"
    },
    {
      "inputs": [
        {
          "internalType": "bytes",
          "name": "",
          "type": "bytes"
        }
      ],
      "name": "checkUpkeep",
      "outputs": [
        {
          "internalType": "bool",
          "name": "upkeepNeeded",
          "type": "bool"
        },
        {
          "internalType": "bytes",
          "name": "",
          "type": "bytes"
        }
      ],
      "stateMutability": "view",
      "type": "function"
    },
    {
      "inputs": [],
      "name": "cutoffDate",
      "outputs": [
        {
          "internalType": "uint256",
          "name": "",
          "type": "uint256"
        }
      ],
      "stateMutability": "view",
      "type": "function"
    },
    {
      "inputs": [
        {
          "internalType": "uint256",
          "name": "_pensionId",
          "type": "uint256"
        },
        {
          "internalType": "uint256",
          "name": "_amount",
          "type": "uint256"
        }
      ],
      "name": "depositAmount",
      "outputs": [],
      "stateMutability": "payable",
      "type": "function"
    },
    {
      "inputs": [
        {
          "internalType": "uint256",
          "name": "tokenId",
          "type": "uint256"
        }
      ],
      "name": "getApproved",
      "outputs": [
        {
          "internalType": "address",
          "name": "",
          "type": "address"
        }
      ],
      "stateMutability": "view",
      "type": "function"
    },
    {
      "inputs": [],
      "name": "getGeneralRecord",
      "outputs": [
        {
          "components": [
            {
              "internalType": "int256",
              "name": "solvent",
              "type": "int256"
            },
            {
              "internalType": "uint256",
              "name": "totalAmount",
              "type": "uint256"
            },
            {
              "internalType": "uint256",
              "name": "totalToPay",
              "type": "uint256"
            },
            {
              "components": [
                {
                  "internalType": "uint256",
                  "name": "totalAmount",
                  "type": "uint256"
                },
                {
                  "internalType": "uint256",
                  "name": "totalToPay",
                  "type": "uint256"
                },
                {
                  "components": [
                    {
                      "internalType": "address payable",
                      "name": "owner",
                      "type": "address"
                    },
                    {
                      "internalType": "uint256",
                      "name": "monthlyQuote",
                      "type": "uint256"
                    },
                    {
                      "internalType": "uint256",
                      "name": "quantityQuotes",
                      "type": "uint256"
                    },
                    {
                      "internalType": "uint256",
                      "name": "totalPaidQuotes",
                      "type": "uint256"
                    },
                    {
                      "internalType": "uint256",
                      "name": "totalPensionValue",
                      "type": "uint256"
                    }
                  ],
                  "internalType": "struct Pension.RetairedQuote[]",
                  "name": "retairedQuotes",
                  "type": "tuple[]"
                }
              ],
              "internalType": "struct Pension.RetairedRecord[]",
              "name": "retairedRecords",
              "type": "tuple[]"
            },
            {
              "components": [
                {
                  "internalType": "uint256",
                  "name": "totalAmount",
                  "type": "uint256"
                },
                {
                  "components": [
                    {
                      "internalType": "address payable",
                      "name": "owner",
                      "type": "address"
                    },
                    {
                      "internalType": "bytes32",
                      "name": "id",
                      "type": "bytes32"
                    },
                    {
                      "components": [
                        {
                          "internalType": "address payable",
                          "name": "owner",
                          "type": "address"
                        },
                        {
                          "internalType": "string",
                          "name": "biologySex",
                          "type": "string"
                        },
                        {
                          "internalType": "uint256",
                          "name": "age",
                          "type": "uint256"
                        },
                        {
                          "internalType": "uint256",
                          "name": "bornAge",
                          "type": "uint256"
                        },
                        {
                          "internalType": "uint256",
                          "name": "retirentmentDate",
                          "type": "uint256"
                        },
                        {
                          "internalType": "uint256",
                          "name": "pensionCreatedTime",
                          "type": "uint256"
                        },
                        {
                          "internalType": "uint256",
                          "name": "pensionId",
                          "type": "uint256"
                        },
                        {
                          "internalType": "uint256",
                          "name": "totalSavings",
                          "type": "uint256"
                        },
                        {
                          "internalType": "uint256",
                          "name": "totalSolidary",
                          "type": "uint256"
                        }
                      ],
                      "internalType": "struct Pension.DataPension",
                      "name": "dataPension",
                      "type": "tuple"
                    },
                    {
                      "internalType": "uint256",
                      "name": "contributionDate",
                      "type": "uint256"
                    },
                    {
                      "internalType": "uint256",
                      "name": "savingAmount",
                      "type": "uint256"
                    },
                    {
                      "internalType": "uint256",
                      "name": "solidaryAmount",
                      "type": "uint256"
                    },
                    {
                      "internalType": "uint256",
                      "name": "totalAmount",
                      "type": "uint256"
                    }
                  ],
                  "internalType": "struct Pension.MonthlyQuote[]",
                  "name": "monthlyQuotes",
                  "type": "tuple[]"
                }
              ],
              "internalType": "struct Pension.MonthlyRecord[]",
              "name": "monthlyRecords",
              "type": "tuple[]"
            }
          ],
          "internalType": "struct Pension.GeneralRecord",
          "name": "",
          "type": "tuple"
        }
      ],
      "stateMutability": "view",
      "type": "function"
    },
    {
      "inputs": [
        {
          "internalType": "uint256",
          "name": "_cutoffDate",
          "type": "uint256"
        }
      ],
      "name": "getMonthlyBalanceFromMonthlyGeneralBalance",
      "outputs": [
        {
          "components": [
            {
              "internalType": "uint256",
              "name": "totalAmount",
              "type": "uint256"
            },
            {
              "components": [
                {
                  "internalType": "address payable",
                  "name": "owner",
                  "type": "address"
                },
                {
                  "internalType": "bytes32",
                  "name": "id",
                  "type": "bytes32"
                },
                {
                  "components": [
                    {
                      "internalType": "address payable",
                      "name": "owner",
                      "type": "address"
                    },
                    {
                      "internalType": "string",
                      "name": "biologySex",
                      "type": "string"
                    },
                    {
                      "internalType": "uint256",
                      "name": "age",
                      "type": "uint256"
                    },
                    {
                      "internalType": "uint256",
                      "name": "bornAge",
                      "type": "uint256"
                    },
                    {
                      "internalType": "uint256",
                      "name": "retirentmentDate",
                      "type": "uint256"
                    },
                    {
                      "internalType": "uint256",
                      "name": "pensionCreatedTime",
                      "type": "uint256"
                    },
                    {
                      "internalType": "uint256",
                      "name": "pensionId",
                      "type": "uint256"
                    },
                    {
                      "internalType": "uint256",
                      "name": "totalSavings",
                      "type": "uint256"
                    },
                    {
                      "internalType": "uint256",
                      "name": "totalSolidary",
                      "type": "uint256"
                    }
                  ],
                  "internalType": "struct Pension.DataPension",
                  "name": "dataPension",
                  "type": "tuple"
                },
                {
                  "internalType": "uint256",
                  "name": "contributionDate",
                  "type": "uint256"
                },
                {
                  "internalType": "uint256",
                  "name": "savingAmount",
                  "type": "uint256"
                },
                {
                  "internalType": "uint256",
                  "name": "solidaryAmount",
                  "type": "uint256"
                },
                {
                  "internalType": "uint256",
                  "name": "totalAmount",
                  "type": "uint256"
                }
              ],
              "internalType": "struct Pension.MonthlyQuote[]",
              "name": "monthlyQuotes",
              "type": "tuple[]"
            }
          ],
          "internalType": "struct Pension.MonthlyRecord",
          "name": "",
          "type": "tuple"
        }
      ],
      "stateMutability": "view",
      "type": "function"
    },
    {
      "inputs": [
        {
          "internalType": "uint256",
          "name": "_pensionId",
          "type": "uint256"
        }
      ],
      "name": "getOwnerPensionsBalance",
      "outputs": [
        {
          "components": [
            {
              "internalType": "address payable",
              "name": "owner",
              "type": "address"
            },
            {
              "internalType": "string",
              "name": "biologySex",
              "type": "string"
            },
            {
              "internalType": "uint256",
              "name": "age",
              "type": "uint256"
            },
            {
              "internalType": "uint256",
              "name": "bornAge",
              "type": "uint256"
            },
            {
              "internalType": "uint256",
              "name": "retirentmentDate",
              "type": "uint256"
            },
            {
              "internalType": "uint256",
              "name": "pensionCreatedTime",
              "type": "uint256"
            },
            {
              "internalType": "uint256",
              "name": "pensionId",
              "type": "uint256"
            },
            {
              "internalType": "uint256",
              "name": "totalSavings",
              "type": "uint256"
            },
            {
              "internalType": "uint256",
              "name": "totalSolidary",
              "type": "uint256"
            }
          ],
          "internalType": "struct Pension.DataPension",
          "name": "",
          "type": "tuple"
        }
      ],
      "stateMutability": "view",
      "type": "function"
    },
    {
      "inputs": [
        {
          "internalType": "address",
          "name": "owner",
          "type": "address"
        },
        {
          "internalType": "address",
          "name": "operator",
          "type": "address"
        }
      ],
      "name": "isApprovedForAll",
      "outputs": [
        {
          "internalType": "bool",
          "name": "",
          "type": "bool"
        }
      ],
      "stateMutability": "view",
      "type": "function"
    },
    {
      "inputs": [],
      "name": "name",
      "outputs": [
        {
          "internalType": "string",
          "name": "",
          "type": "string"
        }
      ],
      "stateMutability": "view",
      "type": "function"
    },
    {
      "inputs": [
        {
          "internalType": "uint256",
          "name": "tokenId",
          "type": "uint256"
        }
      ],
      "name": "ownerOf",
      "outputs": [
        {
          "internalType": "address",
          "name": "",
          "type": "address"
        }
      ],
      "stateMutability": "view",
      "type": "function"
    },
    {
      "inputs": [],
      "name": "pensionIdCounter",
      "outputs": [
        {
          "internalType": "uint256",
          "name": "_value",
          "type": "uint256"
        }
      ],
      "stateMutability": "view",
      "type": "function"
    },
    {
      "inputs": [
        {
          "internalType": "bytes",
          "name": "",
          "type": "bytes"
        }
      ],
      "name": "performUpkeep",
      "outputs": [],
      "stateMutability": "nonpayable",
      "type": "function"
    },
    {
      "inputs": [],
      "name": "retirentmentAge",
      "outputs": [
        {
          "internalType": "uint256",
          "name": "",
          "type": "uint256"
        }
      ],
      "stateMutability": "view",
      "type": "function"
    },
    {
      "inputs": [
        {
          "internalType": "string",
          "name": "_biologySex",
          "type": "string"
        },
        {
          "internalType": "uint256",
          "name": "_age",
          "type": "uint256"
        },
        {
          "internalType": "uint256",
          "name": "_bornAge",
          "type": "uint256"
        },
        {
          "internalType": "uint256",
          "name": "_firstQuote",
          "type": "uint256"
        }
      ],
      "name": "safeMint",
      "outputs": [],
      "stateMutability": "payable",
      "type": "function"
    },
    {
      "inputs": [
        {
          "internalType": "address",
          "name": "from",
          "type": "address"
        },
        {
          "internalType": "address",
          "name": "to",
          "type": "address"
        },
        {
          "internalType": "uint256",
          "name": "tokenId",
          "type": "uint256"
        }
      ],
      "name": "safeTransferFrom",
      "outputs": [],
      "stateMutability": "nonpayable",
      "type": "function"
    },
    {
      "inputs": [
        {
          "internalType": "address",
          "name": "from",
          "type": "address"
        },
        {
          "internalType": "address",
          "name": "to",
          "type": "address"
        },
        {
          "internalType": "uint256",
          "name": "tokenId",
          "type": "uint256"
        },
        {
          "internalType": "bytes",
          "name": "data",
          "type": "bytes"
        }
      ],
      "name": "safeTransferFrom",
      "outputs": [],
      "stateMutability": "nonpayable",
      "type": "function"
    },
    {
      "inputs": [
        {
          "internalType": "address",
          "name": "operator",
          "type": "address"
        },
        {
          "internalType": "bool",
          "name": "approved",
          "type": "bool"
        }
      ],
      "name": "setApprovalForAll",
      "outputs": [],
      "stateMutability": "nonpayable",
      "type": "function"
    },
    {
      "inputs": [
        {
          "internalType": "bytes4",
          "name": "interfaceId",
          "type": "bytes4"
        }
      ],
      "name": "supportsInterface",
      "outputs": [
        {
          "internalType": "bool",
          "name": "",
          "type": "bool"
        }
      ],
      "stateMutability": "view",
      "type": "function"
    },
    {
      "inputs": [],
      "name": "symbol",
      "outputs": [
        {
          "internalType": "string",
          "name": "",
          "type": "string"
        }
      ],
      "stateMutability": "view",
      "type": "function"
    },
    {
      "inputs": [
        {
          "internalType": "uint256",
          "name": "tokenId",
          "type": "uint256"
        }
      ],
      "name": "tokenURI",
      "outputs": [
        {
          "internalType": "string",
          "name": "",
          "type": "string"
        }
      ],
      "stateMutability": "view",
      "type": "function"
    },
    {
      "inputs": [],
      "name": "totalAsserts",
      "outputs": [
        {
          "internalType": "uint256",
          "name": "",
          "type": "uint256"
        }
      ],
      "stateMutability": "view",
      "type": "function"
    },
    {
      "inputs": [
        {
          "internalType": "address",
          "name": "from",
          "type": "address"
        },
        {
          "internalType": "address",
          "name": "to",
          "type": "address"
        },
        {
          "internalType": "uint256",
          "name": "tokenId",
          "type": "uint256"
        }
      ],
      "name": "transferFrom",
      "outputs": [],
      "stateMutability": "nonpayable",
      "type": "function"
    },
    {
      "inputs": [
        {
          "internalType": "address",
          "name": "_owner",
          "type": "address"
        }
      ],
      "name": "verifyIfTheContributorAlreadyMinted",
      "outputs": [
        {
          "internalType": "bool",
          "name": "",
          "type": "bool"
        }
      ],
      "stateMutability": "view",
      "type": "function"
    }
  ],
  "bytecode": "0x60806040523480156200001157600080fd5b506040518060400160405280600781526020017f50656e73696f6e000000000000000000000000000000000000000000000000008152506040518060400160405280600381526020017f504e5300000000000000000000000000000000000000000000000000000000008152508160009080519060200190620000969291906200019b565b508060019080519060200190620000af9291906200019b565b505050426019819055506000600e600181600181540180825580915050039060005260206000209060020201905080601760006019548152602001908152602001600020600082015481600001556001820181600101908054620001159291906200022c565b509050506000600c6001816001815401808255809150500390600052602060002090600502019050806007600082015481600001556001820154816001015560028201548160020155600382018160030190805462000176929190620003fd565b5060048201816004019080546200018f92919062000487565b5090505050506200094f565b828054620001a99062000919565b90600052602060002090601f016020900481019282620001cd576000855562000219565b82601f10620001e857805160ff191683800117855562000219565b8280016001018555821562000219579182015b8281111562000218578251825591602001919060010190620001fb565b5b50905062000228919062000507565b5090565b82805482825590600052602060002090600f028101928215620003ea57600052602060002091600f0282015b82811115620003e95782826000820160009054906101000a900473ffffffffffffffffffffffffffffffffffffffff168160000160006101000a81548173ffffffffffffffffffffffffffffffffffffffff021916908373ffffffffffffffffffffffffffffffffffffffff1602179055506001820154816001015560028201816002016000820160009054906101000a900473ffffffffffffffffffffffffffffffffffffffff168160000160006101000a81548173ffffffffffffffffffffffffffffffffffffffff021916908373ffffffffffffffffffffffffffffffffffffffff1602179055506001820181600101908054620003599062000919565b6200036692919062000526565b50600282015481600201556003820154816003015560048201548160040155600582015481600501556006820154816006015560078201548160070155600882015481600801555050600b82015481600b0155600c82015481600c0155600d82015481600d0155600e82015481600e0155505091600f019190600f019062000258565b5b509050620003f99190620005be565b5090565b828054828255906000526020600020906003028101928215620004745760005260206000209160030282015b828111156200047357828260008201548160000155600182015481600101556002820181600201908054620004609291906200069e565b5050509160030191906003019062000429565b5b5090506200048391906200078a565b5090565b828054828255906000526020600020906002028101928215620004f45760005260206000209160020282015b82811115620004f3578282600082015481600001556001820181600101908054620004e09291906200022c565b50505091600201919060020190620004b3565b5b509050620005039190620007c5565b5090565b5b808211156200052257600081600090555060010162000508565b5090565b828054620005349062000919565b90600052602060002090601f016020900481019282620005585760008555620005ab565b82601f106200056b5780548555620005ab565b82800160010185558215620005ab57600052602060002091601f016020900482015b82811115620005aa5782548255916001019190600101906200058d565b5b509050620005ba919062000507565b5090565b5b808211156200069a57600080820160006101000a81549073ffffffffffffffffffffffffffffffffffffffff0219169055600182016000905560028201600080820160006101000a81549073ffffffffffffffffffffffffffffffffffffffff0219169055600182016000620006369190620007f8565b60028201600090556003820160009055600482016000905560058201600090556006820160009055600782016000905560088201600090555050600b820160009055600c820160009055600d820160009055600e82016000905550600f01620005bf565b5090565b828054828255906000526020600020906005028101928215620007775760005260206000209160050282015b82811115620007765782826000820160009054906101000a900473ffffffffffffffffffffffffffffffffffffffff168160000160006101000a81548173ffffffffffffffffffffffffffffffffffffffff021916908373ffffffffffffffffffffffffffffffffffffffff16021790555060018201548160010155600282015481600201556003820154816003015560048201548160040155505091600501919060050190620006ca565b5b5090506200078691906200083e565b5090565b5b80821115620007c1576000808201600090556001820160009055600282016000620007b791906200089e565b506003016200078b565b5090565b5b80821115620007f457600080820160009055600182016000620007ea9190620008c4565b50600201620007c6565b5090565b508054620008069062000919565b6000825580601f106200081a57506200083b565b601f0160209004906000526020600020908101906200083a919062000507565b5b50565b5b808211156200089a57600080820160006101000a81549073ffffffffffffffffffffffffffffffffffffffff02191690556001820160009055600282016000905560038201600090556004820160009055506005016200083f565b5090565b5080546000825560050290600052602060002090810190620008c191906200083e565b50565b50805460008255600f0290600052602060002090810190620008e79190620005be565b50565b7f4e487b7100000000000000000000000000000000000000000000000000000000600052602260045260246000fd5b600060028204905060018216806200093257607f821691505b60208210811415620009495762000948620008ea565b5b50919050565b615f48806200095f6000396000f3fe6080604052600436106101665760003560e01c806370a08231116100d1578063ca00ed2b1161008a578063ec9b9a6f11610064578063ec9b9a6f1461059b578063ed759375146105b7578063f1bc9316146105d3578063fb293d4d146105fe57610166565b8063ca00ed2b14610508578063e5c65d3014610533578063e985e9c51461055e57610166565b806370a08231146103d457806395d89b41146104115780639e13349d1461043c578063a22cb46514610479578063b88d4fde146104a2578063c87b56dd146104cb57610166565b806323b872dd1161012357806323b872dd146102a157806342842e0e146102ca5780634585e33b146102f35780635b06291c1461031c5780636352211e146103595780636e04ff0d1461039657610166565b806301ffc9a71461016b57806306fdde03146101a8578063081812fc146101d3578063095ea7b31461021057806314e8565a146102395780631cbe4d5514610264575b600080fd5b34801561017757600080fd5b50610192600480360381019061018d91906141da565b610629565b60405161019f9190614222565b60405180910390f35b3480156101b457600080fd5b506101bd61070b565b6040516101ca91906142d6565b60405180910390f35b3480156101df57600080fd5b506101fa60048036038101906101f5919061432e565b61079d565b604051610207919061439c565b60405180910390f35b34801561021c57600080fd5b50610237600480360381019061023291906143e3565b6107e3565b005b34801561024557600080fd5b5061024e6108fb565b60405161025b9190614a97565b60405180910390f35b34801561027057600080fd5b5061028b6004803603810190610286919061432e565b610d16565b6040516102989190614b7e565b60405180910390f35b3480156102ad57600080fd5b506102c860048036038101906102c39190614ba0565b610eaf565b005b3480156102d657600080fd5b506102f160048036038101906102ec9190614ba0565b610f0f565b005b3480156102ff57600080fd5b5061031a60048036038101906103159190614c58565b610f2f565b005b34801561032857600080fd5b50610343600480360381019061033e9190614ca5565b610f54565b6040516103509190614222565b60405180910390f35b34801561036557600080fd5b50610380600480360381019061037b919061432e565b610fbb565b60405161038d919061439c565b60405180910390f35b3480156103a257600080fd5b506103bd60048036038101906103b89190614c58565b61106d565b6040516103cb929190614d27565b60405180910390f35b3480156103e057600080fd5b506103fb60048036038101906103f69190614ca5565b61109a565b6040516104089190614d66565b60405180910390f35b34801561041d57600080fd5b50610426611152565b60405161043391906142d6565b60405180910390f35b34801561044857600080fd5b50610463600480360381019061045e919061432e565b6111e4565b6040516104709190614dbe565b60405180910390f35b34801561048557600080fd5b506104a0600480360381019061049b9190614e0c565b611445565b005b3480156104ae57600080fd5b506104c960048036038101906104c49190614f7c565b61145b565b005b3480156104d757600080fd5b506104f260048036038101906104ed919061432e565b6114bd565b6040516104ff91906142d6565b60405180910390f35b34801561051457600080fd5b5061051d611525565b60405161052a9190614d66565b60405180910390f35b34801561053f57600080fd5b5061054861152b565b6040516105559190614d66565b60405180910390f35b34801561056a57600080fd5b5061058560048036038101906105809190614fff565b611533565b6040516105929190614222565b60405180910390f35b6105b560048036038101906105b0919061503f565b6115c7565b005b6105d160048036038101906105cc9190615120565b611b5d565b005b3480156105df57600080fd5b506105e8611fdf565b6040516105f59190614d66565b60405180910390f35b34801561060a57600080fd5b50610613611fe7565b6040516106209190614d66565b60405180910390f35b60007f80ac58cd000000000000000000000000000000000000000000000000000000007bffffffffffffffffffffffffffffffffffffffffffffffffffffffff1916827bffffffffffffffffffffffffffffffffffffffffffffffffffffffff191614806106f457507f5b5e139f000000000000000000000000000000000000000000000000000000007bffffffffffffffffffffffffffffffffffffffffffffffffffffffff1916827bffffffffffffffffffffffffffffffffffffffffffffffffffffffff1916145b80610704575061070382611ff3565b5b9050919050565b60606000805461071a906151d2565b80601f0160208091040260200160405190810160405280929190818152602001828054610746906151d2565b80156107935780601f1061076857610100808354040283529160200191610793565b820191906000526020600020905b81548152906001019060200180831161077657829003601f168201915b5050505050905090565b60006107a88261205d565b6004600083815260200190815260200160002060009054906101000a900473ffffffffffffffffffffffffffffffffffffffff169050919050565b60006107ee82610fbb565b90508073ffffffffffffffffffffffffffffffffffffffff168373ffffffffffffffffffffffffffffffffffffffff16141561085f576040517f08c379a000000000000000000000000000000000000000000000000000000000815260040161085690615276565b60405180910390fd5b8073ffffffffffffffffffffffffffffffffffffffff1661087e6120a8565b73ffffffffffffffffffffffffffffffffffffffff1614806108ad57506108ac816108a76120a8565b611533565b5b6108ec576040517f08c379a00000000000000000000000000000000000000000000000000000000081526004016108e390615308565b60405180910390fd5b6108f683836120b0565b505050565b610903613c49565b60076040518060a001604052908160008201548152602001600182015481526020016002820154815260200160038201805480602002602001604051908101604052809291908181526020016000905b82821015610a765783829060005260206000209060030201604051806060016040529081600082015481526020016001820154815260200160028201805480602002602001604051908101604052809291908181526020016000905b82821015610a5f57838290600052602060002090600502016040518060a00160405290816000820160009054906101000a900473ffffffffffffffffffffffffffffffffffffffff1673ffffffffffffffffffffffffffffffffffffffff1673ffffffffffffffffffffffffffffffffffffffff168152602001600182015481526020016002820154815260200160038201548152602001600482015481525050815260200190600101906109af565b505050508152505081526020019060010190610953565b50505050815260200160048201805480602002602001604051908101604052809291908181526020016000905b82821015610d0957838290600052602060002090600202016040518060400160405290816000820154815260200160018201805480602002602001604051908101604052809291908181526020016000905b82821015610cf257838290600052602060002090600f02016040518060e00160405290816000820160009054906101000a900473ffffffffffffffffffffffffffffffffffffffff1673ffffffffffffffffffffffffffffffffffffffff1673ffffffffffffffffffffffffffffffffffffffff1681526020016001820154815260200160028201604051806101200160405290816000820160009054906101000a900473ffffffffffffffffffffffffffffffffffffffff1673ffffffffffffffffffffffffffffffffffffffff1673ffffffffffffffffffffffffffffffffffffffff168152602001600182018054610bef906151d2565b80601f0160208091040260200160405190810160405280929190818152602001828054610c1b906151d2565b8015610c685780601f10610c3d57610100808354040283529160200191610c68565b820191906000526020600020905b815481529060010190602001808311610c4b57829003601f168201915b505050505081526020016002820154815260200160038201548152602001600482015481526020016005820154815260200160068201548152602001600782015481526020016008820154815250508152602001600b8201548152602001600c8201548152602001600d8201548152602001600e8201548152505081526020019060010190610af5565b505050508152505081526020019060010190610aa3565b5050505081525050905090565b610d1e613c78565b601560003373ffffffffffffffffffffffffffffffffffffffff1673ffffffffffffffffffffffffffffffffffffffff1681526020019081526020016000206000838152602001908152602001600020604051806101200160405290816000820160009054906101000a900473ffffffffffffffffffffffffffffffffffffffff1673ffffffffffffffffffffffffffffffffffffffff1673ffffffffffffffffffffffffffffffffffffffff168152602001600182018054610de0906151d2565b80601f0160208091040260200160405190810160405280929190818152602001828054610e0c906151d2565b8015610e595780601f10610e2e57610100808354040283529160200191610e59565b820191906000526020600020905b815481529060010190602001808311610e3c57829003601f168201915b505050505081526020016002820154815260200160038201548152602001600482015481526020016005820154815260200160068201548152602001600782015481526020016008820154815250509050919050565b610ec0610eba6120a8565b82612169565b610eff576040517f08c379a0000000000000000000000000000000000000000000000000000000008152600401610ef69061539a565b60405180910390fd5b610f0a8383836121fe565b505050565b610f2a8383836040518060200160405280600081525061145b565b505050565b62278d0060195442610f4191906153e9565b1115610f5057610f4f612465565b5b5050565b6000601260008373ffffffffffffffffffffffffffffffffffffffff1673ffffffffffffffffffffffffffffffffffffffff16815260200190815260200160002060009054906101000a900460ff1615610fb15760019050610fb6565b600090505b919050565b6000806002600084815260200190815260200160002060009054906101000a900473ffffffffffffffffffffffffffffffffffffffff169050600073ffffffffffffffffffffffffffffffffffffffff168173ffffffffffffffffffffffffffffffffffffffff161415611064576040517f08c379a000000000000000000000000000000000000000000000000000000000815260040161105b90615469565b60405180910390fd5b80915050919050565b60006060600080158015611090575062278d006019544261108e91906153e9565b115b9250509250929050565b60008073ffffffffffffffffffffffffffffffffffffffff168273ffffffffffffffffffffffffffffffffffffffff16141561110b576040517f08c379a0000000000000000000000000000000000000000000000000000000008152600401611102906154fb565b60405180910390fd5b600360008373ffffffffffffffffffffffffffffffffffffffff1673ffffffffffffffffffffffffffffffffffffffff168152602001908152602001600020549050919050565b606060018054611161906151d2565b80601f016020809104026020016040519081016040528092919081815260200182805461118d906151d2565b80156111da5780601f106111af576101008083540402835291602001916111da565b820191906000526020600020905b8154815290600101906020018083116111bd57829003601f168201915b5050505050905090565b6111ec613cda565b601760008381526020019081526020016000206040518060400160405290816000820154815260200160018201805480602002602001604051908101604052809291908181526020016000905b8282101561143657838290600052602060002090600f02016040518060e00160405290816000820160009054906101000a900473ffffffffffffffffffffffffffffffffffffffff1673ffffffffffffffffffffffffffffffffffffffff1673ffffffffffffffffffffffffffffffffffffffff1681526020016001820154815260200160028201604051806101200160405290816000820160009054906101000a900473ffffffffffffffffffffffffffffffffffffffff1673ffffffffffffffffffffffffffffffffffffffff1673ffffffffffffffffffffffffffffffffffffffff168152602001600182018054611333906151d2565b80601f016020809104026020016040519081016040528092919081815260200182805461135f906151d2565b80156113ac5780601f10611381576101008083540402835291602001916113ac565b820191906000526020600020905b81548152906001019060200180831161138f57829003601f168201915b505050505081526020016002820154815260200160038201548152602001600482015481526020016005820154815260200160068201548152602001600782015481526020016008820154815250508152602001600b8201548152602001600c8201548152602001600d8201548152602001600e8201548152505081526020019060010190611239565b50505050815250509050919050565b6114576114506120a8565b838361265d565b5050565b61146c6114666120a8565b83612169565b6114ab576040517f08c379a00000000000000000000000000000000000000000000000000000000081526004016114a29061539a565b60405180910390fd5b6114b7848484846127ca565b50505050565b60606114c88261205d565b60006114d2612826565b905060008151116114f2576040518060200160405280600081525061151d565b806114fc8461283d565b60405160200161150d929190615557565b6040516020818303038152906040525b915050919050565b60195481565b600047905090565b6000600560008473ffffffffffffffffffffffffffffffffffffffff1673ffffffffffffffffffffffffffffffffffffffff16815260200190815260200160002060008373ffffffffffffffffffffffffffffffffffffffff1673ffffffffffffffffffffffffffffffffffffffff16815260200190815260200160002060009054906101000a900460ff16905092915050565b3382601560008373ffffffffffffffffffffffffffffffffffffffff1673ffffffffffffffffffffffffffffffffffffffff168152602001908152602001600020600082815260200190815260200160002060000160009054906101000a900473ffffffffffffffffffffffffffffffffffffffff1673ffffffffffffffffffffffffffffffffffffffff168273ffffffffffffffffffffffffffffffffffffffff161480156116aa575061167b81610fbb565b73ffffffffffffffffffffffffffffffffffffffff168273ffffffffffffffffffffffffffffffffffffffff16145b6116e9576040517f08c379a00000000000000000000000000000000000000000000000000000000081526004016116e0906155c7565b60405180910390fd5b34601981101561172e576040517f08c379a000000000000000000000000000000000000000000000000000000000815260040161172590615659565b60405180910390fd5b6000429050600060646017876117449190615679565b61174e9190615702565b9050600060646049886117619190615679565b61176b9190615702565b905081601560003373ffffffffffffffffffffffffffffffffffffffff1673ffffffffffffffffffffffffffffffffffffffff16815260200190815260200160002060008a815260200190815260200160002060070160008282546117d09190615733565b9250508190555080601560003373ffffffffffffffffffffffffffffffffffffffff1673ffffffffffffffffffffffffffffffffffffffff16815260200190815260200160002060008a8152602001908152602001600020600801600082825461183a9190615733565b9250508190555080601460003373ffffffffffffffffffffffffffffffffffffffff1673ffffffffffffffffffffffffffffffffffffffff16815260200190815260200160002060008a815260200190815260200160002060008282546118a19190615733565b9250508190555081601360003373ffffffffffffffffffffffffffffffffffffffff1673ffffffffffffffffffffffffffffffffffffffff16815260200190815260200160002060008a815260200190815260200160002060008282546119089190615733565b92505081905550611aa5601560003373ffffffffffffffffffffffffffffffffffffffff1673ffffffffffffffffffffffffffffffffffffffff16815260200190815260200160002060008a8152602001908152602001600020604051806101200160405290816000820160009054906101000a900473ffffffffffffffffffffffffffffffffffffffff1673ffffffffffffffffffffffffffffffffffffffff1673ffffffffffffffffffffffffffffffffffffffff1681526020016001820180546119d4906151d2565b80601f0160208091040260200160405190810160405280929190818152602001828054611a00906151d2565b8015611a4d5780601f10611a2257610100808354040283529160200191611a4d565b820191906000526020600020905b815481529060010190602001808311611a3057829003601f168201915b505050505081526020016002820154815260200160038201548152602001600482015481526020016005820154815260200160068201548152602001600782015481526020016008820154815250508885858561299e565b7fb68157fc00953269b00318b57b774667db6be7c9d901a0bd8a337628df9b9bc5601560003373ffffffffffffffffffffffffffffffffffffffff1673ffffffffffffffffffffffffffffffffffffffff16815260200190815260200160002060008a815260200190815260200160002060000160009054906101000a900473ffffffffffffffffffffffffffffffffffffffff168885604051611b4b939291906157e8565b60405180910390a15050505050505050565b346019811015611ba2576040517f08c379a0000000000000000000000000000000000000000000000000000000008152600401611b9990615659565b60405180910390fd5b611bab33610f54565b15611beb576040517f08c379a0000000000000000000000000000000000000000000000000000000008152600401611be29061586b565b60405180910390fd5b6012841015611c2f576040517f08c379a0000000000000000000000000000000000000000000000000000000008152600401611c26906158fd565b60405180910390fd5b60006301e1338085611c419190615679565b905060004290506000611c546006612bbf565b9050611c606006612bcd565b611c6a3382612be3565b6000836372a94580611c7c91906153e9565b905060008184611c8c9190615733565b9050600062278d008060195484611ca391906153e9565b611cad9190615702565b611cb79190615733565b905060006040518061012001604052803373ffffffffffffffffffffffffffffffffffffffff1681526020018d81526020018c81526020018b8152602001848152602001878152602001868152602001600081526020016000815250905080601560003373ffffffffffffffffffffffffffffffffffffffff1673ffffffffffffffffffffffffffffffffffffffff168152602001908152602001600020600087815260200190815260200160002060008201518160000160006101000a81548173ffffffffffffffffffffffffffffffffffffffff021916908373ffffffffffffffffffffffffffffffffffffffff1602179055506020820151816001019080519060200190611dc9929190613cf4565b5060408201518160020155606082015181600301556080820151816004015560a0820151816005015560c0820151816006015560e082015181600701556101008201518160080155905050611e1e818a612c01565b60166000838152602001908152602001600020601560003373ffffffffffffffffffffffffffffffffffffffff1673ffffffffffffffffffffffffffffffffffffffff168152602001908152602001600020600087815260200190815260200160002090806001815401808255809150506001900390600052602060002090600902016000909190919091506000820160009054906101000a900473ffffffffffffffffffffffffffffffffffffffff168160000160006101000a81548173ffffffffffffffffffffffffffffffffffffffff021916908373ffffffffffffffffffffffffffffffffffffffff1602179055506001820181600101908054611f25906151d2565b611f30929190613d7a565b506002820154816002015560038201548160030155600482015481600401556005820154816005015560068201548160060155600782015481600701556008820154816008015550506001601260003373ffffffffffffffffffffffffffffffffffffffff1673ffffffffffffffffffffffffffffffffffffffff16815260200190815260200160002060006101000a81548160ff021916908315150217905550505050505050505050505050565b6372a9458081565b60068060000154905081565b60007f01ffc9a7000000000000000000000000000000000000000000000000000000007bffffffffffffffffffffffffffffffffffffffffffffffffffffffff1916827bffffffffffffffffffffffffffffffffffffffffffffffffffffffff1916149050919050565b61206681612f2d565b6120a5576040517f08c379a000000000000000000000000000000000000000000000000000000000815260040161209c90615469565b60405180910390fd5b50565b600033905090565b816004600083815260200190815260200160002060006101000a81548173ffffffffffffffffffffffffffffffffffffffff021916908373ffffffffffffffffffffffffffffffffffffffff160217905550808273ffffffffffffffffffffffffffffffffffffffff1661212383610fbb565b73ffffffffffffffffffffffffffffffffffffffff167f8c5be1e5ebec7d5bd14f71427d1e84f3dd0314c0f7b2291e5b200ac8c7c3b92560405160405180910390a45050565b60008061217583610fbb565b90508073ffffffffffffffffffffffffffffffffffffffff168473ffffffffffffffffffffffffffffffffffffffff1614806121b757506121b68185611533565b5b806121f557508373ffffffffffffffffffffffffffffffffffffffff166121dd8461079d565b73ffffffffffffffffffffffffffffffffffffffff16145b91505092915050565b8273ffffffffffffffffffffffffffffffffffffffff1661221e82610fbb565b73ffffffffffffffffffffffffffffffffffffffff1614612274576040517f08c379a000000000000000000000000000000000000000000000000000000000815260040161226b9061598f565b60405180910390fd5b600073ffffffffffffffffffffffffffffffffffffffff168273ffffffffffffffffffffffffffffffffffffffff1614156122e4576040517f08c379a00000000000000000000000000000000000000000000000000000000081526004016122db90615a21565b60405180910390fd5b6122ef838383612f99565b6122fa6000826120b0565b6001600360008573ffffffffffffffffffffffffffffffffffffffff1673ffffffffffffffffffffffffffffffffffffffff168152602001908152602001600020600082825461234a91906153e9565b925050819055506001600360008473ffffffffffffffffffffffffffffffffffffffff1673ffffffffffffffffffffffffffffffffffffffff16815260200190815260200160002060008282546123a19190615733565b92505081905550816002600083815260200190815260200160002060006101000a81548173ffffffffffffffffffffffffffffffffffffffff021916908373ffffffffffffffffffffffffffffffffffffffff160217905550808273ffffffffffffffffffffffffffffffffffffffff168473ffffffffffffffffffffffffffffffffffffffff167fddf252ad1be2c89b69c2b068fc378daa952ba7f163c4a11628f55a4df523b3ef60405160405180910390a4612460838383612f9e565b505050565b600760040160176000601954815260200190815260200160002090806001815401808255809150506001900390600052602060002090600202016000909190919091506000820154816000015560018201816001019080546124c8929190613e07565b50505060176000601954815260200190815260200160002060000154600760010160008282546124f89190615733565b92505081905550601860006019548152602001908152602001600020600101546007600201600082825461252c9190615733565b92505081905550600060076002015460076001015461254b9190615a41565b905060008112156125ad578061256090615ad5565b600760000160008282546125749190615a41565b925050819055508061258590615ad5565b600760010160008282546125999190615733565b925050819055506125a8612fa3565b6125e9565b60008113156125df576125be612fa3565b80600760000160008282546125d39190615b1e565b925050819055506125e8565b6125e7612fa3565b5b5b426019819055506125fb6019546132da565b6000600e600181600181540180825580915050039060005260206000209060020201905080601760006019548152602001908152602001600020600082015481600001556001820181600101908054612655929190613e07565b509050505050565b8173ffffffffffffffffffffffffffffffffffffffff168373ffffffffffffffffffffffffffffffffffffffff1614156126cc576040517f08c379a00000000000000000000000000000000000000000000000000000000081526004016126c390615bfe565b60405180910390fd5b80600560008573ffffffffffffffffffffffffffffffffffffffff1673ffffffffffffffffffffffffffffffffffffffff16815260200190815260200160002060008473ffffffffffffffffffffffffffffffffffffffff1673ffffffffffffffffffffffffffffffffffffffff16815260200190815260200160002060006101000a81548160ff0219169083151502179055508173ffffffffffffffffffffffffffffffffffffffff168373ffffffffffffffffffffffffffffffffffffffff167f17307eab39ab6107e8899845ad3d59bd9653f200f220920489ca2b5937696c31836040516127bd9190614222565b60405180910390a3505050565b6127d58484846121fe565b6127e1848484846134c4565b612820576040517f08c379a000000000000000000000000000000000000000000000000000000000815260040161281790615c90565b60405180910390fd5b50505050565b606060405180602001604052806000815250905090565b60606000821415612885576040518060400160405280600181526020017f30000000000000000000000000000000000000000000000000000000000000008152509050612999565b600082905060005b600082146128b75780806128a090615cb0565b915050600a826128b09190615702565b915061288d565b60008167ffffffffffffffff8111156128d3576128d2614e51565b5b6040519080825280601f01601f1916602001820160405280156129055781602001600182028036833780820191505090505b5090505b600085146129925760018261291e91906153e9565b9150600a8561292d9190615cf9565b60306129399190615733565b60f81b81838151811061294f5761294e615d2a565b5b60200101907effffffffffffffffffffffffffffffffffffffffffffffffffffffffffffff1916908160001a905350600a8561298b9190615702565b9450612909565b8093505050505b919050565b6000836040516020016129b19190615d7a565b6040516020818303038152906040528051906020012090508460176000601954815260200190815260200160002060000160008282546129f19190615733565b925050819055506017600060195481526020019081526020016000206001016040518060e00160405280886000015173ffffffffffffffffffffffffffffffffffffffff1681526020018381526020018881526020018681526020018581526020018481526020018781525090806001815401808255809150506001900390600052602060002090600f020160009091909190915060008201518160000160006101000a81548173ffffffffffffffffffffffffffffffffffffffff021916908373ffffffffffffffffffffffffffffffffffffffff1602179055506020820151816001015560408201518160020160008201518160000160006101000a81548173ffffffffffffffffffffffffffffffffffffffff021916908373ffffffffffffffffffffffffffffffffffffffff1602179055506020820151816001019080519060200190612b43929190613cf4565b5060408201518160020155606082015181600301556080820151816004015560a0820151816005015560c0820151816006015560e0820151816007015561010082015181600801555050606082015181600b0155608082015181600c015560a082015181600d015560c082015181600e01555050505050505050565b600081600001549050919050565b6001816000016000828254019250508190555050565b612bfd82826040518060200160405280600081525061365b565b5050565b600042905060006064601784612c179190615679565b612c219190615702565b905060006064604985612c349190615679565b612c3e9190615702565b9050818560e001818151612c529190615733565b91508181525050808561010001818151612c6c9190615733565b9150818152505080601460003373ffffffffffffffffffffffffffffffffffffffff1673ffffffffffffffffffffffffffffffffffffffff16815260200190815260200160002060008760c0015181526020019081526020016000206000828254612cd79190615733565b9250508190555081601360003373ffffffffffffffffffffffffffffffffffffffff1673ffffffffffffffffffffffffffffffffffffffff16815260200190815260200160002060008760c0015181526020019081526020016000206000828254612d429190615733565b92505081905550612ee3601560003373ffffffffffffffffffffffffffffffffffffffff1673ffffffffffffffffffffffffffffffffffffffff16815260200190815260200160002060008760c001518152602001908152602001600020604051806101200160405290816000820160009054906101000a900473ffffffffffffffffffffffffffffffffffffffff1673ffffffffffffffffffffffffffffffffffffffff1673ffffffffffffffffffffffffffffffffffffffff168152602001600182018054612e12906151d2565b80601f0160208091040260200160405190810160405280929190818152602001828054612e3e906151d2565b8015612e8b5780601f10612e6057610100808354040283529160200191612e8b565b820191906000526020600020905b815481529060010190602001808311612e6e57829003601f168201915b505050505081526020016002820154815260200160038201548152602001600482015481526020016005820154815260200160068201548152602001600782015481526020016008820154815250508585858561299e565b7fb68157fc00953269b00318b57b774667db6be7c9d901a0bd8a337628df9b9bc58560000151858760a00151604051612f1e939291906157e8565b60405180910390a15050505050565b60008073ffffffffffffffffffffffffffffffffffffffff166002600084815260200190815260200160002060009054906101000a900473ffffffffffffffffffffffffffffffffffffffff1673ffffffffffffffffffffffffffffffffffffffff1614159050919050565b505050565b505050565b60006007600301805480602002602001604051908101604052809291908181526020016000905b828210156130ed5783829060005260206000209060030201604051806060016040529081600082015481526020016001820154815260200160028201805480602002602001604051908101604052809291908181526020016000905b828210156130d657838290600052602060002090600502016040518060a00160405290816000820160009054906101000a900473ffffffffffffffffffffffffffffffffffffffff1673ffffffffffffffffffffffffffffffffffffffff1673ffffffffffffffffffffffffffffffffffffffff16815260200160018201548152602001600282015481526020016003820154815260200160048201548152505081526020019060010190613026565b505050508152505081526020019060010190612fca565b50505050905060005b81518111156132d657600082828151811061311457613113615d2a565b5b602002602001015160400151905060005b81518111156132c157600082828151811061314357613142615d2a565b5b60200260200101519050806000015173ffffffffffffffffffffffffffffffffffffffff166108fc82602001519081150290604051600060405180830381858888f1935050505015801561319b573d6000803e3d6000fd5b508060200151600760020160008282546131b591906153e9565b925050819055508060200151600760010160008282546131d591906153e9565b92505081905550806000015173ffffffffffffffffffffffffffffffffffffffff166108fc82602001519081150290604051600060405180830381858888f1935050505015801561322a573d6000803e3d6000fd5b508060200151816060018181516132419190615733565b9150818152505080608001518160600151106132ad5782828151811061326a57613269615d2a565b5b60200260200101613279613fcf565b8152506000835114156132ac5784848151811061329957613298615d2a565b5b602002602001016132a8614014565b8152505b5b5080806132b990615cb0565b915050613125565b505080806132ce90615cb0565b9150506130f6565b5050565b600060166000838152602001908152602001600020805480602002602001604051908101604052809291908181526020016000905b828210156134705783829060005260206000209060090201604051806101200160405290816000820160009054906101000a900473ffffffffffffffffffffffffffffffffffffffff1673ffffffffffffffffffffffffffffffffffffffff1673ffffffffffffffffffffffffffffffffffffffff168152602001600182018054613399906151d2565b80601f01602080910402602001604051908101604052809291908181526020018280546133c5906151d2565b80156134125780601f106133e757610100808354040283529160200191613412565b820191906000526020600020905b8154815290600101906020018083116133f557829003601f168201915b505050505081526020016002820154815260200160038201548152602001600482015481526020016005820154815260200160068201548152602001600782015481526020016008820154815250508152602001906001019061330f565b50505050905060005b81518111156134bf57600082828151811061349757613496615d2a565b5b602002602001015190506134ab81856136b6565b5080806134b790615cb0565b915050613479565b505050565b60006134e58473ffffffffffffffffffffffffffffffffffffffff16613911565b1561364e578373ffffffffffffffffffffffffffffffffffffffff1663150b7a0261350e6120a8565b8786866040518563ffffffff1660e01b81526004016135309493929190615d95565b602060405180830381600087803b15801561354a57600080fd5b505af192505050801561357b57506040513d601f19601f820116820180604052508101906135789190615df6565b60015b6135fe573d80600081146135ab576040519150601f19603f3d011682016040523d82523d6000602084013e6135b0565b606091505b506000815114156135f6576040517f08c379a00000000000000000000000000000000000000000000000000000000081526004016135ed90615c90565b60405180910390fd5b805181602001fd5b63150b7a0260e01b7bffffffffffffffffffffffffffffffffffffffffffffffffffffffff1916817bffffffffffffffffffffffffffffffffffffffffffffffffffffffff191614915050613653565b600190505b949350505050565b6136658383613934565b61367260008484846134c4565b6136b1576040517f08c379a00000000000000000000000000000000000000000000000000000000081526004016136a890615c90565b60405180910390fd5b505050565b600060136000846000015173ffffffffffffffffffffffffffffffffffffffff1673ffffffffffffffffffffffffffffffffffffffff16815260200190815260200160002060008460c001518152602001908152602001600020549050600060146000856000015173ffffffffffffffffffffffffffffffffffffffff1673ffffffffffffffffffffffffffffffffffffffff16815260200190815260200160002060008560c0015181526020019081526020016000205490506000818361377e9190615733565b90506000600c6015836137919190615702565b61379b9190615702565b905060006137ac8760200151613b0e565b905060006040518060a00160405280896000015173ffffffffffffffffffffffffffffffffffffffff16815260200184815260200183815260200160008152602001858152509050806080015160186000898152602001908152602001600020600001600082825461381e9190615733565b92505081905550806020015160186000898152602001908152602001600020600101600082825461384f9190615733565b925050819055506018600088815260200190815260200160002060020181908060018154018082558091505060019003906000526020600020906005020160009091909190915060008201518160000160006101000a81548173ffffffffffffffffffffffffffffffffffffffff021916908373ffffffffffffffffffffffffffffffffffffffff1602179055506020820151816001015560408201518160020155606082015181600301556080820151816004015550505050505050505050565b6000808273ffffffffffffffffffffffffffffffffffffffff163b119050919050565b600073ffffffffffffffffffffffffffffffffffffffff168273ffffffffffffffffffffffffffffffffffffffff1614156139a4576040517f08c379a000000000000000000000000000000000000000000000000000000000815260040161399b90615e6f565b60405180910390fd5b6139ad81612f2d565b156139ed576040517f08c379a00000000000000000000000000000000000000000000000000000000081526004016139e490615edb565b60405180910390fd5b6139f960008383612f99565b6001600360008473ffffffffffffffffffffffffffffffffffffffff1673ffffffffffffffffffffffffffffffffffffffff1681526020019081526020016000206000828254613a499190615733565b92505081905550816002600083815260200190815260200160002060006101000a81548173ffffffffffffffffffffffffffffffffffffffff021916908373ffffffffffffffffffffffffffffffffffffffff160217905550808273ffffffffffffffffffffffffffffffffffffffff16600073ffffffffffffffffffffffffffffffffffffffff167fddf252ad1be2c89b69c2b068fc378daa952ba7f163c4a11628f55a4df523b3ef60405160405180910390a4613b0a60008383612f9e565b5050565b6000613b4f826040518060400160405280600481526020017f6d616c6500000000000000000000000000000000000000000000000000000000815250613bf0565b15613b7b57600c6372a94580639fc61980613b6a91906153e9565b613b749190615702565b9050613beb565b613bba826040518060400160405280600681526020017f66656d616c650000000000000000000000000000000000000000000000000000815250613bf0565b15613be657600c6372a945806396601800613bd591906153e9565b613bdf9190615702565b9050613beb565b600090505b919050565b600081604051602001613c039190615efb565b6040516020818303038152906040528051906020012083604051602001613c2a9190615efb565b6040516020818303038152906040528051906020012014905092915050565b6040518060a0016040528060008152602001600081526020016000815260200160608152602001606081525090565b604051806101200160405280600073ffffffffffffffffffffffffffffffffffffffff16815260200160608152602001600081526020016000815260200160008152602001600081526020016000815260200160008152602001600081525090565b604051806040016040528060008152602001606081525090565b828054613d00906151d2565b90600052602060002090601f016020900481019282613d225760008555613d69565b82601f10613d3b57805160ff1916838001178555613d69565b82800160010185558215613d69579182015b82811115613d68578251825591602001919060010190613d4d565b5b509050613d769190614035565b5090565b828054613d86906151d2565b90600052602060002090601f016020900481019282613da85760008555613df6565b82601f10613db95780548555613df6565b82800160010185558215613df657600052602060002091601f016020900482015b82811115613df5578254825591600101919060010190613dda565b5b509050613e039190614035565b5090565b82805482825590600052602060002090600f028101928215613fbe57600052602060002091600f0282015b82811115613fbd5782826000820160009054906101000a900473ffffffffffffffffffffffffffffffffffffffff168160000160006101000a81548173ffffffffffffffffffffffffffffffffffffffff021916908373ffffffffffffffffffffffffffffffffffffffff1602179055506001820154816001015560028201816002016000820160009054906101000a900473ffffffffffffffffffffffffffffffffffffffff168160000160006101000a81548173ffffffffffffffffffffffffffffffffffffffff021916908373ffffffffffffffffffffffffffffffffffffffff1602179055506001820181600101908054613f30906151d2565b613f3b929190613d7a565b50600282015481600201556003820154816003015560048201548160040155600582015481600501556006820154816006015560078201548160070155600882015481600801555050600b82015481600b0155600c82015481600c0155600d82015481600d0155600e82015481600e0155505091600f019190600f0190613e32565b5b509050613fcb9190614052565b5090565b6040518060a00160405280600073ffffffffffffffffffffffffffffffffffffffff168152602001600081526020016000815260200160008152602001600081525090565b60405180606001604052806000815260200160008152602001606081525090565b5b8082111561404e576000816000905550600101614036565b5090565b5b8082111561412a57600080820160006101000a81549073ffffffffffffffffffffffffffffffffffffffff0219169055600182016000905560028201600080820160006101000a81549073ffffffffffffffffffffffffffffffffffffffff02191690556001820160006140c7919061412e565b60028201600090556003820160009055600482016000905560058201600090556006820160009055600782016000905560088201600090555050600b820160009055600c820160009055600d820160009055600e82016000905550600f01614053565b5090565b50805461413a906151d2565b6000825580601f1061414c575061416b565b601f01602090049060005260206000209081019061416a9190614035565b5b50565b6000604051905090565b600080fd5b600080fd5b60007fffffffff0000000000000000000000000000000000000000000000000000000082169050919050565b6141b781614182565b81146141c257600080fd5b50565b6000813590506141d4816141ae565b92915050565b6000602082840312156141f0576141ef614178565b5b60006141fe848285016141c5565b91505092915050565b60008115159050919050565b61421c81614207565b82525050565b60006020820190506142376000830184614213565b92915050565b600081519050919050565b600082825260208201905092915050565b60005b8381101561427757808201518184015260208101905061425c565b83811115614286576000848401525b50505050565b6000601f19601f8301169050919050565b60006142a88261423d565b6142b28185614248565b93506142c2818560208601614259565b6142cb8161428c565b840191505092915050565b600060208201905081810360008301526142f0818461429d565b905092915050565b6000819050919050565b61430b816142f8565b811461431657600080fd5b50565b60008135905061432881614302565b92915050565b60006020828403121561434457614343614178565b5b600061435284828501614319565b91505092915050565b600073ffffffffffffffffffffffffffffffffffffffff82169050919050565b60006143868261435b565b9050919050565b6143968161437b565b82525050565b60006020820190506143b1600083018461438d565b92915050565b6143c08161437b565b81146143cb57600080fd5b50565b6000813590506143dd816143b7565b92915050565b600080604083850312156143fa576143f9614178565b5b6000614408858286016143ce565b925050602061441985828601614319565b9150509250929050565b6000819050919050565b61443681614423565b82525050565b614445816142f8565b82525050565b600081519050919050565b600082825260208201905092915050565b6000819050602082019050919050565b600081519050919050565b600082825260208201905092915050565b6000819050602082019050919050565b60006144ae8261435b565b9050919050565b6144be816144a3565b82525050565b60a0820160008201516144da60008501826144b5565b5060208201516144ed602085018261443c565b506040820151614500604085018261443c565b506060820151614513606085018261443c565b506080820151614526608085018261443c565b50505050565b600061453883836144c4565b60a08301905092915050565b6000602082019050919050565b600061455c82614477565b6145668185614482565b935061457183614493565b8060005b838110156145a2578151614589888261452c565b975061459483614544565b925050600181019050614575565b5085935050505092915050565b60006060830160008301516145c7600086018261443c565b5060208301516145da602086018261443c565b50604083015184820360408601526145f28282614551565b9150508091505092915050565b600061460b83836145af565b905092915050565b6000602082019050919050565b600061462b8261444b565b6146358185614456565b93508360208202850161464785614467565b8060005b85811015614683578484038952815161466485826145ff565b945061466f83614613565b925060208a0199505060018101905061464b565b50829750879550505050505092915050565b600081519050919050565b600082825260208201905092915050565b6000819050602082019050919050565b600081519050919050565b600082825260208201905092915050565b6000819050602082019050919050565b6000819050919050565b614700816146ed565b82525050565b600082825260208201905092915050565b60006147228261423d565b61472c8185614706565b935061473c818560208601614259565b6147458161428c565b840191505092915050565b60006101208301600083015161476960008601826144b5565b50602083015184820360208601526147818282614717565b9150506040830151614796604086018261443c565b5060608301516147a9606086018261443c565b5060808301516147bc608086018261443c565b5060a08301516147cf60a086018261443c565b5060c08301516147e260c086018261443c565b5060e08301516147f560e086018261443c565b5061010083015161480a61010086018261443c565b508091505092915050565b600060e08301600083015161482d60008601826144b5565b50602083015161484060208601826146f7565b50604083015184820360408601526148588282614750565b915050606083015161486d606086018261443c565b506080830151614880608086018261443c565b5060a083015161489360a086018261443c565b5060c08301516148a660c086018261443c565b508091505092915050565b60006148bd8383614815565b905092915050565b6000602082019050919050565b60006148dd826146c1565b6148e781856146cc565b9350836020820285016148f9856146dd565b8060005b85811015614935578484038952815161491685826148b1565b9450614921836148c5565b925060208a019950506001810190506148fd565b50829750879550505050505092915050565b600060408301600083015161495f600086018261443c565b506020830151848203602086015261497782826148d2565b9150508091505092915050565b60006149908383614947565b905092915050565b6000602082019050919050565b60006149b082614695565b6149ba81856146a0565b9350836020820285016149cc856146b1565b8060005b85811015614a0857848403895281516149e98582614984565b94506149f483614998565b925060208a019950506001810190506149d0565b50829750879550505050505092915050565b600060a083016000830151614a32600086018261442d565b506020830151614a45602086018261443c565b506040830151614a58604086018261443c565b5060608301518482036060860152614a708282614620565b91505060808301518482036080860152614a8a82826149a5565b9150508091505092915050565b60006020820190508181036000830152614ab18184614a1a565b905092915050565b600061012083016000830151614ad260008601826144b5565b5060208301518482036020860152614aea8282614717565b9150506040830151614aff604086018261443c565b506060830151614b12606086018261443c565b506080830151614b25608086018261443c565b5060a0830151614b3860a086018261443c565b5060c0830151614b4b60c086018261443c565b5060e0830151614b5e60e086018261443c565b50610100830151614b7361010086018261443c565b508091505092915050565b60006020820190508181036000830152614b988184614ab9565b905092915050565b600080600060608486031215614bb957614bb8614178565b5b6000614bc7868287016143ce565b9350506020614bd8868287016143ce565b9250506040614be986828701614319565b9150509250925092565b600080fd5b600080fd5b600080fd5b60008083601f840112614c1857614c17614bf3565b5b8235905067ffffffffffffffff811115614c3557614c34614bf8565b5b602083019150836001820283011115614c5157614c50614bfd565b5b9250929050565b60008060208385031215614c6f57614c6e614178565b5b600083013567ffffffffffffffff811115614c8d57614c8c61417d565b5b614c9985828601614c02565b92509250509250929050565b600060208284031215614cbb57614cba614178565b5b6000614cc9848285016143ce565b91505092915050565b600081519050919050565b600082825260208201905092915050565b6000614cf982614cd2565b614d038185614cdd565b9350614d13818560208601614259565b614d1c8161428c565b840191505092915050565b6000604082019050614d3c6000830185614213565b8181036020830152614d4e8184614cee565b90509392505050565b614d60816142f8565b82525050565b6000602082019050614d7b6000830184614d57565b92915050565b6000604083016000830151614d99600086018261443c565b5060208301518482036020860152614db182826148d2565b9150508091505092915050565b60006020820190508181036000830152614dd88184614d81565b905092915050565b614de981614207565b8114614df457600080fd5b50565b600081359050614e0681614de0565b92915050565b60008060408385031215614e2357614e22614178565b5b6000614e31858286016143ce565b9250506020614e4285828601614df7565b9150509250929050565b600080fd5b7f4e487b7100000000000000000000000000000000000000000000000000000000600052604160045260246000fd5b614e898261428c565b810181811067ffffffffffffffff82111715614ea857614ea7614e51565b5b80604052505050565b6000614ebb61416e565b9050614ec78282614e80565b919050565b600067ffffffffffffffff821115614ee757614ee6614e51565b5b614ef08261428c565b9050602081019050919050565b82818337600083830152505050565b6000614f1f614f1a84614ecc565b614eb1565b905082815260208101848484011115614f3b57614f3a614e4c565b5b614f46848285614efd565b509392505050565b600082601f830112614f6357614f62614bf3565b5b8135614f73848260208601614f0c565b91505092915050565b60008060008060808587031215614f9657614f95614178565b5b6000614fa4878288016143ce565b9450506020614fb5878288016143ce565b9350506040614fc687828801614319565b925050606085013567ffffffffffffffff811115614fe757614fe661417d565b5b614ff387828801614f4e565b91505092959194509250565b6000806040838503121561501657615015614178565b5b6000615024858286016143ce565b9250506020615035858286016143ce565b9150509250929050565b6000806040838503121561505657615055614178565b5b600061506485828601614319565b925050602061507585828601614319565b9150509250929050565b600067ffffffffffffffff82111561509a57615099614e51565b5b6150a38261428c565b9050602081019050919050565b60006150c36150be8461507f565b614eb1565b9050828152602081018484840111156150df576150de614e4c565b5b6150ea848285614efd565b509392505050565b600082601f83011261510757615106614bf3565b5b81356151178482602086016150b0565b91505092915050565b6000806000806080858703121561513a57615139614178565b5b600085013567ffffffffffffffff8111156151585761515761417d565b5b615164878288016150f2565b945050602061517587828801614319565b935050604061518687828801614319565b925050606061519787828801614319565b91505092959194509250565b7f4e487b7100000000000000000000000000000000000000000000000000000000600052602260045260246000fd5b600060028204905060018216806151ea57607f821691505b602082108114156151fe576151fd6151a3565b5b50919050565b7f4552433732313a20617070726f76616c20746f2063757272656e74206f776e6560008201527f7200000000000000000000000000000000000000000000000000000000000000602082015250565b6000615260602183614248565b915061526b82615204565b604082019050919050565b6000602082019050818103600083015261528f81615253565b9050919050565b7f4552433732313a20617070726f76652063616c6c6572206973206e6f7420746f60008201527f6b656e206f776e6572206e6f7220617070726f76656420666f7220616c6c0000602082015250565b60006152f2603e83614248565b91506152fd82615296565b604082019050919050565b60006020820190508181036000830152615321816152e5565b9050919050565b7f4552433732313a2063616c6c6572206973206e6f7420746f6b656e206f776e6560008201527f72206e6f7220617070726f766564000000000000000000000000000000000000602082015250565b6000615384602e83614248565b915061538f82615328565b604082019050919050565b600060208201905081810360008301526153b381615377565b9050919050565b7f4e487b7100000000000000000000000000000000000000000000000000000000600052601160045260246000fd5b60006153f4826142f8565b91506153ff836142f8565b925082821015615412576154116153ba565b5b828203905092915050565b7f4552433732313a20696e76616c696420746f6b656e2049440000000000000000600082015250565b6000615453601883614248565b915061545e8261541d565b602082019050919050565b6000602082019050818103600083015261548281615446565b9050919050565b7f4552433732313a2061646472657373207a65726f206973206e6f74206120766160008201527f6c6964206f776e65720000000000000000000000000000000000000000000000602082015250565b60006154e5602983614248565b91506154f082615489565b604082019050919050565b60006020820190508181036000830152615514816154d8565b9050919050565b600081905092915050565b60006155318261423d565b61553b818561551b565b935061554b818560208601614259565b80840191505092915050565b60006155638285615526565b915061556f8284615526565b91508190509392505050565b7f596f7520646f6e2774206f776e20746869732070656e73696f6e000000000000600082015250565b60006155b1601a83614248565b91506155bc8261557b565b602082019050919050565b600060208201905081810360008301526155e0816155a4565b9050919050565b7f54686520616d6f756e7420646f65736e277420726561636820746865206d696e60008201527f696d756d20726571756972656400000000000000000000000000000000000000602082015250565b6000615643602d83614248565b915061564e826155e7565b604082019050919050565b6000602082019050818103600083015261567281615636565b9050919050565b6000615684826142f8565b915061568f836142f8565b9250817fffffffffffffffffffffffffffffffffffffffffffffffffffffffffffffffff04831182151516156156c8576156c76153ba565b5b828202905092915050565b7f4e487b7100000000000000000000000000000000000000000000000000000000600052601260045260246000fd5b600061570d826142f8565b9150615718836142f8565b925082615728576157276156d3565b5b828204905092915050565b600061573e826142f8565b9150615749836142f8565b9250827fffffffffffffffffffffffffffffffffffffffffffffffffffffffffffffffff0382111561577e5761577d6153ba565b5b828201905092915050565b6000819050919050565b60006157ae6157a96157a48461435b565b615789565b61435b565b9050919050565b60006157c082615793565b9050919050565b60006157d2826157b5565b9050919050565b6157e2816157c7565b82525050565b60006060820190506157fd60008301866157d9565b61580a6020830185614d57565b6158176040830184614d57565b949350505050565b7f416c72656164792067656e657261746564206869732070656e73696f6e000000600082015250565b6000615855601d83614248565b91506158608261581f565b602082019050919050565b6000602082019050818103600083015261588481615848565b9050919050565b7f596f75206d757374206265203138207965617273206f72206f6c64657220746f60008201527f2067656e657261746520612070656e73696f6e00000000000000000000000000602082015250565b60006158e7603383614248565b91506158f28261588b565b604082019050919050565b60006020820190508181036000830152615916816158da565b9050919050565b7f4552433732313a207472616e736665722066726f6d20696e636f72726563742060008201527f6f776e6572000000000000000000000000000000000000000000000000000000602082015250565b6000615979602583614248565b91506159848261591d565b604082019050919050565b600060208201905081810360008301526159a88161596c565b9050919050565b7f4552433732313a207472616e7366657220746f20746865207a65726f2061646460008201527f7265737300000000000000000000000000000000000000000000000000000000602082015250565b6000615a0b602483614248565b9150615a16826159af565b604082019050919050565b60006020820190508181036000830152615a3a816159fe565b9050919050565b6000615a4c82614423565b9150615a5783614423565b9250827f800000000000000000000000000000000000000000000000000000000000000001821260008412151615615a9257615a916153ba565b5b827f7fffffffffffffffffffffffffffffffffffffffffffffffffffffffffffffff018213600084121615615aca57615ac96153ba565b5b828203905092915050565b6000615ae082614423565b91507f8000000000000000000000000000000000000000000000000000000000000000821415615b1357615b126153ba565b5b816000039050919050565b6000615b2982614423565b9150615b3483614423565b9250817f7fffffffffffffffffffffffffffffffffffffffffffffffffffffffffffffff03831360008312151615615b6f57615b6e6153ba565b5b817f8000000000000000000000000000000000000000000000000000000000000000038312600083121615615ba757615ba66153ba565b5b828201905092915050565b7f4552433732313a20617070726f766520746f2063616c6c657200000000000000600082015250565b6000615be8601983614248565b9150615bf382615bb2565b602082019050919050565b60006020820190508181036000830152615c1781615bdb565b9050919050565b7f4552433732313a207472616e7366657220746f206e6f6e20455243373231526560008201527f63656976657220696d706c656d656e7465720000000000000000000000000000602082015250565b6000615c7a603283614248565b9150615c8582615c1e565b604082019050919050565b60006020820190508181036000830152615ca981615c6d565b9050919050565b6000615cbb826142f8565b91507fffffffffffffffffffffffffffffffffffffffffffffffffffffffffffffffff821415615cee57615ced6153ba565b5b600182019050919050565b6000615d04826142f8565b9150615d0f836142f8565b925082615d1f57615d1e6156d3565b5b828206905092915050565b7f4e487b7100000000000000000000000000000000000000000000000000000000600052603260045260246000fd5b6000819050919050565b615d74615d6f826142f8565b615d59565b82525050565b6000615d868284615d63565b60208201915081905092915050565b6000608082019050615daa600083018761438d565b615db7602083018661438d565b615dc46040830185614d57565b8181036060830152615dd68184614cee565b905095945050505050565b600081519050615df0816141ae565b92915050565b600060208284031215615e0c57615e0b614178565b5b6000615e1a84828501615de1565b91505092915050565b7f4552433732313a206d696e7420746f20746865207a65726f2061646472657373600082015250565b6000615e59602083614248565b9150615e6482615e23565b602082019050919050565b60006020820190508181036000830152615e8881615e4c565b9050919050565b7f4552433732313a20746f6b656e20616c7265616479206d696e74656400000000600082015250565b6000615ec5601c83614248565b9150615ed082615e8f565b602082019050919050565b60006020820190508181036000830152615ef481615eb8565b9050919050565b6000615f078284615526565b91508190509291505056fea26469706673582212206606fc4f726236ed98521ad4dce11e42f80d92bfbe8cb850a25dc06675800d8364736f6c63430008090033",
  "linkReferences": {},
  "deployedLinkReferences": {}
}