{
  "_format": "hh-sol-artifact-1",
  "contractName": "Pension",
  "sourceName": "src/blockchain/hardhat/contracts/Pension.sol",
  "abi": [
    {
      "inputs": [],
      "stateMutability": "nonpayable",
      "type": "constructor"
    },
    {
      "anonymous": false,
      "inputs": [
        {
          "indexed": true,
          "internalType": "address",
          "name": "owner",
          "type": "address"
        },
        {
          "indexed": true,
          "internalType": "address",
          "name": "approved",
          "type": "address"
        },
        {
          "indexed": true,
          "internalType": "uint256",
          "name": "tokenId",
          "type": "uint256"
        }
      ],
      "name": "Approval",
      "type": "event"
    },
    {
      "anonymous": false,
      "inputs": [
        {
          "indexed": true,
          "internalType": "address",
          "name": "owner",
          "type": "address"
        },
        {
          "indexed": true,
          "internalType": "address",
          "name": "operator",
          "type": "address"
        },
        {
          "indexed": false,
          "internalType": "bool",
          "name": "approved",
          "type": "bool"
        }
      ],
      "name": "ApprovalForAll",
      "type": "event"
    },
    {
      "anonymous": false,
      "inputs": [
        {
          "indexed": true,
          "internalType": "address",
          "name": "from",
          "type": "address"
        },
        {
          "indexed": true,
          "internalType": "address",
          "name": "to",
          "type": "address"
        },
        {
          "indexed": true,
          "internalType": "uint256",
          "name": "tokenId",
          "type": "uint256"
        }
      ],
      "name": "Transfer",
      "type": "event"
    },
    {
      "inputs": [
        {
          "internalType": "address",
          "name": "to",
          "type": "address"
        },
        {
          "internalType": "uint256",
          "name": "tokenId",
          "type": "uint256"
        }
      ],
      "name": "approve",
      "outputs": [],
      "stateMutability": "nonpayable",
      "type": "function"
    },
    {
      "inputs": [
        {
          "internalType": "address",
          "name": "owner",
          "type": "address"
        }
      ],
      "name": "balanceOf",
      "outputs": [
        {
          "internalType": "uint256",
          "name": "",
          "type": "uint256"
        }
      ],
      "stateMutability": "view",
      "type": "function"
    },
    {
      "inputs": [
        {
          "internalType": "bytes",
          "name": "",
          "type": "bytes"
        }
      ],
      "name": "checkUpkeep",
      "outputs": [
        {
          "internalType": "bool",
          "name": "upkeepNeeded",
          "type": "bool"
        },
        {
          "internalType": "bytes",
          "name": "",
          "type": "bytes"
        }
      ],
      "stateMutability": "view",
      "type": "function"
    },
    {
      "inputs": [],
      "name": "cutoffDate",
      "outputs": [
        {
          "internalType": "uint256",
          "name": "",
          "type": "uint256"
        }
      ],
      "stateMutability": "view",
      "type": "function"
    },
    {
      "inputs": [
        {
          "internalType": "uint256",
          "name": "_pensionId",
          "type": "uint256"
        },
        {
          "internalType": "uint256",
          "name": "_amount",
          "type": "uint256"
        }
      ],
      "name": "depositAmount",
      "outputs": [],
      "stateMutability": "payable",
      "type": "function"
    },
    {
      "inputs": [
        {
          "internalType": "uint256",
          "name": "tokenId",
          "type": "uint256"
        }
      ],
      "name": "getApproved",
      "outputs": [
        {
          "internalType": "address",
          "name": "",
          "type": "address"
        }
      ],
      "stateMutability": "view",
      "type": "function"
    },
    {
      "inputs": [],
      "name": "getGeneralRecord",
      "outputs": [
        {
          "components": [
            {
              "internalType": "int256",
              "name": "solvent",
              "type": "int256"
            },
            {
              "internalType": "uint256",
              "name": "totalAmount",
              "type": "uint256"
            },
            {
              "internalType": "uint256",
              "name": "totalToPay",
              "type": "uint256"
            },
            {
              "components": [
                {
                  "internalType": "uint256",
                  "name": "totalAmount",
                  "type": "uint256"
                },
                {
                  "internalType": "uint256",
                  "name": "totalToPay",
                  "type": "uint256"
                },
                {
                  "components": [
                    {
                      "internalType": "address payable",
                      "name": "owner",
                      "type": "address"
                    },
                    {
                      "internalType": "uint256",
                      "name": "monthlyQuote",
                      "type": "uint256"
                    },
                    {
                      "internalType": "uint256",
                      "name": "quantityQuotes",
                      "type": "uint256"
                    },
                    {
                      "internalType": "uint256",
                      "name": "totalPaidQuotes",
                      "type": "uint256"
                    },
                    {
                      "internalType": "uint256",
                      "name": "totalPensionValue",
                      "type": "uint256"
                    }
                  ],
                  "internalType": "struct Pension.RetairedQuote[]",
                  "name": "retairedQuotes",
                  "type": "tuple[]"
                }
              ],
              "internalType": "struct Pension.RetairedRecord[]",
              "name": "retairedRecords",
              "type": "tuple[]"
            },
            {
              "components": [
                {
                  "internalType": "uint256",
                  "name": "totalAmount",
                  "type": "uint256"
                },
                {
                  "components": [
                    {
                      "internalType": "address payable",
                      "name": "owner",
                      "type": "address"
                    },
                    {
                      "internalType": "bytes32",
                      "name": "id",
                      "type": "bytes32"
                    },
                    {
                      "components": [
                        {
                          "internalType": "address payable",
                          "name": "owner",
                          "type": "address"
                        },
                        {
                          "internalType": "string",
                          "name": "biologySex",
                          "type": "string"
                        },
                        {
                          "internalType": "uint256",
                          "name": "age",
                          "type": "uint256"
                        },
                        {
                          "internalType": "uint256",
                          "name": "bornAge",
                          "type": "uint256"
                        },
                        {
                          "internalType": "uint256",
                          "name": "retirentmentDate",
                          "type": "uint256"
                        },
                        {
                          "internalType": "uint256",
                          "name": "pensionCreatedTime",
                          "type": "uint256"
                        },
                        {
                          "internalType": "uint256",
                          "name": "pensionId",
                          "type": "uint256"
                        },
                        {
                          "internalType": "uint256",
                          "name": "totalSavings",
                          "type": "uint256"
                        },
                        {
                          "internalType": "uint256",
                          "name": "totalSolidary",
                          "type": "uint256"
                        }
                      ],
                      "internalType": "struct Pension.DataPension",
                      "name": "dataPension",
                      "type": "tuple"
                    },
                    {
                      "internalType": "uint256",
                      "name": "contributionDate",
                      "type": "uint256"
                    },
                    {
                      "internalType": "uint256",
                      "name": "savingAmount",
                      "type": "uint256"
                    },
                    {
                      "internalType": "uint256",
                      "name": "solidaryAmount",
                      "type": "uint256"
                    },
                    {
                      "internalType": "uint256",
                      "name": "totalAmount",
                      "type": "uint256"
                    }
                  ],
                  "internalType": "struct Pension.MonthlyQuote[]",
                  "name": "monthlyQuotes",
                  "type": "tuple[]"
                }
              ],
              "internalType": "struct Pension.MonthlyRecord[]",
              "name": "monthlyRecords",
              "type": "tuple[]"
            }
          ],
          "internalType": "struct Pension.GeneralRecord",
          "name": "",
          "type": "tuple"
        }
      ],
      "stateMutability": "view",
      "type": "function"
    },
    {
      "inputs": [
        {
          "internalType": "uint256",
          "name": "_cutoffDate",
          "type": "uint256"
        }
      ],
      "name": "getMonthlyBalanceFromMonthlyGeneralBalance",
      "outputs": [
        {
          "components": [
            {
              "internalType": "uint256",
              "name": "totalAmount",
              "type": "uint256"
            },
            {
              "components": [
                {
                  "internalType": "address payable",
                  "name": "owner",
                  "type": "address"
                },
                {
                  "internalType": "bytes32",
                  "name": "id",
                  "type": "bytes32"
                },
                {
                  "components": [
                    {
                      "internalType": "address payable",
                      "name": "owner",
                      "type": "address"
                    },
                    {
                      "internalType": "string",
                      "name": "biologySex",
                      "type": "string"
                    },
                    {
                      "internalType": "uint256",
                      "name": "age",
                      "type": "uint256"
                    },
                    {
                      "internalType": "uint256",
                      "name": "bornAge",
                      "type": "uint256"
                    },
                    {
                      "internalType": "uint256",
                      "name": "retirentmentDate",
                      "type": "uint256"
                    },
                    {
                      "internalType": "uint256",
                      "name": "pensionCreatedTime",
                      "type": "uint256"
                    },
                    {
                      "internalType": "uint256",
                      "name": "pensionId",
                      "type": "uint256"
                    },
                    {
                      "internalType": "uint256",
                      "name": "totalSavings",
                      "type": "uint256"
                    },
                    {
                      "internalType": "uint256",
                      "name": "totalSolidary",
                      "type": "uint256"
                    }
                  ],
                  "internalType": "struct Pension.DataPension",
                  "name": "dataPension",
                  "type": "tuple"
                },
                {
                  "internalType": "uint256",
                  "name": "contributionDate",
                  "type": "uint256"
                },
                {
                  "internalType": "uint256",
                  "name": "savingAmount",
                  "type": "uint256"
                },
                {
                  "internalType": "uint256",
                  "name": "solidaryAmount",
                  "type": "uint256"
                },
                {
                  "internalType": "uint256",
                  "name": "totalAmount",
                  "type": "uint256"
                }
              ],
              "internalType": "struct Pension.MonthlyQuote[]",
              "name": "monthlyQuotes",
              "type": "tuple[]"
            }
          ],
          "internalType": "struct Pension.MonthlyRecord",
          "name": "",
          "type": "tuple"
        }
      ],
      "stateMutability": "view",
      "type": "function"
    },
    {
      "inputs": [
        {
          "internalType": "address",
          "name": "owner",
          "type": "address"
        },
        {
          "internalType": "address",
          "name": "operator",
          "type": "address"
        }
      ],
      "name": "isApprovedForAll",
      "outputs": [
        {
          "internalType": "bool",
          "name": "",
          "type": "bool"
        }
      ],
      "stateMutability": "view",
      "type": "function"
    },
    {
      "inputs": [],
      "name": "name",
      "outputs": [
        {
          "internalType": "string",
          "name": "",
          "type": "string"
        }
      ],
      "stateMutability": "view",
      "type": "function"
    },
    {
      "inputs": [
        {
          "internalType": "uint256",
          "name": "tokenId",
          "type": "uint256"
        }
      ],
      "name": "ownerOf",
      "outputs": [
        {
          "internalType": "address",
          "name": "",
          "type": "address"
        }
      ],
      "stateMutability": "view",
      "type": "function"
    },
    {
      "inputs": [],
      "name": "pensionIdCounter",
      "outputs": [
        {
          "internalType": "uint256",
          "name": "_value",
          "type": "uint256"
        }
      ],
      "stateMutability": "view",
      "type": "function"
    },
    {
      "inputs": [
        {
          "internalType": "bytes",
          "name": "",
          "type": "bytes"
        }
      ],
      "name": "performUpkeep",
      "outputs": [],
      "stateMutability": "nonpayable",
      "type": "function"
    },
    {
      "inputs": [
        {
          "internalType": "string",
          "name": "_biologySex",
          "type": "string"
        },
        {
          "internalType": "uint256",
          "name": "_age",
          "type": "uint256"
        },
        {
          "internalType": "uint256",
          "name": "_bornAge",
          "type": "uint256"
        },
        {
          "internalType": "uint256",
          "name": "_firstQuote",
          "type": "uint256"
        }
      ],
      "name": "safeMint",
      "outputs": [],
      "stateMutability": "payable",
      "type": "function"
    },
    {
      "inputs": [
        {
          "internalType": "address",
          "name": "from",
          "type": "address"
        },
        {
          "internalType": "address",
          "name": "to",
          "type": "address"
        },
        {
          "internalType": "uint256",
          "name": "tokenId",
          "type": "uint256"
        }
      ],
      "name": "safeTransferFrom",
      "outputs": [],
      "stateMutability": "nonpayable",
      "type": "function"
    },
    {
      "inputs": [
        {
          "internalType": "address",
          "name": "from",
          "type": "address"
        },
        {
          "internalType": "address",
          "name": "to",
          "type": "address"
        },
        {
          "internalType": "uint256",
          "name": "tokenId",
          "type": "uint256"
        },
        {
          "internalType": "bytes",
          "name": "data",
          "type": "bytes"
        }
      ],
      "name": "safeTransferFrom",
      "outputs": [],
      "stateMutability": "nonpayable",
      "type": "function"
    },
    {
      "inputs": [
        {
          "internalType": "address",
          "name": "operator",
          "type": "address"
        },
        {
          "internalType": "bool",
          "name": "approved",
          "type": "bool"
        }
      ],
      "name": "setApprovalForAll",
      "outputs": [],
      "stateMutability": "nonpayable",
      "type": "function"
    },
    {
      "inputs": [
        {
          "internalType": "bytes4",
          "name": "interfaceId",
          "type": "bytes4"
        }
      ],
      "name": "supportsInterface",
      "outputs": [
        {
          "internalType": "bool",
          "name": "",
          "type": "bool"
        }
      ],
      "stateMutability": "view",
      "type": "function"
    },
    {
      "inputs": [],
      "name": "symbol",
      "outputs": [
        {
          "internalType": "string",
          "name": "",
          "type": "string"
        }
      ],
      "stateMutability": "view",
      "type": "function"
    },
    {
      "inputs": [
        {
          "internalType": "uint256",
          "name": "tokenId",
          "type": "uint256"
        }
      ],
      "name": "tokenURI",
      "outputs": [
        {
          "internalType": "string",
          "name": "",
          "type": "string"
        }
      ],
      "stateMutability": "view",
      "type": "function"
    },
    {
      "inputs": [],
      "name": "totalAsserts",
      "outputs": [
        {
          "internalType": "uint256",
          "name": "",
          "type": "uint256"
        }
      ],
      "stateMutability": "view",
      "type": "function"
    },
    {
      "inputs": [
        {
          "internalType": "address",
          "name": "from",
          "type": "address"
        },
        {
          "internalType": "address",
          "name": "to",
          "type": "address"
        },
        {
          "internalType": "uint256",
          "name": "tokenId",
          "type": "uint256"
        }
      ],
      "name": "transferFrom",
      "outputs": [],
      "stateMutability": "nonpayable",
      "type": "function"
    },
    {
      "inputs": [
        {
          "internalType": "address",
          "name": "_owner",
          "type": "address"
        }
      ],
      "name": "verifyIfTheContributorAlreadyMinted",
      "outputs": [
        {
          "internalType": "bool",
          "name": "",
          "type": "bool"
        }
      ],
      "stateMutability": "view",
      "type": "function"
    }
  ],
  "bytecode": "0x60806040523480156200001157600080fd5b506040518060400160405280600781526020017f50656e73696f6e000000000000000000000000000000000000000000000000008152506040518060400160405280600381526020017f504e5300000000000000000000000000000000000000000000000000000000008152508160009080519060200190620000969291906200019b565b508060019080519060200190620000af9291906200019b565b505050426019819055506000600e600181600181540180825580915050039060005260206000209060020201905080601760006019548152602001908152602001600020600082015481600001556001820181600101908054620001159291906200022c565b509050506000600c6001816001815401808255809150500390600052602060002090600502019050806007600082015481600001556001820154816001015560028201548160020155600382018160030190805462000176929190620003fd565b5060048201816004019080546200018f92919062000487565b5090505050506200094f565b828054620001a99062000919565b90600052602060002090601f016020900481019282620001cd576000855562000219565b82601f10620001e857805160ff191683800117855562000219565b8280016001018555821562000219579182015b8281111562000218578251825591602001919060010190620001fb565b5b50905062000228919062000507565b5090565b82805482825590600052602060002090600f028101928215620003ea57600052602060002091600f0282015b82811115620003e95782826000820160009054906101000a900473ffffffffffffffffffffffffffffffffffffffff168160000160006101000a81548173ffffffffffffffffffffffffffffffffffffffff021916908373ffffffffffffffffffffffffffffffffffffffff1602179055506001820154816001015560028201816002016000820160009054906101000a900473ffffffffffffffffffffffffffffffffffffffff168160000160006101000a81548173ffffffffffffffffffffffffffffffffffffffff021916908373ffffffffffffffffffffffffffffffffffffffff1602179055506001820181600101908054620003599062000919565b6200036692919062000526565b50600282015481600201556003820154816003015560048201548160040155600582015481600501556006820154816006015560078201548160070155600882015481600801555050600b82015481600b0155600c82015481600c0155600d82015481600d0155600e82015481600e0155505091600f019190600f019062000258565b5b509050620003f99190620005be565b5090565b828054828255906000526020600020906003028101928215620004745760005260206000209160030282015b828111156200047357828260008201548160000155600182015481600101556002820181600201908054620004609291906200069e565b5050509160030191906003019062000429565b5b5090506200048391906200078a565b5090565b828054828255906000526020600020906002028101928215620004f45760005260206000209160020282015b82811115620004f3578282600082015481600001556001820181600101908054620004e09291906200022c565b50505091600201919060020190620004b3565b5b509050620005039190620007c5565b5090565b5b808211156200052257600081600090555060010162000508565b5090565b828054620005349062000919565b90600052602060002090601f016020900481019282620005585760008555620005ab565b82601f106200056b5780548555620005ab565b82800160010185558215620005ab57600052602060002091601f016020900482015b82811115620005aa5782548255916001019190600101906200058d565b5b509050620005ba919062000507565b5090565b5b808211156200069a57600080820160006101000a81549073ffffffffffffffffffffffffffffffffffffffff0219169055600182016000905560028201600080820160006101000a81549073ffffffffffffffffffffffffffffffffffffffff0219169055600182016000620006369190620007f8565b60028201600090556003820160009055600482016000905560058201600090556006820160009055600782016000905560088201600090555050600b820160009055600c820160009055600d820160009055600e82016000905550600f01620005bf565b5090565b828054828255906000526020600020906005028101928215620007775760005260206000209160050282015b82811115620007765782826000820160009054906101000a900473ffffffffffffffffffffffffffffffffffffffff168160000160006101000a81548173ffffffffffffffffffffffffffffffffffffffff021916908373ffffffffffffffffffffffffffffffffffffffff16021790555060018201548160010155600282015481600201556003820154816003015560048201548160040155505091600501919060050190620006ca565b5b5090506200078691906200083e565b5090565b5b80821115620007c1576000808201600090556001820160009055600282016000620007b791906200089e565b506003016200078b565b5090565b5b80821115620007f457600080820160009055600182016000620007ea9190620008c4565b50600201620007c6565b5090565b508054620008069062000919565b6000825580601f106200081a57506200083b565b601f0160209004906000526020600020908101906200083a919062000507565b5b50565b5b808211156200089a57600080820160006101000a81549073ffffffffffffffffffffffffffffffffffffffff02191690556001820160009055600282016000905560038201600090556004820160009055506005016200083f565b5090565b5080546000825560050290600052602060002090810190620008c191906200083e565b50565b50805460008255600f0290600052602060002090810190620008e79190620005be565b50565b7f4e487b7100000000000000000000000000000000000000000000000000000000600052602260045260246000fd5b600060028204905060018216806200093257607f821691505b60208210811415620009495762000948620008ea565b5b50919050565b6159d8806200095f6000396000f3fe6080604052600436106101405760003560e01c806370a08231116100b6578063ca00ed2b1161006f578063ca00ed2b146104a5578063e5c65d30146104d0578063e985e9c5146104fb578063ec9b9a6f14610538578063ed75937514610554578063fb293d4d1461057057610140565b806370a082311461037157806395d89b41146103ae5780639e13349d146103d9578063a22cb46514610416578063b88d4fde1461043f578063c87b56dd1461046857610140565b806323b872dd1161010857806323b872dd1461023e57806342842e0e146102675780634585e33b146102905780635b06291c146102b95780636352211e146102f65780636e04ff0d1461033357610140565b806301ffc9a71461014557806306fdde0314610182578063081812fc146101ad578063095ea7b3146101ea57806314e8565a14610213575b600080fd5b34801561015157600080fd5b5061016c60048036038101906101679190613de7565b61059b565b6040516101799190613e2f565b60405180910390f35b34801561018e57600080fd5b5061019761067d565b6040516101a49190613ee3565b60405180910390f35b3480156101b957600080fd5b506101d460048036038101906101cf9190613f3b565b61070f565b6040516101e19190613fa9565b60405180910390f35b3480156101f657600080fd5b50610211600480360381019061020c9190613ff0565b610755565b005b34801561021f57600080fd5b5061022861086d565b60405161023591906146a4565b60405180910390f35b34801561024a57600080fd5b50610265600480360381019061026091906146c6565b610c88565b005b34801561027357600080fd5b5061028e600480360381019061028991906146c6565b610ce8565b005b34801561029c57600080fd5b506102b760048036038101906102b2919061477e565b610d08565b005b3480156102c557600080fd5b506102e060048036038101906102db91906147cb565b610d2d565b6040516102ed9190613e2f565b60405180910390f35b34801561030257600080fd5b5061031d60048036038101906103189190613f3b565b610d94565b60405161032a9190613fa9565b60405180910390f35b34801561033f57600080fd5b5061035a6004803603810190610355919061477e565b610e46565b60405161036892919061484d565b60405180910390f35b34801561037d57600080fd5b50610398600480360381019061039391906147cb565b610e73565b6040516103a5919061488c565b60405180910390f35b3480156103ba57600080fd5b506103c3610f2b565b6040516103d09190613ee3565b60405180910390f35b3480156103e557600080fd5b5061040060048036038101906103fb9190613f3b565b610fbd565b60405161040d91906148e4565b60405180910390f35b34801561042257600080fd5b5061043d60048036038101906104389190614932565b61121e565b005b34801561044b57600080fd5b5061046660048036038101906104619190614aa2565b611234565b005b34801561047457600080fd5b5061048f600480360381019061048a9190613f3b565b611296565b60405161049c9190613ee3565b60405180910390f35b3480156104b157600080fd5b506104ba6112fe565b6040516104c7919061488c565b60405180910390f35b3480156104dc57600080fd5b506104e5611304565b6040516104f2919061488c565b60405180910390f35b34801561050757600080fd5b50610522600480360381019061051d9190614b25565b61130c565b60405161052f9190613e2f565b60405180910390f35b610552600480360381019061054d9190614b65565b6113a0565b005b61056e60048036038101906105699190614c46565b611888565b005b34801561057c57600080fd5b50610585611c99565b604051610592919061488c565b60405180910390f35b60007f80ac58cd000000000000000000000000000000000000000000000000000000007bffffffffffffffffffffffffffffffffffffffffffffffffffffffff1916827bffffffffffffffffffffffffffffffffffffffffffffffffffffffff1916148061066657507f5b5e139f000000000000000000000000000000000000000000000000000000007bffffffffffffffffffffffffffffffffffffffffffffffffffffffff1916827bffffffffffffffffffffffffffffffffffffffffffffffffffffffff1916145b80610676575061067582611ca5565b5b9050919050565b60606000805461068c90614cf8565b80601f01602080910402602001604051908101604052809291908181526020018280546106b890614cf8565b80156107055780601f106106da57610100808354040283529160200191610705565b820191906000526020600020905b8154815290600101906020018083116106e857829003601f168201915b5050505050905090565b600061071a82611d0f565b6004600083815260200190815260200160002060009054906101000a900473ffffffffffffffffffffffffffffffffffffffff169050919050565b600061076082610d94565b90508073ffffffffffffffffffffffffffffffffffffffff168373ffffffffffffffffffffffffffffffffffffffff1614156107d1576040517f08c379a00000000000000000000000000000000000000000000000000000000081526004016107c890614d9c565b60405180910390fd5b8073ffffffffffffffffffffffffffffffffffffffff166107f0611d5a565b73ffffffffffffffffffffffffffffffffffffffff16148061081f575061081e81610819611d5a565b61130c565b5b61085e576040517f08c379a000000000000000000000000000000000000000000000000000000000815260040161085590614e2e565b60405180910390fd5b6108688383611d62565b505050565b6108756138b8565b60076040518060a001604052908160008201548152602001600182015481526020016002820154815260200160038201805480602002602001604051908101604052809291908181526020016000905b828210156109e85783829060005260206000209060030201604051806060016040529081600082015481526020016001820154815260200160028201805480602002602001604051908101604052809291908181526020016000905b828210156109d157838290600052602060002090600502016040518060a00160405290816000820160009054906101000a900473ffffffffffffffffffffffffffffffffffffffff1673ffffffffffffffffffffffffffffffffffffffff1673ffffffffffffffffffffffffffffffffffffffff16815260200160018201548152602001600282015481526020016003820154815260200160048201548152505081526020019060010190610921565b5050505081525050815260200190600101906108c5565b50505050815260200160048201805480602002602001604051908101604052809291908181526020016000905b82821015610c7b57838290600052602060002090600202016040518060400160405290816000820154815260200160018201805480602002602001604051908101604052809291908181526020016000905b82821015610c6457838290600052602060002090600f02016040518060e00160405290816000820160009054906101000a900473ffffffffffffffffffffffffffffffffffffffff1673ffffffffffffffffffffffffffffffffffffffff1673ffffffffffffffffffffffffffffffffffffffff1681526020016001820154815260200160028201604051806101200160405290816000820160009054906101000a900473ffffffffffffffffffffffffffffffffffffffff1673ffffffffffffffffffffffffffffffffffffffff1673ffffffffffffffffffffffffffffffffffffffff168152602001600182018054610b6190614cf8565b80601f0160208091040260200160405190810160405280929190818152602001828054610b8d90614cf8565b8015610bda5780601f10610baf57610100808354040283529160200191610bda565b820191906000526020600020905b815481529060010190602001808311610bbd57829003601f168201915b505050505081526020016002820154815260200160038201548152602001600482015481526020016005820154815260200160068201548152602001600782015481526020016008820154815250508152602001600b8201548152602001600c8201548152602001600d8201548152602001600e8201548152505081526020019060010190610a67565b505050508152505081526020019060010190610a15565b5050505081525050905090565b610c99610c93611d5a565b82611e1b565b610cd8576040517f08c379a0000000000000000000000000000000000000000000000000000000008152600401610ccf90614ec0565b60405180910390fd5b610ce3838383611eb0565b505050565b610d0383838360405180602001604052806000815250611234565b505050565b62278d0060195442610d1a9190614f0f565b1115610d2957610d28612117565b5b5050565b6000601260008373ffffffffffffffffffffffffffffffffffffffff1673ffffffffffffffffffffffffffffffffffffffff16815260200190815260200160002060009054906101000a900460ff1615610d8a5760019050610d8f565b600090505b919050565b6000806002600084815260200190815260200160002060009054906101000a900473ffffffffffffffffffffffffffffffffffffffff169050600073ffffffffffffffffffffffffffffffffffffffff168173ffffffffffffffffffffffffffffffffffffffff161415610e3d576040517f08c379a0000000000000000000000000000000000000000000000000000000008152600401610e3490614f8f565b60405180910390fd5b80915050919050565b60006060600080158015610e69575062278d0060195442610e679190614f0f565b115b9250509250929050565b60008073ffffffffffffffffffffffffffffffffffffffff168273ffffffffffffffffffffffffffffffffffffffff161415610ee4576040517f08c379a0000000000000000000000000000000000000000000000000000000008152600401610edb90615021565b60405180910390fd5b600360008373ffffffffffffffffffffffffffffffffffffffff1673ffffffffffffffffffffffffffffffffffffffff168152602001908152602001600020549050919050565b606060018054610f3a90614cf8565b80601f0160208091040260200160405190810160405280929190818152602001828054610f6690614cf8565b8015610fb35780601f10610f8857610100808354040283529160200191610fb3565b820191906000526020600020905b815481529060010190602001808311610f9657829003601f168201915b5050505050905090565b610fc56138e7565b601760008381526020019081526020016000206040518060400160405290816000820154815260200160018201805480602002602001604051908101604052809291908181526020016000905b8282101561120f57838290600052602060002090600f02016040518060e00160405290816000820160009054906101000a900473ffffffffffffffffffffffffffffffffffffffff1673ffffffffffffffffffffffffffffffffffffffff1673ffffffffffffffffffffffffffffffffffffffff1681526020016001820154815260200160028201604051806101200160405290816000820160009054906101000a900473ffffffffffffffffffffffffffffffffffffffff1673ffffffffffffffffffffffffffffffffffffffff1673ffffffffffffffffffffffffffffffffffffffff16815260200160018201805461110c90614cf8565b80601f016020809104026020016040519081016040528092919081815260200182805461113890614cf8565b80156111855780601f1061115a57610100808354040283529160200191611185565b820191906000526020600020905b81548152906001019060200180831161116857829003601f168201915b505050505081526020016002820154815260200160038201548152602001600482015481526020016005820154815260200160068201548152602001600782015481526020016008820154815250508152602001600b8201548152602001600c8201548152602001600d8201548152602001600e8201548152505081526020019060010190611012565b50505050815250509050919050565b611230611229611d5a565b838361230f565b5050565b61124561123f611d5a565b83611e1b565b611284576040517f08c379a000000000000000000000000000000000000000000000000000000000815260040161127b90614ec0565b60405180910390fd5b6112908484848461247c565b50505050565b60606112a182611d0f565b60006112ab6124d8565b905060008151116112cb57604051806020016040528060008152506112f6565b806112d5846124ef565b6040516020016112e692919061507d565b6040516020818303038152906040525b915050919050565b60195481565b600047905090565b6000600560008473ffffffffffffffffffffffffffffffffffffffff1673ffffffffffffffffffffffffffffffffffffffff16815260200190815260200160002060008373ffffffffffffffffffffffffffffffffffffffff1673ffffffffffffffffffffffffffffffffffffffff16815260200190815260200160002060009054906101000a900460ff16905092915050565b3382601560008373ffffffffffffffffffffffffffffffffffffffff1673ffffffffffffffffffffffffffffffffffffffff168152602001908152602001600020600082815260200190815260200160002060000160009054906101000a900473ffffffffffffffffffffffffffffffffffffffff1673ffffffffffffffffffffffffffffffffffffffff168273ffffffffffffffffffffffffffffffffffffffff16148015611483575061145481610d94565b73ffffffffffffffffffffffffffffffffffffffff168273ffffffffffffffffffffffffffffffffffffffff16145b6114c2576040517f08c379a00000000000000000000000000000000000000000000000000000000081526004016114b9906150ed565b60405180910390fd5b346019811015611507576040517f08c379a00000000000000000000000000000000000000000000000000000000081526004016114fe9061517f565b60405180910390fd5b60004290506000606460178761151d919061519f565b6115279190615228565b90506000606460498861153a919061519f565b6115449190615228565b905081601560003373ffffffffffffffffffffffffffffffffffffffff1673ffffffffffffffffffffffffffffffffffffffff16815260200190815260200160002060008a815260200190815260200160002060070160008282546115a99190615259565b9250508190555080601560003373ffffffffffffffffffffffffffffffffffffffff1673ffffffffffffffffffffffffffffffffffffffff16815260200190815260200160002060008a815260200190815260200160002060080160008282546116139190615259565b9250508190555080601460003373ffffffffffffffffffffffffffffffffffffffff1673ffffffffffffffffffffffffffffffffffffffff16815260200190815260200160002060008a8152602001908152602001600020600082825461167a9190615259565b9250508190555081601360003373ffffffffffffffffffffffffffffffffffffffff1673ffffffffffffffffffffffffffffffffffffffff16815260200190815260200160002060008a815260200190815260200160002060008282546116e19190615259565b9250508190555061187e601560003373ffffffffffffffffffffffffffffffffffffffff1673ffffffffffffffffffffffffffffffffffffffff16815260200190815260200160002060008a8152602001908152602001600020604051806101200160405290816000820160009054906101000a900473ffffffffffffffffffffffffffffffffffffffff1673ffffffffffffffffffffffffffffffffffffffff1673ffffffffffffffffffffffffffffffffffffffff1681526020016001820180546117ad90614cf8565b80601f01602080910402602001604051908101604052809291908181526020018280546117d990614cf8565b80156118265780601f106117fb57610100808354040283529160200191611826565b820191906000526020600020905b81548152906001019060200180831161180957829003601f168201915b5050505050815260200160028201548152602001600382015481526020016004820154815260200160058201548152602001600682015481526020016007820154815260200160088201548152505088858585612650565b5050505050505050565b3460198110156118cd576040517f08c379a00000000000000000000000000000000000000000000000000000000081526004016118c49061517f565b60405180910390fd5b6118d633610d2d565b15611916576040517f08c379a000000000000000000000000000000000000000000000000000000000815260040161190d906152fb565b60405180910390fd5b601284101561195a576040517f08c379a00000000000000000000000000000000000000000000000000000000081526004016119519061538d565b60405180910390fd5b60006301e133808561196c919061519f565b90506000429050600061197f6006612871565b905061198b600661287f565b6119953382612895565b6000836372a945806119a79190614f0f565b9050600081846119b79190615259565b9050600062278d0080601954846119ce9190614f0f565b6119d89190615228565b6119e29190615259565b905060006040518061012001604052803373ffffffffffffffffffffffffffffffffffffffff1681526020018d81526020018c81526020018b81526020018481526020018781526020018681526020016000815260200160008152509050611a4a818a6128b3565b80601560003373ffffffffffffffffffffffffffffffffffffffff1673ffffffffffffffffffffffffffffffffffffffff168152602001908152602001600020600087815260200190815260200160002060008201518160000160006101000a81548173ffffffffffffffffffffffffffffffffffffffff021916908373ffffffffffffffffffffffffffffffffffffffff1602179055506020820151816001019080519060200190611afe929190613901565b5060408201518160020155606082015181600301556080820151816004015560a0820151816005015560c0820151816006015560e0820151816007015561010082015181600801559050506016600083815260200190815260200160002081908060018154018082558091505060019003906000526020600020906009020160009091909190915060008201518160000160006101000a81548173ffffffffffffffffffffffffffffffffffffffff021916908373ffffffffffffffffffffffffffffffffffffffff1602179055506020820151816001019080519060200190611be9929190613901565b5060408201518160020155606082015181600301556080820151816004015560a0820151816005015560c0820151816006015560e08201518160070155610100820151816008015550506001601260003373ffffffffffffffffffffffffffffffffffffffff1673ffffffffffffffffffffffffffffffffffffffff16815260200190815260200160002060006101000a81548160ff021916908315150217905550505050505050505050505050565b60068060000154905081565b60007f01ffc9a7000000000000000000000000000000000000000000000000000000007bffffffffffffffffffffffffffffffffffffffffffffffffffffffff1916827bffffffffffffffffffffffffffffffffffffffffffffffffffffffff1916149050919050565b611d1881612b9c565b611d57576040517f08c379a0000000000000000000000000000000000000000000000000000000008152600401611d4e90614f8f565b60405180910390fd5b50565b600033905090565b816004600083815260200190815260200160002060006101000a81548173ffffffffffffffffffffffffffffffffffffffff021916908373ffffffffffffffffffffffffffffffffffffffff160217905550808273ffffffffffffffffffffffffffffffffffffffff16611dd583610d94565b73ffffffffffffffffffffffffffffffffffffffff167f8c5be1e5ebec7d5bd14f71427d1e84f3dd0314c0f7b2291e5b200ac8c7c3b92560405160405180910390a45050565b600080611e2783610d94565b90508073ffffffffffffffffffffffffffffffffffffffff168473ffffffffffffffffffffffffffffffffffffffff161480611e695750611e68818561130c565b5b80611ea757508373ffffffffffffffffffffffffffffffffffffffff16611e8f8461070f565b73ffffffffffffffffffffffffffffffffffffffff16145b91505092915050565b8273ffffffffffffffffffffffffffffffffffffffff16611ed082610d94565b73ffffffffffffffffffffffffffffffffffffffff1614611f26576040517f08c379a0000000000000000000000000000000000000000000000000000000008152600401611f1d9061541f565b60405180910390fd5b600073ffffffffffffffffffffffffffffffffffffffff168273ffffffffffffffffffffffffffffffffffffffff161415611f96576040517f08c379a0000000000000000000000000000000000000000000000000000000008152600401611f8d906154b1565b60405180910390fd5b611fa1838383612c08565b611fac600082611d62565b6001600360008573ffffffffffffffffffffffffffffffffffffffff1673ffffffffffffffffffffffffffffffffffffffff1681526020019081526020016000206000828254611ffc9190614f0f565b925050819055506001600360008473ffffffffffffffffffffffffffffffffffffffff1673ffffffffffffffffffffffffffffffffffffffff16815260200190815260200160002060008282546120539190615259565b92505081905550816002600083815260200190815260200160002060006101000a81548173ffffffffffffffffffffffffffffffffffffffff021916908373ffffffffffffffffffffffffffffffffffffffff160217905550808273ffffffffffffffffffffffffffffffffffffffff168473ffffffffffffffffffffffffffffffffffffffff167fddf252ad1be2c89b69c2b068fc378daa952ba7f163c4a11628f55a4df523b3ef60405160405180910390a4612112838383612c0d565b505050565b6007600401601760006019548152602001908152602001600020908060018154018082558091505060019003906000526020600020906002020160009091909190915060008201548160000155600182018160010190805461217a929190613987565b50505060176000601954815260200190815260200160002060000154600760010160008282546121aa9190615259565b9250508190555060186000601954815260200190815260200160002060010154600760020160008282546121de9190615259565b9250508190555060006007600201546007600101546121fd91906154d1565b9050600081121561225f578061221290615565565b6007600001600082825461222691906154d1565b925050819055508061223790615565565b6007600101600082825461224b9190615259565b9250508190555061225a612c12565b61229b565b600081131561229157612270612c12565b806007600001600082825461228591906155ae565b9250508190555061229a565b612299612c12565b5b5b426019819055506122ad601954612f49565b6000600e600181600181540180825580915050039060005260206000209060020201905080601760006019548152602001908152602001600020600082015481600001556001820181600101908054612307929190613987565b509050505050565b8173ffffffffffffffffffffffffffffffffffffffff168373ffffffffffffffffffffffffffffffffffffffff16141561237e576040517f08c379a00000000000000000000000000000000000000000000000000000000081526004016123759061568e565b60405180910390fd5b80600560008573ffffffffffffffffffffffffffffffffffffffff1673ffffffffffffffffffffffffffffffffffffffff16815260200190815260200160002060008473ffffffffffffffffffffffffffffffffffffffff1673ffffffffffffffffffffffffffffffffffffffff16815260200190815260200160002060006101000a81548160ff0219169083151502179055508173ffffffffffffffffffffffffffffffffffffffff168373ffffffffffffffffffffffffffffffffffffffff167f17307eab39ab6107e8899845ad3d59bd9653f200f220920489ca2b5937696c318360405161246f9190613e2f565b60405180910390a3505050565b612487848484611eb0565b61249384848484613133565b6124d2576040517f08c379a00000000000000000000000000000000000000000000000000000000081526004016124c990615720565b60405180910390fd5b50505050565b606060405180602001604052806000815250905090565b60606000821415612537576040518060400160405280600181526020017f3000000000000000000000000000000000000000000000000000000000000000815250905061264b565b600082905060005b6000821461256957808061255290615740565b915050600a826125629190615228565b915061253f565b60008167ffffffffffffffff81111561258557612584614977565b5b6040519080825280601f01601f1916602001820160405280156125b75781602001600182028036833780820191505090505b5090505b60008514612644576001826125d09190614f0f565b9150600a856125df9190615789565b60306125eb9190615259565b60f81b818381518110612601576126006157ba565b5b60200101907effffffffffffffffffffffffffffffffffffffffffffffffffffffffffffff1916908160001a905350600a8561263d9190615228565b94506125bb565b8093505050505b919050565b600083604051602001612663919061580a565b6040516020818303038152906040528051906020012090508460176000601954815260200190815260200160002060000160008282546126a39190615259565b925050819055506017600060195481526020019081526020016000206001016040518060e00160405280886000015173ffffffffffffffffffffffffffffffffffffffff1681526020018381526020018881526020018681526020018581526020018481526020018781525090806001815401808255809150506001900390600052602060002090600f020160009091909190915060008201518160000160006101000a81548173ffffffffffffffffffffffffffffffffffffffff021916908373ffffffffffffffffffffffffffffffffffffffff1602179055506020820151816001015560408201518160020160008201518160000160006101000a81548173ffffffffffffffffffffffffffffffffffffffff021916908373ffffffffffffffffffffffffffffffffffffffff16021790555060208201518160010190805190602001906127f5929190613901565b5060408201518160020155606082015181600301556080820151816004015560a0820151816005015560c0820151816006015560e0820151816007015561010082015181600801555050606082015181600b0155608082015181600c015560a082015181600d015560c082015181600e01555050505050505050565b600081600001549050919050565b6001816000016000828254019250508190555050565b6128af8282604051806020016040528060008152506132ca565b5050565b6000429050600060646017846128c9919061519f565b6128d39190615228565b9050600060646049856128e6919061519f565b6128f09190615228565b9050818560e0018181516129049190615259565b9150818152505080856101000181815161291e9190615259565b9150818152505080601460003373ffffffffffffffffffffffffffffffffffffffff1673ffffffffffffffffffffffffffffffffffffffff16815260200190815260200160002060008760c00151815260200190815260200160002060008282546129899190615259565b9250508190555081601360003373ffffffffffffffffffffffffffffffffffffffff1673ffffffffffffffffffffffffffffffffffffffff16815260200190815260200160002060008760c00151815260200190815260200160002060008282546129f49190615259565b92505081905550612b95601560003373ffffffffffffffffffffffffffffffffffffffff1673ffffffffffffffffffffffffffffffffffffffff16815260200190815260200160002060008760c001518152602001908152602001600020604051806101200160405290816000820160009054906101000a900473ffffffffffffffffffffffffffffffffffffffff1673ffffffffffffffffffffffffffffffffffffffff1673ffffffffffffffffffffffffffffffffffffffff168152602001600182018054612ac490614cf8565b80601f0160208091040260200160405190810160405280929190818152602001828054612af090614cf8565b8015612b3d5780601f10612b1257610100808354040283529160200191612b3d565b820191906000526020600020905b815481529060010190602001808311612b2057829003601f168201915b5050505050815260200160028201548152602001600382015481526020016004820154815260200160058201548152602001600682015481526020016007820154815260200160088201548152505085858585612650565b5050505050565b60008073ffffffffffffffffffffffffffffffffffffffff166002600084815260200190815260200160002060009054906101000a900473ffffffffffffffffffffffffffffffffffffffff1673ffffffffffffffffffffffffffffffffffffffff1614159050919050565b505050565b505050565b60006007600301805480602002602001604051908101604052809291908181526020016000905b82821015612d5c5783829060005260206000209060030201604051806060016040529081600082015481526020016001820154815260200160028201805480602002602001604051908101604052809291908181526020016000905b82821015612d4557838290600052602060002090600502016040518060a00160405290816000820160009054906101000a900473ffffffffffffffffffffffffffffffffffffffff1673ffffffffffffffffffffffffffffffffffffffff1673ffffffffffffffffffffffffffffffffffffffff16815260200160018201548152602001600282015481526020016003820154815260200160048201548152505081526020019060010190612c95565b505050508152505081526020019060010190612c39565b50505050905060005b8151811115612f45576000828281518110612d8357612d826157ba565b5b602002602001015160400151905060005b8151811115612f30576000828281518110612db257612db16157ba565b5b60200260200101519050806000015173ffffffffffffffffffffffffffffffffffffffff166108fc82602001519081150290604051600060405180830381858888f19350505050158015612e0a573d6000803e3d6000fd5b50806020015160076002016000828254612e249190614f0f565b92505081905550806020015160076001016000828254612e449190614f0f565b92505081905550806000015173ffffffffffffffffffffffffffffffffffffffff166108fc82602001519081150290604051600060405180830381858888f19350505050158015612e99573d6000803e3d6000fd5b50806020015181606001818151612eb09190615259565b915081815250508060800151816060015110612f1c57828281518110612ed957612ed86157ba565b5b60200260200101612ee8613b4f565b815250600083511415612f1b57848481518110612f0857612f076157ba565b5b60200260200101612f17613b94565b8152505b5b508080612f2890615740565b915050612d94565b50508080612f3d90615740565b915050612d65565b5050565b600060166000838152602001908152602001600020805480602002602001604051908101604052809291908181526020016000905b828210156130df5783829060005260206000209060090201604051806101200160405290816000820160009054906101000a900473ffffffffffffffffffffffffffffffffffffffff1673ffffffffffffffffffffffffffffffffffffffff1673ffffffffffffffffffffffffffffffffffffffff16815260200160018201805461300890614cf8565b80601f016020809104026020016040519081016040528092919081815260200182805461303490614cf8565b80156130815780601f1061305657610100808354040283529160200191613081565b820191906000526020600020905b81548152906001019060200180831161306457829003601f168201915b5050505050815260200160028201548152602001600382015481526020016004820154815260200160058201548152602001600682015481526020016007820154815260200160088201548152505081526020019060010190612f7e565b50505050905060005b815181111561312e576000828281518110613106576131056157ba565b5b6020026020010151905061311a8185613325565b50808061312690615740565b9150506130e8565b505050565b60006131548473ffffffffffffffffffffffffffffffffffffffff16613580565b156132bd578373ffffffffffffffffffffffffffffffffffffffff1663150b7a0261317d611d5a565b8786866040518563ffffffff1660e01b815260040161319f9493929190615825565b602060405180830381600087803b1580156131b957600080fd5b505af19250505080156131ea57506040513d601f19601f820116820180604052508101906131e79190615886565b60015b61326d573d806000811461321a576040519150601f19603f3d011682016040523d82523d6000602084013e61321f565b606091505b50600081511415613265576040517f08c379a000000000000000000000000000000000000000000000000000000000815260040161325c90615720565b60405180910390fd5b805181602001fd5b63150b7a0260e01b7bffffffffffffffffffffffffffffffffffffffffffffffffffffffff1916817bffffffffffffffffffffffffffffffffffffffffffffffffffffffff1916149150506132c2565b600190505b949350505050565b6132d483836135a3565b6132e16000848484613133565b613320576040517f08c379a000000000000000000000000000000000000000000000000000000000815260040161331790615720565b60405180910390fd5b505050565b600060136000846000015173ffffffffffffffffffffffffffffffffffffffff1673ffffffffffffffffffffffffffffffffffffffff16815260200190815260200160002060008460c001518152602001908152602001600020549050600060146000856000015173ffffffffffffffffffffffffffffffffffffffff1673ffffffffffffffffffffffffffffffffffffffff16815260200190815260200160002060008560c001518152602001908152602001600020549050600081836133ed9190615259565b90506000600c6015836134009190615228565b61340a9190615228565b9050600061341b876020015161377d565b905060006040518060a00160405280896000015173ffffffffffffffffffffffffffffffffffffffff16815260200184815260200183815260200160008152602001858152509050806080015160186000898152602001908152602001600020600001600082825461348d9190615259565b9250508190555080602001516018600089815260200190815260200160002060010160008282546134be9190615259565b925050819055506018600088815260200190815260200160002060020181908060018154018082558091505060019003906000526020600020906005020160009091909190915060008201518160000160006101000a81548173ffffffffffffffffffffffffffffffffffffffff021916908373ffffffffffffffffffffffffffffffffffffffff1602179055506020820151816001015560408201518160020155606082015181600301556080820151816004015550505050505050505050565b6000808273ffffffffffffffffffffffffffffffffffffffff163b119050919050565b600073ffffffffffffffffffffffffffffffffffffffff168273ffffffffffffffffffffffffffffffffffffffff161415613613576040517f08c379a000000000000000000000000000000000000000000000000000000000815260040161360a906158ff565b60405180910390fd5b61361c81612b9c565b1561365c576040517f08c379a00000000000000000000000000000000000000000000000000000000081526004016136539061596b565b60405180910390fd5b61366860008383612c08565b6001600360008473ffffffffffffffffffffffffffffffffffffffff1673ffffffffffffffffffffffffffffffffffffffff16815260200190815260200160002060008282546136b89190615259565b92505081905550816002600083815260200190815260200160002060006101000a81548173ffffffffffffffffffffffffffffffffffffffff021916908373ffffffffffffffffffffffffffffffffffffffff160217905550808273ffffffffffffffffffffffffffffffffffffffff16600073ffffffffffffffffffffffffffffffffffffffff167fddf252ad1be2c89b69c2b068fc378daa952ba7f163c4a11628f55a4df523b3ef60405160405180910390a461377960008383612c0d565b5050565b60006137be826040518060400160405280600481526020017f6d616c650000000000000000000000000000000000000000000000000000000081525061385f565b156137ea57600c6372a94580639fc619806137d99190614f0f565b6137e39190615228565b905061385a565b613829826040518060400160405280600681526020017f66656d616c65000000000000000000000000000000000000000000000000000081525061385f565b1561385557600c6372a9458063966018006138449190614f0f565b61384e9190615228565b905061385a565b600090505b919050565b600081604051602001613872919061598b565b6040516020818303038152906040528051906020012083604051602001613899919061598b565b6040516020818303038152906040528051906020012014905092915050565b6040518060a0016040528060008152602001600081526020016000815260200160608152602001606081525090565b604051806040016040528060008152602001606081525090565b82805461390d90614cf8565b90600052602060002090601f01602090048101928261392f5760008555613976565b82601f1061394857805160ff1916838001178555613976565b82800160010185558215613976579182015b8281111561397557825182559160200191906001019061395a565b5b5090506139839190613bb5565b5090565b82805482825590600052602060002090600f028101928215613b3e57600052602060002091600f0282015b82811115613b3d5782826000820160009054906101000a900473ffffffffffffffffffffffffffffffffffffffff168160000160006101000a81548173ffffffffffffffffffffffffffffffffffffffff021916908373ffffffffffffffffffffffffffffffffffffffff1602179055506001820154816001015560028201816002016000820160009054906101000a900473ffffffffffffffffffffffffffffffffffffffff168160000160006101000a81548173ffffffffffffffffffffffffffffffffffffffff021916908373ffffffffffffffffffffffffffffffffffffffff1602179055506001820181600101908054613ab090614cf8565b613abb929190613bd2565b50600282015481600201556003820154816003015560048201548160040155600582015481600501556006820154816006015560078201548160070155600882015481600801555050600b82015481600b0155600c82015481600c0155600d82015481600d0155600e82015481600e0155505091600f019190600f01906139b2565b5b509050613b4b9190613c5f565b5090565b6040518060a00160405280600073ffffffffffffffffffffffffffffffffffffffff168152602001600081526020016000815260200160008152602001600081525090565b60405180606001604052806000815260200160008152602001606081525090565b5b80821115613bce576000816000905550600101613bb6565b5090565b828054613bde90614cf8565b90600052602060002090601f016020900481019282613c005760008555613c4e565b82601f10613c115780548555613c4e565b82800160010185558215613c4e57600052602060002091601f016020900482015b82811115613c4d578254825591600101919060010190613c32565b5b509050613c5b9190613bb5565b5090565b5b80821115613d3757600080820160006101000a81549073ffffffffffffffffffffffffffffffffffffffff0219169055600182016000905560028201600080820160006101000a81549073ffffffffffffffffffffffffffffffffffffffff0219169055600182016000613cd49190613d3b565b60028201600090556003820160009055600482016000905560058201600090556006820160009055600782016000905560088201600090555050600b820160009055600c820160009055600d820160009055600e82016000905550600f01613c60565b5090565b508054613d4790614cf8565b6000825580601f10613d595750613d78565b601f016020900490600052602060002090810190613d779190613bb5565b5b50565b6000604051905090565b600080fd5b600080fd5b60007fffffffff0000000000000000000000000000000000000000000000000000000082169050919050565b613dc481613d8f565b8114613dcf57600080fd5b50565b600081359050613de181613dbb565b92915050565b600060208284031215613dfd57613dfc613d85565b5b6000613e0b84828501613dd2565b91505092915050565b60008115159050919050565b613e2981613e14565b82525050565b6000602082019050613e446000830184613e20565b92915050565b600081519050919050565b600082825260208201905092915050565b60005b83811015613e84578082015181840152602081019050613e69565b83811115613e93576000848401525b50505050565b6000601f19601f8301169050919050565b6000613eb582613e4a565b613ebf8185613e55565b9350613ecf818560208601613e66565b613ed881613e99565b840191505092915050565b60006020820190508181036000830152613efd8184613eaa565b905092915050565b6000819050919050565b613f1881613f05565b8114613f2357600080fd5b50565b600081359050613f3581613f0f565b92915050565b600060208284031215613f5157613f50613d85565b5b6000613f5f84828501613f26565b91505092915050565b600073ffffffffffffffffffffffffffffffffffffffff82169050919050565b6000613f9382613f68565b9050919050565b613fa381613f88565b82525050565b6000602082019050613fbe6000830184613f9a565b92915050565b613fcd81613f88565b8114613fd857600080fd5b50565b600081359050613fea81613fc4565b92915050565b6000806040838503121561400757614006613d85565b5b600061401585828601613fdb565b925050602061402685828601613f26565b9150509250929050565b6000819050919050565b61404381614030565b82525050565b61405281613f05565b82525050565b600081519050919050565b600082825260208201905092915050565b6000819050602082019050919050565b600081519050919050565b600082825260208201905092915050565b6000819050602082019050919050565b60006140bb82613f68565b9050919050565b6140cb816140b0565b82525050565b60a0820160008201516140e760008501826140c2565b5060208201516140fa6020850182614049565b50604082015161410d6040850182614049565b5060608201516141206060850182614049565b5060808201516141336080850182614049565b50505050565b600061414583836140d1565b60a08301905092915050565b6000602082019050919050565b600061416982614084565b614173818561408f565b935061417e836140a0565b8060005b838110156141af5781516141968882614139565b97506141a183614151565b925050600181019050614182565b5085935050505092915050565b60006060830160008301516141d46000860182614049565b5060208301516141e76020860182614049565b50604083015184820360408601526141ff828261415e565b9150508091505092915050565b600061421883836141bc565b905092915050565b6000602082019050919050565b600061423882614058565b6142428185614063565b93508360208202850161425485614074565b8060005b858110156142905784840389528151614271858261420c565b945061427c83614220565b925060208a01995050600181019050614258565b50829750879550505050505092915050565b600081519050919050565b600082825260208201905092915050565b6000819050602082019050919050565b600081519050919050565b600082825260208201905092915050565b6000819050602082019050919050565b6000819050919050565b61430d816142fa565b82525050565b600082825260208201905092915050565b600061432f82613e4a565b6143398185614313565b9350614349818560208601613e66565b61435281613e99565b840191505092915050565b60006101208301600083015161437660008601826140c2565b506020830151848203602086015261438e8282614324565b91505060408301516143a36040860182614049565b5060608301516143b66060860182614049565b5060808301516143c96080860182614049565b5060a08301516143dc60a0860182614049565b5060c08301516143ef60c0860182614049565b5060e083015161440260e0860182614049565b50610100830151614417610100860182614049565b508091505092915050565b600060e08301600083015161443a60008601826140c2565b50602083015161444d6020860182614304565b5060408301518482036040860152614465828261435d565b915050606083015161447a6060860182614049565b50608083015161448d6080860182614049565b5060a08301516144a060a0860182614049565b5060c08301516144b360c0860182614049565b508091505092915050565b60006144ca8383614422565b905092915050565b6000602082019050919050565b60006144ea826142ce565b6144f481856142d9565b935083602082028501614506856142ea565b8060005b85811015614542578484038952815161452385826144be565b945061452e836144d2565b925060208a0199505060018101905061450a565b50829750879550505050505092915050565b600060408301600083015161456c6000860182614049565b506020830151848203602086015261458482826144df565b9150508091505092915050565b600061459d8383614554565b905092915050565b6000602082019050919050565b60006145bd826142a2565b6145c781856142ad565b9350836020820285016145d9856142be565b8060005b8581101561461557848403895281516145f68582614591565b9450614601836145a5565b925060208a019950506001810190506145dd565b50829750879550505050505092915050565b600060a08301600083015161463f600086018261403a565b5060208301516146526020860182614049565b5060408301516146656040860182614049565b506060830151848203606086015261467d828261422d565b9150506080830151848203608086015261469782826145b2565b9150508091505092915050565b600060208201905081810360008301526146be8184614627565b905092915050565b6000806000606084860312156146df576146de613d85565b5b60006146ed86828701613fdb565b93505060206146fe86828701613fdb565b925050604061470f86828701613f26565b9150509250925092565b600080fd5b600080fd5b600080fd5b60008083601f84011261473e5761473d614719565b5b8235905067ffffffffffffffff81111561475b5761475a61471e565b5b60208301915083600182028301111561477757614776614723565b5b9250929050565b6000806020838503121561479557614794613d85565b5b600083013567ffffffffffffffff8111156147b3576147b2613d8a565b5b6147bf85828601614728565b92509250509250929050565b6000602082840312156147e1576147e0613d85565b5b60006147ef84828501613fdb565b91505092915050565b600081519050919050565b600082825260208201905092915050565b600061481f826147f8565b6148298185614803565b9350614839818560208601613e66565b61484281613e99565b840191505092915050565b60006040820190506148626000830185613e20565b81810360208301526148748184614814565b90509392505050565b61488681613f05565b82525050565b60006020820190506148a1600083018461487d565b92915050565b60006040830160008301516148bf6000860182614049565b50602083015184820360208601526148d782826144df565b9150508091505092915050565b600060208201905081810360008301526148fe81846148a7565b905092915050565b61490f81613e14565b811461491a57600080fd5b50565b60008135905061492c81614906565b92915050565b6000806040838503121561494957614948613d85565b5b600061495785828601613fdb565b92505060206149688582860161491d565b9150509250929050565b600080fd5b7f4e487b7100000000000000000000000000000000000000000000000000000000600052604160045260246000fd5b6149af82613e99565b810181811067ffffffffffffffff821117156149ce576149cd614977565b5b80604052505050565b60006149e1613d7b565b90506149ed82826149a6565b919050565b600067ffffffffffffffff821115614a0d57614a0c614977565b5b614a1682613e99565b9050602081019050919050565b82818337600083830152505050565b6000614a45614a40846149f2565b6149d7565b905082815260208101848484011115614a6157614a60614972565b5b614a6c848285614a23565b509392505050565b600082601f830112614a8957614a88614719565b5b8135614a99848260208601614a32565b91505092915050565b60008060008060808587031215614abc57614abb613d85565b5b6000614aca87828801613fdb565b9450506020614adb87828801613fdb565b9350506040614aec87828801613f26565b925050606085013567ffffffffffffffff811115614b0d57614b0c613d8a565b5b614b1987828801614a74565b91505092959194509250565b60008060408385031215614b3c57614b3b613d85565b5b6000614b4a85828601613fdb565b9250506020614b5b85828601613fdb565b9150509250929050565b60008060408385031215614b7c57614b7b613d85565b5b6000614b8a85828601613f26565b9250506020614b9b85828601613f26565b9150509250929050565b600067ffffffffffffffff821115614bc057614bbf614977565b5b614bc982613e99565b9050602081019050919050565b6000614be9614be484614ba5565b6149d7565b905082815260208101848484011115614c0557614c04614972565b5b614c10848285614a23565b509392505050565b600082601f830112614c2d57614c2c614719565b5b8135614c3d848260208601614bd6565b91505092915050565b60008060008060808587031215614c6057614c5f613d85565b5b600085013567ffffffffffffffff811115614c7e57614c7d613d8a565b5b614c8a87828801614c18565b9450506020614c9b87828801613f26565b9350506040614cac87828801613f26565b9250506060614cbd87828801613f26565b91505092959194509250565b7f4e487b7100000000000000000000000000000000000000000000000000000000600052602260045260246000fd5b60006002820490506001821680614d1057607f821691505b60208210811415614d2457614d23614cc9565b5b50919050565b7f4552433732313a20617070726f76616c20746f2063757272656e74206f776e6560008201527f7200000000000000000000000000000000000000000000000000000000000000602082015250565b6000614d86602183613e55565b9150614d9182614d2a565b604082019050919050565b60006020820190508181036000830152614db581614d79565b9050919050565b7f4552433732313a20617070726f76652063616c6c6572206973206e6f7420746f60008201527f6b656e206f776e6572206e6f7220617070726f76656420666f7220616c6c0000602082015250565b6000614e18603e83613e55565b9150614e2382614dbc565b604082019050919050565b60006020820190508181036000830152614e4781614e0b565b9050919050565b7f4552433732313a2063616c6c6572206973206e6f7420746f6b656e206f776e6560008201527f72206e6f7220617070726f766564000000000000000000000000000000000000602082015250565b6000614eaa602e83613e55565b9150614eb582614e4e565b604082019050919050565b60006020820190508181036000830152614ed981614e9d565b9050919050565b7f4e487b7100000000000000000000000000000000000000000000000000000000600052601160045260246000fd5b6000614f1a82613f05565b9150614f2583613f05565b925082821015614f3857614f37614ee0565b5b828203905092915050565b7f4552433732313a20696e76616c696420746f6b656e2049440000000000000000600082015250565b6000614f79601883613e55565b9150614f8482614f43565b602082019050919050565b60006020820190508181036000830152614fa881614f6c565b9050919050565b7f4552433732313a2061646472657373207a65726f206973206e6f74206120766160008201527f6c6964206f776e65720000000000000000000000000000000000000000000000602082015250565b600061500b602983613e55565b915061501682614faf565b604082019050919050565b6000602082019050818103600083015261503a81614ffe565b9050919050565b600081905092915050565b600061505782613e4a565b6150618185615041565b9350615071818560208601613e66565b80840191505092915050565b6000615089828561504c565b9150615095828461504c565b91508190509392505050565b7f596f7520646f6e2774206f776e20746869732070656e73696f6e000000000000600082015250565b60006150d7601a83613e55565b91506150e2826150a1565b602082019050919050565b60006020820190508181036000830152615106816150ca565b9050919050565b7f54686520616d6f756e7420646f65736e277420726561636820746865206d696e60008201527f696d756d20726571756972656400000000000000000000000000000000000000602082015250565b6000615169602d83613e55565b91506151748261510d565b604082019050919050565b600060208201905081810360008301526151988161515c565b9050919050565b60006151aa82613f05565b91506151b583613f05565b9250817fffffffffffffffffffffffffffffffffffffffffffffffffffffffffffffffff04831182151516156151ee576151ed614ee0565b5b828202905092915050565b7f4e487b7100000000000000000000000000000000000000000000000000000000600052601260045260246000fd5b600061523382613f05565b915061523e83613f05565b92508261524e5761524d6151f9565b5b828204905092915050565b600061526482613f05565b915061526f83613f05565b9250827fffffffffffffffffffffffffffffffffffffffffffffffffffffffffffffffff038211156152a4576152a3614ee0565b5b828201905092915050565b7f416c72656164792067656e657261746564206869732070656e73696f6e000000600082015250565b60006152e5601d83613e55565b91506152f0826152af565b602082019050919050565b60006020820190508181036000830152615314816152d8565b9050919050565b7f596f75206d757374206265203138207965617273206f72206f6c64657220746f60008201527f2067656e657261746520612070656e73696f6e00000000000000000000000000602082015250565b6000615377603383613e55565b91506153828261531b565b604082019050919050565b600060208201905081810360008301526153a68161536a565b9050919050565b7f4552433732313a207472616e736665722066726f6d20696e636f72726563742060008201527f6f776e6572000000000000000000000000000000000000000000000000000000602082015250565b6000615409602583613e55565b9150615414826153ad565b604082019050919050565b60006020820190508181036000830152615438816153fc565b9050919050565b7f4552433732313a207472616e7366657220746f20746865207a65726f2061646460008201527f7265737300000000000000000000000000000000000000000000000000000000602082015250565b600061549b602483613e55565b91506154a68261543f565b604082019050919050565b600060208201905081810360008301526154ca8161548e565b9050919050565b60006154dc82614030565b91506154e783614030565b9250827f80000000000000000000000000000000000000000000000000000000000000000182126000841215161561552257615521614ee0565b5b827f7fffffffffffffffffffffffffffffffffffffffffffffffffffffffffffffff01821360008412161561555a57615559614ee0565b5b828203905092915050565b600061557082614030565b91507f80000000000000000000000000000000000000000000000000000000000000008214156155a3576155a2614ee0565b5b816000039050919050565b60006155b982614030565b91506155c483614030565b9250817f7fffffffffffffffffffffffffffffffffffffffffffffffffffffffffffffff038313600083121516156155ff576155fe614ee0565b5b817f800000000000000000000000000000000000000000000000000000000000000003831260008312161561563757615636614ee0565b5b828201905092915050565b7f4552433732313a20617070726f766520746f2063616c6c657200000000000000600082015250565b6000615678601983613e55565b915061568382615642565b602082019050919050565b600060208201905081810360008301526156a78161566b565b9050919050565b7f4552433732313a207472616e7366657220746f206e6f6e20455243373231526560008201527f63656976657220696d706c656d656e7465720000000000000000000000000000602082015250565b600061570a603283613e55565b9150615715826156ae565b604082019050919050565b60006020820190508181036000830152615739816156fd565b9050919050565b600061574b82613f05565b91507fffffffffffffffffffffffffffffffffffffffffffffffffffffffffffffffff82141561577e5761577d614ee0565b5b600182019050919050565b600061579482613f05565b915061579f83613f05565b9250826157af576157ae6151f9565b5b828206905092915050565b7f4e487b7100000000000000000000000000000000000000000000000000000000600052603260045260246000fd5b6000819050919050565b6158046157ff82613f05565b6157e9565b82525050565b600061581682846157f3565b60208201915081905092915050565b600060808201905061583a6000830187613f9a565b6158476020830186613f9a565b615854604083018561487d565b81810360608301526158668184614814565b905095945050505050565b60008151905061588081613dbb565b92915050565b60006020828403121561589c5761589b613d85565b5b60006158aa84828501615871565b91505092915050565b7f4552433732313a206d696e7420746f20746865207a65726f2061646472657373600082015250565b60006158e9602083613e55565b91506158f4826158b3565b602082019050919050565b60006020820190508181036000830152615918816158dc565b9050919050565b7f4552433732313a20746f6b656e20616c7265616479206d696e74656400000000600082015250565b6000615955601c83613e55565b91506159608261591f565b602082019050919050565b6000602082019050818103600083015261598481615948565b9050919050565b6000615997828461504c565b91508190509291505056fea26469706673582212204074de4dbcdf7488a05a51548b02ec35773c1f1d01bd3bff628bb0919fa4400564736f6c63430008090033",
  "linkReferences": {},
  "deployedLinkReferences": {}
}