{
  "_format": "hh-sol-artifact-1",
  "contractName": "Pension",
  "sourceName": "src/blockchain/hardhat/contracts/Pension.sol",
  "abi": [
    {
      "inputs": [],
      "stateMutability": "nonpayable",
      "type": "constructor"
    },
    {
      "anonymous": false,
      "inputs": [
        {
          "indexed": true,
          "internalType": "address",
          "name": "owner",
          "type": "address"
        },
        {
          "indexed": true,
          "internalType": "address",
          "name": "approved",
          "type": "address"
        },
        {
          "indexed": true,
          "internalType": "uint256",
          "name": "tokenId",
          "type": "uint256"
        }
      ],
      "name": "Approval",
      "type": "event"
    },
    {
      "anonymous": false,
      "inputs": [
        {
          "indexed": true,
          "internalType": "address",
          "name": "owner",
          "type": "address"
        },
        {
          "indexed": true,
          "internalType": "address",
          "name": "operator",
          "type": "address"
        },
        {
          "indexed": false,
          "internalType": "bool",
          "name": "approved",
          "type": "bool"
        }
      ],
      "name": "ApprovalForAll",
      "type": "event"
    },
    {
      "anonymous": false,
      "inputs": [
        {
          "indexed": true,
          "internalType": "address",
          "name": "from",
          "type": "address"
        },
        {
          "indexed": true,
          "internalType": "address",
          "name": "to",
          "type": "address"
        },
        {
          "indexed": true,
          "internalType": "uint256",
          "name": "tokenId",
          "type": "uint256"
        }
      ],
      "name": "Transfer",
      "type": "event"
    },
    {
      "inputs": [
        {
          "internalType": "address",
          "name": "",
          "type": "address"
        }
      ],
      "name": "addressesThatAlreadyMinted",
      "outputs": [
        {
          "internalType": "bool",
          "name": "",
          "type": "bool"
        }
      ],
      "stateMutability": "view",
      "type": "function"
    },
    {
      "inputs": [
        {
          "internalType": "address",
          "name": "to",
          "type": "address"
        },
        {
          "internalType": "uint256",
          "name": "tokenId",
          "type": "uint256"
        }
      ],
      "name": "approve",
      "outputs": [],
      "stateMutability": "nonpayable",
      "type": "function"
    },
    {
      "inputs": [
        {
          "internalType": "address",
          "name": "owner",
          "type": "address"
        }
      ],
      "name": "balanceOf",
      "outputs": [
        {
          "internalType": "uint256",
          "name": "",
          "type": "uint256"
        }
      ],
      "stateMutability": "view",
      "type": "function"
    },
    {
      "inputs": [],
      "name": "cutoffDate",
      "outputs": [
        {
          "internalType": "uint256",
          "name": "",
          "type": "uint256"
        }
      ],
      "stateMutability": "view",
      "type": "function"
    },
    {
      "inputs": [
        {
          "internalType": "uint256",
          "name": "",
          "type": "uint256"
        },
        {
          "internalType": "uint256",
          "name": "",
          "type": "uint256"
        }
      ],
      "name": "cutoffDateWithdrawPensionBalance",
      "outputs": [
        {
          "internalType": "address payable",
          "name": "owner",
          "type": "address"
        },
        {
          "internalType": "string",
          "name": "biologySex",
          "type": "string"
        },
        {
          "internalType": "uint256",
          "name": "age",
          "type": "uint256"
        },
        {
          "internalType": "uint256",
          "name": "bornAge",
          "type": "uint256"
        },
        {
          "internalType": "uint256",
          "name": "retirentmentDate",
          "type": "uint256"
        },
        {
          "internalType": "uint256",
          "name": "pensionCreatedTime",
          "type": "uint256"
        },
        {
          "internalType": "uint256",
          "name": "pensionId",
          "type": "uint256"
        }
      ],
      "stateMutability": "view",
      "type": "function"
    },
    {
      "inputs": [
        {
          "internalType": "uint256",
          "name": "_pensionId",
          "type": "uint256"
        },
        {
          "internalType": "uint256",
          "name": "_amount",
          "type": "uint256"
        }
      ],
      "name": "depositAmount",
      "outputs": [],
      "stateMutability": "payable",
      "type": "function"
    },
    {
      "inputs": [
        {
          "internalType": "uint256",
          "name": "tokenId",
          "type": "uint256"
        }
      ],
      "name": "getApproved",
      "outputs": [
        {
          "internalType": "address",
          "name": "",
          "type": "address"
        }
      ],
      "stateMutability": "view",
      "type": "function"
    },
    {
      "inputs": [],
      "name": "getGeneralRecord",
      "outputs": [
        {
          "components": [
            {
              "internalType": "int256",
              "name": "solvent",
              "type": "int256"
            },
            {
              "internalType": "uint256",
              "name": "totalAmount",
              "type": "uint256"
            },
            {
              "internalType": "uint256",
              "name": "totalToPay",
              "type": "uint256"
            },
            {
              "components": [
                {
                  "internalType": "uint256",
                  "name": "totalAmount",
                  "type": "uint256"
                },
                {
                  "internalType": "uint256",
                  "name": "totalToPay",
                  "type": "uint256"
                },
                {
                  "components": [
                    {
                      "internalType": "address payable",
                      "name": "owner",
                      "type": "address"
                    },
                    {
                      "internalType": "uint256",
                      "name": "monthlyQuote",
                      "type": "uint256"
                    },
                    {
                      "internalType": "uint256",
                      "name": "quantityQuotes",
                      "type": "uint256"
                    },
                    {
                      "internalType": "uint256",
                      "name": "totalPaidQuotes",
                      "type": "uint256"
                    },
                    {
                      "internalType": "uint256",
                      "name": "totalPensionValue",
                      "type": "uint256"
                    }
                  ],
                  "internalType": "struct Pension.RetairedQuote[]",
                  "name": "retairedQuotes",
                  "type": "tuple[]"
                }
              ],
              "internalType": "struct Pension.RetairedRecord[]",
              "name": "retairedRecords",
              "type": "tuple[]"
            },
            {
              "components": [
                {
                  "internalType": "uint256",
                  "name": "totalAmount",
                  "type": "uint256"
                },
                {
                  "components": [
                    {
                      "internalType": "address payable",
                      "name": "owner",
                      "type": "address"
                    },
                    {
                      "internalType": "bytes32",
                      "name": "id",
                      "type": "bytes32"
                    },
                    {
                      "components": [
                        {
                          "internalType": "address payable",
                          "name": "owner",
                          "type": "address"
                        },
                        {
                          "internalType": "string",
                          "name": "biologySex",
                          "type": "string"
                        },
                        {
                          "internalType": "uint256",
                          "name": "age",
                          "type": "uint256"
                        },
                        {
                          "internalType": "uint256",
                          "name": "bornAge",
                          "type": "uint256"
                        },
                        {
                          "internalType": "uint256",
                          "name": "retirentmentDate",
                          "type": "uint256"
                        },
                        {
                          "internalType": "uint256",
                          "name": "pensionCreatedTime",
                          "type": "uint256"
                        },
                        {
                          "internalType": "uint256",
                          "name": "pensionId",
                          "type": "uint256"
                        }
                      ],
                      "internalType": "struct Pension.DataPension",
                      "name": "dataPension",
                      "type": "tuple"
                    },
                    {
                      "internalType": "uint256",
                      "name": "contributionDate",
                      "type": "uint256"
                    },
                    {
                      "internalType": "uint256",
                      "name": "savingAmount",
                      "type": "uint256"
                    },
                    {
                      "internalType": "uint256",
                      "name": "solidaryAmount",
                      "type": "uint256"
                    },
                    {
                      "internalType": "uint256",
                      "name": "totalAmount",
                      "type": "uint256"
                    }
                  ],
                  "internalType": "struct Pension.MonthlyQuote[]",
                  "name": "monthlyQuotes",
                  "type": "tuple[]"
                }
              ],
              "internalType": "struct Pension.MonthlyRecord[]",
              "name": "monthlyRecords",
              "type": "tuple[]"
            }
          ],
          "internalType": "struct Pension.GeneralRecord",
          "name": "",
          "type": "tuple"
        }
      ],
      "stateMutability": "view",
      "type": "function"
    },
    {
      "inputs": [
        {
          "internalType": "uint256",
          "name": "_cutoffDate",
          "type": "uint256"
        }
      ],
      "name": "getMonthlyBalanceFromMonthlyGeneralBalance",
      "outputs": [
        {
          "components": [
            {
              "internalType": "uint256",
              "name": "totalAmount",
              "type": "uint256"
            },
            {
              "components": [
                {
                  "internalType": "address payable",
                  "name": "owner",
                  "type": "address"
                },
                {
                  "internalType": "bytes32",
                  "name": "id",
                  "type": "bytes32"
                },
                {
                  "components": [
                    {
                      "internalType": "address payable",
                      "name": "owner",
                      "type": "address"
                    },
                    {
                      "internalType": "string",
                      "name": "biologySex",
                      "type": "string"
                    },
                    {
                      "internalType": "uint256",
                      "name": "age",
                      "type": "uint256"
                    },
                    {
                      "internalType": "uint256",
                      "name": "bornAge",
                      "type": "uint256"
                    },
                    {
                      "internalType": "uint256",
                      "name": "retirentmentDate",
                      "type": "uint256"
                    },
                    {
                      "internalType": "uint256",
                      "name": "pensionCreatedTime",
                      "type": "uint256"
                    },
                    {
                      "internalType": "uint256",
                      "name": "pensionId",
                      "type": "uint256"
                    }
                  ],
                  "internalType": "struct Pension.DataPension",
                  "name": "dataPension",
                  "type": "tuple"
                },
                {
                  "internalType": "uint256",
                  "name": "contributionDate",
                  "type": "uint256"
                },
                {
                  "internalType": "uint256",
                  "name": "savingAmount",
                  "type": "uint256"
                },
                {
                  "internalType": "uint256",
                  "name": "solidaryAmount",
                  "type": "uint256"
                },
                {
                  "internalType": "uint256",
                  "name": "totalAmount",
                  "type": "uint256"
                }
              ],
              "internalType": "struct Pension.MonthlyQuote[]",
              "name": "monthlyQuotes",
              "type": "tuple[]"
            }
          ],
          "internalType": "struct Pension.MonthlyRecord",
          "name": "",
          "type": "tuple"
        }
      ],
      "stateMutability": "view",
      "type": "function"
    },
    {
      "inputs": [
        {
          "internalType": "address",
          "name": "owner",
          "type": "address"
        },
        {
          "internalType": "address",
          "name": "operator",
          "type": "address"
        }
      ],
      "name": "isApprovedForAll",
      "outputs": [
        {
          "internalType": "bool",
          "name": "",
          "type": "bool"
        }
      ],
      "stateMutability": "view",
      "type": "function"
    },
    {
      "inputs": [
        {
          "internalType": "uint256",
          "name": "",
          "type": "uint256"
        }
      ],
      "name": "monthlyGeneralBalance",
      "outputs": [
        {
          "internalType": "uint256",
          "name": "totalAmount",
          "type": "uint256"
        }
      ],
      "stateMutability": "view",
      "type": "function"
    },
    {
      "inputs": [],
      "name": "name",
      "outputs": [
        {
          "internalType": "string",
          "name": "",
          "type": "string"
        }
      ],
      "stateMutability": "view",
      "type": "function"
    },
    {
      "inputs": [
        {
          "internalType": "uint256",
          "name": "tokenId",
          "type": "uint256"
        }
      ],
      "name": "ownerOf",
      "outputs": [
        {
          "internalType": "address",
          "name": "",
          "type": "address"
        }
      ],
      "stateMutability": "view",
      "type": "function"
    },
    {
      "inputs": [
        {
          "internalType": "address",
          "name": "",
          "type": "address"
        },
        {
          "internalType": "uint256",
          "name": "",
          "type": "uint256"
        }
      ],
      "name": "ownerPensionsBalance",
      "outputs": [
        {
          "internalType": "address payable",
          "name": "owner",
          "type": "address"
        },
        {
          "internalType": "string",
          "name": "biologySex",
          "type": "string"
        },
        {
          "internalType": "uint256",
          "name": "age",
          "type": "uint256"
        },
        {
          "internalType": "uint256",
          "name": "bornAge",
          "type": "uint256"
        },
        {
          "internalType": "uint256",
          "name": "retirentmentDate",
          "type": "uint256"
        },
        {
          "internalType": "uint256",
          "name": "pensionCreatedTime",
          "type": "uint256"
        },
        {
          "internalType": "uint256",
          "name": "pensionId",
          "type": "uint256"
        }
      ],
      "stateMutability": "view",
      "type": "function"
    },
    {
      "inputs": [],
      "name": "pensionIdCounter",
      "outputs": [
        {
          "internalType": "uint256",
          "name": "_value",
          "type": "uint256"
        }
      ],
      "stateMutability": "view",
      "type": "function"
    },
    {
      "inputs": [
        {
          "internalType": "uint256",
          "name": "",
          "type": "uint256"
        }
      ],
      "name": "retairedBalance",
      "outputs": [
        {
          "internalType": "uint256",
          "name": "totalAmount",
          "type": "uint256"
        },
        {
          "internalType": "uint256",
          "name": "totalToPay",
          "type": "uint256"
        }
      ],
      "stateMutability": "view",
      "type": "function"
    },
    {
      "inputs": [
        {
          "internalType": "string",
          "name": "_biologySex",
          "type": "string"
        },
        {
          "internalType": "uint256",
          "name": "_age",
          "type": "uint256"
        },
        {
          "internalType": "uint256",
          "name": "_bornAge",
          "type": "uint256"
        },
        {
          "internalType": "uint256",
          "name": "_firstQuote",
          "type": "uint256"
        }
      ],
      "name": "safeMint",
      "outputs": [],
      "stateMutability": "payable",
      "type": "function"
    },
    {
      "inputs": [
        {
          "internalType": "address",
          "name": "from",
          "type": "address"
        },
        {
          "internalType": "address",
          "name": "to",
          "type": "address"
        },
        {
          "internalType": "uint256",
          "name": "tokenId",
          "type": "uint256"
        }
      ],
      "name": "safeTransferFrom",
      "outputs": [],
      "stateMutability": "nonpayable",
      "type": "function"
    },
    {
      "inputs": [
        {
          "internalType": "address",
          "name": "from",
          "type": "address"
        },
        {
          "internalType": "address",
          "name": "to",
          "type": "address"
        },
        {
          "internalType": "uint256",
          "name": "tokenId",
          "type": "uint256"
        },
        {
          "internalType": "bytes",
          "name": "data",
          "type": "bytes"
        }
      ],
      "name": "safeTransferFrom",
      "outputs": [],
      "stateMutability": "nonpayable",
      "type": "function"
    },
    {
      "inputs": [
        {
          "internalType": "address",
          "name": "",
          "type": "address"
        },
        {
          "internalType": "uint256",
          "name": "",
          "type": "uint256"
        }
      ],
      "name": "savingsBalance",
      "outputs": [
        {
          "internalType": "uint256",
          "name": "",
          "type": "uint256"
        }
      ],
      "stateMutability": "view",
      "type": "function"
    },
    {
      "inputs": [
        {
          "internalType": "address",
          "name": "operator",
          "type": "address"
        },
        {
          "internalType": "bool",
          "name": "approved",
          "type": "bool"
        }
      ],
      "name": "setApprovalForAll",
      "outputs": [],
      "stateMutability": "nonpayable",
      "type": "function"
    },
    {
      "inputs": [
        {
          "internalType": "address",
          "name": "",
          "type": "address"
        },
        {
          "internalType": "uint256",
          "name": "",
          "type": "uint256"
        }
      ],
      "name": "solidaryBalance",
      "outputs": [
        {
          "internalType": "uint256",
          "name": "",
          "type": "uint256"
        }
      ],
      "stateMutability": "view",
      "type": "function"
    },
    {
      "inputs": [
        {
          "internalType": "bytes4",
          "name": "interfaceId",
          "type": "bytes4"
        }
      ],
      "name": "supportsInterface",
      "outputs": [
        {
          "internalType": "bool",
          "name": "",
          "type": "bool"
        }
      ],
      "stateMutability": "view",
      "type": "function"
    },
    {
      "inputs": [],
      "name": "symbol",
      "outputs": [
        {
          "internalType": "string",
          "name": "",
          "type": "string"
        }
      ],
      "stateMutability": "view",
      "type": "function"
    },
    {
      "inputs": [
        {
          "internalType": "uint256",
          "name": "tokenId",
          "type": "uint256"
        }
      ],
      "name": "tokenURI",
      "outputs": [
        {
          "internalType": "string",
          "name": "",
          "type": "string"
        }
      ],
      "stateMutability": "view",
      "type": "function"
    },
    {
      "inputs": [],
      "name": "totalAsserts",
      "outputs": [
        {
          "internalType": "uint256",
          "name": "",
          "type": "uint256"
        }
      ],
      "stateMutability": "view",
      "type": "function"
    },
    {
      "inputs": [
        {
          "internalType": "address",
          "name": "from",
          "type": "address"
        },
        {
          "internalType": "address",
          "name": "to",
          "type": "address"
        },
        {
          "internalType": "uint256",
          "name": "tokenId",
          "type": "uint256"
        }
      ],
      "name": "transferFrom",
      "outputs": [],
      "stateMutability": "nonpayable",
      "type": "function"
    },
    {
      "inputs": [
        {
          "internalType": "address",
          "name": "_owner",
          "type": "address"
        }
      ],
      "name": "verifyIfTheContributorAlreadyMint",
      "outputs": [
        {
          "internalType": "bool",
          "name": "",
          "type": "bool"
        }
      ],
      "stateMutability": "view",
      "type": "function"
    }
  ],
  "bytecode": "0x60806040523480156200001157600080fd5b506040518060400160405280600781526020017f50656e73696f6e000000000000000000000000000000000000000000000000008152506040518060400160405280600381526020017f504e5300000000000000000000000000000000000000000000000000000000008152508160009080519060200190620000969291906200019b565b508060019080519060200190620000af9291906200019b565b505050426019819055506000600e600181600181540180825580915050039060005260206000209060020201905080601760006019548152602001908152602001600020600082015481600001556001820181600101908054620001159291906200022c565b509050506000600c6001816001815401808255809150500390600052602060002090600502019050806007600082015481600001556001820154816001015560028201548160020155600382018160030190805462000176929190620003e9565b5060048201816004019080546200018f92919062000473565b5090505050506200092b565b828054620001a990620008f5565b90600052602060002090601f016020900481019282620001cd576000855562000219565b82601f10620001e857805160ff191683800117855562000219565b8280016001018555821562000219579182015b8281111562000218578251825591602001919060010190620001fb565b5b509050620002289190620004f3565b5090565b82805482825590600052602060002090600d028101928215620003d657600052602060002091600d0282015b82811115620003d55782826000820160009054906101000a900473ffffffffffffffffffffffffffffffffffffffff168160000160006101000a81548173ffffffffffffffffffffffffffffffffffffffff021916908373ffffffffffffffffffffffffffffffffffffffff1602179055506001820154816001015560028201816002016000820160009054906101000a900473ffffffffffffffffffffffffffffffffffffffff168160000160006101000a81548173ffffffffffffffffffffffffffffffffffffffff021916908373ffffffffffffffffffffffffffffffffffffffff16021790555060018201816001019080546200035990620008f5565b6200036692919062000512565b506002820154816002015560038201548160030155600482015481600401556005820154816005015560068201548160060155505060098201548160090155600a82015481600a0155600b82015481600b0155600c82015481600c0155505091600d019190600d019062000258565b5b509050620003e59190620005aa565b5090565b828054828255906000526020600020906003028101928215620004605760005260206000209160030282015b828111156200045f578282600082015481600001556001820154816001015560028201816002019080546200044c9291906200067a565b5050509160030191906003019062000415565b5b5090506200046f919062000766565b5090565b828054828255906000526020600020906002028101928215620004e05760005260206000209160020282015b82811115620004df578282600082015481600001556001820181600101908054620004cc9291906200022c565b505050916002019190600201906200049f565b5b509050620004ef9190620007a1565b5090565b5b808211156200050e576000816000905550600101620004f4565b5090565b8280546200052090620008f5565b90600052602060002090601f01602090048101928262000544576000855562000597565b82601f1062000557578054855562000597565b828001600101855582156200059757600052602060002091601f016020900482015b828111156200059657825482559160010191906001019062000579565b5b509050620005a69190620004f3565b5090565b5b808211156200067657600080820160006101000a81549073ffffffffffffffffffffffffffffffffffffffff0219169055600182016000905560028201600080820160006101000a81549073ffffffffffffffffffffffffffffffffffffffff0219169055600182016000620006229190620007d4565b6002820160009055600382016000905560048201600090556005820160009055600682016000905550506009820160009055600a820160009055600b820160009055600c82016000905550600d01620005ab565b5090565b828054828255906000526020600020906005028101928215620007535760005260206000209160050282015b82811115620007525782826000820160009054906101000a900473ffffffffffffffffffffffffffffffffffffffff168160000160006101000a81548173ffffffffffffffffffffffffffffffffffffffff021916908373ffffffffffffffffffffffffffffffffffffffff16021790555060018201548160010155600282015481600201556003820154816003015560048201548160040155505091600501919060050190620006a6565b5b5090506200076291906200081a565b5090565b5b808211156200079d5760008082016000905560018201600090556002820160006200079391906200087a565b5060030162000767565b5090565b5b80821115620007d057600080820160009055600182016000620007c69190620008a0565b50600201620007a2565b5090565b508054620007e290620008f5565b6000825580601f10620007f6575062000817565b601f016020900490600052602060002090810190620008169190620004f3565b5b50565b5b808211156200087657600080820160006101000a81549073ffffffffffffffffffffffffffffffffffffffff02191690556001820160009055600282016000905560038201600090556004820160009055506005016200081b565b5090565b50805460008255600502906000526020600020908101906200089d91906200081a565b50565b50805460008255600d0290600052602060002090810190620008c39190620005aa565b50565b7f4e487b7100000000000000000000000000000000000000000000000000000000600052602260045260246000fd5b600060028204905060018216806200090e57607f821691505b60208210811415620009255762000924620008c6565b5b50919050565b614be5806200093b6000396000f3fe6080604052600436106101b75760003560e01c80638da9a70b116100ec578063ca00ed2b1161008a578063e985e9c511610064578063e985e9c5146106c3578063ec9b9a6f14610700578063ed7593751461071c578063fb293d4d14610738576101b7565b8063ca00ed2b14610630578063de8113761461065b578063e5c65d3014610698576101b7565b8063a22cb465116100c6578063a22cb46514610564578063b88d4fde1461058d578063b90df44f146105b6578063c87b56dd146105f3576101b7565b80638da9a70b146104bf57806395d89b41146104fc5780639e13349d14610527576101b7565b8063273a4fc5116101595780634c2f9e13116101335780634c2f9e13146103ca5780636352211e1461040757806370a08231146104445780637f63a59414610481576101b7565b8063273a4fc51461031b57806342842e0e1461035e5780634750ebc714610387576101b7565b8063095ea7b311610195578063095ea7b31461026157806314e8565a1461028a57806323b872dd146102b557806325a598cf146102de576101b7565b806301ffc9a7146101bc57806306fdde03146101f9578063081812fc14610224575b600080fd5b3480156101c857600080fd5b506101e360048036038101906101de91906131d4565b610763565b6040516101f0919061321c565b60405180910390f35b34801561020557600080fd5b5061020e610845565b60405161021b91906132d0565b60405180910390f35b34801561023057600080fd5b5061024b60048036038101906102469190613328565b6108d7565b6040516102589190613396565b60405180910390f35b34801561026d57600080fd5b50610288600480360381019061028391906133dd565b61091d565b005b34801561029657600080fd5b5061029f610a35565b6040516102ac9190613a68565b60405180910390f35b3480156102c157600080fd5b506102dc60048036038101906102d79190613a8a565b610e3b565b005b3480156102ea57600080fd5b5061030560048036038101906103009190613add565b610e9b565b604051610312919061321c565b60405180910390f35b34801561032757600080fd5b50610342600480360381019061033d91906133dd565b610ebb565b6040516103559796959493929190613b28565b60405180910390f35b34801561036a57600080fd5b5061038560048036038101906103809190613a8a565b610fb2565b005b34801561039357600080fd5b506103ae60048036038101906103a99190613b9e565b610fd2565b6040516103c19796959493929190613b28565b60405180910390f35b3480156103d657600080fd5b506103f160048036038101906103ec91906133dd565b6110d9565b6040516103fe9190613bde565b60405180910390f35b34801561041357600080fd5b5061042e60048036038101906104299190613328565b6110fe565b60405161043b9190613396565b60405180910390f35b34801561045057600080fd5b5061046b60048036038101906104669190613add565b6111b0565b6040516104789190613bde565b60405180910390f35b34801561048d57600080fd5b506104a860048036038101906104a39190613328565b611268565b6040516104b6929190613bf9565b60405180910390f35b3480156104cb57600080fd5b506104e660048036038101906104e19190613add565b61128c565b6040516104f3919061321c565b60405180910390f35b34801561050857600080fd5b506105116112f3565b60405161051e91906132d0565b60405180910390f35b34801561053357600080fd5b5061054e60048036038101906105499190613328565b611385565b60405161055b9190613c5f565b60405180910390f35b34801561057057600080fd5b5061058b60048036038101906105869190613cad565b6115d1565b005b34801561059957600080fd5b506105b460048036038101906105af9190613e22565b6115e7565b005b3480156105c257600080fd5b506105dd60048036038101906105d891906133dd565b611649565b6040516105ea9190613bde565b60405180910390f35b3480156105ff57600080fd5b5061061a60048036038101906106159190613328565b61166e565b60405161062791906132d0565b60405180910390f35b34801561063c57600080fd5b506106456116d6565b6040516106529190613bde565b60405180910390f35b34801561066757600080fd5b50610682600480360381019061067d9190613328565b6116dc565b60405161068f9190613bde565b60405180910390f35b3480156106a457600080fd5b506106ad6116fa565b6040516106ba9190613bde565b60405180910390f35b3480156106cf57600080fd5b506106ea60048036038101906106e59190613ea5565b611702565b6040516106f7919061321c565b60405180910390f35b61071a60048036038101906107159190613b9e565b611796565b005b61073660048036038101906107319190613f86565b611b97565b005b34801561074457600080fd5b5061074d611f75565b60405161075a9190613bde565b60405180910390f35b60007f80ac58cd000000000000000000000000000000000000000000000000000000007bffffffffffffffffffffffffffffffffffffffffffffffffffffffff1916827bffffffffffffffffffffffffffffffffffffffffffffffffffffffff1916148061082e57507f5b5e139f000000000000000000000000000000000000000000000000000000007bffffffffffffffffffffffffffffffffffffffffffffffffffffffff1916827bffffffffffffffffffffffffffffffffffffffffffffffffffffffff1916145b8061083e575061083d82611f81565b5b9050919050565b60606000805461085490614038565b80601f016020809104026020016040519081016040528092919081815260200182805461088090614038565b80156108cd5780601f106108a2576101008083540402835291602001916108cd565b820191906000526020600020905b8154815290600101906020018083116108b057829003601f168201915b5050505050905090565b60006108e282611feb565b6004600083815260200190815260200160002060009054906101000a900473ffffffffffffffffffffffffffffffffffffffff169050919050565b6000610928826110fe565b90508073ffffffffffffffffffffffffffffffffffffffff168373ffffffffffffffffffffffffffffffffffffffff161415610999576040517f08c379a0000000000000000000000000000000000000000000000000000000008152600401610990906140dc565b60405180910390fd5b8073ffffffffffffffffffffffffffffffffffffffff166109b8612036565b73ffffffffffffffffffffffffffffffffffffffff1614806109e757506109e6816109e1612036565b611702565b5b610a26576040517f08c379a0000000000000000000000000000000000000000000000000000000008152600401610a1d9061416e565b60405180910390fd5b610a30838361203e565b505050565b610a3d61307c565b60076040518060a001604052908160008201548152602001600182015481526020016002820154815260200160038201805480602002602001604051908101604052809291908181526020016000905b82821015610bb05783829060005260206000209060030201604051806060016040529081600082015481526020016001820154815260200160028201805480602002602001604051908101604052809291908181526020016000905b82821015610b9957838290600052602060002090600502016040518060a00160405290816000820160009054906101000a900473ffffffffffffffffffffffffffffffffffffffff1673ffffffffffffffffffffffffffffffffffffffff1673ffffffffffffffffffffffffffffffffffffffff16815260200160018201548152602001600282015481526020016003820154815260200160048201548152505081526020019060010190610ae9565b505050508152505081526020019060010190610a8d565b50505050815260200160048201805480602002602001604051908101604052809291908181526020016000905b82821015610e2e57838290600052602060002090600202016040518060400160405290816000820154815260200160018201805480602002602001604051908101604052809291908181526020016000905b82821015610e1757838290600052602060002090600d02016040518060e00160405290816000820160009054906101000a900473ffffffffffffffffffffffffffffffffffffffff1673ffffffffffffffffffffffffffffffffffffffff1673ffffffffffffffffffffffffffffffffffffffff16815260200160018201548152602001600282016040518060e00160405290816000820160009054906101000a900473ffffffffffffffffffffffffffffffffffffffff1673ffffffffffffffffffffffffffffffffffffffff1673ffffffffffffffffffffffffffffffffffffffff168152602001600182018054610d2890614038565b80601f0160208091040260200160405190810160405280929190818152602001828054610d5490614038565b8015610da15780601f10610d7657610100808354040283529160200191610da1565b820191906000526020600020905b815481529060010190602001808311610d8457829003601f168201915b5050505050815260200160028201548152602001600382015481526020016004820154815260200160058201548152602001600682015481525050815260200160098201548152602001600a8201548152602001600b8201548152602001600c8201548152505081526020019060010190610c2f565b505050508152505081526020019060010190610bdd565b5050505081525050905090565b610e4c610e46612036565b826120f7565b610e8b576040517f08c379a0000000000000000000000000000000000000000000000000000000008152600401610e8290614200565b60405180910390fd5b610e9683838361218c565b505050565b60126020528060005260406000206000915054906101000a900460ff1681565b6015602052816000526040600020602052806000526040600020600091509150508060000160009054906101000a900473ffffffffffffffffffffffffffffffffffffffff1690806001018054610f1190614038565b80601f0160208091040260200160405190810160405280929190818152602001828054610f3d90614038565b8015610f8a5780601f10610f5f57610100808354040283529160200191610f8a565b820191906000526020600020905b815481529060010190602001808311610f6d57829003601f168201915b5050505050908060020154908060030154908060040154908060050154908060060154905087565b610fcd838383604051806020016040528060008152506115e7565b505050565b60166020528160005260406000208181548110610fee57600080fd5b9060005260206000209060070201600091509150508060000160009054906101000a900473ffffffffffffffffffffffffffffffffffffffff169080600101805461103890614038565b80601f016020809104026020016040519081016040528092919081815260200182805461106490614038565b80156110b15780601f10611086576101008083540402835291602001916110b1565b820191906000526020600020905b81548152906001019060200180831161109457829003601f168201915b5050505050908060020154908060030154908060040154908060050154908060060154905087565b6013602052816000526040600020602052806000526040600020600091509150505481565b6000806002600084815260200190815260200160002060009054906101000a900473ffffffffffffffffffffffffffffffffffffffff169050600073ffffffffffffffffffffffffffffffffffffffff168173ffffffffffffffffffffffffffffffffffffffff1614156111a7576040517f08c379a000000000000000000000000000000000000000000000000000000000815260040161119e9061426c565b60405180910390fd5b80915050919050565b60008073ffffffffffffffffffffffffffffffffffffffff168273ffffffffffffffffffffffffffffffffffffffff161415611221576040517f08c379a0000000000000000000000000000000000000000000000000000000008152600401611218906142fe565b60405180910390fd5b600360008373ffffffffffffffffffffffffffffffffffffffff1673ffffffffffffffffffffffffffffffffffffffff168152602001908152602001600020549050919050565b60186020528060005260406000206000915090508060000154908060010154905082565b6000601260008373ffffffffffffffffffffffffffffffffffffffff1673ffffffffffffffffffffffffffffffffffffffff16815260200190815260200160002060009054906101000a900460ff16156112e957600190506112ee565b600090505b919050565b60606001805461130290614038565b80601f016020809104026020016040519081016040528092919081815260200182805461132e90614038565b801561137b5780601f106113505761010080835404028352916020019161137b565b820191906000526020600020905b81548152906001019060200180831161135e57829003601f168201915b5050505050905090565b61138d6130ab565b601760008381526020019081526020016000206040518060400160405290816000820154815260200160018201805480602002602001604051908101604052809291908181526020016000905b828210156115c257838290600052602060002090600d02016040518060e00160405290816000820160009054906101000a900473ffffffffffffffffffffffffffffffffffffffff1673ffffffffffffffffffffffffffffffffffffffff1673ffffffffffffffffffffffffffffffffffffffff16815260200160018201548152602001600282016040518060e00160405290816000820160009054906101000a900473ffffffffffffffffffffffffffffffffffffffff1673ffffffffffffffffffffffffffffffffffffffff1673ffffffffffffffffffffffffffffffffffffffff1681526020016001820180546114d390614038565b80601f01602080910402602001604051908101604052809291908181526020018280546114ff90614038565b801561154c5780601f106115215761010080835404028352916020019161154c565b820191906000526020600020905b81548152906001019060200180831161152f57829003601f168201915b5050505050815260200160028201548152602001600382015481526020016004820154815260200160058201548152602001600682015481525050815260200160098201548152602001600a8201548152602001600b8201548152602001600c82015481525050815260200190600101906113da565b50505050815250509050919050565b6115e36115dc612036565b83836123f3565b5050565b6115f86115f2612036565b836120f7565b611637576040517f08c379a000000000000000000000000000000000000000000000000000000000815260040161162e90614200565b60405180910390fd5b61164384848484612560565b50505050565b6014602052816000526040600020602052806000526040600020600091509150505481565b606061167982611feb565b60006116836125bc565b905060008151116116a357604051806020016040528060008152506116ce565b806116ad846125d3565b6040516020016116be92919061435a565b6040516020818303038152906040525b915050919050565b60195481565b60176020528060005260406000206000915090508060000154905081565b600047905090565b6000600560008473ffffffffffffffffffffffffffffffffffffffff1673ffffffffffffffffffffffffffffffffffffffff16815260200190815260200160002060008373ffffffffffffffffffffffffffffffffffffffff1673ffffffffffffffffffffffffffffffffffffffff16815260200190815260200160002060009054906101000a900460ff16905092915050565b3382601560008373ffffffffffffffffffffffffffffffffffffffff1673ffffffffffffffffffffffffffffffffffffffff168152602001908152602001600020600082815260200190815260200160002060000160009054906101000a900473ffffffffffffffffffffffffffffffffffffffff1673ffffffffffffffffffffffffffffffffffffffff168273ffffffffffffffffffffffffffffffffffffffff16148015611879575061184a816110fe565b73ffffffffffffffffffffffffffffffffffffffff168273ffffffffffffffffffffffffffffffffffffffff16145b6118b8576040517f08c379a00000000000000000000000000000000000000000000000000000000081526004016118af906143ca565b60405180910390fd5b348360198210156118fe576040517f08c379a00000000000000000000000000000000000000000000000000000000081526004016118f59061445c565b60405180910390fd5b60004290506000606460178861191491906144ab565b61191e9190614534565b90506000606460498961193191906144ab565b61193b9190614534565b905080601460003373ffffffffffffffffffffffffffffffffffffffff1673ffffffffffffffffffffffffffffffffffffffff16815260200190815260200160002060008b8152602001908152602001600020600082825461199d9190614565565b9250508190555081601360003373ffffffffffffffffffffffffffffffffffffffff1673ffffffffffffffffffffffffffffffffffffffff16815260200190815260200160002060008b81526020019081526020016000206000828254611a049190614565565b92505081905550611b8c601560003373ffffffffffffffffffffffffffffffffffffffff1673ffffffffffffffffffffffffffffffffffffffff16815260200190815260200160002060008b81526020019081526020016000206040518060e00160405290816000820160009054906101000a900473ffffffffffffffffffffffffffffffffffffffff1673ffffffffffffffffffffffffffffffffffffffff1673ffffffffffffffffffffffffffffffffffffffff168152602001600182018054611acf90614038565b80601f0160208091040260200160405190810160405280929190818152602001828054611afb90614038565b8015611b485780601f10611b1d57610100808354040283529160200191611b48565b820191906000526020600020905b815481529060010190602001808311611b2b57829003601f168201915b505050505081526020016002820154815260200160038201548152602001600482015481526020016005820154815260200160068201548152505089858585612734565b505050505050505050565b34816019821015611bdd576040517f08c379a0000000000000000000000000000000000000000000000000000000008152600401611bd49061445c565b60405180910390fd5b611be63361128c565b15611c26576040517f08c379a0000000000000000000000000000000000000000000000000000000008152600401611c1d90614607565b60405180910390fd5b6012851015611c6a576040517f08c379a0000000000000000000000000000000000000000000000000000000008152600401611c6190614699565b60405180910390fd5b60006301e1338086611c7c91906144ab565b905060004290506000611c8f6006612940565b9050611c9b600661294e565b611ca53382612964565b6000836372a94580611cb791906146b9565b905060008184611cc79190614565565b9050600062278d008060195484611cde91906146b9565b611ce89190614534565b611cf29190614565565b905060006040518060e001604052803373ffffffffffffffffffffffffffffffffffffffff1681526020018e81526020018d81526020018c81526020018481526020018781526020018681525090506016600083815260200190815260200160002081908060018154018082558091505060019003906000526020600020906007020160009091909190915060008201518160000160006101000a81548173ffffffffffffffffffffffffffffffffffffffff021916908373ffffffffffffffffffffffffffffffffffffffff1602179055506020820151816001019080519060200190611de19291906130c5565b5060408201518160020155606082015181600301556080820151816004015560a0820151816005015560c08201518160060155505080601560003373ffffffffffffffffffffffffffffffffffffffff1673ffffffffffffffffffffffffffffffffffffffff168152602001908152602001600020600087815260200190815260200160002060008201518160000160006101000a81548173ffffffffffffffffffffffffffffffffffffffff021916908373ffffffffffffffffffffffffffffffffffffffff1602179055506020820151816001019080519060200190611eca9291906130c5565b5060408201518160020155606082015181600301556080820151816004015560a0820151816005015560c08201518160060155905050611f0e8160c001518b612982565b6001601260003373ffffffffffffffffffffffffffffffffffffffff1673ffffffffffffffffffffffffffffffffffffffff16815260200190815260200160002060006101000a81548160ff02191690831515021790555050505050505050505050505050565b60068060000154905081565b60007f01ffc9a7000000000000000000000000000000000000000000000000000000007bffffffffffffffffffffffffffffffffffffffffffffffffffffffff1916827bffffffffffffffffffffffffffffffffffffffffffffffffffffffff1916149050919050565b611ff481612c17565b612033576040517f08c379a000000000000000000000000000000000000000000000000000000000815260040161202a9061426c565b60405180910390fd5b50565b600033905090565b816004600083815260200190815260200160002060006101000a81548173ffffffffffffffffffffffffffffffffffffffff021916908373ffffffffffffffffffffffffffffffffffffffff160217905550808273ffffffffffffffffffffffffffffffffffffffff166120b1836110fe565b73ffffffffffffffffffffffffffffffffffffffff167f8c5be1e5ebec7d5bd14f71427d1e84f3dd0314c0f7b2291e5b200ac8c7c3b92560405160405180910390a45050565b600080612103836110fe565b90508073ffffffffffffffffffffffffffffffffffffffff168473ffffffffffffffffffffffffffffffffffffffff16148061214557506121448185611702565b5b8061218357508373ffffffffffffffffffffffffffffffffffffffff1661216b846108d7565b73ffffffffffffffffffffffffffffffffffffffff16145b91505092915050565b8273ffffffffffffffffffffffffffffffffffffffff166121ac826110fe565b73ffffffffffffffffffffffffffffffffffffffff1614612202576040517f08c379a00000000000000000000000000000000000000000000000000000000081526004016121f99061475f565b60405180910390fd5b600073ffffffffffffffffffffffffffffffffffffffff168273ffffffffffffffffffffffffffffffffffffffff161415612272576040517f08c379a0000000000000000000000000000000000000000000000000000000008152600401612269906147f1565b60405180910390fd5b61227d838383612c83565b61228860008261203e565b6001600360008573ffffffffffffffffffffffffffffffffffffffff1673ffffffffffffffffffffffffffffffffffffffff16815260200190815260200160002060008282546122d891906146b9565b925050819055506001600360008473ffffffffffffffffffffffffffffffffffffffff1673ffffffffffffffffffffffffffffffffffffffff168152602001908152602001600020600082825461232f9190614565565b92505081905550816002600083815260200190815260200160002060006101000a81548173ffffffffffffffffffffffffffffffffffffffff021916908373ffffffffffffffffffffffffffffffffffffffff160217905550808273ffffffffffffffffffffffffffffffffffffffff168473ffffffffffffffffffffffffffffffffffffffff167fddf252ad1be2c89b69c2b068fc378daa952ba7f163c4a11628f55a4df523b3ef60405160405180910390a46123ee838383612c88565b505050565b8173ffffffffffffffffffffffffffffffffffffffff168373ffffffffffffffffffffffffffffffffffffffff161415612462576040517f08c379a00000000000000000000000000000000000000000000000000000000081526004016124599061485d565b60405180910390fd5b80600560008573ffffffffffffffffffffffffffffffffffffffff1673ffffffffffffffffffffffffffffffffffffffff16815260200190815260200160002060008473ffffffffffffffffffffffffffffffffffffffff1673ffffffffffffffffffffffffffffffffffffffff16815260200190815260200160002060006101000a81548160ff0219169083151502179055508173ffffffffffffffffffffffffffffffffffffffff168373ffffffffffffffffffffffffffffffffffffffff167f17307eab39ab6107e8899845ad3d59bd9653f200f220920489ca2b5937696c3183604051612553919061321c565b60405180910390a3505050565b61256b84848461218c565b61257784848484612c8d565b6125b6576040517f08c379a00000000000000000000000000000000000000000000000000000000081526004016125ad906148ef565b60405180910390fd5b50505050565b606060405180602001604052806000815250905090565b6060600082141561261b576040518060400160405280600181526020017f3000000000000000000000000000000000000000000000000000000000000000815250905061272f565b600082905060005b6000821461264d5780806126369061490f565b915050600a826126469190614534565b9150612623565b60008167ffffffffffffffff81111561266957612668613cf7565b5b6040519080825280601f01601f19166020018201604052801561269b5781602001600182028036833780820191505090505b5090505b60008514612728576001826126b491906146b9565b9150600a856126c39190614958565b60306126cf9190614565565b60f81b8183815181106126e5576126e4614989565b5b60200101907effffffffffffffffffffffffffffffffffffffffffffffffffffffffffffff1916908160001a905350600a856127219190614534565b945061269f565b8093505050505b919050565b60008360405160200161274791906149d9565b6040516020818303038152906040528051906020012090508460176000601954815260200190815260200160002060000160008282546127879190614565565b925050819055506017600060195481526020019081526020016000206001016040518060e00160405280886000015173ffffffffffffffffffffffffffffffffffffffff1681526020018381526020018881526020018681526020018581526020018481526020018781525090806001815401808255809150506001900390600052602060002090600d020160009091909190915060008201518160000160006101000a81548173ffffffffffffffffffffffffffffffffffffffff021916908373ffffffffffffffffffffffffffffffffffffffff1602179055506020820151816001015560408201518160020160008201518160000160006101000a81548173ffffffffffffffffffffffffffffffffffffffff021916908373ffffffffffffffffffffffffffffffffffffffff16021790555060208201518160010190805190602001906128d99291906130c5565b5060408201518160020155606082015181600301556080820151816004015560a0820151816005015560c08201518160060155505060608201518160090155608082015181600a015560a082015181600b015560c082015181600c01555050505050505050565b600081600001549050919050565b6001816000016000828254019250508190555050565b61297e828260405180602001604052806000815250612e24565b5050565b60004290506000606460178461299891906144ab565b6129a29190614534565b9050600060646049856129b591906144ab565b6129bf9190614534565b905080601460003373ffffffffffffffffffffffffffffffffffffffff1673ffffffffffffffffffffffffffffffffffffffff16815260200190815260200160002060008781526020019081526020016000206000828254612a219190614565565b9250508190555081601360003373ffffffffffffffffffffffffffffffffffffffff1673ffffffffffffffffffffffffffffffffffffffff16815260200190815260200160002060008781526020019081526020016000206000828254612a889190614565565b92505081905550612c10601560003373ffffffffffffffffffffffffffffffffffffffff1673ffffffffffffffffffffffffffffffffffffffff16815260200190815260200160002060008781526020019081526020016000206040518060e00160405290816000820160009054906101000a900473ffffffffffffffffffffffffffffffffffffffff1673ffffffffffffffffffffffffffffffffffffffff1673ffffffffffffffffffffffffffffffffffffffff168152602001600182018054612b5390614038565b80601f0160208091040260200160405190810160405280929190818152602001828054612b7f90614038565b8015612bcc5780601f10612ba157610100808354040283529160200191612bcc565b820191906000526020600020905b815481529060010190602001808311612baf57829003601f168201915b505050505081526020016002820154815260200160038201548152602001600482015481526020016005820154815260200160068201548152505085858585612734565b5050505050565b60008073ffffffffffffffffffffffffffffffffffffffff166002600084815260200190815260200160002060009054906101000a900473ffffffffffffffffffffffffffffffffffffffff1673ffffffffffffffffffffffffffffffffffffffff1614159050919050565b505050565b505050565b6000612cae8473ffffffffffffffffffffffffffffffffffffffff16612e7f565b15612e17578373ffffffffffffffffffffffffffffffffffffffff1663150b7a02612cd7612036565b8786866040518563ffffffff1660e01b8152600401612cf99493929190614a49565b602060405180830381600087803b158015612d1357600080fd5b505af1925050508015612d4457506040513d601f19601f82011682018060405250810190612d419190614aaa565b60015b612dc7573d8060008114612d74576040519150601f19603f3d011682016040523d82523d6000602084013e612d79565b606091505b50600081511415612dbf576040517f08c379a0000000000000000000000000000000000000000000000000000000008152600401612db6906148ef565b60405180910390fd5b805181602001fd5b63150b7a0260e01b7bffffffffffffffffffffffffffffffffffffffffffffffffffffffff1916817bffffffffffffffffffffffffffffffffffffffffffffffffffffffff191614915050612e1c565b600190505b949350505050565b612e2e8383612ea2565b612e3b6000848484612c8d565b612e7a576040517f08c379a0000000000000000000000000000000000000000000000000000000008152600401612e71906148ef565b60405180910390fd5b505050565b6000808273ffffffffffffffffffffffffffffffffffffffff163b119050919050565b600073ffffffffffffffffffffffffffffffffffffffff168273ffffffffffffffffffffffffffffffffffffffff161415612f12576040517f08c379a0000000000000000000000000000000000000000000000000000000008152600401612f0990614b23565b60405180910390fd5b612f1b81612c17565b15612f5b576040517f08c379a0000000000000000000000000000000000000000000000000000000008152600401612f5290614b8f565b60405180910390fd5b612f6760008383612c83565b6001600360008473ffffffffffffffffffffffffffffffffffffffff1673ffffffffffffffffffffffffffffffffffffffff1681526020019081526020016000206000828254612fb79190614565565b92505081905550816002600083815260200190815260200160002060006101000a81548173ffffffffffffffffffffffffffffffffffffffff021916908373ffffffffffffffffffffffffffffffffffffffff160217905550808273ffffffffffffffffffffffffffffffffffffffff16600073ffffffffffffffffffffffffffffffffffffffff167fddf252ad1be2c89b69c2b068fc378daa952ba7f163c4a11628f55a4df523b3ef60405160405180910390a461307860008383612c88565b5050565b6040518060a0016040528060008152602001600081526020016000815260200160608152602001606081525090565b604051806040016040528060008152602001606081525090565b8280546130d190614038565b90600052602060002090601f0160209004810192826130f3576000855561313a565b82601f1061310c57805160ff191683800117855561313a565b8280016001018555821561313a579182015b8281111561313957825182559160200191906001019061311e565b5b509050613147919061314b565b5090565b5b8082111561316457600081600090555060010161314c565b5090565b6000604051905090565b600080fd5b600080fd5b60007fffffffff0000000000000000000000000000000000000000000000000000000082169050919050565b6131b18161317c565b81146131bc57600080fd5b50565b6000813590506131ce816131a8565b92915050565b6000602082840312156131ea576131e9613172565b5b60006131f8848285016131bf565b91505092915050565b60008115159050919050565b61321681613201565b82525050565b6000602082019050613231600083018461320d565b92915050565b600081519050919050565b600082825260208201905092915050565b60005b83811015613271578082015181840152602081019050613256565b83811115613280576000848401525b50505050565b6000601f19601f8301169050919050565b60006132a282613237565b6132ac8185613242565b93506132bc818560208601613253565b6132c581613286565b840191505092915050565b600060208201905081810360008301526132ea8184613297565b905092915050565b6000819050919050565b613305816132f2565b811461331057600080fd5b50565b600081359050613322816132fc565b92915050565b60006020828403121561333e5761333d613172565b5b600061334c84828501613313565b91505092915050565b600073ffffffffffffffffffffffffffffffffffffffff82169050919050565b600061338082613355565b9050919050565b61339081613375565b82525050565b60006020820190506133ab6000830184613387565b92915050565b6133ba81613375565b81146133c557600080fd5b50565b6000813590506133d7816133b1565b92915050565b600080604083850312156133f4576133f3613172565b5b6000613402858286016133c8565b925050602061341385828601613313565b9150509250929050565b6000819050919050565b6134308161341d565b82525050565b61343f816132f2565b82525050565b600081519050919050565b600082825260208201905092915050565b6000819050602082019050919050565b600081519050919050565b600082825260208201905092915050565b6000819050602082019050919050565b60006134a882613355565b9050919050565b6134b88161349d565b82525050565b60a0820160008201516134d460008501826134af565b5060208201516134e76020850182613436565b5060408201516134fa6040850182613436565b50606082015161350d6060850182613436565b5060808201516135206080850182613436565b50505050565b600061353283836134be565b60a08301905092915050565b6000602082019050919050565b600061355682613471565b613560818561347c565b935061356b8361348d565b8060005b8381101561359c5781516135838882613526565b975061358e8361353e565b92505060018101905061356f565b5085935050505092915050565b60006060830160008301516135c16000860182613436565b5060208301516135d46020860182613436565b50604083015184820360408601526135ec828261354b565b9150508091505092915050565b600061360583836135a9565b905092915050565b6000602082019050919050565b600061362582613445565b61362f8185613450565b93508360208202850161364185613461565b8060005b8581101561367d578484038952815161365e85826135f9565b94506136698361360d565b925060208a01995050600181019050613645565b50829750879550505050505092915050565b600081519050919050565b600082825260208201905092915050565b6000819050602082019050919050565b600081519050919050565b600082825260208201905092915050565b6000819050602082019050919050565b6000819050919050565b6136fa816136e7565b82525050565b600082825260208201905092915050565b600061371c82613237565b6137268185613700565b9350613736818560208601613253565b61373f81613286565b840191505092915050565b600060e08301600083015161376260008601826134af565b506020830151848203602086015261377a8282613711565b915050604083015161378f6040860182613436565b5060608301516137a26060860182613436565b5060808301516137b56080860182613436565b5060a08301516137c860a0860182613436565b5060c08301516137db60c0860182613436565b508091505092915050565b600060e0830160008301516137fe60008601826134af565b50602083015161381160208601826136f1565b5060408301518482036040860152613829828261374a565b915050606083015161383e6060860182613436565b5060808301516138516080860182613436565b5060a083015161386460a0860182613436565b5060c083015161387760c0860182613436565b508091505092915050565b600061388e83836137e6565b905092915050565b6000602082019050919050565b60006138ae826136bb565b6138b881856136c6565b9350836020820285016138ca856136d7565b8060005b8581101561390657848403895281516138e78582613882565b94506138f283613896565b925060208a019950506001810190506138ce565b50829750879550505050505092915050565b60006040830160008301516139306000860182613436565b506020830151848203602086015261394882826138a3565b9150508091505092915050565b60006139618383613918565b905092915050565b6000602082019050919050565b60006139818261368f565b61398b818561369a565b93508360208202850161399d856136ab565b8060005b858110156139d957848403895281516139ba8582613955565b94506139c583613969565b925060208a019950506001810190506139a1565b50829750879550505050505092915050565b600060a083016000830151613a036000860182613427565b506020830151613a166020860182613436565b506040830151613a296040860182613436565b5060608301518482036060860152613a41828261361a565b91505060808301518482036080860152613a5b8282613976565b9150508091505092915050565b60006020820190508181036000830152613a8281846139eb565b905092915050565b600080600060608486031215613aa357613aa2613172565b5b6000613ab1868287016133c8565b9350506020613ac2868287016133c8565b9250506040613ad386828701613313565b9150509250925092565b600060208284031215613af357613af2613172565b5b6000613b01848285016133c8565b91505092915050565b613b138161349d565b82525050565b613b22816132f2565b82525050565b600060e082019050613b3d600083018a613b0a565b8181036020830152613b4f8189613297565b9050613b5e6040830188613b19565b613b6b6060830187613b19565b613b786080830186613b19565b613b8560a0830185613b19565b613b9260c0830184613b19565b98975050505050505050565b60008060408385031215613bb557613bb4613172565b5b6000613bc385828601613313565b9250506020613bd485828601613313565b9150509250929050565b6000602082019050613bf36000830184613b19565b92915050565b6000604082019050613c0e6000830185613b19565b613c1b6020830184613b19565b9392505050565b6000604083016000830151613c3a6000860182613436565b5060208301518482036020860152613c5282826138a3565b9150508091505092915050565b60006020820190508181036000830152613c798184613c22565b905092915050565b613c8a81613201565b8114613c9557600080fd5b50565b600081359050613ca781613c81565b92915050565b60008060408385031215613cc457613cc3613172565b5b6000613cd2858286016133c8565b9250506020613ce385828601613c98565b9150509250929050565b600080fd5b600080fd5b7f4e487b7100000000000000000000000000000000000000000000000000000000600052604160045260246000fd5b613d2f82613286565b810181811067ffffffffffffffff82111715613d4e57613d4d613cf7565b5b80604052505050565b6000613d61613168565b9050613d6d8282613d26565b919050565b600067ffffffffffffffff821115613d8d57613d8c613cf7565b5b613d9682613286565b9050602081019050919050565b82818337600083830152505050565b6000613dc5613dc084613d72565b613d57565b905082815260208101848484011115613de157613de0613cf2565b5b613dec848285613da3565b509392505050565b600082601f830112613e0957613e08613ced565b5b8135613e19848260208601613db2565b91505092915050565b60008060008060808587031215613e3c57613e3b613172565b5b6000613e4a878288016133c8565b9450506020613e5b878288016133c8565b9350506040613e6c87828801613313565b925050606085013567ffffffffffffffff811115613e8d57613e8c613177565b5b613e9987828801613df4565b91505092959194509250565b60008060408385031215613ebc57613ebb613172565b5b6000613eca858286016133c8565b9250506020613edb858286016133c8565b9150509250929050565b600067ffffffffffffffff821115613f0057613eff613cf7565b5b613f0982613286565b9050602081019050919050565b6000613f29613f2484613ee5565b613d57565b905082815260208101848484011115613f4557613f44613cf2565b5b613f50848285613da3565b509392505050565b600082601f830112613f6d57613f6c613ced565b5b8135613f7d848260208601613f16565b91505092915050565b60008060008060808587031215613fa057613f9f613172565b5b600085013567ffffffffffffffff811115613fbe57613fbd613177565b5b613fca87828801613f58565b9450506020613fdb87828801613313565b9350506040613fec87828801613313565b9250506060613ffd87828801613313565b91505092959194509250565b7f4e487b7100000000000000000000000000000000000000000000000000000000600052602260045260246000fd5b6000600282049050600182168061405057607f821691505b6020821081141561406457614063614009565b5b50919050565b7f4552433732313a20617070726f76616c20746f2063757272656e74206f776e6560008201527f7200000000000000000000000000000000000000000000000000000000000000602082015250565b60006140c6602183613242565b91506140d18261406a565b604082019050919050565b600060208201905081810360008301526140f5816140b9565b9050919050565b7f4552433732313a20617070726f76652063616c6c6572206973206e6f7420746f60008201527f6b656e206f776e6572206e6f7220617070726f76656420666f7220616c6c0000602082015250565b6000614158603e83613242565b9150614163826140fc565b604082019050919050565b600060208201905081810360008301526141878161414b565b9050919050565b7f4552433732313a2063616c6c6572206973206e6f7420746f6b656e206f776e6560008201527f72206e6f7220617070726f766564000000000000000000000000000000000000602082015250565b60006141ea602e83613242565b91506141f58261418e565b604082019050919050565b60006020820190508181036000830152614219816141dd565b9050919050565b7f4552433732313a20696e76616c696420746f6b656e2049440000000000000000600082015250565b6000614256601883613242565b915061426182614220565b602082019050919050565b6000602082019050818103600083015261428581614249565b9050919050565b7f4552433732313a2061646472657373207a65726f206973206e6f74206120766160008201527f6c6964206f776e65720000000000000000000000000000000000000000000000602082015250565b60006142e8602983613242565b91506142f38261428c565b604082019050919050565b60006020820190508181036000830152614317816142db565b9050919050565b600081905092915050565b600061433482613237565b61433e818561431e565b935061434e818560208601613253565b80840191505092915050565b60006143668285614329565b91506143728284614329565b91508190509392505050565b7f596f7520646f6e2774206f776e20746869732070656e73696f6e000000000000600082015250565b60006143b4601a83613242565b91506143bf8261437e565b602082019050919050565b600060208201905081810360008301526143e3816143a7565b9050919050565b7f54686520616d6f756e7420646f65736e277420726561636820746865206d696e60008201527f696d756d20726571756972656400000000000000000000000000000000000000602082015250565b6000614446602d83613242565b9150614451826143ea565b604082019050919050565b6000602082019050818103600083015261447581614439565b9050919050565b7f4e487b7100000000000000000000000000000000000000000000000000000000600052601160045260246000fd5b60006144b6826132f2565b91506144c1836132f2565b9250817fffffffffffffffffffffffffffffffffffffffffffffffffffffffffffffffff04831182151516156144fa576144f961447c565b5b828202905092915050565b7f4e487b7100000000000000000000000000000000000000000000000000000000600052601260045260246000fd5b600061453f826132f2565b915061454a836132f2565b92508261455a57614559614505565b5b828204905092915050565b6000614570826132f2565b915061457b836132f2565b9250827fffffffffffffffffffffffffffffffffffffffffffffffffffffffffffffffff038211156145b0576145af61447c565b5b828201905092915050565b7f416c72656164792067656e657261746564206869732070656e73696f6e000000600082015250565b60006145f1601d83613242565b91506145fc826145bb565b602082019050919050565b60006020820190508181036000830152614620816145e4565b9050919050565b7f596f75206d757374206265203138207965617273206f72206f6c64657220746f60008201527f2067656e657261746520612070656e73696f6e00000000000000000000000000602082015250565b6000614683603383613242565b915061468e82614627565b604082019050919050565b600060208201905081810360008301526146b281614676565b9050919050565b60006146c4826132f2565b91506146cf836132f2565b9250828210156146e2576146e161447c565b5b828203905092915050565b7f4552433732313a207472616e736665722066726f6d20696e636f72726563742060008201527f6f776e6572000000000000000000000000000000000000000000000000000000602082015250565b6000614749602583613242565b9150614754826146ed565b604082019050919050565b600060208201905081810360008301526147788161473c565b9050919050565b7f4552433732313a207472616e7366657220746f20746865207a65726f2061646460008201527f7265737300000000000000000000000000000000000000000000000000000000602082015250565b60006147db602483613242565b91506147e68261477f565b604082019050919050565b6000602082019050818103600083015261480a816147ce565b9050919050565b7f4552433732313a20617070726f766520746f2063616c6c657200000000000000600082015250565b6000614847601983613242565b915061485282614811565b602082019050919050565b600060208201905081810360008301526148768161483a565b9050919050565b7f4552433732313a207472616e7366657220746f206e6f6e20455243373231526560008201527f63656976657220696d706c656d656e7465720000000000000000000000000000602082015250565b60006148d9603283613242565b91506148e48261487d565b604082019050919050565b60006020820190508181036000830152614908816148cc565b9050919050565b600061491a826132f2565b91507fffffffffffffffffffffffffffffffffffffffffffffffffffffffffffffffff82141561494d5761494c61447c565b5b600182019050919050565b6000614963826132f2565b915061496e836132f2565b92508261497e5761497d614505565b5b828206905092915050565b7f4e487b7100000000000000000000000000000000000000000000000000000000600052603260045260246000fd5b6000819050919050565b6149d36149ce826132f2565b6149b8565b82525050565b60006149e582846149c2565b60208201915081905092915050565b600081519050919050565b600082825260208201905092915050565b6000614a1b826149f4565b614a2581856149ff565b9350614a35818560208601613253565b614a3e81613286565b840191505092915050565b6000608082019050614a5e6000830187613387565b614a6b6020830186613387565b614a786040830185613b19565b8181036060830152614a8a8184614a10565b905095945050505050565b600081519050614aa4816131a8565b92915050565b600060208284031215614ac057614abf613172565b5b6000614ace84828501614a95565b91505092915050565b7f4552433732313a206d696e7420746f20746865207a65726f2061646472657373600082015250565b6000614b0d602083613242565b9150614b1882614ad7565b602082019050919050565b60006020820190508181036000830152614b3c81614b00565b9050919050565b7f4552433732313a20746f6b656e20616c7265616479206d696e74656400000000600082015250565b6000614b79601c83613242565b9150614b8482614b43565b602082019050919050565b60006020820190508181036000830152614ba881614b6c565b905091905056fea264697066735822122086967e57703952be4848087fcdcb07fb00bc493808dd76bb268933060e454a5364736f6c63430008090033",
  "linkReferences": {},
  "deployedLinkReferences": {}
}