{
  "_format": "hh-sol-artifact-1",
  "contractName": "Pension",
  "sourceName": "src/blockchain/hardhat/contracts/Pension.sol",
  "abi": [
    {
      "inputs": [],
      "stateMutability": "nonpayable",
      "type": "constructor"
    },
    {
      "anonymous": false,
      "inputs": [
        {
          "indexed": true,
          "internalType": "address",
          "name": "owner",
          "type": "address"
        },
        {
          "indexed": true,
          "internalType": "address",
          "name": "approved",
          "type": "address"
        },
        {
          "indexed": true,
          "internalType": "uint256",
          "name": "tokenId",
          "type": "uint256"
        }
      ],
      "name": "Approval",
      "type": "event"
    },
    {
      "anonymous": false,
      "inputs": [
        {
          "indexed": true,
          "internalType": "address",
          "name": "owner",
          "type": "address"
        },
        {
          "indexed": true,
          "internalType": "address",
          "name": "operator",
          "type": "address"
        },
        {
          "indexed": false,
          "internalType": "bool",
          "name": "approved",
          "type": "bool"
        }
      ],
      "name": "ApprovalForAll",
      "type": "event"
    },
    {
      "anonymous": false,
      "inputs": [
        {
          "indexed": true,
          "internalType": "address",
          "name": "from",
          "type": "address"
        },
        {
          "indexed": true,
          "internalType": "address",
          "name": "to",
          "type": "address"
        },
        {
          "indexed": true,
          "internalType": "uint256",
          "name": "tokenId",
          "type": "uint256"
        }
      ],
      "name": "Transfer",
      "type": "event"
    },
    {
      "inputs": [
        {
          "internalType": "address",
          "name": "",
          "type": "address"
        }
      ],
      "name": "addressesThatAlreadyMinted",
      "outputs": [
        {
          "internalType": "bool",
          "name": "",
          "type": "bool"
        }
      ],
      "stateMutability": "view",
      "type": "function"
    },
    {
      "inputs": [
        {
          "internalType": "address",
          "name": "to",
          "type": "address"
        },
        {
          "internalType": "uint256",
          "name": "tokenId",
          "type": "uint256"
        }
      ],
      "name": "approve",
      "outputs": [],
      "stateMutability": "nonpayable",
      "type": "function"
    },
    {
      "inputs": [
        {
          "internalType": "address",
          "name": "owner",
          "type": "address"
        }
      ],
      "name": "balanceOf",
      "outputs": [
        {
          "internalType": "uint256",
          "name": "",
          "type": "uint256"
        }
      ],
      "stateMutability": "view",
      "type": "function"
    },
    {
      "inputs": [],
      "name": "cutoffDate",
      "outputs": [
        {
          "internalType": "uint256",
          "name": "",
          "type": "uint256"
        }
      ],
      "stateMutability": "view",
      "type": "function"
    },
    {
      "inputs": [
        {
          "internalType": "uint256",
          "name": "",
          "type": "uint256"
        },
        {
          "internalType": "uint256",
          "name": "",
          "type": "uint256"
        }
      ],
      "name": "cutoffDateWithdrawPensionBalance",
      "outputs": [
        {
          "internalType": "address payable",
          "name": "owner",
          "type": "address"
        },
        {
          "internalType": "string",
          "name": "biologySex",
          "type": "string"
        },
        {
          "internalType": "uint256",
          "name": "age",
          "type": "uint256"
        },
        {
          "internalType": "uint256",
          "name": "bornAge",
          "type": "uint256"
        },
        {
          "internalType": "uint256",
          "name": "pensionCreatedTime",
          "type": "uint256"
        },
        {
          "internalType": "uint256",
          "name": "pensionId",
          "type": "uint256"
        }
      ],
      "stateMutability": "view",
      "type": "function"
    },
    {
      "inputs": [
        {
          "internalType": "uint256",
          "name": "_pensionId",
          "type": "uint256"
        },
        {
          "internalType": "uint256",
          "name": "_amount",
          "type": "uint256"
        }
      ],
      "name": "depositAmount",
      "outputs": [],
      "stateMutability": "payable",
      "type": "function"
    },
    {
      "inputs": [
        {
          "internalType": "uint256",
          "name": "tokenId",
          "type": "uint256"
        }
      ],
      "name": "getApproved",
      "outputs": [
        {
          "internalType": "address",
          "name": "",
          "type": "address"
        }
      ],
      "stateMutability": "view",
      "type": "function"
    },
    {
      "inputs": [],
      "name": "getGeneralRecord",
      "outputs": [
        {
          "components": [
            {
              "internalType": "int256",
              "name": "solvent",
              "type": "int256"
            },
            {
              "internalType": "uint256",
              "name": "totalAmount",
              "type": "uint256"
            },
            {
              "internalType": "uint256",
              "name": "totalToPay",
              "type": "uint256"
            },
            {
              "components": [
                {
                  "internalType": "uint256",
                  "name": "totalAmount",
                  "type": "uint256"
                },
                {
                  "internalType": "uint256",
                  "name": "totalToPay",
                  "type": "uint256"
                },
                {
                  "components": [
                    {
                      "internalType": "address payable",
                      "name": "owner",
                      "type": "address"
                    },
                    {
                      "internalType": "uint256",
                      "name": "monthlyQuote",
                      "type": "uint256"
                    },
                    {
                      "internalType": "uint256",
                      "name": "quantityQuotes",
                      "type": "uint256"
                    },
                    {
                      "internalType": "uint256",
                      "name": "totalPaidQuotes",
                      "type": "uint256"
                    },
                    {
                      "internalType": "uint256",
                      "name": "totalPensionValue",
                      "type": "uint256"
                    }
                  ],
                  "internalType": "struct Pension.RetairedQuote[]",
                  "name": "retairedQuotes",
                  "type": "tuple[]"
                }
              ],
              "internalType": "struct Pension.RetairedRecord[]",
              "name": "retairedRecords",
              "type": "tuple[]"
            },
            {
              "components": [
                {
                  "internalType": "uint256",
                  "name": "totalAmount",
                  "type": "uint256"
                },
                {
                  "components": [
                    {
                      "internalType": "address payable",
                      "name": "owner",
                      "type": "address"
                    },
                    {
                      "internalType": "bytes32",
                      "name": "id",
                      "type": "bytes32"
                    },
                    {
                      "components": [
                        {
                          "internalType": "address payable",
                          "name": "owner",
                          "type": "address"
                        },
                        {
                          "internalType": "string",
                          "name": "biologySex",
                          "type": "string"
                        },
                        {
                          "internalType": "uint256",
                          "name": "age",
                          "type": "uint256"
                        },
                        {
                          "internalType": "uint256",
                          "name": "bornAge",
                          "type": "uint256"
                        },
                        {
                          "internalType": "uint256",
                          "name": "pensionCreatedTime",
                          "type": "uint256"
                        },
                        {
                          "internalType": "uint256",
                          "name": "pensionId",
                          "type": "uint256"
                        }
                      ],
                      "internalType": "struct Pension.DataPension",
                      "name": "dataPension",
                      "type": "tuple"
                    },
                    {
                      "internalType": "uint256",
                      "name": "contributionDate",
                      "type": "uint256"
                    },
                    {
                      "internalType": "uint256",
                      "name": "savingAmount",
                      "type": "uint256"
                    },
                    {
                      "internalType": "uint256",
                      "name": "solidaryAmount",
                      "type": "uint256"
                    },
                    {
                      "internalType": "uint256",
                      "name": "totalAmount",
                      "type": "uint256"
                    }
                  ],
                  "internalType": "struct Pension.MonthlyQuote[]",
                  "name": "monthlyQuotes",
                  "type": "tuple[]"
                }
              ],
              "internalType": "struct Pension.MonthlyRecord[]",
              "name": "monthlyRecords",
              "type": "tuple[]"
            }
          ],
          "internalType": "struct Pension.GeneralRecord",
          "name": "",
          "type": "tuple"
        }
      ],
      "stateMutability": "view",
      "type": "function"
    },
    {
      "inputs": [
        {
          "internalType": "uint256",
          "name": "_cutoffDate",
          "type": "uint256"
        }
      ],
      "name": "getmonthlyBalanceFrommonthlyGeneralBalance",
      "outputs": [
        {
          "components": [
            {
              "internalType": "uint256",
              "name": "totalAmount",
              "type": "uint256"
            },
            {
              "components": [
                {
                  "internalType": "address payable",
                  "name": "owner",
                  "type": "address"
                },
                {
                  "internalType": "bytes32",
                  "name": "id",
                  "type": "bytes32"
                },
                {
                  "components": [
                    {
                      "internalType": "address payable",
                      "name": "owner",
                      "type": "address"
                    },
                    {
                      "internalType": "string",
                      "name": "biologySex",
                      "type": "string"
                    },
                    {
                      "internalType": "uint256",
                      "name": "age",
                      "type": "uint256"
                    },
                    {
                      "internalType": "uint256",
                      "name": "bornAge",
                      "type": "uint256"
                    },
                    {
                      "internalType": "uint256",
                      "name": "pensionCreatedTime",
                      "type": "uint256"
                    },
                    {
                      "internalType": "uint256",
                      "name": "pensionId",
                      "type": "uint256"
                    }
                  ],
                  "internalType": "struct Pension.DataPension",
                  "name": "dataPension",
                  "type": "tuple"
                },
                {
                  "internalType": "uint256",
                  "name": "contributionDate",
                  "type": "uint256"
                },
                {
                  "internalType": "uint256",
                  "name": "savingAmount",
                  "type": "uint256"
                },
                {
                  "internalType": "uint256",
                  "name": "solidaryAmount",
                  "type": "uint256"
                },
                {
                  "internalType": "uint256",
                  "name": "totalAmount",
                  "type": "uint256"
                }
              ],
              "internalType": "struct Pension.MonthlyQuote[]",
              "name": "monthlyQuotes",
              "type": "tuple[]"
            }
          ],
          "internalType": "struct Pension.MonthlyRecord",
          "name": "",
          "type": "tuple"
        }
      ],
      "stateMutability": "view",
      "type": "function"
    },
    {
      "inputs": [
        {
          "internalType": "address",
          "name": "owner",
          "type": "address"
        },
        {
          "internalType": "address",
          "name": "operator",
          "type": "address"
        }
      ],
      "name": "isApprovedForAll",
      "outputs": [
        {
          "internalType": "bool",
          "name": "",
          "type": "bool"
        }
      ],
      "stateMutability": "view",
      "type": "function"
    },
    {
      "inputs": [
        {
          "internalType": "uint256",
          "name": "",
          "type": "uint256"
        }
      ],
      "name": "monthlyGeneralBalance",
      "outputs": [
        {
          "internalType": "uint256",
          "name": "totalAmount",
          "type": "uint256"
        }
      ],
      "stateMutability": "view",
      "type": "function"
    },
    {
      "inputs": [],
      "name": "name",
      "outputs": [
        {
          "internalType": "string",
          "name": "",
          "type": "string"
        }
      ],
      "stateMutability": "view",
      "type": "function"
    },
    {
      "inputs": [
        {
          "internalType": "uint256",
          "name": "tokenId",
          "type": "uint256"
        }
      ],
      "name": "ownerOf",
      "outputs": [
        {
          "internalType": "address",
          "name": "",
          "type": "address"
        }
      ],
      "stateMutability": "view",
      "type": "function"
    },
    {
      "inputs": [
        {
          "internalType": "address",
          "name": "",
          "type": "address"
        },
        {
          "internalType": "uint256",
          "name": "",
          "type": "uint256"
        }
      ],
      "name": "ownerPensionsBalance",
      "outputs": [
        {
          "internalType": "address payable",
          "name": "owner",
          "type": "address"
        },
        {
          "internalType": "string",
          "name": "biologySex",
          "type": "string"
        },
        {
          "internalType": "uint256",
          "name": "age",
          "type": "uint256"
        },
        {
          "internalType": "uint256",
          "name": "bornAge",
          "type": "uint256"
        },
        {
          "internalType": "uint256",
          "name": "pensionCreatedTime",
          "type": "uint256"
        },
        {
          "internalType": "uint256",
          "name": "pensionId",
          "type": "uint256"
        }
      ],
      "stateMutability": "view",
      "type": "function"
    },
    {
      "inputs": [],
      "name": "pensionIdCounter",
      "outputs": [
        {
          "internalType": "uint256",
          "name": "_value",
          "type": "uint256"
        }
      ],
      "stateMutability": "view",
      "type": "function"
    },
    {
      "inputs": [
        {
          "internalType": "uint256",
          "name": "",
          "type": "uint256"
        }
      ],
      "name": "retairedBalance",
      "outputs": [
        {
          "internalType": "uint256",
          "name": "totalAmount",
          "type": "uint256"
        },
        {
          "internalType": "uint256",
          "name": "totalToPay",
          "type": "uint256"
        }
      ],
      "stateMutability": "view",
      "type": "function"
    },
    {
      "inputs": [
        {
          "internalType": "string",
          "name": "_biologySex",
          "type": "string"
        },
        {
          "internalType": "uint256",
          "name": "_age",
          "type": "uint256"
        },
        {
          "internalType": "uint256",
          "name": "_bornAge",
          "type": "uint256"
        },
        {
          "internalType": "uint256",
          "name": "_firstQuote",
          "type": "uint256"
        }
      ],
      "name": "safeMint",
      "outputs": [],
      "stateMutability": "payable",
      "type": "function"
    },
    {
      "inputs": [
        {
          "internalType": "address",
          "name": "from",
          "type": "address"
        },
        {
          "internalType": "address",
          "name": "to",
          "type": "address"
        },
        {
          "internalType": "uint256",
          "name": "tokenId",
          "type": "uint256"
        }
      ],
      "name": "safeTransferFrom",
      "outputs": [],
      "stateMutability": "nonpayable",
      "type": "function"
    },
    {
      "inputs": [
        {
          "internalType": "address",
          "name": "from",
          "type": "address"
        },
        {
          "internalType": "address",
          "name": "to",
          "type": "address"
        },
        {
          "internalType": "uint256",
          "name": "tokenId",
          "type": "uint256"
        },
        {
          "internalType": "bytes",
          "name": "data",
          "type": "bytes"
        }
      ],
      "name": "safeTransferFrom",
      "outputs": [],
      "stateMutability": "nonpayable",
      "type": "function"
    },
    {
      "inputs": [
        {
          "internalType": "address",
          "name": "",
          "type": "address"
        },
        {
          "internalType": "uint256",
          "name": "",
          "type": "uint256"
        }
      ],
      "name": "savingsBalance",
      "outputs": [
        {
          "internalType": "uint256",
          "name": "",
          "type": "uint256"
        }
      ],
      "stateMutability": "view",
      "type": "function"
    },
    {
      "inputs": [
        {
          "internalType": "address",
          "name": "operator",
          "type": "address"
        },
        {
          "internalType": "bool",
          "name": "approved",
          "type": "bool"
        }
      ],
      "name": "setApprovalForAll",
      "outputs": [],
      "stateMutability": "nonpayable",
      "type": "function"
    },
    {
      "inputs": [
        {
          "internalType": "address",
          "name": "",
          "type": "address"
        },
        {
          "internalType": "uint256",
          "name": "",
          "type": "uint256"
        }
      ],
      "name": "solidaryBalance",
      "outputs": [
        {
          "internalType": "uint256",
          "name": "",
          "type": "uint256"
        }
      ],
      "stateMutability": "view",
      "type": "function"
    },
    {
      "inputs": [
        {
          "internalType": "bytes4",
          "name": "interfaceId",
          "type": "bytes4"
        }
      ],
      "name": "supportsInterface",
      "outputs": [
        {
          "internalType": "bool",
          "name": "",
          "type": "bool"
        }
      ],
      "stateMutability": "view",
      "type": "function"
    },
    {
      "inputs": [],
      "name": "symbol",
      "outputs": [
        {
          "internalType": "string",
          "name": "",
          "type": "string"
        }
      ],
      "stateMutability": "view",
      "type": "function"
    },
    {
      "inputs": [
        {
          "internalType": "uint256",
          "name": "tokenId",
          "type": "uint256"
        }
      ],
      "name": "tokenURI",
      "outputs": [
        {
          "internalType": "string",
          "name": "",
          "type": "string"
        }
      ],
      "stateMutability": "view",
      "type": "function"
    },
    {
      "inputs": [],
      "name": "totalAsserts",
      "outputs": [
        {
          "internalType": "uint256",
          "name": "",
          "type": "uint256"
        }
      ],
      "stateMutability": "view",
      "type": "function"
    },
    {
      "inputs": [
        {
          "internalType": "address",
          "name": "from",
          "type": "address"
        },
        {
          "internalType": "address",
          "name": "to",
          "type": "address"
        },
        {
          "internalType": "uint256",
          "name": "tokenId",
          "type": "uint256"
        }
      ],
      "name": "transferFrom",
      "outputs": [],
      "stateMutability": "nonpayable",
      "type": "function"
    },
    {
      "inputs": [
        {
          "internalType": "address",
          "name": "_owner",
          "type": "address"
        }
      ],
      "name": "verifyIfTheContributorAlreadyMint",
      "outputs": [
        {
          "internalType": "bool",
          "name": "",
          "type": "bool"
        }
      ],
      "stateMutability": "view",
      "type": "function"
    }
  ],
  "bytecode": "0x60806040523480156200001157600080fd5b506040518060400160405280600781526020017f50656e73696f6e000000000000000000000000000000000000000000000000008152506040518060400160405280600381526020017f504e5300000000000000000000000000000000000000000000000000000000008152508160009080519060200190620000969291906200019b565b508060019080519060200190620000af9291906200019b565b505050426019819055506000600e600181600181540180825580915050039060005260206000209060020201905080601760006019548152602001908152602001600020600082015481600001556001820181600101908054620001159291906200022c565b509050506000600c6001816001815401808255809150500390600052602060002090600502019050806007600082015481600001556001820154816001015560028201548160020155600382018160030190805462000176929190620003df565b5060048201816004019080546200018f92919062000469565b50905050505062000919565b828054620001a990620008e3565b90600052602060002090601f016020900481019282620001cd576000855562000219565b82601f10620001e857805160ff191683800117855562000219565b8280016001018555821562000219579182015b8281111562000218578251825591602001919060010190620001fb565b5b509050620002289190620004e9565b5090565b82805482825590600052602060002090600c028101928215620003cc57600052602060002091600c0282015b82811115620003cb5782826000820160009054906101000a900473ffffffffffffffffffffffffffffffffffffffff168160000160006101000a81548173ffffffffffffffffffffffffffffffffffffffff021916908373ffffffffffffffffffffffffffffffffffffffff1602179055506001820154816001015560028201816002016000820160009054906101000a900473ffffffffffffffffffffffffffffffffffffffff168160000160006101000a81548173ffffffffffffffffffffffffffffffffffffffff021916908373ffffffffffffffffffffffffffffffffffffffff16021790555060018201816001019080546200035990620008e3565b6200036692919062000508565b506002820154816002015560038201548160030155600482015481600401556005820154816005015550506008820154816008015560098201548160090155600a82015481600a0155600b82015481600b0155505091600c019190600c019062000258565b5b509050620003db9190620005a0565b5090565b828054828255906000526020600020906003028101928215620004565760005260206000209160030282015b8281111562000455578282600082015481600001556001820154816001015560028201816002019080546200044292919062000668565b505050916003019190600301906200040b565b5b50905062000465919062000754565b5090565b828054828255906000526020600020906002028101928215620004d65760005260206000209160020282015b82811115620004d5578282600082015481600001556001820181600101908054620004c29291906200022c565b5050509160020191906002019062000495565b5b509050620004e591906200078f565b5090565b5b8082111562000504576000816000905550600101620004ea565b5090565b8280546200051690620008e3565b90600052602060002090601f0160209004810192826200053a57600085556200058d565b82601f106200054d57805485556200058d565b828001600101855582156200058d57600052602060002091601f016020900482015b828111156200058c5782548255916001019190600101906200056f565b5b5090506200059c9190620004e9565b5090565b5b808211156200066457600080820160006101000a81549073ffffffffffffffffffffffffffffffffffffffff0219169055600182016000905560028201600080820160006101000a81549073ffffffffffffffffffffffffffffffffffffffff0219169055600182016000620006189190620007c2565b6002820160009055600382016000905560048201600090556005820160009055505060088201600090556009820160009055600a820160009055600b82016000905550600c01620005a1565b5090565b828054828255906000526020600020906005028101928215620007415760005260206000209160050282015b82811115620007405782826000820160009054906101000a900473ffffffffffffffffffffffffffffffffffffffff168160000160006101000a81548173ffffffffffffffffffffffffffffffffffffffff021916908373ffffffffffffffffffffffffffffffffffffffff1602179055506001820154816001015560028201548160020155600382015481600301556004820154816004015550509160050191906005019062000694565b5b50905062000750919062000808565b5090565b5b808211156200078b57600080820160009055600182016000905560028201600062000781919062000868565b5060030162000755565b5090565b5b80821115620007be57600080820160009055600182016000620007b491906200088e565b5060020162000790565b5090565b508054620007d090620008e3565b6000825580601f10620007e4575062000805565b601f016020900490600052602060002090810190620008049190620004e9565b5b50565b5b808211156200086457600080820160006101000a81549073ffffffffffffffffffffffffffffffffffffffff021916905560018201600090556002820160009055600382016000905560048201600090555060050162000809565b5090565b50805460008255600502906000526020600020908101906200088b919062000808565b50565b50805460008255600c0290600052602060002090810190620008b19190620005a0565b50565b7f4e487b7100000000000000000000000000000000000000000000000000000000600052602260045260246000fd5b60006002820490506001821680620008fc57607f821691505b60208210811415620009135762000912620008b4565b5b50919050565b6149dd80620009296000396000f3fe6080604052600436106101b75760003560e01c80638da9a70b116100ec578063ca00ed2b1161008a578063e985e9c511610064578063e985e9c5146106c1578063ec9b9a6f146106fe578063ed7593751461071a578063fb293d4d14610736576101b7565b8063ca00ed2b1461062e578063de81137614610659578063e5c65d3014610696576101b7565b8063a22cb465116100c6578063a22cb46514610562578063b88d4fde1461058b578063b90df44f146105b4578063c87b56dd146105f1576101b7565b80638da9a70b146104bd57806395d89b41146104fa5780639a6a0ab114610525576101b7565b8063273a4fc5116101595780634c2f9e13116101335780634c2f9e13146103c85780636352211e1461040557806370a08231146104425780637f63a5941461047f576101b7565b8063273a4fc51461031b57806342842e0e1461035d5780634750ebc714610386576101b7565b8063095ea7b311610195578063095ea7b31461026157806314e8565a1461028a57806323b872dd146102b557806325a598cf146102de576101b7565b806301ffc9a7146101bc57806306fdde03146101f9578063081812fc14610224575b600080fd5b3480156101c857600080fd5b506101e360048036038101906101de9190612f81565b610761565b6040516101f09190612fc9565b60405180910390f35b34801561020557600080fd5b5061020e610843565b60405161021b919061307d565b60405180910390f35b34801561023057600080fd5b5061024b600480360381019061024691906130d5565b6108d5565b6040516102589190613143565b60405180910390f35b34801561026d57600080fd5b506102886004803603810190610283919061318a565b61091b565b005b34801561029657600080fd5b5061029f610a33565b6040516102ac9190613802565b60405180910390f35b3480156102c157600080fd5b506102dc60048036038101906102d79190613824565b610e2f565b005b3480156102ea57600080fd5b5061030560048036038101906103009190613877565b610e8f565b6040516103129190612fc9565b60405180910390f35b34801561032757600080fd5b50610342600480360381019061033d919061318a565b610eaf565b604051610354969594939291906138c2565b60405180910390f35b34801561036957600080fd5b50610384600480360381019061037f9190613824565b610fa0565b005b34801561039257600080fd5b506103ad60048036038101906103a8919061392a565b610fc0565b6040516103bf969594939291906138c2565b60405180910390f35b3480156103d457600080fd5b506103ef60048036038101906103ea919061318a565b6110c1565b6040516103fc919061396a565b60405180910390f35b34801561041157600080fd5b5061042c600480360381019061042791906130d5565b6110e6565b6040516104399190613143565b60405180910390f35b34801561044e57600080fd5b5061046960048036038101906104649190613877565b611198565b604051610476919061396a565b60405180910390f35b34801561048b57600080fd5b506104a660048036038101906104a191906130d5565b611250565b6040516104b4929190613985565b60405180910390f35b3480156104c957600080fd5b506104e460048036038101906104df9190613877565b611274565b6040516104f19190612fc9565b60405180910390f35b34801561050657600080fd5b5061050f6112db565b60405161051c919061307d565b60405180910390f35b34801561053157600080fd5b5061054c600480360381019061054791906130d5565b61136d565b60405161055991906139eb565b60405180910390f35b34801561056e57600080fd5b5061058960048036038101906105849190613a39565b6115af565b005b34801561059757600080fd5b506105b260048036038101906105ad9190613bae565b6115c5565b005b3480156105c057600080fd5b506105db60048036038101906105d6919061318a565b611627565b6040516105e8919061396a565b60405180910390f35b3480156105fd57600080fd5b50610618600480360381019061061391906130d5565b61164c565b604051610625919061307d565b60405180910390f35b34801561063a57600080fd5b506106436116b4565b604051610650919061396a565b60405180910390f35b34801561066557600080fd5b50610680600480360381019061067b91906130d5565b6116ba565b60405161068d919061396a565b60405180910390f35b3480156106a257600080fd5b506106ab6116d8565b6040516106b8919061396a565b60405180910390f35b3480156106cd57600080fd5b506106e860048036038101906106e39190613c31565b6116e0565b6040516106f59190612fc9565b60405180910390f35b6107186004803603810190610713919061392a565b611774565b005b610734600480360381019061072f9190613d12565b611bb3565b005b34801561074257600080fd5b5061074b611fc1565b604051610758919061396a565b60405180910390f35b60007f80ac58cd000000000000000000000000000000000000000000000000000000007bffffffffffffffffffffffffffffffffffffffffffffffffffffffff1916827bffffffffffffffffffffffffffffffffffffffffffffffffffffffff1916148061082c57507f5b5e139f000000000000000000000000000000000000000000000000000000007bffffffffffffffffffffffffffffffffffffffffffffffffffffffff1916827bffffffffffffffffffffffffffffffffffffffffffffffffffffffff1916145b8061083c575061083b82611fcd565b5b9050919050565b60606000805461085290613dc4565b80601f016020809104026020016040519081016040528092919081815260200182805461087e90613dc4565b80156108cb5780601f106108a0576101008083540402835291602001916108cb565b820191906000526020600020905b8154815290600101906020018083116108ae57829003601f168201915b5050505050905090565b60006108e082612037565b6004600083815260200190815260200160002060009054906101000a900473ffffffffffffffffffffffffffffffffffffffff169050919050565b6000610926826110e6565b90508073ffffffffffffffffffffffffffffffffffffffff168373ffffffffffffffffffffffffffffffffffffffff161415610997576040517f08c379a000000000000000000000000000000000000000000000000000000000815260040161098e90613e68565b60405180910390fd5b8073ffffffffffffffffffffffffffffffffffffffff166109b6612082565b73ffffffffffffffffffffffffffffffffffffffff1614806109e557506109e4816109df612082565b6116e0565b5b610a24576040517f08c379a0000000000000000000000000000000000000000000000000000000008152600401610a1b90613efa565b60405180910390fd5b610a2e838361208a565b505050565b610a3b612e29565b60076040518060a001604052908160008201548152602001600182015481526020016002820154815260200160038201805480602002602001604051908101604052809291908181526020016000905b82821015610bae5783829060005260206000209060030201604051806060016040529081600082015481526020016001820154815260200160028201805480602002602001604051908101604052809291908181526020016000905b82821015610b9757838290600052602060002090600502016040518060a00160405290816000820160009054906101000a900473ffffffffffffffffffffffffffffffffffffffff1673ffffffffffffffffffffffffffffffffffffffff1673ffffffffffffffffffffffffffffffffffffffff16815260200160018201548152602001600282015481526020016003820154815260200160048201548152505081526020019060010190610ae7565b505050508152505081526020019060010190610a8b565b50505050815260200160048201805480602002602001604051908101604052809291908181526020016000905b82821015610e2257838290600052602060002090600202016040518060400160405290816000820154815260200160018201805480602002602001604051908101604052809291908181526020016000905b82821015610e0b57838290600052602060002090600c02016040518060e00160405290816000820160009054906101000a900473ffffffffffffffffffffffffffffffffffffffff1673ffffffffffffffffffffffffffffffffffffffff1673ffffffffffffffffffffffffffffffffffffffff16815260200160018201548152602001600282016040518060c00160405290816000820160009054906101000a900473ffffffffffffffffffffffffffffffffffffffff1673ffffffffffffffffffffffffffffffffffffffff1673ffffffffffffffffffffffffffffffffffffffff168152602001600182018054610d2690613dc4565b80601f0160208091040260200160405190810160405280929190818152602001828054610d5290613dc4565b8015610d9f5780601f10610d7457610100808354040283529160200191610d9f565b820191906000526020600020905b815481529060010190602001808311610d8257829003601f168201915b5050505050815260200160028201548152602001600382015481526020016004820154815260200160058201548152505081526020016008820154815260200160098201548152602001600a8201548152602001600b8201548152505081526020019060010190610c2d565b505050508152505081526020019060010190610bdb565b5050505081525050905090565b610e40610e3a612082565b82612143565b610e7f576040517f08c379a0000000000000000000000000000000000000000000000000000000008152600401610e7690613f8c565b60405180910390fd5b610e8a8383836121d8565b505050565b60126020528060005260406000206000915054906101000a900460ff1681565b6015602052816000526040600020602052806000526040600020600091509150508060000160009054906101000a900473ffffffffffffffffffffffffffffffffffffffff1690806001018054610f0590613dc4565b80601f0160208091040260200160405190810160405280929190818152602001828054610f3190613dc4565b8015610f7e5780601f10610f5357610100808354040283529160200191610f7e565b820191906000526020600020905b815481529060010190602001808311610f6157829003601f168201915b5050505050908060020154908060030154908060040154908060050154905086565b610fbb838383604051806020016040528060008152506115c5565b505050565b60166020528160005260406000208181548110610fdc57600080fd5b9060005260206000209060060201600091509150508060000160009054906101000a900473ffffffffffffffffffffffffffffffffffffffff169080600101805461102690613dc4565b80601f016020809104026020016040519081016040528092919081815260200182805461105290613dc4565b801561109f5780601f106110745761010080835404028352916020019161109f565b820191906000526020600020905b81548152906001019060200180831161108257829003601f168201915b5050505050908060020154908060030154908060040154908060050154905086565b6013602052816000526040600020602052806000526040600020600091509150505481565b6000806002600084815260200190815260200160002060009054906101000a900473ffffffffffffffffffffffffffffffffffffffff169050600073ffffffffffffffffffffffffffffffffffffffff168173ffffffffffffffffffffffffffffffffffffffff16141561118f576040517f08c379a000000000000000000000000000000000000000000000000000000000815260040161118690613ff8565b60405180910390fd5b80915050919050565b60008073ffffffffffffffffffffffffffffffffffffffff168273ffffffffffffffffffffffffffffffffffffffff161415611209576040517f08c379a00000000000000000000000000000000000000000000000000000000081526004016112009061408a565b60405180910390fd5b600360008373ffffffffffffffffffffffffffffffffffffffff1673ffffffffffffffffffffffffffffffffffffffff168152602001908152602001600020549050919050565b60186020528060005260406000206000915090508060000154908060010154905082565b6000601260008373ffffffffffffffffffffffffffffffffffffffff1673ffffffffffffffffffffffffffffffffffffffff16815260200190815260200160002060009054906101000a900460ff16156112d157600190506112d6565b600090505b919050565b6060600180546112ea90613dc4565b80601f016020809104026020016040519081016040528092919081815260200182805461131690613dc4565b80156113635780601f1061133857610100808354040283529160200191611363565b820191906000526020600020905b81548152906001019060200180831161134657829003601f168201915b5050505050905090565b611375612e58565b601760008381526020019081526020016000206040518060400160405290816000820154815260200160018201805480602002602001604051908101604052809291908181526020016000905b828210156115a057838290600052602060002090600c02016040518060e00160405290816000820160009054906101000a900473ffffffffffffffffffffffffffffffffffffffff1673ffffffffffffffffffffffffffffffffffffffff1673ffffffffffffffffffffffffffffffffffffffff16815260200160018201548152602001600282016040518060c00160405290816000820160009054906101000a900473ffffffffffffffffffffffffffffffffffffffff1673ffffffffffffffffffffffffffffffffffffffff1673ffffffffffffffffffffffffffffffffffffffff1681526020016001820180546114bb90613dc4565b80601f01602080910402602001604051908101604052809291908181526020018280546114e790613dc4565b80156115345780601f1061150957610100808354040283529160200191611534565b820191906000526020600020905b81548152906001019060200180831161151757829003601f168201915b5050505050815260200160028201548152602001600382015481526020016004820154815260200160058201548152505081526020016008820154815260200160098201548152602001600a8201548152602001600b82015481525050815260200190600101906113c2565b50505050815250509050919050565b6115c16115ba612082565b838361243f565b5050565b6115d66115d0612082565b83612143565b611615576040517f08c379a000000000000000000000000000000000000000000000000000000000815260040161160c90613f8c565b60405180910390fd5b611621848484846125ac565b50505050565b6014602052816000526040600020602052806000526040600020600091509150505481565b606061165782612037565b6000611661612608565b9050600081511161168157604051806020016040528060008152506116ac565b8061168b8461261f565b60405160200161169c9291906140e6565b6040516020818303038152906040525b915050919050565b60195481565b60176020528060005260406000206000915090508060000154905081565b600047905090565b6000600560008473ffffffffffffffffffffffffffffffffffffffff1673ffffffffffffffffffffffffffffffffffffffff16815260200190815260200160002060008373ffffffffffffffffffffffffffffffffffffffff1673ffffffffffffffffffffffffffffffffffffffff16815260200190815260200160002060009054906101000a900460ff16905092915050565b81601560003373ffffffffffffffffffffffffffffffffffffffff1673ffffffffffffffffffffffffffffffffffffffff168152602001908152602001600020600082815260200190815260200160002060000160009054906101000a900473ffffffffffffffffffffffffffffffffffffffff1673ffffffffffffffffffffffffffffffffffffffff163373ffffffffffffffffffffffffffffffffffffffff161480156118565750611827816110e6565b73ffffffffffffffffffffffffffffffffffffffff163373ffffffffffffffffffffffffffffffffffffffff16145b611895576040517f08c379a000000000000000000000000000000000000000000000000000000000815260040161188c90614156565b60405180910390fd5b348268015af1d78b58c400008210156118e3576040517f08c379a00000000000000000000000000000000000000000000000000000000081526004016118da906141e8565b60405180910390fd5b808214611925576040517f08c379a000000000000000000000000000000000000000000000000000000000815260040161191c90614254565b60405180910390fd5b60004290506000606460178761193b91906142a3565b611945919061432c565b90506000606460498861195891906142a3565b611962919061432c565b905080601460003373ffffffffffffffffffffffffffffffffffffffff1673ffffffffffffffffffffffffffffffffffffffff16815260200190815260200160002060008a815260200190815260200160002060008282546119c4919061435d565b9250508190555081601360003373ffffffffffffffffffffffffffffffffffffffff1673ffffffffffffffffffffffffffffffffffffffff16815260200190815260200160002060008a81526020019081526020016000206000828254611a2b919061435d565b92505081905550611ba9601560003373ffffffffffffffffffffffffffffffffffffffff1673ffffffffffffffffffffffffffffffffffffffff16815260200190815260200160002060008a81526020019081526020016000206040518060c00160405290816000820160009054906101000a900473ffffffffffffffffffffffffffffffffffffffff1673ffffffffffffffffffffffffffffffffffffffff1673ffffffffffffffffffffffffffffffffffffffff168152602001600182018054611af690613dc4565b80601f0160208091040260200160405190810160405280929190818152602001828054611b2290613dc4565b8015611b6f5780601f10611b4457610100808354040283529160200191611b6f565b820191906000526020600020905b815481529060010190602001808311611b5257829003601f168201915b5050505050815260200160028201548152602001600382015481526020016004820154815260200160058201548152505088858585612780565b5050505050505050565b348168015af1d78b58c40000821015611c01576040517f08c379a0000000000000000000000000000000000000000000000000000000008152600401611bf8906141e8565b60405180910390fd5b808214611c43576040517f08c379a0000000000000000000000000000000000000000000000000000000008152600401611c3a90614254565b60405180910390fd5b611c4c33611274565b15611c8c576040517f08c379a0000000000000000000000000000000000000000000000000000000008152600401611c83906143ff565b60405180910390fd5b6012851015611cd0576040517f08c379a0000000000000000000000000000000000000000000000000000000008152600401611cc790614491565b60405180910390fd5b60006301e1338086611ce291906142a3565b905060004290506000611cf56006612982565b9050611d016006612990565b611d0b33826129a6565b60006040518060c001604052803373ffffffffffffffffffffffffffffffffffffffff1681526020018b81526020018581526020018981526020018381526020018481525090506000846372a94580611d6491906144b1565b905060008185611d74919061435d565b9050600062278d008060195484611d8b91906144b1565b611d95919061432c565b611d9f919061435d565b90506016600082815260200190815260200160002084908060018154018082558091505060019003906000526020600020906006020160009091909190915060008201518160000160006101000a81548173ffffffffffffffffffffffffffffffffffffffff021916908373ffffffffffffffffffffffffffffffffffffffff1602179055506020820151816001019080519060200190611e41929190612e72565b5060408201518160020155606082015181600301556080820151816004015560a08201518160050155505083601560003373ffffffffffffffffffffffffffffffffffffffff1673ffffffffffffffffffffffffffffffffffffffff168152602001908152602001600020600087815260200190815260200160002060008201518160000160006101000a81548173ffffffffffffffffffffffffffffffffffffffff021916908373ffffffffffffffffffffffffffffffffffffffff1602179055506020820151816001019080519060200190611f20929190612e72565b5060408201518160020155606082015181600301556080820151816004015560a08201518160050155905050611f5a8460a001518b611774565b6001601260003373ffffffffffffffffffffffffffffffffffffffff1673ffffffffffffffffffffffffffffffffffffffff16815260200190815260200160002060006101000a81548160ff02191690831515021790555050505050505050505050505050565b60068060000154905081565b60007f01ffc9a7000000000000000000000000000000000000000000000000000000007bffffffffffffffffffffffffffffffffffffffffffffffffffffffff1916827bffffffffffffffffffffffffffffffffffffffffffffffffffffffff1916149050919050565b612040816129c4565b61207f576040517f08c379a000000000000000000000000000000000000000000000000000000000815260040161207690613ff8565b60405180910390fd5b50565b600033905090565b816004600083815260200190815260200160002060006101000a81548173ffffffffffffffffffffffffffffffffffffffff021916908373ffffffffffffffffffffffffffffffffffffffff160217905550808273ffffffffffffffffffffffffffffffffffffffff166120fd836110e6565b73ffffffffffffffffffffffffffffffffffffffff167f8c5be1e5ebec7d5bd14f71427d1e84f3dd0314c0f7b2291e5b200ac8c7c3b92560405160405180910390a45050565b60008061214f836110e6565b90508073ffffffffffffffffffffffffffffffffffffffff168473ffffffffffffffffffffffffffffffffffffffff161480612191575061219081856116e0565b5b806121cf57508373ffffffffffffffffffffffffffffffffffffffff166121b7846108d5565b73ffffffffffffffffffffffffffffffffffffffff16145b91505092915050565b8273ffffffffffffffffffffffffffffffffffffffff166121f8826110e6565b73ffffffffffffffffffffffffffffffffffffffff161461224e576040517f08c379a000000000000000000000000000000000000000000000000000000000815260040161224590614557565b60405180910390fd5b600073ffffffffffffffffffffffffffffffffffffffff168273ffffffffffffffffffffffffffffffffffffffff1614156122be576040517f08c379a00000000000000000000000000000000000000000000000000000000081526004016122b5906145e9565b60405180910390fd5b6122c9838383612a30565b6122d460008261208a565b6001600360008573ffffffffffffffffffffffffffffffffffffffff1673ffffffffffffffffffffffffffffffffffffffff168152602001908152602001600020600082825461232491906144b1565b925050819055506001600360008473ffffffffffffffffffffffffffffffffffffffff1673ffffffffffffffffffffffffffffffffffffffff168152602001908152602001600020600082825461237b919061435d565b92505081905550816002600083815260200190815260200160002060006101000a81548173ffffffffffffffffffffffffffffffffffffffff021916908373ffffffffffffffffffffffffffffffffffffffff160217905550808273ffffffffffffffffffffffffffffffffffffffff168473ffffffffffffffffffffffffffffffffffffffff167fddf252ad1be2c89b69c2b068fc378daa952ba7f163c4a11628f55a4df523b3ef60405160405180910390a461243a838383612a35565b505050565b8173ffffffffffffffffffffffffffffffffffffffff168373ffffffffffffffffffffffffffffffffffffffff1614156124ae576040517f08c379a00000000000000000000000000000000000000000000000000000000081526004016124a590614655565b60405180910390fd5b80600560008573ffffffffffffffffffffffffffffffffffffffff1673ffffffffffffffffffffffffffffffffffffffff16815260200190815260200160002060008473ffffffffffffffffffffffffffffffffffffffff1673ffffffffffffffffffffffffffffffffffffffff16815260200190815260200160002060006101000a81548160ff0219169083151502179055508173ffffffffffffffffffffffffffffffffffffffff168373ffffffffffffffffffffffffffffffffffffffff167f17307eab39ab6107e8899845ad3d59bd9653f200f220920489ca2b5937696c318360405161259f9190612fc9565b60405180910390a3505050565b6125b78484846121d8565b6125c384848484612a3a565b612602576040517f08c379a00000000000000000000000000000000000000000000000000000000081526004016125f9906146e7565b60405180910390fd5b50505050565b606060405180602001604052806000815250905090565b60606000821415612667576040518060400160405280600181526020017f3000000000000000000000000000000000000000000000000000000000000000815250905061277b565b600082905060005b6000821461269957808061268290614707565b915050600a82612692919061432c565b915061266f565b60008167ffffffffffffffff8111156126b5576126b4613a83565b5b6040519080825280601f01601f1916602001820160405280156126e75781602001600182028036833780820191505090505b5090505b600085146127745760018261270091906144b1565b9150600a8561270f9190614750565b603061271b919061435d565b60f81b81838151811061273157612730614781565b5b60200101907effffffffffffffffffffffffffffffffffffffffffffffffffffffffffffff1916908160001a905350600a8561276d919061432c565b94506126eb565b8093505050505b919050565b60008360405160200161279391906147d1565b6040516020818303038152906040528051906020012090508460176000601954815260200190815260200160002060000160008282546127d3919061435d565b925050819055506017600060195481526020019081526020016000206001016040518060e00160405280886000015173ffffffffffffffffffffffffffffffffffffffff1681526020018381526020018881526020018681526020018581526020018481526020018781525090806001815401808255809150506001900390600052602060002090600c020160009091909190915060008201518160000160006101000a81548173ffffffffffffffffffffffffffffffffffffffff021916908373ffffffffffffffffffffffffffffffffffffffff1602179055506020820151816001015560408201518160020160008201518160000160006101000a81548173ffffffffffffffffffffffffffffffffffffffff021916908373ffffffffffffffffffffffffffffffffffffffff1602179055506020820151816001019080519060200190612925929190612e72565b5060408201518160020155606082015181600301556080820151816004015560a082015181600501555050606082015181600801556080820151816009015560a082015181600a015560c082015181600b01555050505050505050565b600081600001549050919050565b6001816000016000828254019250508190555050565b6129c0828260405180602001604052806000815250612bd1565b5050565b60008073ffffffffffffffffffffffffffffffffffffffff166002600084815260200190815260200160002060009054906101000a900473ffffffffffffffffffffffffffffffffffffffff1673ffffffffffffffffffffffffffffffffffffffff1614159050919050565b505050565b505050565b6000612a5b8473ffffffffffffffffffffffffffffffffffffffff16612c2c565b15612bc4578373ffffffffffffffffffffffffffffffffffffffff1663150b7a02612a84612082565b8786866040518563ffffffff1660e01b8152600401612aa69493929190614841565b602060405180830381600087803b158015612ac057600080fd5b505af1925050508015612af157506040513d601f19601f82011682018060405250810190612aee91906148a2565b60015b612b74573d8060008114612b21576040519150601f19603f3d011682016040523d82523d6000602084013e612b26565b606091505b50600081511415612b6c576040517f08c379a0000000000000000000000000000000000000000000000000000000008152600401612b63906146e7565b60405180910390fd5b805181602001fd5b63150b7a0260e01b7bffffffffffffffffffffffffffffffffffffffffffffffffffffffff1916817bffffffffffffffffffffffffffffffffffffffffffffffffffffffff191614915050612bc9565b600190505b949350505050565b612bdb8383612c4f565b612be86000848484612a3a565b612c27576040517f08c379a0000000000000000000000000000000000000000000000000000000008152600401612c1e906146e7565b60405180910390fd5b505050565b6000808273ffffffffffffffffffffffffffffffffffffffff163b119050919050565b600073ffffffffffffffffffffffffffffffffffffffff168273ffffffffffffffffffffffffffffffffffffffff161415612cbf576040517f08c379a0000000000000000000000000000000000000000000000000000000008152600401612cb69061491b565b60405180910390fd5b612cc8816129c4565b15612d08576040517f08c379a0000000000000000000000000000000000000000000000000000000008152600401612cff90614987565b60405180910390fd5b612d1460008383612a30565b6001600360008473ffffffffffffffffffffffffffffffffffffffff1673ffffffffffffffffffffffffffffffffffffffff1681526020019081526020016000206000828254612d64919061435d565b92505081905550816002600083815260200190815260200160002060006101000a81548173ffffffffffffffffffffffffffffffffffffffff021916908373ffffffffffffffffffffffffffffffffffffffff160217905550808273ffffffffffffffffffffffffffffffffffffffff16600073ffffffffffffffffffffffffffffffffffffffff167fddf252ad1be2c89b69c2b068fc378daa952ba7f163c4a11628f55a4df523b3ef60405160405180910390a4612e2560008383612a35565b5050565b6040518060a0016040528060008152602001600081526020016000815260200160608152602001606081525090565b604051806040016040528060008152602001606081525090565b828054612e7e90613dc4565b90600052602060002090601f016020900481019282612ea05760008555612ee7565b82601f10612eb957805160ff1916838001178555612ee7565b82800160010185558215612ee7579182015b82811115612ee6578251825591602001919060010190612ecb565b5b509050612ef49190612ef8565b5090565b5b80821115612f11576000816000905550600101612ef9565b5090565b6000604051905090565b600080fd5b600080fd5b60007fffffffff0000000000000000000000000000000000000000000000000000000082169050919050565b612f5e81612f29565b8114612f6957600080fd5b50565b600081359050612f7b81612f55565b92915050565b600060208284031215612f9757612f96612f1f565b5b6000612fa584828501612f6c565b91505092915050565b60008115159050919050565b612fc381612fae565b82525050565b6000602082019050612fde6000830184612fba565b92915050565b600081519050919050565b600082825260208201905092915050565b60005b8381101561301e578082015181840152602081019050613003565b8381111561302d576000848401525b50505050565b6000601f19601f8301169050919050565b600061304f82612fe4565b6130598185612fef565b9350613069818560208601613000565b61307281613033565b840191505092915050565b600060208201905081810360008301526130978184613044565b905092915050565b6000819050919050565b6130b28161309f565b81146130bd57600080fd5b50565b6000813590506130cf816130a9565b92915050565b6000602082840312156130eb576130ea612f1f565b5b60006130f9848285016130c0565b91505092915050565b600073ffffffffffffffffffffffffffffffffffffffff82169050919050565b600061312d82613102565b9050919050565b61313d81613122565b82525050565b60006020820190506131586000830184613134565b92915050565b61316781613122565b811461317257600080fd5b50565b6000813590506131848161315e565b92915050565b600080604083850312156131a1576131a0612f1f565b5b60006131af85828601613175565b92505060206131c0858286016130c0565b9150509250929050565b6000819050919050565b6131dd816131ca565b82525050565b6131ec8161309f565b82525050565b600081519050919050565b600082825260208201905092915050565b6000819050602082019050919050565b600081519050919050565b600082825260208201905092915050565b6000819050602082019050919050565b600061325582613102565b9050919050565b6132658161324a565b82525050565b60a082016000820151613281600085018261325c565b50602082015161329460208501826131e3565b5060408201516132a760408501826131e3565b5060608201516132ba60608501826131e3565b5060808201516132cd60808501826131e3565b50505050565b60006132df838361326b565b60a08301905092915050565b6000602082019050919050565b60006133038261321e565b61330d8185613229565b93506133188361323a565b8060005b8381101561334957815161333088826132d3565b975061333b836132eb565b92505060018101905061331c565b5085935050505092915050565b600060608301600083015161336e60008601826131e3565b50602083015161338160208601826131e3565b506040830151848203604086015261339982826132f8565b9150508091505092915050565b60006133b28383613356565b905092915050565b6000602082019050919050565b60006133d2826131f2565b6133dc81856131fd565b9350836020820285016133ee8561320e565b8060005b8581101561342a578484038952815161340b85826133a6565b9450613416836133ba565b925060208a019950506001810190506133f2565b50829750879550505050505092915050565b600081519050919050565b600082825260208201905092915050565b6000819050602082019050919050565b600081519050919050565b600082825260208201905092915050565b6000819050602082019050919050565b6000819050919050565b6134a781613494565b82525050565b600082825260208201905092915050565b60006134c982612fe4565b6134d381856134ad565b93506134e3818560208601613000565b6134ec81613033565b840191505092915050565b600060c08301600083015161350f600086018261325c565b506020830151848203602086015261352782826134be565b915050604083015161353c60408601826131e3565b50606083015161354f60608601826131e3565b50608083015161356260808601826131e3565b5060a083015161357560a08601826131e3565b508091505092915050565b600060e083016000830151613598600086018261325c565b5060208301516135ab602086018261349e565b50604083015184820360408601526135c382826134f7565b91505060608301516135d860608601826131e3565b5060808301516135eb60808601826131e3565b5060a08301516135fe60a08601826131e3565b5060c083015161361160c08601826131e3565b508091505092915050565b60006136288383613580565b905092915050565b6000602082019050919050565b600061364882613468565b6136528185613473565b93508360208202850161366485613484565b8060005b858110156136a05784840389528151613681858261361c565b945061368c83613630565b925060208a01995050600181019050613668565b50829750879550505050505092915050565b60006040830160008301516136ca60008601826131e3565b50602083015184820360208601526136e2828261363d565b9150508091505092915050565b60006136fb83836136b2565b905092915050565b6000602082019050919050565b600061371b8261343c565b6137258185613447565b93508360208202850161373785613458565b8060005b85811015613773578484038952815161375485826136ef565b945061375f83613703565b925060208a0199505060018101905061373b565b50829750879550505050505092915050565b600060a08301600083015161379d60008601826131d4565b5060208301516137b060208601826131e3565b5060408301516137c360408601826131e3565b50606083015184820360608601526137db82826133c7565b915050608083015184820360808601526137f58282613710565b9150508091505092915050565b6000602082019050818103600083015261381c8184613785565b905092915050565b60008060006060848603121561383d5761383c612f1f565b5b600061384b86828701613175565b935050602061385c86828701613175565b925050604061386d868287016130c0565b9150509250925092565b60006020828403121561388d5761388c612f1f565b5b600061389b84828501613175565b91505092915050565b6138ad8161324a565b82525050565b6138bc8161309f565b82525050565b600060c0820190506138d760008301896138a4565b81810360208301526138e98188613044565b90506138f860408301876138b3565b61390560608301866138b3565b61391260808301856138b3565b61391f60a08301846138b3565b979650505050505050565b6000806040838503121561394157613940612f1f565b5b600061394f858286016130c0565b9250506020613960858286016130c0565b9150509250929050565b600060208201905061397f60008301846138b3565b92915050565b600060408201905061399a60008301856138b3565b6139a760208301846138b3565b9392505050565b60006040830160008301516139c660008601826131e3565b50602083015184820360208601526139de828261363d565b9150508091505092915050565b60006020820190508181036000830152613a0581846139ae565b905092915050565b613a1681612fae565b8114613a2157600080fd5b50565b600081359050613a3381613a0d565b92915050565b60008060408385031215613a5057613a4f612f1f565b5b6000613a5e85828601613175565b9250506020613a6f85828601613a24565b9150509250929050565b600080fd5b600080fd5b7f4e487b7100000000000000000000000000000000000000000000000000000000600052604160045260246000fd5b613abb82613033565b810181811067ffffffffffffffff82111715613ada57613ad9613a83565b5b80604052505050565b6000613aed612f15565b9050613af98282613ab2565b919050565b600067ffffffffffffffff821115613b1957613b18613a83565b5b613b2282613033565b9050602081019050919050565b82818337600083830152505050565b6000613b51613b4c84613afe565b613ae3565b905082815260208101848484011115613b6d57613b6c613a7e565b5b613b78848285613b2f565b509392505050565b600082601f830112613b9557613b94613a79565b5b8135613ba5848260208601613b3e565b91505092915050565b60008060008060808587031215613bc857613bc7612f1f565b5b6000613bd687828801613175565b9450506020613be787828801613175565b9350506040613bf8878288016130c0565b925050606085013567ffffffffffffffff811115613c1957613c18612f24565b5b613c2587828801613b80565b91505092959194509250565b60008060408385031215613c4857613c47612f1f565b5b6000613c5685828601613175565b9250506020613c6785828601613175565b9150509250929050565b600067ffffffffffffffff821115613c8c57613c8b613a83565b5b613c9582613033565b9050602081019050919050565b6000613cb5613cb084613c71565b613ae3565b905082815260208101848484011115613cd157613cd0613a7e565b5b613cdc848285613b2f565b509392505050565b600082601f830112613cf957613cf8613a79565b5b8135613d09848260208601613ca2565b91505092915050565b60008060008060808587031215613d2c57613d2b612f1f565b5b600085013567ffffffffffffffff811115613d4a57613d49612f24565b5b613d5687828801613ce4565b9450506020613d67878288016130c0565b9350506040613d78878288016130c0565b9250506060613d89878288016130c0565b91505092959194509250565b7f4e487b7100000000000000000000000000000000000000000000000000000000600052602260045260246000fd5b60006002820490506001821680613ddc57607f821691505b60208210811415613df057613def613d95565b5b50919050565b7f4552433732313a20617070726f76616c20746f2063757272656e74206f776e6560008201527f7200000000000000000000000000000000000000000000000000000000000000602082015250565b6000613e52602183612fef565b9150613e5d82613df6565b604082019050919050565b60006020820190508181036000830152613e8181613e45565b9050919050565b7f4552433732313a20617070726f76652063616c6c6572206973206e6f7420746f60008201527f6b656e206f776e6572206e6f7220617070726f76656420666f7220616c6c0000602082015250565b6000613ee4603e83612fef565b9150613eef82613e88565b604082019050919050565b60006020820190508181036000830152613f1381613ed7565b9050919050565b7f4552433732313a2063616c6c6572206973206e6f7420746f6b656e206f776e6560008201527f72206e6f7220617070726f766564000000000000000000000000000000000000602082015250565b6000613f76602e83612fef565b9150613f8182613f1a565b604082019050919050565b60006020820190508181036000830152613fa581613f69565b9050919050565b7f4552433732313a20696e76616c696420746f6b656e2049440000000000000000600082015250565b6000613fe2601883612fef565b9150613fed82613fac565b602082019050919050565b6000602082019050818103600083015261401181613fd5565b9050919050565b7f4552433732313a2061646472657373207a65726f206973206e6f74206120766160008201527f6c6964206f776e65720000000000000000000000000000000000000000000000602082015250565b6000614074602983612fef565b915061407f82614018565b604082019050919050565b600060208201905081810360008301526140a381614067565b9050919050565b600081905092915050565b60006140c082612fe4565b6140ca81856140aa565b93506140da818560208601613000565b80840191505092915050565b60006140f282856140b5565b91506140fe82846140b5565b91508190509392505050565b7f596f7520646f6e2774206f776e20746869732070656e73696f6e000000000000600082015250565b6000614140601a83612fef565b915061414b8261410a565b602082019050919050565b6000602082019050818103600083015261416f81614133565b9050919050565b7f54686520616d6f756e7420646f65736e277420726561636820746865206d696e60008201527f696d756d20726571756972656400000000000000000000000000000000000000602082015250565b60006141d2602d83612fef565b91506141dd82614176565b604082019050919050565b60006020820190508181036000830152614201816141c5565b9050919050565b7f596f7520646f6e27742068617665207468697320616d6f756e74000000000000600082015250565b600061423e601a83612fef565b915061424982614208565b602082019050919050565b6000602082019050818103600083015261426d81614231565b9050919050565b7f4e487b7100000000000000000000000000000000000000000000000000000000600052601160045260246000fd5b60006142ae8261309f565b91506142b98361309f565b9250817fffffffffffffffffffffffffffffffffffffffffffffffffffffffffffffffff04831182151516156142f2576142f1614274565b5b828202905092915050565b7f4e487b7100000000000000000000000000000000000000000000000000000000600052601260045260246000fd5b60006143378261309f565b91506143428361309f565b925082614352576143516142fd565b5b828204905092915050565b60006143688261309f565b91506143738361309f565b9250827fffffffffffffffffffffffffffffffffffffffffffffffffffffffffffffffff038211156143a8576143a7614274565b5b828201905092915050565b7f416c72656164792067656e657261746564206869732070656e73696f6e000000600082015250565b60006143e9601d83612fef565b91506143f4826143b3565b602082019050919050565b60006020820190508181036000830152614418816143dc565b9050919050565b7f596f75206d757374206265203138207965617273206f72206f6c64657220746f60008201527f2067656e657261746520612070656e73696f6e00000000000000000000000000602082015250565b600061447b603383612fef565b91506144868261441f565b604082019050919050565b600060208201905081810360008301526144aa8161446e565b9050919050565b60006144bc8261309f565b91506144c78361309f565b9250828210156144da576144d9614274565b5b828203905092915050565b7f4552433732313a207472616e736665722066726f6d20696e636f72726563742060008201527f6f776e6572000000000000000000000000000000000000000000000000000000602082015250565b6000614541602583612fef565b915061454c826144e5565b604082019050919050565b6000602082019050818103600083015261457081614534565b9050919050565b7f4552433732313a207472616e7366657220746f20746865207a65726f2061646460008201527f7265737300000000000000000000000000000000000000000000000000000000602082015250565b60006145d3602483612fef565b91506145de82614577565b604082019050919050565b60006020820190508181036000830152614602816145c6565b9050919050565b7f4552433732313a20617070726f766520746f2063616c6c657200000000000000600082015250565b600061463f601983612fef565b915061464a82614609565b602082019050919050565b6000602082019050818103600083015261466e81614632565b9050919050565b7f4552433732313a207472616e7366657220746f206e6f6e20455243373231526560008201527f63656976657220696d706c656d656e7465720000000000000000000000000000602082015250565b60006146d1603283612fef565b91506146dc82614675565b604082019050919050565b60006020820190508181036000830152614700816146c4565b9050919050565b60006147128261309f565b91507fffffffffffffffffffffffffffffffffffffffffffffffffffffffffffffffff82141561474557614744614274565b5b600182019050919050565b600061475b8261309f565b91506147668361309f565b925082614776576147756142fd565b5b828206905092915050565b7f4e487b7100000000000000000000000000000000000000000000000000000000600052603260045260246000fd5b6000819050919050565b6147cb6147c68261309f565b6147b0565b82525050565b60006147dd82846147ba565b60208201915081905092915050565b600081519050919050565b600082825260208201905092915050565b6000614813826147ec565b61481d81856147f7565b935061482d818560208601613000565b61483681613033565b840191505092915050565b60006080820190506148566000830187613134565b6148636020830186613134565b61487060408301856138b3565b81810360608301526148828184614808565b905095945050505050565b60008151905061489c81612f55565b92915050565b6000602082840312156148b8576148b7612f1f565b5b60006148c68482850161488d565b91505092915050565b7f4552433732313a206d696e7420746f20746865207a65726f2061646472657373600082015250565b6000614905602083612fef565b9150614910826148cf565b602082019050919050565b60006020820190508181036000830152614934816148f8565b9050919050565b7f4552433732313a20746f6b656e20616c7265616479206d696e74656400000000600082015250565b6000614971601c83612fef565b915061497c8261493b565b602082019050919050565b600060208201905081810360008301526149a081614964565b905091905056fea26469706673582212207953b2db61c1fd74d95d57ec2d2ad687627d29f52db83f2cd455b6f44d35ade864736f6c63430008090033",
  "linkReferences": {},
  "deployedLinkReferences": {}
}