{
  "_format": "hh-sol-artifact-1",
  "contractName": "Pension",
  "sourceName": "src/blockchain/hardhat/contracts/Pension.sol",
  "abi": [
    {
      "inputs": [],
      "stateMutability": "nonpayable",
      "type": "constructor"
    },
    {
      "anonymous": false,
      "inputs": [
        {
          "indexed": true,
          "internalType": "address",
          "name": "owner",
          "type": "address"
        },
        {
          "indexed": true,
          "internalType": "address",
          "name": "approved",
          "type": "address"
        },
        {
          "indexed": true,
          "internalType": "uint256",
          "name": "tokenId",
          "type": "uint256"
        }
      ],
      "name": "Approval",
      "type": "event"
    },
    {
      "anonymous": false,
      "inputs": [
        {
          "indexed": true,
          "internalType": "address",
          "name": "owner",
          "type": "address"
        },
        {
          "indexed": true,
          "internalType": "address",
          "name": "operator",
          "type": "address"
        },
        {
          "indexed": false,
          "internalType": "bool",
          "name": "approved",
          "type": "bool"
        }
      ],
      "name": "ApprovalForAll",
      "type": "event"
    },
    {
      "anonymous": false,
      "inputs": [
        {
          "indexed": true,
          "internalType": "address",
          "name": "from",
          "type": "address"
        },
        {
          "indexed": true,
          "internalType": "address",
          "name": "to",
          "type": "address"
        },
        {
          "indexed": true,
          "internalType": "uint256",
          "name": "tokenId",
          "type": "uint256"
        }
      ],
      "name": "Transfer",
      "type": "event"
    },
    {
      "anonymous": false,
      "inputs": [
        {
          "indexed": false,
          "internalType": "address",
          "name": "contributorAddress",
          "type": "address"
        },
        {
          "indexed": false,
          "internalType": "uint256",
          "name": "contributorAmount",
          "type": "uint256"
        },
        {
          "indexed": false,
          "internalType": "uint256",
          "name": "timeDeposit",
          "type": "uint256"
        }
      ],
      "name": "depositContributor",
      "type": "event"
    },
    {
      "inputs": [
        {
          "internalType": "address",
          "name": "to",
          "type": "address"
        },
        {
          "internalType": "uint256",
          "name": "tokenId",
          "type": "uint256"
        }
      ],
      "name": "approve",
      "outputs": [],
      "stateMutability": "nonpayable",
      "type": "function"
    },
    {
      "inputs": [
        {
          "internalType": "address",
          "name": "owner",
          "type": "address"
        }
      ],
      "name": "balanceOf",
      "outputs": [
        {
          "internalType": "uint256",
          "name": "",
          "type": "uint256"
        }
      ],
      "stateMutability": "view",
      "type": "function"
    },
    {
      "inputs": [
        {
          "internalType": "bytes",
          "name": "",
          "type": "bytes"
        }
      ],
      "name": "checkUpkeep",
      "outputs": [
        {
          "internalType": "bool",
          "name": "upkeepNeeded",
          "type": "bool"
        },
        {
          "internalType": "bytes",
          "name": "",
          "type": "bytes"
        }
      ],
      "stateMutability": "view",
      "type": "function"
    },
    {
      "inputs": [],
      "name": "cutoffDate",
      "outputs": [
        {
          "internalType": "uint256",
          "name": "",
          "type": "uint256"
        }
      ],
      "stateMutability": "view",
      "type": "function"
    },
    {
      "inputs": [
        {
          "internalType": "uint256",
          "name": "_pensionId",
          "type": "uint256"
        },
        {
          "internalType": "uint256",
          "name": "_amount",
          "type": "uint256"
        }
      ],
      "name": "depositAmount",
      "outputs": [],
      "stateMutability": "payable",
      "type": "function"
    },
    {
      "inputs": [
        {
          "internalType": "uint256",
          "name": "tokenId",
          "type": "uint256"
        }
      ],
      "name": "getApproved",
      "outputs": [
        {
          "internalType": "address",
          "name": "",
          "type": "address"
        }
      ],
      "stateMutability": "view",
      "type": "function"
    },
    {
      "inputs": [],
      "name": "getGeneralRecord",
      "outputs": [
        {
          "components": [
            {
              "internalType": "int256",
              "name": "solvent",
              "type": "int256"
            },
            {
              "internalType": "uint256",
              "name": "totalAmount",
              "type": "uint256"
            },
            {
              "internalType": "uint256",
              "name": "totalToPay",
              "type": "uint256"
            },
            {
              "components": [
                {
                  "internalType": "uint256",
                  "name": "totalAmount",
                  "type": "uint256"
                },
                {
                  "internalType": "uint256",
                  "name": "totalToPay",
                  "type": "uint256"
                },
                {
                  "components": [
                    {
                      "internalType": "address payable",
                      "name": "owner",
                      "type": "address"
                    },
                    {
                      "internalType": "uint256",
                      "name": "monthlyQuote",
                      "type": "uint256"
                    },
                    {
                      "internalType": "uint256",
                      "name": "quantityQuotes",
                      "type": "uint256"
                    },
                    {
                      "internalType": "uint256",
                      "name": "totalPaidQuotes",
                      "type": "uint256"
                    },
                    {
                      "internalType": "uint256",
                      "name": "totalPensionValue",
                      "type": "uint256"
                    }
                  ],
                  "internalType": "struct Pension.RetairedQuote[]",
                  "name": "retairedQuotes",
                  "type": "tuple[]"
                }
              ],
              "internalType": "struct Pension.RetairedRecord[]",
              "name": "retairedRecords",
              "type": "tuple[]"
            },
            {
              "components": [
                {
                  "internalType": "uint256",
                  "name": "totalAmount",
                  "type": "uint256"
                },
                {
                  "components": [
                    {
                      "internalType": "address payable",
                      "name": "owner",
                      "type": "address"
                    },
                    {
                      "internalType": "bytes32",
                      "name": "id",
                      "type": "bytes32"
                    },
                    {
                      "components": [
                        {
                          "internalType": "address payable",
                          "name": "owner",
                          "type": "address"
                        },
                        {
                          "internalType": "string",
                          "name": "biologySex",
                          "type": "string"
                        },
                        {
                          "internalType": "uint256",
                          "name": "age",
                          "type": "uint256"
                        },
                        {
                          "internalType": "uint256",
                          "name": "bornAge",
                          "type": "uint256"
                        },
                        {
                          "internalType": "uint256",
                          "name": "retirentmentDate",
                          "type": "uint256"
                        },
                        {
                          "internalType": "uint256",
                          "name": "pensionCreatedTime",
                          "type": "uint256"
                        },
                        {
                          "internalType": "uint256",
                          "name": "pensionId",
                          "type": "uint256"
                        },
                        {
                          "internalType": "uint256",
                          "name": "totalSavings",
                          "type": "uint256"
                        },
                        {
                          "internalType": "uint256",
                          "name": "totalSolidary",
                          "type": "uint256"
                        }
                      ],
                      "internalType": "struct Pension.DataPension",
                      "name": "dataPension",
                      "type": "tuple"
                    },
                    {
                      "internalType": "uint256",
                      "name": "contributionDate",
                      "type": "uint256"
                    },
                    {
                      "internalType": "uint256",
                      "name": "savingAmount",
                      "type": "uint256"
                    },
                    {
                      "internalType": "uint256",
                      "name": "solidaryAmount",
                      "type": "uint256"
                    },
                    {
                      "internalType": "uint256",
                      "name": "totalAmount",
                      "type": "uint256"
                    }
                  ],
                  "internalType": "struct Pension.MonthlyQuote[]",
                  "name": "monthlyQuotes",
                  "type": "tuple[]"
                }
              ],
              "internalType": "struct Pension.MonthlyRecord[]",
              "name": "monthlyRecords",
              "type": "tuple[]"
            }
          ],
          "internalType": "struct Pension.GeneralRecord",
          "name": "",
          "type": "tuple"
        }
      ],
      "stateMutability": "view",
      "type": "function"
    },
    {
      "inputs": [
        {
          "internalType": "uint256",
          "name": "_cutoffDate",
          "type": "uint256"
        }
      ],
      "name": "getMonthlyBalanceFromMonthlyGeneralBalance",
      "outputs": [
        {
          "components": [
            {
              "internalType": "uint256",
              "name": "totalAmount",
              "type": "uint256"
            },
            {
              "components": [
                {
                  "internalType": "address payable",
                  "name": "owner",
                  "type": "address"
                },
                {
                  "internalType": "bytes32",
                  "name": "id",
                  "type": "bytes32"
                },
                {
                  "components": [
                    {
                      "internalType": "address payable",
                      "name": "owner",
                      "type": "address"
                    },
                    {
                      "internalType": "string",
                      "name": "biologySex",
                      "type": "string"
                    },
                    {
                      "internalType": "uint256",
                      "name": "age",
                      "type": "uint256"
                    },
                    {
                      "internalType": "uint256",
                      "name": "bornAge",
                      "type": "uint256"
                    },
                    {
                      "internalType": "uint256",
                      "name": "retirentmentDate",
                      "type": "uint256"
                    },
                    {
                      "internalType": "uint256",
                      "name": "pensionCreatedTime",
                      "type": "uint256"
                    },
                    {
                      "internalType": "uint256",
                      "name": "pensionId",
                      "type": "uint256"
                    },
                    {
                      "internalType": "uint256",
                      "name": "totalSavings",
                      "type": "uint256"
                    },
                    {
                      "internalType": "uint256",
                      "name": "totalSolidary",
                      "type": "uint256"
                    }
                  ],
                  "internalType": "struct Pension.DataPension",
                  "name": "dataPension",
                  "type": "tuple"
                },
                {
                  "internalType": "uint256",
                  "name": "contributionDate",
                  "type": "uint256"
                },
                {
                  "internalType": "uint256",
                  "name": "savingAmount",
                  "type": "uint256"
                },
                {
                  "internalType": "uint256",
                  "name": "solidaryAmount",
                  "type": "uint256"
                },
                {
                  "internalType": "uint256",
                  "name": "totalAmount",
                  "type": "uint256"
                }
              ],
              "internalType": "struct Pension.MonthlyQuote[]",
              "name": "monthlyQuotes",
              "type": "tuple[]"
            }
          ],
          "internalType": "struct Pension.MonthlyRecord",
          "name": "",
          "type": "tuple"
        }
      ],
      "stateMutability": "view",
      "type": "function"
    },
    {
      "inputs": [
        {
          "internalType": "uint256",
          "name": "_pensionId",
          "type": "uint256"
        }
      ],
      "name": "getOwnerPensionsBalance",
      "outputs": [
        {
          "components": [
            {
              "internalType": "address payable",
              "name": "owner",
              "type": "address"
            },
            {
              "internalType": "string",
              "name": "biologySex",
              "type": "string"
            },
            {
              "internalType": "uint256",
              "name": "age",
              "type": "uint256"
            },
            {
              "internalType": "uint256",
              "name": "bornAge",
              "type": "uint256"
            },
            {
              "internalType": "uint256",
              "name": "retirentmentDate",
              "type": "uint256"
            },
            {
              "internalType": "uint256",
              "name": "pensionCreatedTime",
              "type": "uint256"
            },
            {
              "internalType": "uint256",
              "name": "pensionId",
              "type": "uint256"
            },
            {
              "internalType": "uint256",
              "name": "totalSavings",
              "type": "uint256"
            },
            {
              "internalType": "uint256",
              "name": "totalSolidary",
              "type": "uint256"
            }
          ],
          "internalType": "struct Pension.DataPension",
          "name": "",
          "type": "tuple"
        }
      ],
      "stateMutability": "view",
      "type": "function"
    },
    {
      "inputs": [
        {
          "internalType": "address",
          "name": "owner",
          "type": "address"
        },
        {
          "internalType": "address",
          "name": "operator",
          "type": "address"
        }
      ],
      "name": "isApprovedForAll",
      "outputs": [
        {
          "internalType": "bool",
          "name": "",
          "type": "bool"
        }
      ],
      "stateMutability": "view",
      "type": "function"
    },
    {
      "inputs": [],
      "name": "name",
      "outputs": [
        {
          "internalType": "string",
          "name": "",
          "type": "string"
        }
      ],
      "stateMutability": "view",
      "type": "function"
    },
    {
      "inputs": [
        {
          "internalType": "uint256",
          "name": "tokenId",
          "type": "uint256"
        }
      ],
      "name": "ownerOf",
      "outputs": [
        {
          "internalType": "address",
          "name": "",
          "type": "address"
        }
      ],
      "stateMutability": "view",
      "type": "function"
    },
    {
      "inputs": [],
      "name": "pensionIdCounter",
      "outputs": [
        {
          "internalType": "uint256",
          "name": "_value",
          "type": "uint256"
        }
      ],
      "stateMutability": "view",
      "type": "function"
    },
    {
      "inputs": [
        {
          "internalType": "bytes",
          "name": "",
          "type": "bytes"
        }
      ],
      "name": "performUpkeep",
      "outputs": [],
      "stateMutability": "nonpayable",
      "type": "function"
    },
    {
      "inputs": [],
      "name": "retirentmentAge",
      "outputs": [
        {
          "internalType": "uint256",
          "name": "",
          "type": "uint256"
        }
      ],
      "stateMutability": "view",
      "type": "function"
    },
    {
      "inputs": [
        {
          "internalType": "string",
          "name": "_biologySex",
          "type": "string"
        },
        {
          "internalType": "uint256",
          "name": "_age",
          "type": "uint256"
        },
        {
          "internalType": "uint256",
          "name": "_bornAge",
          "type": "uint256"
        },
        {
          "internalType": "uint256",
          "name": "_firstQuote",
          "type": "uint256"
        }
      ],
      "name": "safeMint",
      "outputs": [],
      "stateMutability": "payable",
      "type": "function"
    },
    {
      "inputs": [
        {
          "internalType": "address",
          "name": "from",
          "type": "address"
        },
        {
          "internalType": "address",
          "name": "to",
          "type": "address"
        },
        {
          "internalType": "uint256",
          "name": "tokenId",
          "type": "uint256"
        }
      ],
      "name": "safeTransferFrom",
      "outputs": [],
      "stateMutability": "nonpayable",
      "type": "function"
    },
    {
      "inputs": [
        {
          "internalType": "address",
          "name": "from",
          "type": "address"
        },
        {
          "internalType": "address",
          "name": "to",
          "type": "address"
        },
        {
          "internalType": "uint256",
          "name": "tokenId",
          "type": "uint256"
        },
        {
          "internalType": "bytes",
          "name": "data",
          "type": "bytes"
        }
      ],
      "name": "safeTransferFrom",
      "outputs": [],
      "stateMutability": "nonpayable",
      "type": "function"
    },
    {
      "inputs": [
        {
          "internalType": "address",
          "name": "operator",
          "type": "address"
        },
        {
          "internalType": "bool",
          "name": "approved",
          "type": "bool"
        }
      ],
      "name": "setApprovalForAll",
      "outputs": [],
      "stateMutability": "nonpayable",
      "type": "function"
    },
    {
      "inputs": [
        {
          "internalType": "bytes4",
          "name": "interfaceId",
          "type": "bytes4"
        }
      ],
      "name": "supportsInterface",
      "outputs": [
        {
          "internalType": "bool",
          "name": "",
          "type": "bool"
        }
      ],
      "stateMutability": "view",
      "type": "function"
    },
    {
      "inputs": [],
      "name": "symbol",
      "outputs": [
        {
          "internalType": "string",
          "name": "",
          "type": "string"
        }
      ],
      "stateMutability": "view",
      "type": "function"
    },
    {
      "inputs": [
        {
          "internalType": "uint256",
          "name": "tokenId",
          "type": "uint256"
        }
      ],
      "name": "tokenURI",
      "outputs": [
        {
          "internalType": "string",
          "name": "",
          "type": "string"
        }
      ],
      "stateMutability": "view",
      "type": "function"
    },
    {
      "inputs": [],
      "name": "totalAsserts",
      "outputs": [
        {
          "internalType": "uint256",
          "name": "",
          "type": "uint256"
        }
      ],
      "stateMutability": "view",
      "type": "function"
    },
    {
      "inputs": [
        {
          "internalType": "address",
          "name": "from",
          "type": "address"
        },
        {
          "internalType": "address",
          "name": "to",
          "type": "address"
        },
        {
          "internalType": "uint256",
          "name": "tokenId",
          "type": "uint256"
        }
      ],
      "name": "transferFrom",
      "outputs": [],
      "stateMutability": "nonpayable",
      "type": "function"
    },
    {
      "inputs": [
        {
          "internalType": "address",
          "name": "_owner",
          "type": "address"
        }
      ],
      "name": "verifyIfTheContributorAlreadyMinted",
      "outputs": [
        {
          "internalType": "bool",
          "name": "",
          "type": "bool"
        }
      ],
      "stateMutability": "view",
      "type": "function"
    }
  ],
  "bytecode": "0x60806040523480156200001157600080fd5b506040518060400160405280600781526020017f50656e73696f6e000000000000000000000000000000000000000000000000008152506040518060400160405280600381526020017f504e5300000000000000000000000000000000000000000000000000000000008152508160009080519060200190620000969291906200019b565b508060019080519060200190620000af9291906200019b565b505050426019819055506000600e600181600181540180825580915050039060005260206000209060020201905080601760006019548152602001908152602001600020600082015481600001556001820181600101908054620001159291906200022c565b509050506000600c6001816001815401808255809150500390600052602060002090600502019050806007600082015481600001556001820154816001015560028201548160020155600382018160030190805462000176929190620003fd565b5060048201816004019080546200018f92919062000487565b5090505050506200094f565b828054620001a99062000919565b90600052602060002090601f016020900481019282620001cd576000855562000219565b82601f10620001e857805160ff191683800117855562000219565b8280016001018555821562000219579182015b8281111562000218578251825591602001919060010190620001fb565b5b50905062000228919062000507565b5090565b82805482825590600052602060002090600f028101928215620003ea57600052602060002091600f0282015b82811115620003e95782826000820160009054906101000a900473ffffffffffffffffffffffffffffffffffffffff168160000160006101000a81548173ffffffffffffffffffffffffffffffffffffffff021916908373ffffffffffffffffffffffffffffffffffffffff1602179055506001820154816001015560028201816002016000820160009054906101000a900473ffffffffffffffffffffffffffffffffffffffff168160000160006101000a81548173ffffffffffffffffffffffffffffffffffffffff021916908373ffffffffffffffffffffffffffffffffffffffff1602179055506001820181600101908054620003599062000919565b6200036692919062000526565b50600282015481600201556003820154816003015560048201548160040155600582015481600501556006820154816006015560078201548160070155600882015481600801555050600b82015481600b0155600c82015481600c0155600d82015481600d0155600e82015481600e0155505091600f019190600f019062000258565b5b509050620003f99190620005be565b5090565b828054828255906000526020600020906003028101928215620004745760005260206000209160030282015b828111156200047357828260008201548160000155600182015481600101556002820181600201908054620004609291906200069e565b5050509160030191906003019062000429565b5b5090506200048391906200078a565b5090565b828054828255906000526020600020906002028101928215620004f45760005260206000209160020282015b82811115620004f3578282600082015481600001556001820181600101908054620004e09291906200022c565b50505091600201919060020190620004b3565b5b509050620005039190620007c5565b5090565b5b808211156200052257600081600090555060010162000508565b5090565b828054620005349062000919565b90600052602060002090601f016020900481019282620005585760008555620005ab565b82601f106200056b5780548555620005ab565b82800160010185558215620005ab57600052602060002091601f016020900482015b82811115620005aa5782548255916001019190600101906200058d565b5b509050620005ba919062000507565b5090565b5b808211156200069a57600080820160006101000a81549073ffffffffffffffffffffffffffffffffffffffff0219169055600182016000905560028201600080820160006101000a81549073ffffffffffffffffffffffffffffffffffffffff0219169055600182016000620006369190620007f8565b60028201600090556003820160009055600482016000905560058201600090556006820160009055600782016000905560088201600090555050600b820160009055600c820160009055600d820160009055600e82016000905550600f01620005bf565b5090565b828054828255906000526020600020906005028101928215620007775760005260206000209160050282015b82811115620007765782826000820160009054906101000a900473ffffffffffffffffffffffffffffffffffffffff168160000160006101000a81548173ffffffffffffffffffffffffffffffffffffffff021916908373ffffffffffffffffffffffffffffffffffffffff16021790555060018201548160010155600282015481600201556003820154816003015560048201548160040155505091600501919060050190620006ca565b5b5090506200078691906200083e565b5090565b5b80821115620007c1576000808201600090556001820160009055600282016000620007b791906200089e565b506003016200078b565b5090565b5b80821115620007f457600080820160009055600182016000620007ea9190620008c4565b50600201620007c6565b5090565b508054620008069062000919565b6000825580601f106200081a57506200083b565b601f0160209004906000526020600020908101906200083a919062000507565b5b50565b5b808211156200089a57600080820160006101000a81549073ffffffffffffffffffffffffffffffffffffffff02191690556001820160009055600282016000905560038201600090556004820160009055506005016200083f565b5090565b5080546000825560050290600052602060002090810190620008c191906200083e565b50565b50805460008255600f0290600052602060002090810190620008e79190620005be565b50565b7f4e487b7100000000000000000000000000000000000000000000000000000000600052602260045260246000fd5b600060028204905060018216806200093257607f821691505b60208210811415620009495762000948620008ea565b5b50919050565b615ed7806200095f6000396000f3fe6080604052600436106101665760003560e01c806370a08231116100d1578063ca00ed2b1161008a578063ec9b9a6f11610064578063ec9b9a6f1461059b578063ed759375146105b7578063f1bc9316146105d3578063fb293d4d146105fe57610166565b8063ca00ed2b14610508578063e5c65d3014610533578063e985e9c51461055e57610166565b806370a08231146103d457806395d89b41146104115780639e13349d1461043c578063a22cb46514610479578063b88d4fde146104a2578063c87b56dd146104cb57610166565b806323b872dd1161012357806323b872dd146102a157806342842e0e146102ca5780634585e33b146102f35780635b06291c1461031c5780636352211e146103595780636e04ff0d1461039657610166565b806301ffc9a71461016b57806306fdde03146101a8578063081812fc146101d3578063095ea7b31461021057806314e8565a146102395780631cbe4d5514610264575b600080fd5b34801561017757600080fd5b50610192600480360381019061018d9190614169565b610629565b60405161019f91906141b1565b60405180910390f35b3480156101b457600080fd5b506101bd61070b565b6040516101ca9190614265565b60405180910390f35b3480156101df57600080fd5b506101fa60048036038101906101f591906142bd565b61079d565b604051610207919061432b565b60405180910390f35b34801561021c57600080fd5b5061023760048036038101906102329190614372565b6107e3565b005b34801561024557600080fd5b5061024e6108fb565b60405161025b9190614a26565b60405180910390f35b34801561027057600080fd5b5061028b600480360381019061028691906142bd565b610d16565b6040516102989190614b0d565b60405180910390f35b3480156102ad57600080fd5b506102c860048036038101906102c39190614b2f565b610eaf565b005b3480156102d657600080fd5b506102f160048036038101906102ec9190614b2f565b610f0f565b005b3480156102ff57600080fd5b5061031a60048036038101906103159190614be7565b610f2f565b005b34801561032857600080fd5b50610343600480360381019061033e9190614c34565b610f54565b60405161035091906141b1565b60405180910390f35b34801561036557600080fd5b50610380600480360381019061037b91906142bd565b610fbb565b60405161038d919061432b565b60405180910390f35b3480156103a257600080fd5b506103bd60048036038101906103b89190614be7565b61106d565b6040516103cb929190614cb6565b60405180910390f35b3480156103e057600080fd5b506103fb60048036038101906103f69190614c34565b61109a565b6040516104089190614cf5565b60405180910390f35b34801561041d57600080fd5b50610426611152565b6040516104339190614265565b60405180910390f35b34801561044857600080fd5b50610463600480360381019061045e91906142bd565b6111e4565b6040516104709190614d4d565b60405180910390f35b34801561048557600080fd5b506104a0600480360381019061049b9190614d9b565b611445565b005b3480156104ae57600080fd5b506104c960048036038101906104c49190614f0b565b61145b565b005b3480156104d757600080fd5b506104f260048036038101906104ed91906142bd565b6114bd565b6040516104ff9190614265565b60405180910390f35b34801561051457600080fd5b5061051d611525565b60405161052a9190614cf5565b60405180910390f35b34801561053f57600080fd5b5061054861152b565b6040516105559190614cf5565b60405180910390f35b34801561056a57600080fd5b5061058560048036038101906105809190614f8e565b611533565b60405161059291906141b1565b60405180910390f35b6105b560048036038101906105b09190614fce565b6115c7565b005b6105d160048036038101906105cc91906150af565b611b5d565b005b3480156105df57600080fd5b506105e8611f6e565b6040516105f59190614cf5565b60405180910390f35b34801561060a57600080fd5b50610613611f76565b6040516106209190614cf5565b60405180910390f35b60007f80ac58cd000000000000000000000000000000000000000000000000000000007bffffffffffffffffffffffffffffffffffffffffffffffffffffffff1916827bffffffffffffffffffffffffffffffffffffffffffffffffffffffff191614806106f457507f5b5e139f000000000000000000000000000000000000000000000000000000007bffffffffffffffffffffffffffffffffffffffffffffffffffffffff1916827bffffffffffffffffffffffffffffffffffffffffffffffffffffffff1916145b80610704575061070382611f82565b5b9050919050565b60606000805461071a90615161565b80601f016020809104026020016040519081016040528092919081815260200182805461074690615161565b80156107935780601f1061076857610100808354040283529160200191610793565b820191906000526020600020905b81548152906001019060200180831161077657829003601f168201915b5050505050905090565b60006107a882611fec565b6004600083815260200190815260200160002060009054906101000a900473ffffffffffffffffffffffffffffffffffffffff169050919050565b60006107ee82610fbb565b90508073ffffffffffffffffffffffffffffffffffffffff168373ffffffffffffffffffffffffffffffffffffffff16141561085f576040517f08c379a000000000000000000000000000000000000000000000000000000000815260040161085690615205565b60405180910390fd5b8073ffffffffffffffffffffffffffffffffffffffff1661087e612037565b73ffffffffffffffffffffffffffffffffffffffff1614806108ad57506108ac816108a7612037565b611533565b5b6108ec576040517f08c379a00000000000000000000000000000000000000000000000000000000081526004016108e390615297565b60405180910390fd5b6108f6838361203f565b505050565b610903613bd8565b60076040518060a001604052908160008201548152602001600182015481526020016002820154815260200160038201805480602002602001604051908101604052809291908181526020016000905b82821015610a765783829060005260206000209060030201604051806060016040529081600082015481526020016001820154815260200160028201805480602002602001604051908101604052809291908181526020016000905b82821015610a5f57838290600052602060002090600502016040518060a00160405290816000820160009054906101000a900473ffffffffffffffffffffffffffffffffffffffff1673ffffffffffffffffffffffffffffffffffffffff1673ffffffffffffffffffffffffffffffffffffffff168152602001600182015481526020016002820154815260200160038201548152602001600482015481525050815260200190600101906109af565b505050508152505081526020019060010190610953565b50505050815260200160048201805480602002602001604051908101604052809291908181526020016000905b82821015610d0957838290600052602060002090600202016040518060400160405290816000820154815260200160018201805480602002602001604051908101604052809291908181526020016000905b82821015610cf257838290600052602060002090600f02016040518060e00160405290816000820160009054906101000a900473ffffffffffffffffffffffffffffffffffffffff1673ffffffffffffffffffffffffffffffffffffffff1673ffffffffffffffffffffffffffffffffffffffff1681526020016001820154815260200160028201604051806101200160405290816000820160009054906101000a900473ffffffffffffffffffffffffffffffffffffffff1673ffffffffffffffffffffffffffffffffffffffff1673ffffffffffffffffffffffffffffffffffffffff168152602001600182018054610bef90615161565b80601f0160208091040260200160405190810160405280929190818152602001828054610c1b90615161565b8015610c685780601f10610c3d57610100808354040283529160200191610c68565b820191906000526020600020905b815481529060010190602001808311610c4b57829003601f168201915b505050505081526020016002820154815260200160038201548152602001600482015481526020016005820154815260200160068201548152602001600782015481526020016008820154815250508152602001600b8201548152602001600c8201548152602001600d8201548152602001600e8201548152505081526020019060010190610af5565b505050508152505081526020019060010190610aa3565b5050505081525050905090565b610d1e613c07565b601560003373ffffffffffffffffffffffffffffffffffffffff1673ffffffffffffffffffffffffffffffffffffffff1681526020019081526020016000206000838152602001908152602001600020604051806101200160405290816000820160009054906101000a900473ffffffffffffffffffffffffffffffffffffffff1673ffffffffffffffffffffffffffffffffffffffff1673ffffffffffffffffffffffffffffffffffffffff168152602001600182018054610de090615161565b80601f0160208091040260200160405190810160405280929190818152602001828054610e0c90615161565b8015610e595780601f10610e2e57610100808354040283529160200191610e59565b820191906000526020600020905b815481529060010190602001808311610e3c57829003601f168201915b505050505081526020016002820154815260200160038201548152602001600482015481526020016005820154815260200160068201548152602001600782015481526020016008820154815250509050919050565b610ec0610eba612037565b826120f8565b610eff576040517f08c379a0000000000000000000000000000000000000000000000000000000008152600401610ef690615329565b60405180910390fd5b610f0a83838361218d565b505050565b610f2a8383836040518060200160405280600081525061145b565b505050565b62278d0060195442610f419190615378565b1115610f5057610f4f6123f4565b5b5050565b6000601260008373ffffffffffffffffffffffffffffffffffffffff1673ffffffffffffffffffffffffffffffffffffffff16815260200190815260200160002060009054906101000a900460ff1615610fb15760019050610fb6565b600090505b919050565b6000806002600084815260200190815260200160002060009054906101000a900473ffffffffffffffffffffffffffffffffffffffff169050600073ffffffffffffffffffffffffffffffffffffffff168173ffffffffffffffffffffffffffffffffffffffff161415611064576040517f08c379a000000000000000000000000000000000000000000000000000000000815260040161105b906153f8565b60405180910390fd5b80915050919050565b60006060600080158015611090575062278d006019544261108e9190615378565b115b9250509250929050565b60008073ffffffffffffffffffffffffffffffffffffffff168273ffffffffffffffffffffffffffffffffffffffff16141561110b576040517f08c379a00000000000000000000000000000000000000000000000000000000081526004016111029061548a565b60405180910390fd5b600360008373ffffffffffffffffffffffffffffffffffffffff1673ffffffffffffffffffffffffffffffffffffffff168152602001908152602001600020549050919050565b60606001805461116190615161565b80601f016020809104026020016040519081016040528092919081815260200182805461118d90615161565b80156111da5780601f106111af576101008083540402835291602001916111da565b820191906000526020600020905b8154815290600101906020018083116111bd57829003601f168201915b5050505050905090565b6111ec613c69565b601760008381526020019081526020016000206040518060400160405290816000820154815260200160018201805480602002602001604051908101604052809291908181526020016000905b8282101561143657838290600052602060002090600f02016040518060e00160405290816000820160009054906101000a900473ffffffffffffffffffffffffffffffffffffffff1673ffffffffffffffffffffffffffffffffffffffff1673ffffffffffffffffffffffffffffffffffffffff1681526020016001820154815260200160028201604051806101200160405290816000820160009054906101000a900473ffffffffffffffffffffffffffffffffffffffff1673ffffffffffffffffffffffffffffffffffffffff1673ffffffffffffffffffffffffffffffffffffffff16815260200160018201805461133390615161565b80601f016020809104026020016040519081016040528092919081815260200182805461135f90615161565b80156113ac5780601f10611381576101008083540402835291602001916113ac565b820191906000526020600020905b81548152906001019060200180831161138f57829003601f168201915b505050505081526020016002820154815260200160038201548152602001600482015481526020016005820154815260200160068201548152602001600782015481526020016008820154815250508152602001600b8201548152602001600c8201548152602001600d8201548152602001600e8201548152505081526020019060010190611239565b50505050815250509050919050565b611457611450612037565b83836125ec565b5050565b61146c611466612037565b836120f8565b6114ab576040517f08c379a00000000000000000000000000000000000000000000000000000000081526004016114a290615329565b60405180910390fd5b6114b784848484612759565b50505050565b60606114c882611fec565b60006114d26127b5565b905060008151116114f2576040518060200160405280600081525061151d565b806114fc846127cc565b60405160200161150d9291906154e6565b6040516020818303038152906040525b915050919050565b60195481565b600047905090565b6000600560008473ffffffffffffffffffffffffffffffffffffffff1673ffffffffffffffffffffffffffffffffffffffff16815260200190815260200160002060008373ffffffffffffffffffffffffffffffffffffffff1673ffffffffffffffffffffffffffffffffffffffff16815260200190815260200160002060009054906101000a900460ff16905092915050565b3382601560008373ffffffffffffffffffffffffffffffffffffffff1673ffffffffffffffffffffffffffffffffffffffff168152602001908152602001600020600082815260200190815260200160002060000160009054906101000a900473ffffffffffffffffffffffffffffffffffffffff1673ffffffffffffffffffffffffffffffffffffffff168273ffffffffffffffffffffffffffffffffffffffff161480156116aa575061167b81610fbb565b73ffffffffffffffffffffffffffffffffffffffff168273ffffffffffffffffffffffffffffffffffffffff16145b6116e9576040517f08c379a00000000000000000000000000000000000000000000000000000000081526004016116e090615556565b60405180910390fd5b34601981101561172e576040517f08c379a0000000000000000000000000000000000000000000000000000000008152600401611725906155e8565b60405180910390fd5b6000429050600060646017876117449190615608565b61174e9190615691565b9050600060646049886117619190615608565b61176b9190615691565b905081601560003373ffffffffffffffffffffffffffffffffffffffff1673ffffffffffffffffffffffffffffffffffffffff16815260200190815260200160002060008a815260200190815260200160002060070160008282546117d091906156c2565b9250508190555080601560003373ffffffffffffffffffffffffffffffffffffffff1673ffffffffffffffffffffffffffffffffffffffff16815260200190815260200160002060008a8152602001908152602001600020600801600082825461183a91906156c2565b9250508190555080601460003373ffffffffffffffffffffffffffffffffffffffff1673ffffffffffffffffffffffffffffffffffffffff16815260200190815260200160002060008a815260200190815260200160002060008282546118a191906156c2565b9250508190555081601360003373ffffffffffffffffffffffffffffffffffffffff1673ffffffffffffffffffffffffffffffffffffffff16815260200190815260200160002060008a8152602001908152602001600020600082825461190891906156c2565b92505081905550611aa5601560003373ffffffffffffffffffffffffffffffffffffffff1673ffffffffffffffffffffffffffffffffffffffff16815260200190815260200160002060008a8152602001908152602001600020604051806101200160405290816000820160009054906101000a900473ffffffffffffffffffffffffffffffffffffffff1673ffffffffffffffffffffffffffffffffffffffff1673ffffffffffffffffffffffffffffffffffffffff1681526020016001820180546119d490615161565b80601f0160208091040260200160405190810160405280929190818152602001828054611a0090615161565b8015611a4d5780601f10611a2257610100808354040283529160200191611a4d565b820191906000526020600020905b815481529060010190602001808311611a3057829003601f168201915b505050505081526020016002820154815260200160038201548152602001600482015481526020016005820154815260200160068201548152602001600782015481526020016008820154815250508885858561292d565b7fb68157fc00953269b00318b57b774667db6be7c9d901a0bd8a337628df9b9bc5601560003373ffffffffffffffffffffffffffffffffffffffff1673ffffffffffffffffffffffffffffffffffffffff16815260200190815260200160002060008a815260200190815260200160002060000160009054906101000a900473ffffffffffffffffffffffffffffffffffffffff168885604051611b4b93929190615777565b60405180910390a15050505050505050565b346019811015611ba2576040517f08c379a0000000000000000000000000000000000000000000000000000000008152600401611b99906155e8565b60405180910390fd5b611bab33610f54565b15611beb576040517f08c379a0000000000000000000000000000000000000000000000000000000008152600401611be2906157fa565b60405180910390fd5b6012841015611c2f576040517f08c379a0000000000000000000000000000000000000000000000000000000008152600401611c269061588c565b60405180910390fd5b60006301e1338085611c419190615608565b905060004290506000611c546006612b4e565b9050611c606006612b5c565b611c6a3382612b72565b6000836372a94580611c7c9190615378565b905060008184611c8c91906156c2565b9050600062278d008060195484611ca39190615378565b611cad9190615691565b611cb791906156c2565b905060006040518061012001604052803373ffffffffffffffffffffffffffffffffffffffff1681526020018d81526020018c81526020018b81526020018481526020018781526020018681526020016000815260200160008152509050611d1f818a612b90565b80601560003373ffffffffffffffffffffffffffffffffffffffff1673ffffffffffffffffffffffffffffffffffffffff168152602001908152602001600020600087815260200190815260200160002060008201518160000160006101000a81548173ffffffffffffffffffffffffffffffffffffffff021916908373ffffffffffffffffffffffffffffffffffffffff1602179055506020820151816001019080519060200190611dd3929190613c83565b5060408201518160020155606082015181600301556080820151816004015560a0820151816005015560c0820151816006015560e0820151816007015561010082015181600801559050506016600083815260200190815260200160002081908060018154018082558091505060019003906000526020600020906009020160009091909190915060008201518160000160006101000a81548173ffffffffffffffffffffffffffffffffffffffff021916908373ffffffffffffffffffffffffffffffffffffffff1602179055506020820151816001019080519060200190611ebe929190613c83565b5060408201518160020155606082015181600301556080820151816004015560a0820151816005015560c0820151816006015560e08201518160070155610100820151816008015550506001601260003373ffffffffffffffffffffffffffffffffffffffff1673ffffffffffffffffffffffffffffffffffffffff16815260200190815260200160002060006101000a81548160ff021916908315150217905550505050505050505050505050565b6372a9458081565b60068060000154905081565b60007f01ffc9a7000000000000000000000000000000000000000000000000000000007bffffffffffffffffffffffffffffffffffffffffffffffffffffffff1916827bffffffffffffffffffffffffffffffffffffffffffffffffffffffff1916149050919050565b611ff581612ebc565b612034576040517f08c379a000000000000000000000000000000000000000000000000000000000815260040161202b906153f8565b60405180910390fd5b50565b600033905090565b816004600083815260200190815260200160002060006101000a81548173ffffffffffffffffffffffffffffffffffffffff021916908373ffffffffffffffffffffffffffffffffffffffff160217905550808273ffffffffffffffffffffffffffffffffffffffff166120b283610fbb565b73ffffffffffffffffffffffffffffffffffffffff167f8c5be1e5ebec7d5bd14f71427d1e84f3dd0314c0f7b2291e5b200ac8c7c3b92560405160405180910390a45050565b60008061210483610fbb565b90508073ffffffffffffffffffffffffffffffffffffffff168473ffffffffffffffffffffffffffffffffffffffff16148061214657506121458185611533565b5b8061218457508373ffffffffffffffffffffffffffffffffffffffff1661216c8461079d565b73ffffffffffffffffffffffffffffffffffffffff16145b91505092915050565b8273ffffffffffffffffffffffffffffffffffffffff166121ad82610fbb565b73ffffffffffffffffffffffffffffffffffffffff1614612203576040517f08c379a00000000000000000000000000000000000000000000000000000000081526004016121fa9061591e565b60405180910390fd5b600073ffffffffffffffffffffffffffffffffffffffff168273ffffffffffffffffffffffffffffffffffffffff161415612273576040517f08c379a000000000000000000000000000000000000000000000000000000000815260040161226a906159b0565b60405180910390fd5b61227e838383612f28565b61228960008261203f565b6001600360008573ffffffffffffffffffffffffffffffffffffffff1673ffffffffffffffffffffffffffffffffffffffff16815260200190815260200160002060008282546122d99190615378565b925050819055506001600360008473ffffffffffffffffffffffffffffffffffffffff1673ffffffffffffffffffffffffffffffffffffffff168152602001908152602001600020600082825461233091906156c2565b92505081905550816002600083815260200190815260200160002060006101000a81548173ffffffffffffffffffffffffffffffffffffffff021916908373ffffffffffffffffffffffffffffffffffffffff160217905550808273ffffffffffffffffffffffffffffffffffffffff168473ffffffffffffffffffffffffffffffffffffffff167fddf252ad1be2c89b69c2b068fc378daa952ba7f163c4a11628f55a4df523b3ef60405160405180910390a46123ef838383612f2d565b505050565b60076004016017600060195481526020019081526020016000209080600181540180825580915050600190039060005260206000209060020201600090919091909150600082015481600001556001820181600101908054612457929190613d09565b505050601760006019548152602001908152602001600020600001546007600101600082825461248791906156c2565b9250508190555060186000601954815260200190815260200160002060010154600760020160008282546124bb91906156c2565b9250508190555060006007600201546007600101546124da91906159d0565b9050600081121561253c57806124ef90615a64565b6007600001600082825461250391906159d0565b925050819055508061251490615a64565b6007600101600082825461252891906156c2565b92505081905550612537612f32565b612578565b600081131561256e5761254d612f32565b80600760000160008282546125629190615aad565b92505081905550612577565b612576612f32565b5b5b4260198190555061258a601954613269565b6000600e6001816001815401808255809150500390600052602060002090600202019050806017600060195481526020019081526020016000206000820154816000015560018201816001019080546125e4929190613d09565b509050505050565b8173ffffffffffffffffffffffffffffffffffffffff168373ffffffffffffffffffffffffffffffffffffffff16141561265b576040517f08c379a000000000000000000000000000000000000000000000000000000000815260040161265290615b8d565b60405180910390fd5b80600560008573ffffffffffffffffffffffffffffffffffffffff1673ffffffffffffffffffffffffffffffffffffffff16815260200190815260200160002060008473ffffffffffffffffffffffffffffffffffffffff1673ffffffffffffffffffffffffffffffffffffffff16815260200190815260200160002060006101000a81548160ff0219169083151502179055508173ffffffffffffffffffffffffffffffffffffffff168373ffffffffffffffffffffffffffffffffffffffff167f17307eab39ab6107e8899845ad3d59bd9653f200f220920489ca2b5937696c318360405161274c91906141b1565b60405180910390a3505050565b61276484848461218d565b61277084848484613453565b6127af576040517f08c379a00000000000000000000000000000000000000000000000000000000081526004016127a690615c1f565b60405180910390fd5b50505050565b606060405180602001604052806000815250905090565b60606000821415612814576040518060400160405280600181526020017f30000000000000000000000000000000000000000000000000000000000000008152509050612928565b600082905060005b6000821461284657808061282f90615c3f565b915050600a8261283f9190615691565b915061281c565b60008167ffffffffffffffff81111561286257612861614de0565b5b6040519080825280601f01601f1916602001820160405280156128945781602001600182028036833780820191505090505b5090505b60008514612921576001826128ad9190615378565b9150600a856128bc9190615c88565b60306128c891906156c2565b60f81b8183815181106128de576128dd615cb9565b5b60200101907effffffffffffffffffffffffffffffffffffffffffffffffffffffffffffff1916908160001a905350600a8561291a9190615691565b9450612898565b8093505050505b919050565b6000836040516020016129409190615d09565b60405160208183030381529060405280519060200120905084601760006019548152602001908152602001600020600001600082825461298091906156c2565b925050819055506017600060195481526020019081526020016000206001016040518060e00160405280886000015173ffffffffffffffffffffffffffffffffffffffff1681526020018381526020018881526020018681526020018581526020018481526020018781525090806001815401808255809150506001900390600052602060002090600f020160009091909190915060008201518160000160006101000a81548173ffffffffffffffffffffffffffffffffffffffff021916908373ffffffffffffffffffffffffffffffffffffffff1602179055506020820151816001015560408201518160020160008201518160000160006101000a81548173ffffffffffffffffffffffffffffffffffffffff021916908373ffffffffffffffffffffffffffffffffffffffff1602179055506020820151816001019080519060200190612ad2929190613c83565b5060408201518160020155606082015181600301556080820151816004015560a0820151816005015560c0820151816006015560e0820151816007015561010082015181600801555050606082015181600b0155608082015181600c015560a082015181600d015560c082015181600e01555050505050505050565b600081600001549050919050565b6001816000016000828254019250508190555050565b612b8c8282604051806020016040528060008152506135ea565b5050565b600042905060006064601784612ba69190615608565b612bb09190615691565b905060006064604985612bc39190615608565b612bcd9190615691565b9050818560e001818151612be191906156c2565b91508181525050808561010001818151612bfb91906156c2565b9150818152505080601460003373ffffffffffffffffffffffffffffffffffffffff1673ffffffffffffffffffffffffffffffffffffffff16815260200190815260200160002060008760c0015181526020019081526020016000206000828254612c6691906156c2565b9250508190555081601360003373ffffffffffffffffffffffffffffffffffffffff1673ffffffffffffffffffffffffffffffffffffffff16815260200190815260200160002060008760c0015181526020019081526020016000206000828254612cd191906156c2565b92505081905550612e72601560003373ffffffffffffffffffffffffffffffffffffffff1673ffffffffffffffffffffffffffffffffffffffff16815260200190815260200160002060008760c001518152602001908152602001600020604051806101200160405290816000820160009054906101000a900473ffffffffffffffffffffffffffffffffffffffff1673ffffffffffffffffffffffffffffffffffffffff1673ffffffffffffffffffffffffffffffffffffffff168152602001600182018054612da190615161565b80601f0160208091040260200160405190810160405280929190818152602001828054612dcd90615161565b8015612e1a5780601f10612def57610100808354040283529160200191612e1a565b820191906000526020600020905b815481529060010190602001808311612dfd57829003601f168201915b505050505081526020016002820154815260200160038201548152602001600482015481526020016005820154815260200160068201548152602001600782015481526020016008820154815250508585858561292d565b7fb68157fc00953269b00318b57b774667db6be7c9d901a0bd8a337628df9b9bc58560000151858760a00151604051612ead93929190615777565b60405180910390a15050505050565b60008073ffffffffffffffffffffffffffffffffffffffff166002600084815260200190815260200160002060009054906101000a900473ffffffffffffffffffffffffffffffffffffffff1673ffffffffffffffffffffffffffffffffffffffff1614159050919050565b505050565b505050565b60006007600301805480602002602001604051908101604052809291908181526020016000905b8282101561307c5783829060005260206000209060030201604051806060016040529081600082015481526020016001820154815260200160028201805480602002602001604051908101604052809291908181526020016000905b8282101561306557838290600052602060002090600502016040518060a00160405290816000820160009054906101000a900473ffffffffffffffffffffffffffffffffffffffff1673ffffffffffffffffffffffffffffffffffffffff1673ffffffffffffffffffffffffffffffffffffffff16815260200160018201548152602001600282015481526020016003820154815260200160048201548152505081526020019060010190612fb5565b505050508152505081526020019060010190612f59565b50505050905060005b81518111156132655760008282815181106130a3576130a2615cb9565b5b602002602001015160400151905060005b81518111156132505760008282815181106130d2576130d1615cb9565b5b60200260200101519050806000015173ffffffffffffffffffffffffffffffffffffffff166108fc82602001519081150290604051600060405180830381858888f1935050505015801561312a573d6000803e3d6000fd5b508060200151600760020160008282546131449190615378565b925050819055508060200151600760010160008282546131649190615378565b92505081905550806000015173ffffffffffffffffffffffffffffffffffffffff166108fc82602001519081150290604051600060405180830381858888f193505050501580156131b9573d6000803e3d6000fd5b508060200151816060018181516131d091906156c2565b91508181525050806080015181606001511061323c578282815181106131f9576131f8615cb9565b5b60200260200101613208613ed1565b81525060008351141561323b5784848151811061322857613227615cb9565b5b60200260200101613237613f16565b8152505b5b50808061324890615c3f565b9150506130b4565b5050808061325d90615c3f565b915050613085565b5050565b600060166000838152602001908152602001600020805480602002602001604051908101604052809291908181526020016000905b828210156133ff5783829060005260206000209060090201604051806101200160405290816000820160009054906101000a900473ffffffffffffffffffffffffffffffffffffffff1673ffffffffffffffffffffffffffffffffffffffff1673ffffffffffffffffffffffffffffffffffffffff16815260200160018201805461332890615161565b80601f016020809104026020016040519081016040528092919081815260200182805461335490615161565b80156133a15780601f10613376576101008083540402835291602001916133a1565b820191906000526020600020905b81548152906001019060200180831161338457829003601f168201915b505050505081526020016002820154815260200160038201548152602001600482015481526020016005820154815260200160068201548152602001600782015481526020016008820154815250508152602001906001019061329e565b50505050905060005b815181111561344e57600082828151811061342657613425615cb9565b5b6020026020010151905061343a8185613645565b50808061344690615c3f565b915050613408565b505050565b60006134748473ffffffffffffffffffffffffffffffffffffffff166138a0565b156135dd578373ffffffffffffffffffffffffffffffffffffffff1663150b7a0261349d612037565b8786866040518563ffffffff1660e01b81526004016134bf9493929190615d24565b602060405180830381600087803b1580156134d957600080fd5b505af192505050801561350a57506040513d601f19601f820116820180604052508101906135079190615d85565b60015b61358d573d806000811461353a576040519150601f19603f3d011682016040523d82523d6000602084013e61353f565b606091505b50600081511415613585576040517f08c379a000000000000000000000000000000000000000000000000000000000815260040161357c90615c1f565b60405180910390fd5b805181602001fd5b63150b7a0260e01b7bffffffffffffffffffffffffffffffffffffffffffffffffffffffff1916817bffffffffffffffffffffffffffffffffffffffffffffffffffffffff1916149150506135e2565b600190505b949350505050565b6135f483836138c3565b6136016000848484613453565b613640576040517f08c379a000000000000000000000000000000000000000000000000000000000815260040161363790615c1f565b60405180910390fd5b505050565b600060136000846000015173ffffffffffffffffffffffffffffffffffffffff1673ffffffffffffffffffffffffffffffffffffffff16815260200190815260200160002060008460c001518152602001908152602001600020549050600060146000856000015173ffffffffffffffffffffffffffffffffffffffff1673ffffffffffffffffffffffffffffffffffffffff16815260200190815260200160002060008560c0015181526020019081526020016000205490506000818361370d91906156c2565b90506000600c6015836137209190615691565b61372a9190615691565b9050600061373b8760200151613a9d565b905060006040518060a00160405280896000015173ffffffffffffffffffffffffffffffffffffffff1681526020018481526020018381526020016000815260200185815250905080608001516018600089815260200190815260200160002060000160008282546137ad91906156c2565b9250508190555080602001516018600089815260200190815260200160002060010160008282546137de91906156c2565b925050819055506018600088815260200190815260200160002060020181908060018154018082558091505060019003906000526020600020906005020160009091909190915060008201518160000160006101000a81548173ffffffffffffffffffffffffffffffffffffffff021916908373ffffffffffffffffffffffffffffffffffffffff1602179055506020820151816001015560408201518160020155606082015181600301556080820151816004015550505050505050505050565b6000808273ffffffffffffffffffffffffffffffffffffffff163b119050919050565b600073ffffffffffffffffffffffffffffffffffffffff168273ffffffffffffffffffffffffffffffffffffffff161415613933576040517f08c379a000000000000000000000000000000000000000000000000000000000815260040161392a90615dfe565b60405180910390fd5b61393c81612ebc565b1561397c576040517f08c379a000000000000000000000000000000000000000000000000000000000815260040161397390615e6a565b60405180910390fd5b61398860008383612f28565b6001600360008473ffffffffffffffffffffffffffffffffffffffff1673ffffffffffffffffffffffffffffffffffffffff16815260200190815260200160002060008282546139d891906156c2565b92505081905550816002600083815260200190815260200160002060006101000a81548173ffffffffffffffffffffffffffffffffffffffff021916908373ffffffffffffffffffffffffffffffffffffffff160217905550808273ffffffffffffffffffffffffffffffffffffffff16600073ffffffffffffffffffffffffffffffffffffffff167fddf252ad1be2c89b69c2b068fc378daa952ba7f163c4a11628f55a4df523b3ef60405160405180910390a4613a9960008383612f2d565b5050565b6000613ade826040518060400160405280600481526020017f6d616c6500000000000000000000000000000000000000000000000000000000815250613b7f565b15613b0a57600c6372a94580639fc61980613af99190615378565b613b039190615691565b9050613b7a565b613b49826040518060400160405280600681526020017f66656d616c650000000000000000000000000000000000000000000000000000815250613b7f565b15613b7557600c6372a945806396601800613b649190615378565b613b6e9190615691565b9050613b7a565b600090505b919050565b600081604051602001613b929190615e8a565b6040516020818303038152906040528051906020012083604051602001613bb99190615e8a565b6040516020818303038152906040528051906020012014905092915050565b6040518060a0016040528060008152602001600081526020016000815260200160608152602001606081525090565b604051806101200160405280600073ffffffffffffffffffffffffffffffffffffffff16815260200160608152602001600081526020016000815260200160008152602001600081526020016000815260200160008152602001600081525090565b604051806040016040528060008152602001606081525090565b828054613c8f90615161565b90600052602060002090601f016020900481019282613cb15760008555613cf8565b82601f10613cca57805160ff1916838001178555613cf8565b82800160010185558215613cf8579182015b82811115613cf7578251825591602001919060010190613cdc565b5b509050613d059190613f37565b5090565b82805482825590600052602060002090600f028101928215613ec057600052602060002091600f0282015b82811115613ebf5782826000820160009054906101000a900473ffffffffffffffffffffffffffffffffffffffff168160000160006101000a81548173ffffffffffffffffffffffffffffffffffffffff021916908373ffffffffffffffffffffffffffffffffffffffff1602179055506001820154816001015560028201816002016000820160009054906101000a900473ffffffffffffffffffffffffffffffffffffffff168160000160006101000a81548173ffffffffffffffffffffffffffffffffffffffff021916908373ffffffffffffffffffffffffffffffffffffffff1602179055506001820181600101908054613e3290615161565b613e3d929190613f54565b50600282015481600201556003820154816003015560048201548160040155600582015481600501556006820154816006015560078201548160070155600882015481600801555050600b82015481600b0155600c82015481600c0155600d82015481600d0155600e82015481600e0155505091600f019190600f0190613d34565b5b509050613ecd9190613fe1565b5090565b6040518060a00160405280600073ffffffffffffffffffffffffffffffffffffffff168152602001600081526020016000815260200160008152602001600081525090565b60405180606001604052806000815260200160008152602001606081525090565b5b80821115613f50576000816000905550600101613f38565b5090565b828054613f6090615161565b90600052602060002090601f016020900481019282613f825760008555613fd0565b82601f10613f935780548555613fd0565b82800160010185558215613fd057600052602060002091601f016020900482015b82811115613fcf578254825591600101919060010190613fb4565b5b509050613fdd9190613f37565b5090565b5b808211156140b957600080820160006101000a81549073ffffffffffffffffffffffffffffffffffffffff0219169055600182016000905560028201600080820160006101000a81549073ffffffffffffffffffffffffffffffffffffffff021916905560018201600061405691906140bd565b60028201600090556003820160009055600482016000905560058201600090556006820160009055600782016000905560088201600090555050600b820160009055600c820160009055600d820160009055600e82016000905550600f01613fe2565b5090565b5080546140c990615161565b6000825580601f106140db57506140fa565b601f0160209004906000526020600020908101906140f99190613f37565b5b50565b6000604051905090565b600080fd5b600080fd5b60007fffffffff0000000000000000000000000000000000000000000000000000000082169050919050565b61414681614111565b811461415157600080fd5b50565b6000813590506141638161413d565b92915050565b60006020828403121561417f5761417e614107565b5b600061418d84828501614154565b91505092915050565b60008115159050919050565b6141ab81614196565b82525050565b60006020820190506141c660008301846141a2565b92915050565b600081519050919050565b600082825260208201905092915050565b60005b838110156142065780820151818401526020810190506141eb565b83811115614215576000848401525b50505050565b6000601f19601f8301169050919050565b6000614237826141cc565b61424181856141d7565b93506142518185602086016141e8565b61425a8161421b565b840191505092915050565b6000602082019050818103600083015261427f818461422c565b905092915050565b6000819050919050565b61429a81614287565b81146142a557600080fd5b50565b6000813590506142b781614291565b92915050565b6000602082840312156142d3576142d2614107565b5b60006142e1848285016142a8565b91505092915050565b600073ffffffffffffffffffffffffffffffffffffffff82169050919050565b6000614315826142ea565b9050919050565b6143258161430a565b82525050565b6000602082019050614340600083018461431c565b92915050565b61434f8161430a565b811461435a57600080fd5b50565b60008135905061436c81614346565b92915050565b6000806040838503121561438957614388614107565b5b60006143978582860161435d565b92505060206143a8858286016142a8565b9150509250929050565b6000819050919050565b6143c5816143b2565b82525050565b6143d481614287565b82525050565b600081519050919050565b600082825260208201905092915050565b6000819050602082019050919050565b600081519050919050565b600082825260208201905092915050565b6000819050602082019050919050565b600061443d826142ea565b9050919050565b61444d81614432565b82525050565b60a0820160008201516144696000850182614444565b50602082015161447c60208501826143cb565b50604082015161448f60408501826143cb565b5060608201516144a260608501826143cb565b5060808201516144b560808501826143cb565b50505050565b60006144c78383614453565b60a08301905092915050565b6000602082019050919050565b60006144eb82614406565b6144f58185614411565b935061450083614422565b8060005b8381101561453157815161451888826144bb565b9750614523836144d3565b925050600181019050614504565b5085935050505092915050565b600060608301600083015161455660008601826143cb565b50602083015161456960208601826143cb565b506040830151848203604086015261458182826144e0565b9150508091505092915050565b600061459a838361453e565b905092915050565b6000602082019050919050565b60006145ba826143da565b6145c481856143e5565b9350836020820285016145d6856143f6565b8060005b8581101561461257848403895281516145f3858261458e565b94506145fe836145a2565b925060208a019950506001810190506145da565b50829750879550505050505092915050565b600081519050919050565b600082825260208201905092915050565b6000819050602082019050919050565b600081519050919050565b600082825260208201905092915050565b6000819050602082019050919050565b6000819050919050565b61468f8161467c565b82525050565b600082825260208201905092915050565b60006146b1826141cc565b6146bb8185614695565b93506146cb8185602086016141e8565b6146d48161421b565b840191505092915050565b6000610120830160008301516146f86000860182614444565b506020830151848203602086015261471082826146a6565b915050604083015161472560408601826143cb565b50606083015161473860608601826143cb565b50608083015161474b60808601826143cb565b5060a083015161475e60a08601826143cb565b5060c083015161477160c08601826143cb565b5060e083015161478460e08601826143cb565b506101008301516147996101008601826143cb565b508091505092915050565b600060e0830160008301516147bc6000860182614444565b5060208301516147cf6020860182614686565b50604083015184820360408601526147e782826146df565b91505060608301516147fc60608601826143cb565b50608083015161480f60808601826143cb565b5060a083015161482260a08601826143cb565b5060c083015161483560c08601826143cb565b508091505092915050565b600061484c83836147a4565b905092915050565b6000602082019050919050565b600061486c82614650565b614876818561465b565b9350836020820285016148888561466c565b8060005b858110156148c457848403895281516148a58582614840565b94506148b083614854565b925060208a0199505060018101905061488c565b50829750879550505050505092915050565b60006040830160008301516148ee60008601826143cb565b50602083015184820360208601526149068282614861565b9150508091505092915050565b600061491f83836148d6565b905092915050565b6000602082019050919050565b600061493f82614624565b614949818561462f565b93508360208202850161495b85614640565b8060005b8581101561499757848403895281516149788582614913565b945061498383614927565b925060208a0199505060018101905061495f565b50829750879550505050505092915050565b600060a0830160008301516149c160008601826143bc565b5060208301516149d460208601826143cb565b5060408301516149e760408601826143cb565b50606083015184820360608601526149ff82826145af565b91505060808301518482036080860152614a198282614934565b9150508091505092915050565b60006020820190508181036000830152614a4081846149a9565b905092915050565b600061012083016000830151614a616000860182614444565b5060208301518482036020860152614a7982826146a6565b9150506040830151614a8e60408601826143cb565b506060830151614aa160608601826143cb565b506080830151614ab460808601826143cb565b5060a0830151614ac760a08601826143cb565b5060c0830151614ada60c08601826143cb565b5060e0830151614aed60e08601826143cb565b50610100830151614b026101008601826143cb565b508091505092915050565b60006020820190508181036000830152614b278184614a48565b905092915050565b600080600060608486031215614b4857614b47614107565b5b6000614b568682870161435d565b9350506020614b678682870161435d565b9250506040614b78868287016142a8565b9150509250925092565b600080fd5b600080fd5b600080fd5b60008083601f840112614ba757614ba6614b82565b5b8235905067ffffffffffffffff811115614bc457614bc3614b87565b5b602083019150836001820283011115614be057614bdf614b8c565b5b9250929050565b60008060208385031215614bfe57614bfd614107565b5b600083013567ffffffffffffffff811115614c1c57614c1b61410c565b5b614c2885828601614b91565b92509250509250929050565b600060208284031215614c4a57614c49614107565b5b6000614c588482850161435d565b91505092915050565b600081519050919050565b600082825260208201905092915050565b6000614c8882614c61565b614c928185614c6c565b9350614ca28185602086016141e8565b614cab8161421b565b840191505092915050565b6000604082019050614ccb60008301856141a2565b8181036020830152614cdd8184614c7d565b90509392505050565b614cef81614287565b82525050565b6000602082019050614d0a6000830184614ce6565b92915050565b6000604083016000830151614d2860008601826143cb565b5060208301518482036020860152614d408282614861565b9150508091505092915050565b60006020820190508181036000830152614d678184614d10565b905092915050565b614d7881614196565b8114614d8357600080fd5b50565b600081359050614d9581614d6f565b92915050565b60008060408385031215614db257614db1614107565b5b6000614dc08582860161435d565b9250506020614dd185828601614d86565b9150509250929050565b600080fd5b7f4e487b7100000000000000000000000000000000000000000000000000000000600052604160045260246000fd5b614e188261421b565b810181811067ffffffffffffffff82111715614e3757614e36614de0565b5b80604052505050565b6000614e4a6140fd565b9050614e568282614e0f565b919050565b600067ffffffffffffffff821115614e7657614e75614de0565b5b614e7f8261421b565b9050602081019050919050565b82818337600083830152505050565b6000614eae614ea984614e5b565b614e40565b905082815260208101848484011115614eca57614ec9614ddb565b5b614ed5848285614e8c565b509392505050565b600082601f830112614ef257614ef1614b82565b5b8135614f02848260208601614e9b565b91505092915050565b60008060008060808587031215614f2557614f24614107565b5b6000614f338782880161435d565b9450506020614f448782880161435d565b9350506040614f55878288016142a8565b925050606085013567ffffffffffffffff811115614f7657614f7561410c565b5b614f8287828801614edd565b91505092959194509250565b60008060408385031215614fa557614fa4614107565b5b6000614fb38582860161435d565b9250506020614fc48582860161435d565b9150509250929050565b60008060408385031215614fe557614fe4614107565b5b6000614ff3858286016142a8565b9250506020615004858286016142a8565b9150509250929050565b600067ffffffffffffffff82111561502957615028614de0565b5b6150328261421b565b9050602081019050919050565b600061505261504d8461500e565b614e40565b90508281526020810184848401111561506e5761506d614ddb565b5b615079848285614e8c565b509392505050565b600082601f83011261509657615095614b82565b5b81356150a684826020860161503f565b91505092915050565b600080600080608085870312156150c9576150c8614107565b5b600085013567ffffffffffffffff8111156150e7576150e661410c565b5b6150f387828801615081565b9450506020615104878288016142a8565b9350506040615115878288016142a8565b9250506060615126878288016142a8565b91505092959194509250565b7f4e487b7100000000000000000000000000000000000000000000000000000000600052602260045260246000fd5b6000600282049050600182168061517957607f821691505b6020821081141561518d5761518c615132565b5b50919050565b7f4552433732313a20617070726f76616c20746f2063757272656e74206f776e6560008201527f7200000000000000000000000000000000000000000000000000000000000000602082015250565b60006151ef6021836141d7565b91506151fa82615193565b604082019050919050565b6000602082019050818103600083015261521e816151e2565b9050919050565b7f4552433732313a20617070726f76652063616c6c6572206973206e6f7420746f60008201527f6b656e206f776e6572206e6f7220617070726f76656420666f7220616c6c0000602082015250565b6000615281603e836141d7565b915061528c82615225565b604082019050919050565b600060208201905081810360008301526152b081615274565b9050919050565b7f4552433732313a2063616c6c6572206973206e6f7420746f6b656e206f776e6560008201527f72206e6f7220617070726f766564000000000000000000000000000000000000602082015250565b6000615313602e836141d7565b915061531e826152b7565b604082019050919050565b6000602082019050818103600083015261534281615306565b9050919050565b7f4e487b7100000000000000000000000000000000000000000000000000000000600052601160045260246000fd5b600061538382614287565b915061538e83614287565b9250828210156153a1576153a0615349565b5b828203905092915050565b7f4552433732313a20696e76616c696420746f6b656e2049440000000000000000600082015250565b60006153e26018836141d7565b91506153ed826153ac565b602082019050919050565b60006020820190508181036000830152615411816153d5565b9050919050565b7f4552433732313a2061646472657373207a65726f206973206e6f74206120766160008201527f6c6964206f776e65720000000000000000000000000000000000000000000000602082015250565b60006154746029836141d7565b915061547f82615418565b604082019050919050565b600060208201905081810360008301526154a381615467565b9050919050565b600081905092915050565b60006154c0826141cc565b6154ca81856154aa565b93506154da8185602086016141e8565b80840191505092915050565b60006154f282856154b5565b91506154fe82846154b5565b91508190509392505050565b7f596f7520646f6e2774206f776e20746869732070656e73696f6e000000000000600082015250565b6000615540601a836141d7565b915061554b8261550a565b602082019050919050565b6000602082019050818103600083015261556f81615533565b9050919050565b7f54686520616d6f756e7420646f65736e277420726561636820746865206d696e60008201527f696d756d20726571756972656400000000000000000000000000000000000000602082015250565b60006155d2602d836141d7565b91506155dd82615576565b604082019050919050565b60006020820190508181036000830152615601816155c5565b9050919050565b600061561382614287565b915061561e83614287565b9250817fffffffffffffffffffffffffffffffffffffffffffffffffffffffffffffffff048311821515161561565757615656615349565b5b828202905092915050565b7f4e487b7100000000000000000000000000000000000000000000000000000000600052601260045260246000fd5b600061569c82614287565b91506156a783614287565b9250826156b7576156b6615662565b5b828204905092915050565b60006156cd82614287565b91506156d883614287565b9250827fffffffffffffffffffffffffffffffffffffffffffffffffffffffffffffffff0382111561570d5761570c615349565b5b828201905092915050565b6000819050919050565b600061573d615738615733846142ea565b615718565b6142ea565b9050919050565b600061574f82615722565b9050919050565b600061576182615744565b9050919050565b61577181615756565b82525050565b600060608201905061578c6000830186615768565b6157996020830185614ce6565b6157a66040830184614ce6565b949350505050565b7f416c72656164792067656e657261746564206869732070656e73696f6e000000600082015250565b60006157e4601d836141d7565b91506157ef826157ae565b602082019050919050565b60006020820190508181036000830152615813816157d7565b9050919050565b7f596f75206d757374206265203138207965617273206f72206f6c64657220746f60008201527f2067656e657261746520612070656e73696f6e00000000000000000000000000602082015250565b60006158766033836141d7565b91506158818261581a565b604082019050919050565b600060208201905081810360008301526158a581615869565b9050919050565b7f4552433732313a207472616e736665722066726f6d20696e636f72726563742060008201527f6f776e6572000000000000000000000000000000000000000000000000000000602082015250565b60006159086025836141d7565b9150615913826158ac565b604082019050919050565b60006020820190508181036000830152615937816158fb565b9050919050565b7f4552433732313a207472616e7366657220746f20746865207a65726f2061646460008201527f7265737300000000000000000000000000000000000000000000000000000000602082015250565b600061599a6024836141d7565b91506159a58261593e565b604082019050919050565b600060208201905081810360008301526159c98161598d565b9050919050565b60006159db826143b2565b91506159e6836143b2565b9250827f800000000000000000000000000000000000000000000000000000000000000001821260008412151615615a2157615a20615349565b5b827f7fffffffffffffffffffffffffffffffffffffffffffffffffffffffffffffff018213600084121615615a5957615a58615349565b5b828203905092915050565b6000615a6f826143b2565b91507f8000000000000000000000000000000000000000000000000000000000000000821415615aa257615aa1615349565b5b816000039050919050565b6000615ab8826143b2565b9150615ac3836143b2565b9250817f7fffffffffffffffffffffffffffffffffffffffffffffffffffffffffffffff03831360008312151615615afe57615afd615349565b5b817f8000000000000000000000000000000000000000000000000000000000000000038312600083121615615b3657615b35615349565b5b828201905092915050565b7f4552433732313a20617070726f766520746f2063616c6c657200000000000000600082015250565b6000615b776019836141d7565b9150615b8282615b41565b602082019050919050565b60006020820190508181036000830152615ba681615b6a565b9050919050565b7f4552433732313a207472616e7366657220746f206e6f6e20455243373231526560008201527f63656976657220696d706c656d656e7465720000000000000000000000000000602082015250565b6000615c096032836141d7565b9150615c1482615bad565b604082019050919050565b60006020820190508181036000830152615c3881615bfc565b9050919050565b6000615c4a82614287565b91507fffffffffffffffffffffffffffffffffffffffffffffffffffffffffffffffff821415615c7d57615c7c615349565b5b600182019050919050565b6000615c9382614287565b9150615c9e83614287565b925082615cae57615cad615662565b5b828206905092915050565b7f4e487b7100000000000000000000000000000000000000000000000000000000600052603260045260246000fd5b6000819050919050565b615d03615cfe82614287565b615ce8565b82525050565b6000615d158284615cf2565b60208201915081905092915050565b6000608082019050615d39600083018761431c565b615d46602083018661431c565b615d536040830185614ce6565b8181036060830152615d658184614c7d565b905095945050505050565b600081519050615d7f8161413d565b92915050565b600060208284031215615d9b57615d9a614107565b5b6000615da984828501615d70565b91505092915050565b7f4552433732313a206d696e7420746f20746865207a65726f2061646472657373600082015250565b6000615de86020836141d7565b9150615df382615db2565b602082019050919050565b60006020820190508181036000830152615e1781615ddb565b9050919050565b7f4552433732313a20746f6b656e20616c7265616479206d696e74656400000000600082015250565b6000615e54601c836141d7565b9150615e5f82615e1e565b602082019050919050565b60006020820190508181036000830152615e8381615e47565b9050919050565b6000615e9682846154b5565b91508190509291505056fea26469706673582212203f4de32906f0525193008043e23fc7f2909307d3208f0dd286cb8eb6c1883c4b64736f6c63430008090033",
  "linkReferences": {},
  "deployedLinkReferences": {}
}