{
  "_format": "hh-sol-artifact-1",
  "contractName": "Pension",
  "sourceName": "src/blockchain/hardhat/contracts/Pension.sol",
  "abi": [
    {
      "inputs": [],
      "stateMutability": "nonpayable",
      "type": "constructor"
    },
    {
      "anonymous": false,
      "inputs": [
        {
          "indexed": true,
          "internalType": "address",
          "name": "owner",
          "type": "address"
        },
        {
          "indexed": true,
          "internalType": "address",
          "name": "approved",
          "type": "address"
        },
        {
          "indexed": true,
          "internalType": "uint256",
          "name": "tokenId",
          "type": "uint256"
        }
      ],
      "name": "Approval",
      "type": "event"
    },
    {
      "anonymous": false,
      "inputs": [
        {
          "indexed": true,
          "internalType": "address",
          "name": "owner",
          "type": "address"
        },
        {
          "indexed": true,
          "internalType": "address",
          "name": "operator",
          "type": "address"
        },
        {
          "indexed": false,
          "internalType": "bool",
          "name": "approved",
          "type": "bool"
        }
      ],
      "name": "ApprovalForAll",
      "type": "event"
    },
    {
      "anonymous": false,
      "inputs": [
        {
          "indexed": true,
          "internalType": "address",
          "name": "from",
          "type": "address"
        },
        {
          "indexed": true,
          "internalType": "address",
          "name": "to",
          "type": "address"
        },
        {
          "indexed": true,
          "internalType": "uint256",
          "name": "tokenId",
          "type": "uint256"
        }
      ],
      "name": "Transfer",
      "type": "event"
    },
    {
      "anonymous": false,
      "inputs": [
        {
          "indexed": false,
          "internalType": "address",
          "name": "contributorAddress",
          "type": "address"
        },
        {
          "indexed": false,
          "internalType": "uint256",
          "name": "contributorAmount",
          "type": "uint256"
        },
        {
          "indexed": false,
          "internalType": "uint256",
          "name": "timeDeposit",
          "type": "uint256"
        }
      ],
      "name": "depositContributor",
      "type": "event"
    },
    {
      "inputs": [
        {
          "internalType": "address",
          "name": "to",
          "type": "address"
        },
        {
          "internalType": "uint256",
          "name": "tokenId",
          "type": "uint256"
        }
      ],
      "name": "approve",
      "outputs": [],
      "stateMutability": "nonpayable",
      "type": "function"
    },
    {
      "inputs": [
        {
          "internalType": "address",
          "name": "owner",
          "type": "address"
        }
      ],
      "name": "balanceOf",
      "outputs": [
        {
          "internalType": "uint256",
          "name": "",
          "type": "uint256"
        }
      ],
      "stateMutability": "view",
      "type": "function"
    },
    {
      "inputs": [
        {
          "internalType": "bytes",
          "name": "",
          "type": "bytes"
        }
      ],
      "name": "checkUpkeep",
      "outputs": [
        {
          "internalType": "bool",
          "name": "upkeepNeeded",
          "type": "bool"
        },
        {
          "internalType": "bytes",
          "name": "",
          "type": "bytes"
        }
      ],
      "stateMutability": "view",
      "type": "function"
    },
    {
      "inputs": [],
      "name": "cutoffDate",
      "outputs": [
        {
          "internalType": "uint256",
          "name": "",
          "type": "uint256"
        }
      ],
      "stateMutability": "view",
      "type": "function"
    },
    {
      "inputs": [
        {
          "internalType": "uint256",
          "name": "_pensionId",
          "type": "uint256"
        },
        {
          "internalType": "uint256",
          "name": "_amount",
          "type": "uint256"
        }
      ],
      "name": "depositAmount",
      "outputs": [],
      "stateMutability": "payable",
      "type": "function"
    },
    {
      "inputs": [
        {
          "internalType": "uint256",
          "name": "tokenId",
          "type": "uint256"
        }
      ],
      "name": "getApproved",
      "outputs": [
        {
          "internalType": "address",
          "name": "",
          "type": "address"
        }
      ],
      "stateMutability": "view",
      "type": "function"
    },
    {
      "inputs": [],
      "name": "getGeneralRecord",
      "outputs": [
        {
          "components": [
            {
              "internalType": "int256",
              "name": "solvent",
              "type": "int256"
            },
            {
              "internalType": "uint256",
              "name": "totalAmount",
              "type": "uint256"
            },
            {
              "internalType": "uint256",
              "name": "totalToPay",
              "type": "uint256"
            },
            {
              "components": [
                {
                  "internalType": "uint256",
                  "name": "totalAmount",
                  "type": "uint256"
                },
                {
                  "internalType": "uint256",
                  "name": "totalToPay",
                  "type": "uint256"
                },
                {
                  "components": [
                    {
                      "internalType": "address payable",
                      "name": "owner",
                      "type": "address"
                    },
                    {
                      "internalType": "uint256",
                      "name": "monthlyQuote",
                      "type": "uint256"
                    },
                    {
                      "internalType": "uint256",
                      "name": "quantityQuotes",
                      "type": "uint256"
                    },
                    {
                      "internalType": "uint256",
                      "name": "totalPaidQuotes",
                      "type": "uint256"
                    },
                    {
                      "internalType": "uint256",
                      "name": "totalPensionValue",
                      "type": "uint256"
                    }
                  ],
                  "internalType": "struct Pension.RetairedQuote[]",
                  "name": "retairedQuotes",
                  "type": "tuple[]"
                }
              ],
              "internalType": "struct Pension.RetairedRecord[]",
              "name": "retairedRecords",
              "type": "tuple[]"
            },
            {
              "components": [
                {
                  "internalType": "uint256",
                  "name": "totalAmount",
                  "type": "uint256"
                },
                {
                  "components": [
                    {
                      "internalType": "address payable",
                      "name": "owner",
                      "type": "address"
                    },
                    {
                      "internalType": "bytes32",
                      "name": "id",
                      "type": "bytes32"
                    },
                    {
                      "components": [
                        {
                          "internalType": "address payable",
                          "name": "owner",
                          "type": "address"
                        },
                        {
                          "internalType": "string",
                          "name": "biologySex",
                          "type": "string"
                        },
                        {
                          "internalType": "uint256",
                          "name": "age",
                          "type": "uint256"
                        },
                        {
                          "internalType": "uint256",
                          "name": "bornAge",
                          "type": "uint256"
                        },
                        {
                          "internalType": "uint256",
                          "name": "retirentmentDate",
                          "type": "uint256"
                        },
                        {
                          "internalType": "uint256",
                          "name": "pensionCreatedTime",
                          "type": "uint256"
                        },
                        {
                          "internalType": "uint256",
                          "name": "pensionId",
                          "type": "uint256"
                        },
                        {
                          "internalType": "uint256",
                          "name": "totalSavings",
                          "type": "uint256"
                        },
                        {
                          "internalType": "uint256",
                          "name": "totalSolidary",
                          "type": "uint256"
                        }
                      ],
                      "internalType": "struct Pension.DataPension",
                      "name": "dataPension",
                      "type": "tuple"
                    },
                    {
                      "internalType": "uint256",
                      "name": "contributionDate",
                      "type": "uint256"
                    },
                    {
                      "internalType": "uint256",
                      "name": "savingAmount",
                      "type": "uint256"
                    },
                    {
                      "internalType": "uint256",
                      "name": "solidaryAmount",
                      "type": "uint256"
                    },
                    {
                      "internalType": "uint256",
                      "name": "totalAmount",
                      "type": "uint256"
                    }
                  ],
                  "internalType": "struct Pension.MonthlyQuote[]",
                  "name": "monthlyQuotes",
                  "type": "tuple[]"
                }
              ],
              "internalType": "struct Pension.MonthlyRecord[]",
              "name": "monthlyRecords",
              "type": "tuple[]"
            }
          ],
          "internalType": "struct Pension.GeneralRecord",
          "name": "",
          "type": "tuple"
        }
      ],
      "stateMutability": "view",
      "type": "function"
    },
    {
      "inputs": [
        {
          "internalType": "uint256",
          "name": "_cutoffDate",
          "type": "uint256"
        }
      ],
      "name": "getMonthlyBalanceFromMonthlyGeneralBalance",
      "outputs": [
        {
          "components": [
            {
              "internalType": "uint256",
              "name": "totalAmount",
              "type": "uint256"
            },
            {
              "components": [
                {
                  "internalType": "address payable",
                  "name": "owner",
                  "type": "address"
                },
                {
                  "internalType": "bytes32",
                  "name": "id",
                  "type": "bytes32"
                },
                {
                  "components": [
                    {
                      "internalType": "address payable",
                      "name": "owner",
                      "type": "address"
                    },
                    {
                      "internalType": "string",
                      "name": "biologySex",
                      "type": "string"
                    },
                    {
                      "internalType": "uint256",
                      "name": "age",
                      "type": "uint256"
                    },
                    {
                      "internalType": "uint256",
                      "name": "bornAge",
                      "type": "uint256"
                    },
                    {
                      "internalType": "uint256",
                      "name": "retirentmentDate",
                      "type": "uint256"
                    },
                    {
                      "internalType": "uint256",
                      "name": "pensionCreatedTime",
                      "type": "uint256"
                    },
                    {
                      "internalType": "uint256",
                      "name": "pensionId",
                      "type": "uint256"
                    },
                    {
                      "internalType": "uint256",
                      "name": "totalSavings",
                      "type": "uint256"
                    },
                    {
                      "internalType": "uint256",
                      "name": "totalSolidary",
                      "type": "uint256"
                    }
                  ],
                  "internalType": "struct Pension.DataPension",
                  "name": "dataPension",
                  "type": "tuple"
                },
                {
                  "internalType": "uint256",
                  "name": "contributionDate",
                  "type": "uint256"
                },
                {
                  "internalType": "uint256",
                  "name": "savingAmount",
                  "type": "uint256"
                },
                {
                  "internalType": "uint256",
                  "name": "solidaryAmount",
                  "type": "uint256"
                },
                {
                  "internalType": "uint256",
                  "name": "totalAmount",
                  "type": "uint256"
                }
              ],
              "internalType": "struct Pension.MonthlyQuote[]",
              "name": "monthlyQuotes",
              "type": "tuple[]"
            }
          ],
          "internalType": "struct Pension.MonthlyRecord",
          "name": "",
          "type": "tuple"
        }
      ],
      "stateMutability": "view",
      "type": "function"
    },
    {
      "inputs": [
        {
          "internalType": "uint256",
          "name": "_pensionId",
          "type": "uint256"
        }
      ],
      "name": "getOwnerPensionsBalance",
      "outputs": [
        {
          "components": [
            {
              "internalType": "address payable",
              "name": "owner",
              "type": "address"
            },
            {
              "internalType": "string",
              "name": "biologySex",
              "type": "string"
            },
            {
              "internalType": "uint256",
              "name": "age",
              "type": "uint256"
            },
            {
              "internalType": "uint256",
              "name": "bornAge",
              "type": "uint256"
            },
            {
              "internalType": "uint256",
              "name": "retirentmentDate",
              "type": "uint256"
            },
            {
              "internalType": "uint256",
              "name": "pensionCreatedTime",
              "type": "uint256"
            },
            {
              "internalType": "uint256",
              "name": "pensionId",
              "type": "uint256"
            },
            {
              "internalType": "uint256",
              "name": "totalSavings",
              "type": "uint256"
            },
            {
              "internalType": "uint256",
              "name": "totalSolidary",
              "type": "uint256"
            }
          ],
          "internalType": "struct Pension.DataPension",
          "name": "",
          "type": "tuple"
        }
      ],
      "stateMutability": "view",
      "type": "function"
    },
    {
      "inputs": [
        {
          "internalType": "address",
          "name": "owner",
          "type": "address"
        },
        {
          "internalType": "address",
          "name": "operator",
          "type": "address"
        }
      ],
      "name": "isApprovedForAll",
      "outputs": [
        {
          "internalType": "bool",
          "name": "",
          "type": "bool"
        }
      ],
      "stateMutability": "view",
      "type": "function"
    },
    {
      "inputs": [],
      "name": "name",
      "outputs": [
        {
          "internalType": "string",
          "name": "",
          "type": "string"
        }
      ],
      "stateMutability": "view",
      "type": "function"
    },
    {
      "inputs": [
        {
          "internalType": "uint256",
          "name": "tokenId",
          "type": "uint256"
        }
      ],
      "name": "ownerOf",
      "outputs": [
        {
          "internalType": "address",
          "name": "",
          "type": "address"
        }
      ],
      "stateMutability": "view",
      "type": "function"
    },
    {
      "inputs": [],
      "name": "pensionIdCounter",
      "outputs": [
        {
          "internalType": "uint256",
          "name": "_value",
          "type": "uint256"
        }
      ],
      "stateMutability": "view",
      "type": "function"
    },
    {
      "inputs": [
        {
          "internalType": "bytes",
          "name": "",
          "type": "bytes"
        }
      ],
      "name": "performUpkeep",
      "outputs": [],
      "stateMutability": "nonpayable",
      "type": "function"
    },
    {
      "inputs": [],
      "name": "retirentmentAge",
      "outputs": [
        {
          "internalType": "uint256",
          "name": "",
          "type": "uint256"
        }
      ],
      "stateMutability": "view",
      "type": "function"
    },
    {
      "inputs": [
        {
          "internalType": "string",
          "name": "_biologySex",
          "type": "string"
        },
        {
          "internalType": "uint256",
          "name": "_age",
          "type": "uint256"
        },
        {
          "internalType": "uint256",
          "name": "_bornAge",
          "type": "uint256"
        },
        {
          "internalType": "uint256",
          "name": "_firstQuote",
          "type": "uint256"
        }
      ],
      "name": "safeMint",
      "outputs": [],
      "stateMutability": "payable",
      "type": "function"
    },
    {
      "inputs": [
        {
          "internalType": "address",
          "name": "from",
          "type": "address"
        },
        {
          "internalType": "address",
          "name": "to",
          "type": "address"
        },
        {
          "internalType": "uint256",
          "name": "tokenId",
          "type": "uint256"
        }
      ],
      "name": "safeTransferFrom",
      "outputs": [],
      "stateMutability": "nonpayable",
      "type": "function"
    },
    {
      "inputs": [
        {
          "internalType": "address",
          "name": "from",
          "type": "address"
        },
        {
          "internalType": "address",
          "name": "to",
          "type": "address"
        },
        {
          "internalType": "uint256",
          "name": "tokenId",
          "type": "uint256"
        },
        {
          "internalType": "bytes",
          "name": "data",
          "type": "bytes"
        }
      ],
      "name": "safeTransferFrom",
      "outputs": [],
      "stateMutability": "nonpayable",
      "type": "function"
    },
    {
      "inputs": [
        {
          "internalType": "address",
          "name": "operator",
          "type": "address"
        },
        {
          "internalType": "bool",
          "name": "approved",
          "type": "bool"
        }
      ],
      "name": "setApprovalForAll",
      "outputs": [],
      "stateMutability": "nonpayable",
      "type": "function"
    },
    {
      "inputs": [
        {
          "internalType": "bytes4",
          "name": "interfaceId",
          "type": "bytes4"
        }
      ],
      "name": "supportsInterface",
      "outputs": [
        {
          "internalType": "bool",
          "name": "",
          "type": "bool"
        }
      ],
      "stateMutability": "view",
      "type": "function"
    },
    {
      "inputs": [],
      "name": "symbol",
      "outputs": [
        {
          "internalType": "string",
          "name": "",
          "type": "string"
        }
      ],
      "stateMutability": "view",
      "type": "function"
    },
    {
      "inputs": [
        {
          "internalType": "uint256",
          "name": "tokenId",
          "type": "uint256"
        }
      ],
      "name": "tokenURI",
      "outputs": [
        {
          "internalType": "string",
          "name": "",
          "type": "string"
        }
      ],
      "stateMutability": "view",
      "type": "function"
    },
    {
      "inputs": [],
      "name": "totalAsserts",
      "outputs": [
        {
          "internalType": "uint256",
          "name": "",
          "type": "uint256"
        }
      ],
      "stateMutability": "view",
      "type": "function"
    },
    {
      "inputs": [
        {
          "internalType": "address",
          "name": "from",
          "type": "address"
        },
        {
          "internalType": "address",
          "name": "to",
          "type": "address"
        },
        {
          "internalType": "uint256",
          "name": "tokenId",
          "type": "uint256"
        }
      ],
      "name": "transferFrom",
      "outputs": [],
      "stateMutability": "nonpayable",
      "type": "function"
    },
    {
      "inputs": [],
      "name": "updateCutoffDate",
      "outputs": [],
      "stateMutability": "nonpayable",
      "type": "function"
    },
    {
      "inputs": [
        {
          "internalType": "address",
          "name": "_owner",
          "type": "address"
        }
      ],
      "name": "verifyIfTheContributorAlreadyMinted",
      "outputs": [
        {
          "internalType": "bool",
          "name": "",
          "type": "bool"
        }
      ],
      "stateMutability": "view",
      "type": "function"
    }
  ],
  "bytecode": "0x60806040523480156200001157600080fd5b506040518060400160405280600781526020017f50656e73696f6e000000000000000000000000000000000000000000000000008152506040518060400160405280600381526020017f504e5300000000000000000000000000000000000000000000000000000000008152508160009080519060200190620000969291906200019b565b508060019080519060200190620000af9291906200019b565b505050426019819055506000600e600181600181540180825580915050039060005260206000209060020201905080601760006019548152602001908152602001600020600082015481600001556001820181600101908054620001159291906200022c565b509050506000600c6001816001815401808255809150500390600052602060002090600502019050806007600082015481600001556001820154816001015560028201548160020155600382018160030190805462000176929190620003fd565b5060048201816004019080546200018f92919062000487565b5090505050506200094f565b828054620001a99062000919565b90600052602060002090601f016020900481019282620001cd576000855562000219565b82601f10620001e857805160ff191683800117855562000219565b8280016001018555821562000219579182015b8281111562000218578251825591602001919060010190620001fb565b5b50905062000228919062000507565b5090565b82805482825590600052602060002090600f028101928215620003ea57600052602060002091600f0282015b82811115620003e95782826000820160009054906101000a900473ffffffffffffffffffffffffffffffffffffffff168160000160006101000a81548173ffffffffffffffffffffffffffffffffffffffff021916908373ffffffffffffffffffffffffffffffffffffffff1602179055506001820154816001015560028201816002016000820160009054906101000a900473ffffffffffffffffffffffffffffffffffffffff168160000160006101000a81548173ffffffffffffffffffffffffffffffffffffffff021916908373ffffffffffffffffffffffffffffffffffffffff1602179055506001820181600101908054620003599062000919565b6200036692919062000526565b50600282015481600201556003820154816003015560048201548160040155600582015481600501556006820154816006015560078201548160070155600882015481600801555050600b82015481600b0155600c82015481600c0155600d82015481600d0155600e82015481600e0155505091600f019190600f019062000258565b5b509050620003f99190620005be565b5090565b828054828255906000526020600020906003028101928215620004745760005260206000209160030282015b828111156200047357828260008201548160000155600182015481600101556002820181600201908054620004609291906200069e565b5050509160030191906003019062000429565b5b5090506200048391906200078a565b5090565b828054828255906000526020600020906002028101928215620004f45760005260206000209160020282015b82811115620004f3578282600082015481600001556001820181600101908054620004e09291906200022c565b50505091600201919060020190620004b3565b5b509050620005039190620007c5565b5090565b5b808211156200052257600081600090555060010162000508565b5090565b828054620005349062000919565b90600052602060002090601f016020900481019282620005585760008555620005ab565b82601f106200056b5780548555620005ab565b82800160010185558215620005ab57600052602060002091601f016020900482015b82811115620005aa5782548255916001019190600101906200058d565b5b509050620005ba919062000507565b5090565b5b808211156200069a57600080820160006101000a81549073ffffffffffffffffffffffffffffffffffffffff0219169055600182016000905560028201600080820160006101000a81549073ffffffffffffffffffffffffffffffffffffffff0219169055600182016000620006369190620007f8565b60028201600090556003820160009055600482016000905560058201600090556006820160009055600782016000905560088201600090555050600b820160009055600c820160009055600d820160009055600e82016000905550600f01620005bf565b5090565b828054828255906000526020600020906005028101928215620007775760005260206000209160050282015b82811115620007765782826000820160009054906101000a900473ffffffffffffffffffffffffffffffffffffffff168160000160006101000a81548173ffffffffffffffffffffffffffffffffffffffff021916908373ffffffffffffffffffffffffffffffffffffffff16021790555060018201548160010155600282015481600201556003820154816003015560048201548160040155505091600501919060050190620006ca565b5b5090506200078691906200083e565b5090565b5b80821115620007c1576000808201600090556001820160009055600282016000620007b791906200089e565b506003016200078b565b5090565b5b80821115620007f457600080820160009055600182016000620007ea9190620008c4565b50600201620007c6565b5090565b508054620008069062000919565b6000825580601f106200081a57506200083b565b601f0160209004906000526020600020908101906200083a919062000507565b5b50565b5b808211156200089a57600080820160006101000a81549073ffffffffffffffffffffffffffffffffffffffff02191690556001820160009055600282016000905560038201600090556004820160009055506005016200083f565b5090565b5080546000825560050290600052602060002090810190620008c191906200083e565b50565b50805460008255600f0290600052602060002090810190620008e79190620005be565b50565b7f4e487b7100000000000000000000000000000000000000000000000000000000600052602260045260246000fd5b600060028204905060018216806200093257607f821691505b60208210811415620009495762000948620008ea565b5b50919050565b615eef806200095f6000396000f3fe6080604052600436106101815760003560e01c806370a08231116100d1578063ca00ed2b1161008a578063ec9b9a6f11610064578063ec9b9a6f146105cd578063ed759375146105e9578063f1bc931614610605578063fb293d4d1461063057610181565b8063ca00ed2b1461053a578063e5c65d3014610565578063e985e9c51461059057610181565b806370a082311461040657806395d89b41146104435780639e13349d1461046e578063a22cb465146104ab578063b88d4fde146104d4578063c87b56dd146104fd57610181565b806323b872dd1161013e5780634585e33b116101185780634585e33b146103255780635b06291c1461034e5780636352211e1461038b5780636e04ff0d146103c857610181565b806323b872dd146102bc578063275d38af146102e557806342842e0e146102fc57610181565b806301ffc9a71461018657806306fdde03146101c3578063081812fc146101ee578063095ea7b31461022b57806314e8565a146102545780631cbe4d551461027f575b600080fd5b34801561019257600080fd5b506101ad60048036038101906101a89190614181565b61065b565b6040516101ba91906141c9565b60405180910390f35b3480156101cf57600080fd5b506101d861073d565b6040516101e5919061427d565b60405180910390f35b3480156101fa57600080fd5b50610215600480360381019061021091906142d5565b6107cf565b6040516102229190614343565b60405180910390f35b34801561023757600080fd5b50610252600480360381019061024d919061438a565b610815565b005b34801561026057600080fd5b5061026961092d565b6040516102769190614a3e565b60405180910390f35b34801561028b57600080fd5b506102a660048036038101906102a191906142d5565b610d48565b6040516102b39190614b25565b60405180910390f35b3480156102c857600080fd5b506102e360048036038101906102de9190614b47565b610ee1565b005b3480156102f157600080fd5b506102fa610f41565b005b34801561030857600080fd5b50610323600480360381019061031e9190614b47565b611139565b005b34801561033157600080fd5b5061034c60048036038101906103479190614bff565b611159565b005b34801561035a57600080fd5b5061037560048036038101906103709190614c4c565b61117e565b60405161038291906141c9565b60405180910390f35b34801561039757600080fd5b506103b260048036038101906103ad91906142d5565b6111e5565b6040516103bf9190614343565b60405180910390f35b3480156103d457600080fd5b506103ef60048036038101906103ea9190614bff565b611297565b6040516103fd929190614cce565b60405180910390f35b34801561041257600080fd5b5061042d60048036038101906104289190614c4c565b6112c4565b60405161043a9190614d0d565b60405180910390f35b34801561044f57600080fd5b5061045861137c565b604051610465919061427d565b60405180910390f35b34801561047a57600080fd5b50610495600480360381019061049091906142d5565b61140e565b6040516104a29190614d65565b60405180910390f35b3480156104b757600080fd5b506104d260048036038101906104cd9190614db3565b61166f565b005b3480156104e057600080fd5b506104fb60048036038101906104f69190614f23565b611685565b005b34801561050957600080fd5b50610524600480360381019061051f91906142d5565b6116e7565b604051610531919061427d565b60405180910390f35b34801561054657600080fd5b5061054f61174f565b60405161055c9190614d0d565b60405180910390f35b34801561057157600080fd5b5061057a611755565b6040516105879190614d0d565b60405180910390f35b34801561059c57600080fd5b506105b760048036038101906105b29190614fa6565b61175d565b6040516105c491906141c9565b60405180910390f35b6105e760048036038101906105e29190614fe6565b6117f1565b005b61060360048036038101906105fe91906150c7565b611d7a565b005b34801561061157600080fd5b5061061a61218b565b6040516106279190614d0d565b60405180910390f35b34801561063c57600080fd5b50610645612193565b6040516106529190614d0d565b60405180910390f35b60007f80ac58cd000000000000000000000000000000000000000000000000000000007bffffffffffffffffffffffffffffffffffffffffffffffffffffffff1916827bffffffffffffffffffffffffffffffffffffffffffffffffffffffff1916148061072657507f5b5e139f000000000000000000000000000000000000000000000000000000007bffffffffffffffffffffffffffffffffffffffffffffffffffffffff1916827bffffffffffffffffffffffffffffffffffffffffffffffffffffffff1916145b8061073657506107358261219f565b5b9050919050565b60606000805461074c90615179565b80601f016020809104026020016040519081016040528092919081815260200182805461077890615179565b80156107c55780601f1061079a576101008083540402835291602001916107c5565b820191906000526020600020905b8154815290600101906020018083116107a857829003601f168201915b5050505050905090565b60006107da82612209565b6004600083815260200190815260200160002060009054906101000a900473ffffffffffffffffffffffffffffffffffffffff169050919050565b6000610820826111e5565b90508073ffffffffffffffffffffffffffffffffffffffff168373ffffffffffffffffffffffffffffffffffffffff161415610891576040517f08c379a00000000000000000000000000000000000000000000000000000000081526004016108889061521d565b60405180910390fd5b8073ffffffffffffffffffffffffffffffffffffffff166108b0612254565b73ffffffffffffffffffffffffffffffffffffffff1614806108df57506108de816108d9612254565b61175d565b5b61091e576040517f08c379a0000000000000000000000000000000000000000000000000000000008152600401610915906152af565b60405180910390fd5b610928838361225c565b505050565b610935613bf0565b60076040518060a001604052908160008201548152602001600182015481526020016002820154815260200160038201805480602002602001604051908101604052809291908181526020016000905b82821015610aa85783829060005260206000209060030201604051806060016040529081600082015481526020016001820154815260200160028201805480602002602001604051908101604052809291908181526020016000905b82821015610a9157838290600052602060002090600502016040518060a00160405290816000820160009054906101000a900473ffffffffffffffffffffffffffffffffffffffff1673ffffffffffffffffffffffffffffffffffffffff1673ffffffffffffffffffffffffffffffffffffffff168152602001600182015481526020016002820154815260200160038201548152602001600482015481525050815260200190600101906109e1565b505050508152505081526020019060010190610985565b50505050815260200160048201805480602002602001604051908101604052809291908181526020016000905b82821015610d3b57838290600052602060002090600202016040518060400160405290816000820154815260200160018201805480602002602001604051908101604052809291908181526020016000905b82821015610d2457838290600052602060002090600f02016040518060e00160405290816000820160009054906101000a900473ffffffffffffffffffffffffffffffffffffffff1673ffffffffffffffffffffffffffffffffffffffff1673ffffffffffffffffffffffffffffffffffffffff1681526020016001820154815260200160028201604051806101200160405290816000820160009054906101000a900473ffffffffffffffffffffffffffffffffffffffff1673ffffffffffffffffffffffffffffffffffffffff1673ffffffffffffffffffffffffffffffffffffffff168152602001600182018054610c2190615179565b80601f0160208091040260200160405190810160405280929190818152602001828054610c4d90615179565b8015610c9a5780601f10610c6f57610100808354040283529160200191610c9a565b820191906000526020600020905b815481529060010190602001808311610c7d57829003601f168201915b505050505081526020016002820154815260200160038201548152602001600482015481526020016005820154815260200160068201548152602001600782015481526020016008820154815250508152602001600b8201548152602001600c8201548152602001600d8201548152602001600e8201548152505081526020019060010190610b27565b505050508152505081526020019060010190610ad5565b5050505081525050905090565b610d50613c1f565b601560003373ffffffffffffffffffffffffffffffffffffffff1673ffffffffffffffffffffffffffffffffffffffff1681526020019081526020016000206000838152602001908152602001600020604051806101200160405290816000820160009054906101000a900473ffffffffffffffffffffffffffffffffffffffff1673ffffffffffffffffffffffffffffffffffffffff1673ffffffffffffffffffffffffffffffffffffffff168152602001600182018054610e1290615179565b80601f0160208091040260200160405190810160405280929190818152602001828054610e3e90615179565b8015610e8b5780601f10610e6057610100808354040283529160200191610e8b565b820191906000526020600020905b815481529060010190602001808311610e6e57829003601f168201915b505050505081526020016002820154815260200160038201548152602001600482015481526020016005820154815260200160068201548152602001600782015481526020016008820154815250509050919050565b610ef2610eec612254565b82612315565b610f31576040517f08c379a0000000000000000000000000000000000000000000000000000000008152600401610f2890615341565b60405180910390fd5b610f3c8383836123aa565b505050565b60076004016017600060195481526020019081526020016000209080600181540180825580915050600190039060005260206000209060020201600090919091909150600082015481600001556001820181600101908054610fa4929190613c81565b5050506017600060195481526020019081526020016000206000015460076001016000828254610fd49190615390565b9250508190555060186000601954815260200190815260200160002060010154600760020160008282546110089190615390565b92505081905550600060076002015460076001015461102791906153e6565b90506000811215611089578061103c9061547a565b6007600001600082825461105091906153e6565b92505081905550806110619061547a565b600760010160008282546110759190615390565b92505081905550611084612611565b6110c5565b60008113156110bb5761109a612611565b80600760000160008282546110af91906154c3565b925050819055506110c4565b6110c3612611565b5b5b426019819055506110d7601954612948565b6000600e600181600181540180825580915050039060005260206000209060020201905080601760006019548152602001908152602001600020600082015481600001556001820181600101908054611131929190613c81565b509050505050565b61115483838360405180602001604052806000815250611685565b505050565b62278d006019544261116b9190615557565b111561117a57611179610f41565b5b5050565b6000601260008373ffffffffffffffffffffffffffffffffffffffff1673ffffffffffffffffffffffffffffffffffffffff16815260200190815260200160002060009054906101000a900460ff16156111db57600190506111e0565b600090505b919050565b6000806002600084815260200190815260200160002060009054906101000a900473ffffffffffffffffffffffffffffffffffffffff169050600073ffffffffffffffffffffffffffffffffffffffff168173ffffffffffffffffffffffffffffffffffffffff16141561128e576040517f08c379a0000000000000000000000000000000000000000000000000000000008152600401611285906155d7565b60405180910390fd5b80915050919050565b600060606000801580156112ba575062278d00601954426112b89190615557565b115b9250509250929050565b60008073ffffffffffffffffffffffffffffffffffffffff168273ffffffffffffffffffffffffffffffffffffffff161415611335576040517f08c379a000000000000000000000000000000000000000000000000000000000815260040161132c90615669565b60405180910390fd5b600360008373ffffffffffffffffffffffffffffffffffffffff1673ffffffffffffffffffffffffffffffffffffffff168152602001908152602001600020549050919050565b60606001805461138b90615179565b80601f01602080910402602001604051908101604052809291908181526020018280546113b790615179565b80156114045780601f106113d957610100808354040283529160200191611404565b820191906000526020600020905b8154815290600101906020018083116113e757829003601f168201915b5050505050905090565b611416613e49565b601760008381526020019081526020016000206040518060400160405290816000820154815260200160018201805480602002602001604051908101604052809291908181526020016000905b8282101561166057838290600052602060002090600f02016040518060e00160405290816000820160009054906101000a900473ffffffffffffffffffffffffffffffffffffffff1673ffffffffffffffffffffffffffffffffffffffff1673ffffffffffffffffffffffffffffffffffffffff1681526020016001820154815260200160028201604051806101200160405290816000820160009054906101000a900473ffffffffffffffffffffffffffffffffffffffff1673ffffffffffffffffffffffffffffffffffffffff1673ffffffffffffffffffffffffffffffffffffffff16815260200160018201805461155d90615179565b80601f016020809104026020016040519081016040528092919081815260200182805461158990615179565b80156115d65780601f106115ab576101008083540402835291602001916115d6565b820191906000526020600020905b8154815290600101906020018083116115b957829003601f168201915b505050505081526020016002820154815260200160038201548152602001600482015481526020016005820154815260200160068201548152602001600782015481526020016008820154815250508152602001600b8201548152602001600c8201548152602001600d8201548152602001600e8201548152505081526020019060010190611463565b50505050815250509050919050565b61168161167a612254565b8383612b32565b5050565b611696611690612254565b83612315565b6116d5576040517f08c379a00000000000000000000000000000000000000000000000000000000081526004016116cc90615341565b60405180910390fd5b6116e184848484612c9f565b50505050565b60606116f282612209565b60006116fc612cfb565b9050600081511161171c5760405180602001604052806000815250611747565b8061172684612d12565b6040516020016117379291906156c5565b6040516020818303038152906040525b915050919050565b60195481565b600047905090565b6000600560008473ffffffffffffffffffffffffffffffffffffffff1673ffffffffffffffffffffffffffffffffffffffff16815260200190815260200160002060008373ffffffffffffffffffffffffffffffffffffffff1673ffffffffffffffffffffffffffffffffffffffff16815260200190815260200160002060009054906101000a900460ff16905092915050565b3382601560008373ffffffffffffffffffffffffffffffffffffffff1673ffffffffffffffffffffffffffffffffffffffff168152602001908152602001600020600082815260200190815260200160002060000160009054906101000a900473ffffffffffffffffffffffffffffffffffffffff1673ffffffffffffffffffffffffffffffffffffffff168273ffffffffffffffffffffffffffffffffffffffff161480156118d457506118a5816111e5565b73ffffffffffffffffffffffffffffffffffffffff168273ffffffffffffffffffffffffffffffffffffffff16145b611913576040517f08c379a000000000000000000000000000000000000000000000000000000000815260040161190a90615735565b60405180910390fd5b346019811015611958576040517f08c379a000000000000000000000000000000000000000000000000000000000815260040161194f906157c7565b60405180910390fd5b60004290506000606460188761196e91906157e7565b6119789190615870565b9050600081876119889190615557565b905081601560003373ffffffffffffffffffffffffffffffffffffffff1673ffffffffffffffffffffffffffffffffffffffff16815260200190815260200160002060008a815260200190815260200160002060070160008282546119ed9190615390565b9250508190555080601560003373ffffffffffffffffffffffffffffffffffffffff1673ffffffffffffffffffffffffffffffffffffffff16815260200190815260200160002060008a81526020019081526020016000206008016000828254611a579190615390565b9250508190555080601460003373ffffffffffffffffffffffffffffffffffffffff1673ffffffffffffffffffffffffffffffffffffffff16815260200190815260200160002060008a81526020019081526020016000206000828254611abe9190615390565b9250508190555081601360003373ffffffffffffffffffffffffffffffffffffffff1673ffffffffffffffffffffffffffffffffffffffff16815260200190815260200160002060008a81526020019081526020016000206000828254611b259190615390565b92505081905550611cc2601560003373ffffffffffffffffffffffffffffffffffffffff1673ffffffffffffffffffffffffffffffffffffffff16815260200190815260200160002060008a8152602001908152602001600020604051806101200160405290816000820160009054906101000a900473ffffffffffffffffffffffffffffffffffffffff1673ffffffffffffffffffffffffffffffffffffffff1673ffffffffffffffffffffffffffffffffffffffff168152602001600182018054611bf190615179565b80601f0160208091040260200160405190810160405280929190818152602001828054611c1d90615179565b8015611c6a5780601f10611c3f57610100808354040283529160200191611c6a565b820191906000526020600020905b815481529060010190602001808311611c4d57829003601f168201915b5050505050815260200160028201548152602001600382015481526020016004820154815260200160058201548152602001600682015481526020016007820154815260200160088201548152505088858585612e73565b7fb68157fc00953269b00318b57b774667db6be7c9d901a0bd8a337628df9b9bc5601560003373ffffffffffffffffffffffffffffffffffffffff1673ffffffffffffffffffffffffffffffffffffffff16815260200190815260200160002060008a815260200190815260200160002060000160009054906101000a900473ffffffffffffffffffffffffffffffffffffffff168885604051611d6893929190615900565b60405180910390a15050505050505050565b346019811015611dbf576040517f08c379a0000000000000000000000000000000000000000000000000000000008152600401611db6906157c7565b60405180910390fd5b611dc83361117e565b15611e08576040517f08c379a0000000000000000000000000000000000000000000000000000000008152600401611dff90615983565b60405180910390fd5b6012841015611e4c576040517f08c379a0000000000000000000000000000000000000000000000000000000008152600401611e4390615a15565b60405180910390fd5b60006301e1338085611e5e91906157e7565b905060004290506000611e716006613094565b9050611e7d60066130a2565b611e8733826130b8565b6000836372a94580611e999190615557565b905060008184611ea99190615390565b9050600062278d008060195484611ec09190615557565b611eca9190615870565b611ed49190615390565b905060006040518061012001604052803373ffffffffffffffffffffffffffffffffffffffff1681526020018d81526020018c81526020018b8152602001848152602001878152602001868152602001600081526020016000815250905080601560003373ffffffffffffffffffffffffffffffffffffffff1673ffffffffffffffffffffffffffffffffffffffff168152602001908152602001600020600087815260200190815260200160002060008201518160000160006101000a81548173ffffffffffffffffffffffffffffffffffffffff021916908373ffffffffffffffffffffffffffffffffffffffff1602179055506020820151816001019080519060200190611fe6929190613e63565b5060408201518160020155606082015181600301556080820151816004015560a0820151816005015560c0820151816006015560e08201518160070155610100820151816008015590505061203b818a6130d6565b6016600083815260200190815260200160002081908060018154018082558091505060019003906000526020600020906009020160009091909190915060008201518160000160006101000a81548173ffffffffffffffffffffffffffffffffffffffff021916908373ffffffffffffffffffffffffffffffffffffffff16021790555060208201518160010190805190602001906120db929190613e63565b5060408201518160020155606082015181600301556080820151816004015560a0820151816005015560c0820151816006015560e08201518160070155610100820151816008015550506001601260003373ffffffffffffffffffffffffffffffffffffffff1673ffffffffffffffffffffffffffffffffffffffff16815260200190815260200160002060006101000a81548160ff021916908315150217905550505050505050505050505050565b6372a9458081565b60068060000154905081565b60007f01ffc9a7000000000000000000000000000000000000000000000000000000007bffffffffffffffffffffffffffffffffffffffffffffffffffffffff1916827bffffffffffffffffffffffffffffffffffffffffffffffffffffffff1916149050919050565b612212816133f5565b612251576040517f08c379a0000000000000000000000000000000000000000000000000000000008152600401612248906155d7565b60405180910390fd5b50565b600033905090565b816004600083815260200190815260200160002060006101000a81548173ffffffffffffffffffffffffffffffffffffffff021916908373ffffffffffffffffffffffffffffffffffffffff160217905550808273ffffffffffffffffffffffffffffffffffffffff166122cf836111e5565b73ffffffffffffffffffffffffffffffffffffffff167f8c5be1e5ebec7d5bd14f71427d1e84f3dd0314c0f7b2291e5b200ac8c7c3b92560405160405180910390a45050565b600080612321836111e5565b90508073ffffffffffffffffffffffffffffffffffffffff168473ffffffffffffffffffffffffffffffffffffffff1614806123635750612362818561175d565b5b806123a157508373ffffffffffffffffffffffffffffffffffffffff16612389846107cf565b73ffffffffffffffffffffffffffffffffffffffff16145b91505092915050565b8273ffffffffffffffffffffffffffffffffffffffff166123ca826111e5565b73ffffffffffffffffffffffffffffffffffffffff1614612420576040517f08c379a000000000000000000000000000000000000000000000000000000000815260040161241790615aa7565b60405180910390fd5b600073ffffffffffffffffffffffffffffffffffffffff168273ffffffffffffffffffffffffffffffffffffffff161415612490576040517f08c379a000000000000000000000000000000000000000000000000000000000815260040161248790615b39565b60405180910390fd5b61249b838383613461565b6124a660008261225c565b6001600360008573ffffffffffffffffffffffffffffffffffffffff1673ffffffffffffffffffffffffffffffffffffffff16815260200190815260200160002060008282546124f69190615557565b925050819055506001600360008473ffffffffffffffffffffffffffffffffffffffff1673ffffffffffffffffffffffffffffffffffffffff168152602001908152602001600020600082825461254d9190615390565b92505081905550816002600083815260200190815260200160002060006101000a81548173ffffffffffffffffffffffffffffffffffffffff021916908373ffffffffffffffffffffffffffffffffffffffff160217905550808273ffffffffffffffffffffffffffffffffffffffff168473ffffffffffffffffffffffffffffffffffffffff167fddf252ad1be2c89b69c2b068fc378daa952ba7f163c4a11628f55a4df523b3ef60405160405180910390a461260c838383613466565b505050565b60006007600301805480602002602001604051908101604052809291908181526020016000905b8282101561275b5783829060005260206000209060030201604051806060016040529081600082015481526020016001820154815260200160028201805480602002602001604051908101604052809291908181526020016000905b8282101561274457838290600052602060002090600502016040518060a00160405290816000820160009054906101000a900473ffffffffffffffffffffffffffffffffffffffff1673ffffffffffffffffffffffffffffffffffffffff1673ffffffffffffffffffffffffffffffffffffffff16815260200160018201548152602001600282015481526020016003820154815260200160048201548152505081526020019060010190612694565b505050508152505081526020019060010190612638565b50505050905060005b815181111561294457600082828151811061278257612781615b59565b5b602002602001015160400151905060005b815181111561292f5760008282815181106127b1576127b0615b59565b5b60200260200101519050806000015173ffffffffffffffffffffffffffffffffffffffff166108fc82602001519081150290604051600060405180830381858888f19350505050158015612809573d6000803e3d6000fd5b508060200151600760020160008282546128239190615557565b925050819055508060200151600760010160008282546128439190615557565b92505081905550806000015173ffffffffffffffffffffffffffffffffffffffff166108fc82602001519081150290604051600060405180830381858888f19350505050158015612898573d6000803e3d6000fd5b508060200151816060018181516128af9190615390565b91508181525050806080015181606001511061291b578282815181106128d8576128d7615b59565b5b602002602001016128e7613ee9565b81525060008351141561291a5784848151811061290757612906615b59565b5b60200260200101612916613f2e565b8152505b5b50808061292790615b88565b915050612793565b5050808061293c90615b88565b915050612764565b5050565b600060166000838152602001908152602001600020805480602002602001604051908101604052809291908181526020016000905b82821015612ade5783829060005260206000209060090201604051806101200160405290816000820160009054906101000a900473ffffffffffffffffffffffffffffffffffffffff1673ffffffffffffffffffffffffffffffffffffffff1673ffffffffffffffffffffffffffffffffffffffff168152602001600182018054612a0790615179565b80601f0160208091040260200160405190810160405280929190818152602001828054612a3390615179565b8015612a805780601f10612a5557610100808354040283529160200191612a80565b820191906000526020600020905b815481529060010190602001808311612a6357829003601f168201915b505050505081526020016002820154815260200160038201548152602001600482015481526020016005820154815260200160068201548152602001600782015481526020016008820154815250508152602001906001019061297d565b50505050905060005b8151811115612b2d576000828281518110612b0557612b04615b59565b5b60200260200101519050612b19818561346b565b508080612b2590615b88565b915050612ae7565b505050565b8173ffffffffffffffffffffffffffffffffffffffff168373ffffffffffffffffffffffffffffffffffffffff161415612ba1576040517f08c379a0000000000000000000000000000000000000000000000000000000008152600401612b9890615c1d565b60405180910390fd5b80600560008573ffffffffffffffffffffffffffffffffffffffff1673ffffffffffffffffffffffffffffffffffffffff16815260200190815260200160002060008473ffffffffffffffffffffffffffffffffffffffff1673ffffffffffffffffffffffffffffffffffffffff16815260200190815260200160002060006101000a81548160ff0219169083151502179055508173ffffffffffffffffffffffffffffffffffffffff168373ffffffffffffffffffffffffffffffffffffffff167f17307eab39ab6107e8899845ad3d59bd9653f200f220920489ca2b5937696c3183604051612c9291906141c9565b60405180910390a3505050565b612caa8484846123aa565b612cb6848484846136c6565b612cf5576040517f08c379a0000000000000000000000000000000000000000000000000000000008152600401612cec90615caf565b60405180910390fd5b50505050565b606060405180602001604052806000815250905090565b60606000821415612d5a576040518060400160405280600181526020017f30000000000000000000000000000000000000000000000000000000000000008152509050612e6e565b600082905060005b60008214612d8c578080612d7590615b88565b915050600a82612d859190615870565b9150612d62565b60008167ffffffffffffffff811115612da857612da7614df8565b5b6040519080825280601f01601f191660200182016040528015612dda5781602001600182028036833780820191505090505b5090505b60008514612e6757600182612df39190615557565b9150600a85612e029190615ccf565b6030612e0e9190615390565b60f81b818381518110612e2457612e23615b59565b5b60200101907effffffffffffffffffffffffffffffffffffffffffffffffffffffffffffff1916908160001a905350600a85612e609190615870565b9450612dde565b8093505050505b919050565b600083604051602001612e869190615d21565b604051602081830303815290604052805190602001209050846017600060195481526020019081526020016000206000016000828254612ec69190615390565b925050819055506017600060195481526020019081526020016000206001016040518060e00160405280886000015173ffffffffffffffffffffffffffffffffffffffff1681526020018381526020018881526020018681526020018581526020018481526020018781525090806001815401808255809150506001900390600052602060002090600f020160009091909190915060008201518160000160006101000a81548173ffffffffffffffffffffffffffffffffffffffff021916908373ffffffffffffffffffffffffffffffffffffffff1602179055506020820151816001015560408201518160020160008201518160000160006101000a81548173ffffffffffffffffffffffffffffffffffffffff021916908373ffffffffffffffffffffffffffffffffffffffff1602179055506020820151816001019080519060200190613018929190613e63565b5060408201518160020155606082015181600301556080820151816004015560a0820151816005015560c0820151816006015560e0820151816007015561010082015181600801555050606082015181600b0155608082015181600c015560a082015181600d015560c082015181600e01555050505050505050565b600081600001549050919050565b6001816000016000828254019250508190555050565b6130d282826040518060200160405280600081525061385d565b5050565b6000429050600060646018846130ec91906157e7565b6130f69190615870565b9050600081846131069190615557565b9050818560e00181815161311a9190615390565b915081815250508085610100018181516131349190615390565b9150818152505080601460003373ffffffffffffffffffffffffffffffffffffffff1673ffffffffffffffffffffffffffffffffffffffff16815260200190815260200160002060008760c001518152602001908152602001600020600082825461319f9190615390565b9250508190555081601360003373ffffffffffffffffffffffffffffffffffffffff1673ffffffffffffffffffffffffffffffffffffffff16815260200190815260200160002060008760c001518152602001908152602001600020600082825461320a9190615390565b925050819055506133ab601560003373ffffffffffffffffffffffffffffffffffffffff1673ffffffffffffffffffffffffffffffffffffffff16815260200190815260200160002060008760c001518152602001908152602001600020604051806101200160405290816000820160009054906101000a900473ffffffffffffffffffffffffffffffffffffffff1673ffffffffffffffffffffffffffffffffffffffff1673ffffffffffffffffffffffffffffffffffffffff1681526020016001820180546132da90615179565b80601f016020809104026020016040519081016040528092919081815260200182805461330690615179565b80156133535780601f1061332857610100808354040283529160200191613353565b820191906000526020600020905b81548152906001019060200180831161333657829003601f168201915b5050505050815260200160028201548152602001600382015481526020016004820154815260200160058201548152602001600682015481526020016007820154815260200160088201548152505085858585612e73565b7fb68157fc00953269b00318b57b774667db6be7c9d901a0bd8a337628df9b9bc58560000151858760a001516040516133e693929190615900565b60405180910390a15050505050565b60008073ffffffffffffffffffffffffffffffffffffffff166002600084815260200190815260200160002060009054906101000a900473ffffffffffffffffffffffffffffffffffffffff1673ffffffffffffffffffffffffffffffffffffffff1614159050919050565b505050565b505050565b600060136000846000015173ffffffffffffffffffffffffffffffffffffffff1673ffffffffffffffffffffffffffffffffffffffff16815260200190815260200160002060008460c001518152602001908152602001600020549050600060146000856000015173ffffffffffffffffffffffffffffffffffffffff1673ffffffffffffffffffffffffffffffffffffffff16815260200190815260200160002060008560c001518152602001908152602001600020549050600081836135339190615390565b90506000600c6015836135469190615870565b6135509190615870565b9050600061356187602001516138b8565b905060006040518060a00160405280896000015173ffffffffffffffffffffffffffffffffffffffff1681526020018481526020018381526020016000815260200185815250905080608001516018600089815260200190815260200160002060000160008282546135d39190615390565b9250508190555080602001516018600089815260200190815260200160002060010160008282546136049190615390565b925050819055506018600088815260200190815260200160002060020181908060018154018082558091505060019003906000526020600020906005020160009091909190915060008201518160000160006101000a81548173ffffffffffffffffffffffffffffffffffffffff021916908373ffffffffffffffffffffffffffffffffffffffff1602179055506020820151816001015560408201518160020155606082015181600301556080820151816004015550505050505050505050565b60006136e78473ffffffffffffffffffffffffffffffffffffffff1661399a565b15613850578373ffffffffffffffffffffffffffffffffffffffff1663150b7a02613710612254565b8786866040518563ffffffff1660e01b81526004016137329493929190615d3c565b602060405180830381600087803b15801561374c57600080fd5b505af192505050801561377d57506040513d601f19601f8201168201806040525081019061377a9190615d9d565b60015b613800573d80600081146137ad576040519150601f19603f3d011682016040523d82523d6000602084013e6137b2565b606091505b506000815114156137f8576040517f08c379a00000000000000000000000000000000000000000000000000000000081526004016137ef90615caf565b60405180910390fd5b805181602001fd5b63150b7a0260e01b7bffffffffffffffffffffffffffffffffffffffffffffffffffffffff1916817bffffffffffffffffffffffffffffffffffffffffffffffffffffffff191614915050613855565b600190505b949350505050565b61386783836139bd565b61387460008484846136c6565b6138b3576040517f08c379a00000000000000000000000000000000000000000000000000000000081526004016138aa90615caf565b60405180910390fd5b505050565b60006138f9826040518060400160405280600481526020017f6d616c6500000000000000000000000000000000000000000000000000000000815250613b97565b1561392557600c6372a94580639fc619806139149190615557565b61391e9190615870565b9050613995565b613964826040518060400160405280600681526020017f66656d616c650000000000000000000000000000000000000000000000000000815250613b97565b1561399057600c6372a94580639660180061397f9190615557565b6139899190615870565b9050613995565b600090505b919050565b6000808273ffffffffffffffffffffffffffffffffffffffff163b119050919050565b600073ffffffffffffffffffffffffffffffffffffffff168273ffffffffffffffffffffffffffffffffffffffff161415613a2d576040517f08c379a0000000000000000000000000000000000000000000000000000000008152600401613a2490615e16565b60405180910390fd5b613a36816133f5565b15613a76576040517f08c379a0000000000000000000000000000000000000000000000000000000008152600401613a6d90615e82565b60405180910390fd5b613a8260008383613461565b6001600360008473ffffffffffffffffffffffffffffffffffffffff1673ffffffffffffffffffffffffffffffffffffffff1681526020019081526020016000206000828254613ad29190615390565b92505081905550816002600083815260200190815260200160002060006101000a81548173ffffffffffffffffffffffffffffffffffffffff021916908373ffffffffffffffffffffffffffffffffffffffff160217905550808273ffffffffffffffffffffffffffffffffffffffff16600073ffffffffffffffffffffffffffffffffffffffff167fddf252ad1be2c89b69c2b068fc378daa952ba7f163c4a11628f55a4df523b3ef60405160405180910390a4613b9360008383613466565b5050565b600081604051602001613baa9190615ea2565b6040516020818303038152906040528051906020012083604051602001613bd19190615ea2565b6040516020818303038152906040528051906020012014905092915050565b6040518060a0016040528060008152602001600081526020016000815260200160608152602001606081525090565b604051806101200160405280600073ffffffffffffffffffffffffffffffffffffffff16815260200160608152602001600081526020016000815260200160008152602001600081526020016000815260200160008152602001600081525090565b82805482825590600052602060002090600f028101928215613e3857600052602060002091600f0282015b82811115613e375782826000820160009054906101000a900473ffffffffffffffffffffffffffffffffffffffff168160000160006101000a81548173ffffffffffffffffffffffffffffffffffffffff021916908373ffffffffffffffffffffffffffffffffffffffff1602179055506001820154816001015560028201816002016000820160009054906101000a900473ffffffffffffffffffffffffffffffffffffffff168160000160006101000a81548173ffffffffffffffffffffffffffffffffffffffff021916908373ffffffffffffffffffffffffffffffffffffffff1602179055506001820181600101908054613daa90615179565b613db5929190613f4f565b50600282015481600201556003820154816003015560048201548160040155600582015481600501556006820154816006015560078201548160070155600882015481600801555050600b82015481600b0155600c82015481600c0155600d82015481600d0155600e82015481600e0155505091600f019190600f0190613cac565b5b509050613e459190613fdc565b5090565b604051806040016040528060008152602001606081525090565b828054613e6f90615179565b90600052602060002090601f016020900481019282613e915760008555613ed8565b82601f10613eaa57805160ff1916838001178555613ed8565b82800160010185558215613ed8579182015b82811115613ed7578251825591602001919060010190613ebc565b5b509050613ee591906140b8565b5090565b6040518060a00160405280600073ffffffffffffffffffffffffffffffffffffffff168152602001600081526020016000815260200160008152602001600081525090565b60405180606001604052806000815260200160008152602001606081525090565b828054613f5b90615179565b90600052602060002090601f016020900481019282613f7d5760008555613fcb565b82601f10613f8e5780548555613fcb565b82800160010185558215613fcb57600052602060002091601f016020900482015b82811115613fca578254825591600101919060010190613faf565b5b509050613fd891906140b8565b5090565b5b808211156140b457600080820160006101000a81549073ffffffffffffffffffffffffffffffffffffffff0219169055600182016000905560028201600080820160006101000a81549073ffffffffffffffffffffffffffffffffffffffff021916905560018201600061405191906140d5565b60028201600090556003820160009055600482016000905560058201600090556006820160009055600782016000905560088201600090555050600b820160009055600c820160009055600d820160009055600e82016000905550600f01613fdd565b5090565b5b808211156140d15760008160009055506001016140b9565b5090565b5080546140e190615179565b6000825580601f106140f35750614112565b601f01602090049060005260206000209081019061411191906140b8565b5b50565b6000604051905090565b600080fd5b600080fd5b60007fffffffff0000000000000000000000000000000000000000000000000000000082169050919050565b61415e81614129565b811461416957600080fd5b50565b60008135905061417b81614155565b92915050565b6000602082840312156141975761419661411f565b5b60006141a58482850161416c565b91505092915050565b60008115159050919050565b6141c3816141ae565b82525050565b60006020820190506141de60008301846141ba565b92915050565b600081519050919050565b600082825260208201905092915050565b60005b8381101561421e578082015181840152602081019050614203565b8381111561422d576000848401525b50505050565b6000601f19601f8301169050919050565b600061424f826141e4565b61425981856141ef565b9350614269818560208601614200565b61427281614233565b840191505092915050565b600060208201905081810360008301526142978184614244565b905092915050565b6000819050919050565b6142b28161429f565b81146142bd57600080fd5b50565b6000813590506142cf816142a9565b92915050565b6000602082840312156142eb576142ea61411f565b5b60006142f9848285016142c0565b91505092915050565b600073ffffffffffffffffffffffffffffffffffffffff82169050919050565b600061432d82614302565b9050919050565b61433d81614322565b82525050565b60006020820190506143586000830184614334565b92915050565b61436781614322565b811461437257600080fd5b50565b6000813590506143848161435e565b92915050565b600080604083850312156143a1576143a061411f565b5b60006143af85828601614375565b92505060206143c0858286016142c0565b9150509250929050565b6000819050919050565b6143dd816143ca565b82525050565b6143ec8161429f565b82525050565b600081519050919050565b600082825260208201905092915050565b6000819050602082019050919050565b600081519050919050565b600082825260208201905092915050565b6000819050602082019050919050565b600061445582614302565b9050919050565b6144658161444a565b82525050565b60a082016000820151614481600085018261445c565b50602082015161449460208501826143e3565b5060408201516144a760408501826143e3565b5060608201516144ba60608501826143e3565b5060808201516144cd60808501826143e3565b50505050565b60006144df838361446b565b60a08301905092915050565b6000602082019050919050565b60006145038261441e565b61450d8185614429565b93506145188361443a565b8060005b8381101561454957815161453088826144d3565b975061453b836144eb565b92505060018101905061451c565b5085935050505092915050565b600060608301600083015161456e60008601826143e3565b50602083015161458160208601826143e3565b506040830151848203604086015261459982826144f8565b9150508091505092915050565b60006145b28383614556565b905092915050565b6000602082019050919050565b60006145d2826143f2565b6145dc81856143fd565b9350836020820285016145ee8561440e565b8060005b8581101561462a578484038952815161460b85826145a6565b9450614616836145ba565b925060208a019950506001810190506145f2565b50829750879550505050505092915050565b600081519050919050565b600082825260208201905092915050565b6000819050602082019050919050565b600081519050919050565b600082825260208201905092915050565b6000819050602082019050919050565b6000819050919050565b6146a781614694565b82525050565b600082825260208201905092915050565b60006146c9826141e4565b6146d381856146ad565b93506146e3818560208601614200565b6146ec81614233565b840191505092915050565b600061012083016000830151614710600086018261445c565b506020830151848203602086015261472882826146be565b915050604083015161473d60408601826143e3565b50606083015161475060608601826143e3565b50608083015161476360808601826143e3565b5060a083015161477660a08601826143e3565b5060c083015161478960c08601826143e3565b5060e083015161479c60e08601826143e3565b506101008301516147b16101008601826143e3565b508091505092915050565b600060e0830160008301516147d4600086018261445c565b5060208301516147e7602086018261469e565b50604083015184820360408601526147ff82826146f7565b915050606083015161481460608601826143e3565b50608083015161482760808601826143e3565b5060a083015161483a60a08601826143e3565b5060c083015161484d60c08601826143e3565b508091505092915050565b600061486483836147bc565b905092915050565b6000602082019050919050565b600061488482614668565b61488e8185614673565b9350836020820285016148a085614684565b8060005b858110156148dc57848403895281516148bd8582614858565b94506148c88361486c565b925060208a019950506001810190506148a4565b50829750879550505050505092915050565b600060408301600083015161490660008601826143e3565b506020830151848203602086015261491e8282614879565b9150508091505092915050565b600061493783836148ee565b905092915050565b6000602082019050919050565b60006149578261463c565b6149618185614647565b93508360208202850161497385614658565b8060005b858110156149af5784840389528151614990858261492b565b945061499b8361493f565b925060208a01995050600181019050614977565b50829750879550505050505092915050565b600060a0830160008301516149d960008601826143d4565b5060208301516149ec60208601826143e3565b5060408301516149ff60408601826143e3565b5060608301518482036060860152614a1782826145c7565b91505060808301518482036080860152614a31828261494c565b9150508091505092915050565b60006020820190508181036000830152614a5881846149c1565b905092915050565b600061012083016000830151614a79600086018261445c565b5060208301518482036020860152614a9182826146be565b9150506040830151614aa660408601826143e3565b506060830151614ab960608601826143e3565b506080830151614acc60808601826143e3565b5060a0830151614adf60a08601826143e3565b5060c0830151614af260c08601826143e3565b5060e0830151614b0560e08601826143e3565b50610100830151614b1a6101008601826143e3565b508091505092915050565b60006020820190508181036000830152614b3f8184614a60565b905092915050565b600080600060608486031215614b6057614b5f61411f565b5b6000614b6e86828701614375565b9350506020614b7f86828701614375565b9250506040614b90868287016142c0565b9150509250925092565b600080fd5b600080fd5b600080fd5b60008083601f840112614bbf57614bbe614b9a565b5b8235905067ffffffffffffffff811115614bdc57614bdb614b9f565b5b602083019150836001820283011115614bf857614bf7614ba4565b5b9250929050565b60008060208385031215614c1657614c1561411f565b5b600083013567ffffffffffffffff811115614c3457614c33614124565b5b614c4085828601614ba9565b92509250509250929050565b600060208284031215614c6257614c6161411f565b5b6000614c7084828501614375565b91505092915050565b600081519050919050565b600082825260208201905092915050565b6000614ca082614c79565b614caa8185614c84565b9350614cba818560208601614200565b614cc381614233565b840191505092915050565b6000604082019050614ce360008301856141ba565b8181036020830152614cf58184614c95565b90509392505050565b614d078161429f565b82525050565b6000602082019050614d226000830184614cfe565b92915050565b6000604083016000830151614d4060008601826143e3565b5060208301518482036020860152614d588282614879565b9150508091505092915050565b60006020820190508181036000830152614d7f8184614d28565b905092915050565b614d90816141ae565b8114614d9b57600080fd5b50565b600081359050614dad81614d87565b92915050565b60008060408385031215614dca57614dc961411f565b5b6000614dd885828601614375565b9250506020614de985828601614d9e565b9150509250929050565b600080fd5b7f4e487b7100000000000000000000000000000000000000000000000000000000600052604160045260246000fd5b614e3082614233565b810181811067ffffffffffffffff82111715614e4f57614e4e614df8565b5b80604052505050565b6000614e62614115565b9050614e6e8282614e27565b919050565b600067ffffffffffffffff821115614e8e57614e8d614df8565b5b614e9782614233565b9050602081019050919050565b82818337600083830152505050565b6000614ec6614ec184614e73565b614e58565b905082815260208101848484011115614ee257614ee1614df3565b5b614eed848285614ea4565b509392505050565b600082601f830112614f0a57614f09614b9a565b5b8135614f1a848260208601614eb3565b91505092915050565b60008060008060808587031215614f3d57614f3c61411f565b5b6000614f4b87828801614375565b9450506020614f5c87828801614375565b9350506040614f6d878288016142c0565b925050606085013567ffffffffffffffff811115614f8e57614f8d614124565b5b614f9a87828801614ef5565b91505092959194509250565b60008060408385031215614fbd57614fbc61411f565b5b6000614fcb85828601614375565b9250506020614fdc85828601614375565b9150509250929050565b60008060408385031215614ffd57614ffc61411f565b5b600061500b858286016142c0565b925050602061501c858286016142c0565b9150509250929050565b600067ffffffffffffffff82111561504157615040614df8565b5b61504a82614233565b9050602081019050919050565b600061506a61506584615026565b614e58565b90508281526020810184848401111561508657615085614df3565b5b615091848285614ea4565b509392505050565b600082601f8301126150ae576150ad614b9a565b5b81356150be848260208601615057565b91505092915050565b600080600080608085870312156150e1576150e061411f565b5b600085013567ffffffffffffffff8111156150ff576150fe614124565b5b61510b87828801615099565b945050602061511c878288016142c0565b935050604061512d878288016142c0565b925050606061513e878288016142c0565b91505092959194509250565b7f4e487b7100000000000000000000000000000000000000000000000000000000600052602260045260246000fd5b6000600282049050600182168061519157607f821691505b602082108114156151a5576151a461514a565b5b50919050565b7f4552433732313a20617070726f76616c20746f2063757272656e74206f776e6560008201527f7200000000000000000000000000000000000000000000000000000000000000602082015250565b60006152076021836141ef565b9150615212826151ab565b604082019050919050565b60006020820190508181036000830152615236816151fa565b9050919050565b7f4552433732313a20617070726f76652063616c6c6572206973206e6f7420746f60008201527f6b656e206f776e6572206e6f7220617070726f76656420666f7220616c6c0000602082015250565b6000615299603e836141ef565b91506152a48261523d565b604082019050919050565b600060208201905081810360008301526152c88161528c565b9050919050565b7f4552433732313a2063616c6c6572206973206e6f7420746f6b656e206f776e6560008201527f72206e6f7220617070726f766564000000000000000000000000000000000000602082015250565b600061532b602e836141ef565b9150615336826152cf565b604082019050919050565b6000602082019050818103600083015261535a8161531e565b9050919050565b7f4e487b7100000000000000000000000000000000000000000000000000000000600052601160045260246000fd5b600061539b8261429f565b91506153a68361429f565b9250827fffffffffffffffffffffffffffffffffffffffffffffffffffffffffffffffff038211156153db576153da615361565b5b828201905092915050565b60006153f1826143ca565b91506153fc836143ca565b9250827f80000000000000000000000000000000000000000000000000000000000000000182126000841215161561543757615436615361565b5b827f7fffffffffffffffffffffffffffffffffffffffffffffffffffffffffffffff01821360008412161561546f5761546e615361565b5b828203905092915050565b6000615485826143ca565b91507f80000000000000000000000000000000000000000000000000000000000000008214156154b8576154b7615361565b5b816000039050919050565b60006154ce826143ca565b91506154d9836143ca565b9250817f7fffffffffffffffffffffffffffffffffffffffffffffffffffffffffffffff0383136000831215161561551457615513615361565b5b817f800000000000000000000000000000000000000000000000000000000000000003831260008312161561554c5761554b615361565b5b828201905092915050565b60006155628261429f565b915061556d8361429f565b9250828210156155805761557f615361565b5b828203905092915050565b7f4552433732313a20696e76616c696420746f6b656e2049440000000000000000600082015250565b60006155c16018836141ef565b91506155cc8261558b565b602082019050919050565b600060208201905081810360008301526155f0816155b4565b9050919050565b7f4552433732313a2061646472657373207a65726f206973206e6f74206120766160008201527f6c6964206f776e65720000000000000000000000000000000000000000000000602082015250565b60006156536029836141ef565b915061565e826155f7565b604082019050919050565b6000602082019050818103600083015261568281615646565b9050919050565b600081905092915050565b600061569f826141e4565b6156a98185615689565b93506156b9818560208601614200565b80840191505092915050565b60006156d18285615694565b91506156dd8284615694565b91508190509392505050565b7f596f7520646f6e2774206f776e20746869732070656e73696f6e000000000000600082015250565b600061571f601a836141ef565b915061572a826156e9565b602082019050919050565b6000602082019050818103600083015261574e81615712565b9050919050565b7f54686520616d6f756e7420646f65736e277420726561636820746865206d696e60008201527f696d756d20726571756972656400000000000000000000000000000000000000602082015250565b60006157b1602d836141ef565b91506157bc82615755565b604082019050919050565b600060208201905081810360008301526157e0816157a4565b9050919050565b60006157f28261429f565b91506157fd8361429f565b9250817fffffffffffffffffffffffffffffffffffffffffffffffffffffffffffffffff048311821515161561583657615835615361565b5b828202905092915050565b7f4e487b7100000000000000000000000000000000000000000000000000000000600052601260045260246000fd5b600061587b8261429f565b91506158868361429f565b92508261589657615895615841565b5b828204905092915050565b6000819050919050565b60006158c66158c16158bc84614302565b6158a1565b614302565b9050919050565b60006158d8826158ab565b9050919050565b60006158ea826158cd565b9050919050565b6158fa816158df565b82525050565b600060608201905061591560008301866158f1565b6159226020830185614cfe565b61592f6040830184614cfe565b949350505050565b7f416c72656164792067656e657261746564206869732070656e73696f6e000000600082015250565b600061596d601d836141ef565b915061597882615937565b602082019050919050565b6000602082019050818103600083015261599c81615960565b9050919050565b7f596f75206d757374206265203138207965617273206f72206f6c64657220746f60008201527f2067656e657261746520612070656e73696f6e00000000000000000000000000602082015250565b60006159ff6033836141ef565b9150615a0a826159a3565b604082019050919050565b60006020820190508181036000830152615a2e816159f2565b9050919050565b7f4552433732313a207472616e736665722066726f6d20696e636f72726563742060008201527f6f776e6572000000000000000000000000000000000000000000000000000000602082015250565b6000615a916025836141ef565b9150615a9c82615a35565b604082019050919050565b60006020820190508181036000830152615ac081615a84565b9050919050565b7f4552433732313a207472616e7366657220746f20746865207a65726f2061646460008201527f7265737300000000000000000000000000000000000000000000000000000000602082015250565b6000615b236024836141ef565b9150615b2e82615ac7565b604082019050919050565b60006020820190508181036000830152615b5281615b16565b9050919050565b7f4e487b7100000000000000000000000000000000000000000000000000000000600052603260045260246000fd5b6000615b938261429f565b91507fffffffffffffffffffffffffffffffffffffffffffffffffffffffffffffffff821415615bc657615bc5615361565b5b600182019050919050565b7f4552433732313a20617070726f766520746f2063616c6c657200000000000000600082015250565b6000615c076019836141ef565b9150615c1282615bd1565b602082019050919050565b60006020820190508181036000830152615c3681615bfa565b9050919050565b7f4552433732313a207472616e7366657220746f206e6f6e20455243373231526560008201527f63656976657220696d706c656d656e7465720000000000000000000000000000602082015250565b6000615c996032836141ef565b9150615ca482615c3d565b604082019050919050565b60006020820190508181036000830152615cc881615c8c565b9050919050565b6000615cda8261429f565b9150615ce58361429f565b925082615cf557615cf4615841565b5b828206905092915050565b6000819050919050565b615d1b615d168261429f565b615d00565b82525050565b6000615d2d8284615d0a565b60208201915081905092915050565b6000608082019050615d516000830187614334565b615d5e6020830186614334565b615d6b6040830185614cfe565b8181036060830152615d7d8184614c95565b905095945050505050565b600081519050615d9781614155565b92915050565b600060208284031215615db357615db261411f565b5b6000615dc184828501615d88565b91505092915050565b7f4552433732313a206d696e7420746f20746865207a65726f2061646472657373600082015250565b6000615e006020836141ef565b9150615e0b82615dca565b602082019050919050565b60006020820190508181036000830152615e2f81615df3565b9050919050565b7f4552433732313a20746f6b656e20616c7265616479206d696e74656400000000600082015250565b6000615e6c601c836141ef565b9150615e7782615e36565b602082019050919050565b60006020820190508181036000830152615e9b81615e5f565b9050919050565b6000615eae8284615694565b91508190509291505056fea26469706673582212204d811a79e5e708f2bd3b7cc2484c352bafe5c0ccbaf8d9856fc652cb49bafbf564736f6c63430008090033",
  "linkReferences": {},
  "deployedLinkReferences": {}
}