{
  "_format": "hh-sol-artifact-1",
  "contractName": "Pension",
  "sourceName": "src/blockchain/hardhat/contracts/Pension.sol",
  "abi": [
    {
      "inputs": [],
      "stateMutability": "nonpayable",
      "type": "constructor"
    },
    {
      "anonymous": false,
      "inputs": [
        {
          "indexed": true,
          "internalType": "address",
          "name": "owner",
          "type": "address"
        },
        {
          "indexed": true,
          "internalType": "address",
          "name": "approved",
          "type": "address"
        },
        {
          "indexed": true,
          "internalType": "uint256",
          "name": "tokenId",
          "type": "uint256"
        }
      ],
      "name": "Approval",
      "type": "event"
    },
    {
      "anonymous": false,
      "inputs": [
        {
          "indexed": true,
          "internalType": "address",
          "name": "owner",
          "type": "address"
        },
        {
          "indexed": true,
          "internalType": "address",
          "name": "operator",
          "type": "address"
        },
        {
          "indexed": false,
          "internalType": "bool",
          "name": "approved",
          "type": "bool"
        }
      ],
      "name": "ApprovalForAll",
      "type": "event"
    },
    {
      "anonymous": false,
      "inputs": [
        {
          "indexed": true,
          "internalType": "address",
          "name": "from",
          "type": "address"
        },
        {
          "indexed": true,
          "internalType": "address",
          "name": "to",
          "type": "address"
        },
        {
          "indexed": true,
          "internalType": "uint256",
          "name": "tokenId",
          "type": "uint256"
        }
      ],
      "name": "Transfer",
      "type": "event"
    },
    {
      "anonymous": false,
      "inputs": [
        {
          "indexed": false,
          "internalType": "address",
          "name": "contributorAddress",
          "type": "address"
        },
        {
          "indexed": false,
          "internalType": "uint256",
          "name": "contributorAmount",
          "type": "uint256"
        },
        {
          "indexed": false,
          "internalType": "uint256",
          "name": "timeDeposit",
          "type": "uint256"
        }
      ],
      "name": "depositContributor",
      "type": "event"
    },
    {
      "inputs": [
        {
          "internalType": "address",
          "name": "to",
          "type": "address"
        },
        {
          "internalType": "uint256",
          "name": "tokenId",
          "type": "uint256"
        }
      ],
      "name": "approve",
      "outputs": [],
      "stateMutability": "nonpayable",
      "type": "function"
    },
    {
      "inputs": [
        {
          "internalType": "address",
          "name": "owner",
          "type": "address"
        }
      ],
      "name": "balanceOf",
      "outputs": [
        {
          "internalType": "uint256",
          "name": "",
          "type": "uint256"
        }
      ],
      "stateMutability": "view",
      "type": "function"
    },
    {
      "inputs": [
        {
          "internalType": "bytes",
          "name": "",
          "type": "bytes"
        }
      ],
      "name": "checkUpkeep",
      "outputs": [
        {
          "internalType": "bool",
          "name": "upkeepNeeded",
          "type": "bool"
        },
        {
          "internalType": "bytes",
          "name": "",
          "type": "bytes"
        }
      ],
      "stateMutability": "view",
      "type": "function"
    },
    {
      "inputs": [],
      "name": "cutoffDate",
      "outputs": [
        {
          "internalType": "uint256",
          "name": "",
          "type": "uint256"
        }
      ],
      "stateMutability": "view",
      "type": "function"
    },
    {
      "inputs": [
        {
          "internalType": "uint256",
          "name": "_pensionId",
          "type": "uint256"
        },
        {
          "internalType": "uint256",
          "name": "_amount",
          "type": "uint256"
        }
      ],
      "name": "depositAmount",
      "outputs": [],
      "stateMutability": "payable",
      "type": "function"
    },
    {
      "inputs": [
        {
          "internalType": "uint256",
          "name": "tokenId",
          "type": "uint256"
        }
      ],
      "name": "getApproved",
      "outputs": [
        {
          "internalType": "address",
          "name": "",
          "type": "address"
        }
      ],
      "stateMutability": "view",
      "type": "function"
    },
    {
      "inputs": [],
      "name": "getGeneralRecord",
      "outputs": [
        {
          "components": [
            {
              "internalType": "int256",
              "name": "solvent",
              "type": "int256"
            },
            {
              "internalType": "uint256",
              "name": "totalAmount",
              "type": "uint256"
            },
            {
              "internalType": "uint256",
              "name": "totalToPay",
              "type": "uint256"
            },
            {
              "components": [
                {
                  "internalType": "uint256",
                  "name": "totalAmount",
                  "type": "uint256"
                },
                {
                  "internalType": "uint256",
                  "name": "totalToPay",
                  "type": "uint256"
                },
                {
                  "components": [
                    {
                      "internalType": "address payable",
                      "name": "owner",
                      "type": "address"
                    },
                    {
                      "internalType": "uint256",
                      "name": "monthlyQuote",
                      "type": "uint256"
                    },
                    {
                      "internalType": "uint256",
                      "name": "quantityQuotes",
                      "type": "uint256"
                    },
                    {
                      "internalType": "uint256",
                      "name": "totalPaidQuotes",
                      "type": "uint256"
                    },
                    {
                      "internalType": "uint256",
                      "name": "totalPensionValue",
                      "type": "uint256"
                    }
                  ],
                  "internalType": "struct Pension.RetairedQuote[]",
                  "name": "retairedQuotes",
                  "type": "tuple[]"
                }
              ],
              "internalType": "struct Pension.RetairedRecord[]",
              "name": "retairedRecords",
              "type": "tuple[]"
            },
            {
              "components": [
                {
                  "internalType": "uint256",
                  "name": "totalAmount",
                  "type": "uint256"
                },
                {
                  "components": [
                    {
                      "internalType": "address payable",
                      "name": "owner",
                      "type": "address"
                    },
                    {
                      "internalType": "bytes32",
                      "name": "id",
                      "type": "bytes32"
                    },
                    {
                      "components": [
                        {
                          "internalType": "address payable",
                          "name": "owner",
                          "type": "address"
                        },
                        {
                          "internalType": "string",
                          "name": "biologySex",
                          "type": "string"
                        },
                        {
                          "internalType": "uint256",
                          "name": "age",
                          "type": "uint256"
                        },
                        {
                          "internalType": "uint256",
                          "name": "bornAge",
                          "type": "uint256"
                        },
                        {
                          "internalType": "uint256",
                          "name": "retirentmentDate",
                          "type": "uint256"
                        },
                        {
                          "internalType": "uint256",
                          "name": "pensionCreatedTime",
                          "type": "uint256"
                        },
                        {
                          "internalType": "uint256",
                          "name": "pensionId",
                          "type": "uint256"
                        },
                        {
                          "internalType": "uint256",
                          "name": "totalSavings",
                          "type": "uint256"
                        },
                        {
                          "internalType": "uint256",
                          "name": "totalSolidary",
                          "type": "uint256"
                        }
                      ],
                      "internalType": "struct Pension.DataPension",
                      "name": "dataPension",
                      "type": "tuple"
                    },
                    {
                      "internalType": "uint256",
                      "name": "contributionDate",
                      "type": "uint256"
                    },
                    {
                      "internalType": "uint256",
                      "name": "savingAmount",
                      "type": "uint256"
                    },
                    {
                      "internalType": "uint256",
                      "name": "solidaryAmount",
                      "type": "uint256"
                    },
                    {
                      "internalType": "uint256",
                      "name": "totalAmount",
                      "type": "uint256"
                    }
                  ],
                  "internalType": "struct Pension.MonthlyQuote[]",
                  "name": "monthlyQuotes",
                  "type": "tuple[]"
                }
              ],
              "internalType": "struct Pension.MonthlyRecord[]",
              "name": "monthlyRecords",
              "type": "tuple[]"
            }
          ],
          "internalType": "struct Pension.GeneralRecord",
          "name": "",
          "type": "tuple"
        }
      ],
      "stateMutability": "view",
      "type": "function"
    },
    {
      "inputs": [
        {
          "internalType": "uint256",
          "name": "_cutoffDate",
          "type": "uint256"
        }
      ],
      "name": "getMonthlyBalanceFromMonthlyGeneralBalance",
      "outputs": [
        {
          "components": [
            {
              "internalType": "uint256",
              "name": "totalAmount",
              "type": "uint256"
            },
            {
              "components": [
                {
                  "internalType": "address payable",
                  "name": "owner",
                  "type": "address"
                },
                {
                  "internalType": "bytes32",
                  "name": "id",
                  "type": "bytes32"
                },
                {
                  "components": [
                    {
                      "internalType": "address payable",
                      "name": "owner",
                      "type": "address"
                    },
                    {
                      "internalType": "string",
                      "name": "biologySex",
                      "type": "string"
                    },
                    {
                      "internalType": "uint256",
                      "name": "age",
                      "type": "uint256"
                    },
                    {
                      "internalType": "uint256",
                      "name": "bornAge",
                      "type": "uint256"
                    },
                    {
                      "internalType": "uint256",
                      "name": "retirentmentDate",
                      "type": "uint256"
                    },
                    {
                      "internalType": "uint256",
                      "name": "pensionCreatedTime",
                      "type": "uint256"
                    },
                    {
                      "internalType": "uint256",
                      "name": "pensionId",
                      "type": "uint256"
                    },
                    {
                      "internalType": "uint256",
                      "name": "totalSavings",
                      "type": "uint256"
                    },
                    {
                      "internalType": "uint256",
                      "name": "totalSolidary",
                      "type": "uint256"
                    }
                  ],
                  "internalType": "struct Pension.DataPension",
                  "name": "dataPension",
                  "type": "tuple"
                },
                {
                  "internalType": "uint256",
                  "name": "contributionDate",
                  "type": "uint256"
                },
                {
                  "internalType": "uint256",
                  "name": "savingAmount",
                  "type": "uint256"
                },
                {
                  "internalType": "uint256",
                  "name": "solidaryAmount",
                  "type": "uint256"
                },
                {
                  "internalType": "uint256",
                  "name": "totalAmount",
                  "type": "uint256"
                }
              ],
              "internalType": "struct Pension.MonthlyQuote[]",
              "name": "monthlyQuotes",
              "type": "tuple[]"
            }
          ],
          "internalType": "struct Pension.MonthlyRecord",
          "name": "",
          "type": "tuple"
        }
      ],
      "stateMutability": "view",
      "type": "function"
    },
    {
      "inputs": [
        {
          "internalType": "address",
          "name": "owner",
          "type": "address"
        },
        {
          "internalType": "address",
          "name": "operator",
          "type": "address"
        }
      ],
      "name": "isApprovedForAll",
      "outputs": [
        {
          "internalType": "bool",
          "name": "",
          "type": "bool"
        }
      ],
      "stateMutability": "view",
      "type": "function"
    },
    {
      "inputs": [],
      "name": "name",
      "outputs": [
        {
          "internalType": "string",
          "name": "",
          "type": "string"
        }
      ],
      "stateMutability": "view",
      "type": "function"
    },
    {
      "inputs": [
        {
          "internalType": "uint256",
          "name": "tokenId",
          "type": "uint256"
        }
      ],
      "name": "ownerOf",
      "outputs": [
        {
          "internalType": "address",
          "name": "",
          "type": "address"
        }
      ],
      "stateMutability": "view",
      "type": "function"
    },
    {
      "inputs": [],
      "name": "pensionIdCounter",
      "outputs": [
        {
          "internalType": "uint256",
          "name": "_value",
          "type": "uint256"
        }
      ],
      "stateMutability": "view",
      "type": "function"
    },
    {
      "inputs": [
        {
          "internalType": "bytes",
          "name": "",
          "type": "bytes"
        }
      ],
      "name": "performUpkeep",
      "outputs": [],
      "stateMutability": "nonpayable",
      "type": "function"
    },
    {
      "inputs": [
        {
          "internalType": "string",
          "name": "_biologySex",
          "type": "string"
        },
        {
          "internalType": "uint256",
          "name": "_age",
          "type": "uint256"
        },
        {
          "internalType": "uint256",
          "name": "_bornAge",
          "type": "uint256"
        },
        {
          "internalType": "uint256",
          "name": "_firstQuote",
          "type": "uint256"
        }
      ],
      "name": "safeMint",
      "outputs": [],
      "stateMutability": "payable",
      "type": "function"
    },
    {
      "inputs": [
        {
          "internalType": "address",
          "name": "from",
          "type": "address"
        },
        {
          "internalType": "address",
          "name": "to",
          "type": "address"
        },
        {
          "internalType": "uint256",
          "name": "tokenId",
          "type": "uint256"
        }
      ],
      "name": "safeTransferFrom",
      "outputs": [],
      "stateMutability": "nonpayable",
      "type": "function"
    },
    {
      "inputs": [
        {
          "internalType": "address",
          "name": "from",
          "type": "address"
        },
        {
          "internalType": "address",
          "name": "to",
          "type": "address"
        },
        {
          "internalType": "uint256",
          "name": "tokenId",
          "type": "uint256"
        },
        {
          "internalType": "bytes",
          "name": "data",
          "type": "bytes"
        }
      ],
      "name": "safeTransferFrom",
      "outputs": [],
      "stateMutability": "nonpayable",
      "type": "function"
    },
    {
      "inputs": [
        {
          "internalType": "address",
          "name": "operator",
          "type": "address"
        },
        {
          "internalType": "bool",
          "name": "approved",
          "type": "bool"
        }
      ],
      "name": "setApprovalForAll",
      "outputs": [],
      "stateMutability": "nonpayable",
      "type": "function"
    },
    {
      "inputs": [
        {
          "internalType": "bytes4",
          "name": "interfaceId",
          "type": "bytes4"
        }
      ],
      "name": "supportsInterface",
      "outputs": [
        {
          "internalType": "bool",
          "name": "",
          "type": "bool"
        }
      ],
      "stateMutability": "view",
      "type": "function"
    },
    {
      "inputs": [],
      "name": "symbol",
      "outputs": [
        {
          "internalType": "string",
          "name": "",
          "type": "string"
        }
      ],
      "stateMutability": "view",
      "type": "function"
    },
    {
      "inputs": [
        {
          "internalType": "uint256",
          "name": "tokenId",
          "type": "uint256"
        }
      ],
      "name": "tokenURI",
      "outputs": [
        {
          "internalType": "string",
          "name": "",
          "type": "string"
        }
      ],
      "stateMutability": "view",
      "type": "function"
    },
    {
      "inputs": [],
      "name": "totalAsserts",
      "outputs": [
        {
          "internalType": "uint256",
          "name": "",
          "type": "uint256"
        }
      ],
      "stateMutability": "view",
      "type": "function"
    },
    {
      "inputs": [
        {
          "internalType": "address",
          "name": "from",
          "type": "address"
        },
        {
          "internalType": "address",
          "name": "to",
          "type": "address"
        },
        {
          "internalType": "uint256",
          "name": "tokenId",
          "type": "uint256"
        }
      ],
      "name": "transferFrom",
      "outputs": [],
      "stateMutability": "nonpayable",
      "type": "function"
    },
    {
      "inputs": [
        {
          "internalType": "address",
          "name": "_owner",
          "type": "address"
        }
      ],
      "name": "verifyIfTheContributorAlreadyMinted",
      "outputs": [
        {
          "internalType": "bool",
          "name": "",
          "type": "bool"
        }
      ],
      "stateMutability": "view",
      "type": "function"
    }
  ],
  "bytecode": "0x60806040523480156200001157600080fd5b506040518060400160405280600781526020017f50656e73696f6e000000000000000000000000000000000000000000000000008152506040518060400160405280600381526020017f504e5300000000000000000000000000000000000000000000000000000000008152508160009080519060200190620000969291906200019b565b508060019080519060200190620000af9291906200019b565b505050426019819055506000600e600181600181540180825580915050039060005260206000209060020201905080601760006019548152602001908152602001600020600082015481600001556001820181600101908054620001159291906200022c565b509050506000600c6001816001815401808255809150500390600052602060002090600502019050806007600082015481600001556001820154816001015560028201548160020155600382018160030190805462000176929190620003fd565b5060048201816004019080546200018f92919062000487565b5090505050506200094f565b828054620001a99062000919565b90600052602060002090601f016020900481019282620001cd576000855562000219565b82601f10620001e857805160ff191683800117855562000219565b8280016001018555821562000219579182015b8281111562000218578251825591602001919060010190620001fb565b5b50905062000228919062000507565b5090565b82805482825590600052602060002090600f028101928215620003ea57600052602060002091600f0282015b82811115620003e95782826000820160009054906101000a900473ffffffffffffffffffffffffffffffffffffffff168160000160006101000a81548173ffffffffffffffffffffffffffffffffffffffff021916908373ffffffffffffffffffffffffffffffffffffffff1602179055506001820154816001015560028201816002016000820160009054906101000a900473ffffffffffffffffffffffffffffffffffffffff168160000160006101000a81548173ffffffffffffffffffffffffffffffffffffffff021916908373ffffffffffffffffffffffffffffffffffffffff1602179055506001820181600101908054620003599062000919565b6200036692919062000526565b50600282015481600201556003820154816003015560048201548160040155600582015481600501556006820154816006015560078201548160070155600882015481600801555050600b82015481600b0155600c82015481600c0155600d82015481600d0155600e82015481600e0155505091600f019190600f019062000258565b5b509050620003f99190620005be565b5090565b828054828255906000526020600020906003028101928215620004745760005260206000209160030282015b828111156200047357828260008201548160000155600182015481600101556002820181600201908054620004609291906200069e565b5050509160030191906003019062000429565b5b5090506200048391906200078a565b5090565b828054828255906000526020600020906002028101928215620004f45760005260206000209160020282015b82811115620004f3578282600082015481600001556001820181600101908054620004e09291906200022c565b50505091600201919060020190620004b3565b5b509050620005039190620007c5565b5090565b5b808211156200052257600081600090555060010162000508565b5090565b828054620005349062000919565b90600052602060002090601f016020900481019282620005585760008555620005ab565b82601f106200056b5780548555620005ab565b82800160010185558215620005ab57600052602060002091601f016020900482015b82811115620005aa5782548255916001019190600101906200058d565b5b509050620005ba919062000507565b5090565b5b808211156200069a57600080820160006101000a81549073ffffffffffffffffffffffffffffffffffffffff0219169055600182016000905560028201600080820160006101000a81549073ffffffffffffffffffffffffffffffffffffffff0219169055600182016000620006369190620007f8565b60028201600090556003820160009055600482016000905560058201600090556006820160009055600782016000905560088201600090555050600b820160009055600c820160009055600d820160009055600e82016000905550600f01620005bf565b5090565b828054828255906000526020600020906005028101928215620007775760005260206000209160050282015b82811115620007765782826000820160009054906101000a900473ffffffffffffffffffffffffffffffffffffffff168160000160006101000a81548173ffffffffffffffffffffffffffffffffffffffff021916908373ffffffffffffffffffffffffffffffffffffffff16021790555060018201548160010155600282015481600201556003820154816003015560048201548160040155505091600501919060050190620006ca565b5b5090506200078691906200083e565b5090565b5b80821115620007c1576000808201600090556001820160009055600282016000620007b791906200089e565b506003016200078b565b5090565b5b80821115620007f457600080820160009055600182016000620007ea9190620008c4565b50600201620007c6565b5090565b508054620008069062000919565b6000825580601f106200081a57506200083b565b601f0160209004906000526020600020908101906200083a919062000507565b5b50565b5b808211156200089a57600080820160006101000a81549073ffffffffffffffffffffffffffffffffffffffff02191690556001820160009055600282016000905560038201600090556004820160009055506005016200083f565b5090565b5080546000825560050290600052602060002090810190620008c191906200083e565b50565b50805460008255600f0290600052602060002090810190620008e79190620005be565b50565b7f4e487b7100000000000000000000000000000000000000000000000000000000600052602260045260246000fd5b600060028204905060018216806200093257607f821691505b60208210811415620009495762000948620008ea565b5b50919050565b615b5f806200095f6000396000f3fe6080604052600436106101405760003560e01c806370a08231116100b6578063ca00ed2b1161006f578063ca00ed2b146104a5578063e5c65d30146104d0578063e985e9c5146104fb578063ec9b9a6f14610538578063ed75937514610554578063fb293d4d1461057057610140565b806370a082311461037157806395d89b41146103ae5780639e13349d146103d9578063a22cb46514610416578063b88d4fde1461043f578063c87b56dd1461046857610140565b806323b872dd1161010857806323b872dd1461023e57806342842e0e146102675780634585e33b146102905780635b06291c146102b95780636352211e146102f65780636e04ff0d1461033357610140565b806301ffc9a71461014557806306fdde0314610182578063081812fc146101ad578063095ea7b3146101ea57806314e8565a14610213575b600080fd5b34801561015157600080fd5b5061016c60048036038101906101679190613ed8565b61059b565b6040516101799190613f20565b60405180910390f35b34801561018e57600080fd5b5061019761067d565b6040516101a49190613fd4565b60405180910390f35b3480156101b957600080fd5b506101d460048036038101906101cf919061402c565b61070f565b6040516101e1919061409a565b60405180910390f35b3480156101f657600080fd5b50610211600480360381019061020c91906140e1565b610755565b005b34801561021f57600080fd5b5061022861086d565b6040516102359190614795565b60405180910390f35b34801561024a57600080fd5b50610265600480360381019061026091906147b7565b610c88565b005b34801561027357600080fd5b5061028e600480360381019061028991906147b7565b610ce8565b005b34801561029c57600080fd5b506102b760048036038101906102b2919061486f565b610d08565b005b3480156102c557600080fd5b506102e060048036038101906102db91906148bc565b610d2d565b6040516102ed9190613f20565b60405180910390f35b34801561030257600080fd5b5061031d6004803603810190610318919061402c565b610d94565b60405161032a919061409a565b60405180910390f35b34801561033f57600080fd5b5061035a6004803603810190610355919061486f565b610e46565b60405161036892919061493e565b60405180910390f35b34801561037d57600080fd5b50610398600480360381019061039391906148bc565b610e73565b6040516103a5919061497d565b60405180910390f35b3480156103ba57600080fd5b506103c3610f2b565b6040516103d09190613fd4565b60405180910390f35b3480156103e557600080fd5b5061040060048036038101906103fb919061402c565b610fbd565b60405161040d91906149d5565b60405180910390f35b34801561042257600080fd5b5061043d60048036038101906104389190614a23565b61121e565b005b34801561044b57600080fd5b5061046660048036038101906104619190614b93565b611234565b005b34801561047457600080fd5b5061048f600480360381019061048a919061402c565b611296565b60405161049c9190613fd4565b60405180910390f35b3480156104b157600080fd5b506104ba6112fe565b6040516104c7919061497d565b60405180910390f35b3480156104dc57600080fd5b506104e5611304565b6040516104f2919061497d565b60405180910390f35b34801561050757600080fd5b50610522600480360381019061051d9190614c16565b61130c565b60405161052f9190613f20565b60405180910390f35b610552600480360381019061054d9190614c56565b6113a0565b005b61056e60048036038101906105699190614d37565b611936565b005b34801561057c57600080fd5b50610585611d47565b604051610592919061497d565b60405180910390f35b60007f80ac58cd000000000000000000000000000000000000000000000000000000007bffffffffffffffffffffffffffffffffffffffffffffffffffffffff1916827bffffffffffffffffffffffffffffffffffffffffffffffffffffffff1916148061066657507f5b5e139f000000000000000000000000000000000000000000000000000000007bffffffffffffffffffffffffffffffffffffffffffffffffffffffff1916827bffffffffffffffffffffffffffffffffffffffffffffffffffffffff1916145b80610676575061067582611d53565b5b9050919050565b60606000805461068c90614de9565b80601f01602080910402602001604051908101604052809291908181526020018280546106b890614de9565b80156107055780601f106106da57610100808354040283529160200191610705565b820191906000526020600020905b8154815290600101906020018083116106e857829003601f168201915b5050505050905090565b600061071a82611dbd565b6004600083815260200190815260200160002060009054906101000a900473ffffffffffffffffffffffffffffffffffffffff169050919050565b600061076082610d94565b90508073ffffffffffffffffffffffffffffffffffffffff168373ffffffffffffffffffffffffffffffffffffffff1614156107d1576040517f08c379a00000000000000000000000000000000000000000000000000000000081526004016107c890614e8d565b60405180910390fd5b8073ffffffffffffffffffffffffffffffffffffffff166107f0611e08565b73ffffffffffffffffffffffffffffffffffffffff16148061081f575061081e81610819611e08565b61130c565b5b61085e576040517f08c379a000000000000000000000000000000000000000000000000000000000815260040161085590614f1f565b60405180910390fd5b6108688383611e10565b505050565b6108756139a9565b60076040518060a001604052908160008201548152602001600182015481526020016002820154815260200160038201805480602002602001604051908101604052809291908181526020016000905b828210156109e85783829060005260206000209060030201604051806060016040529081600082015481526020016001820154815260200160028201805480602002602001604051908101604052809291908181526020016000905b828210156109d157838290600052602060002090600502016040518060a00160405290816000820160009054906101000a900473ffffffffffffffffffffffffffffffffffffffff1673ffffffffffffffffffffffffffffffffffffffff1673ffffffffffffffffffffffffffffffffffffffff16815260200160018201548152602001600282015481526020016003820154815260200160048201548152505081526020019060010190610921565b5050505081525050815260200190600101906108c5565b50505050815260200160048201805480602002602001604051908101604052809291908181526020016000905b82821015610c7b57838290600052602060002090600202016040518060400160405290816000820154815260200160018201805480602002602001604051908101604052809291908181526020016000905b82821015610c6457838290600052602060002090600f02016040518060e00160405290816000820160009054906101000a900473ffffffffffffffffffffffffffffffffffffffff1673ffffffffffffffffffffffffffffffffffffffff1673ffffffffffffffffffffffffffffffffffffffff1681526020016001820154815260200160028201604051806101200160405290816000820160009054906101000a900473ffffffffffffffffffffffffffffffffffffffff1673ffffffffffffffffffffffffffffffffffffffff1673ffffffffffffffffffffffffffffffffffffffff168152602001600182018054610b6190614de9565b80601f0160208091040260200160405190810160405280929190818152602001828054610b8d90614de9565b8015610bda5780601f10610baf57610100808354040283529160200191610bda565b820191906000526020600020905b815481529060010190602001808311610bbd57829003601f168201915b505050505081526020016002820154815260200160038201548152602001600482015481526020016005820154815260200160068201548152602001600782015481526020016008820154815250508152602001600b8201548152602001600c8201548152602001600d8201548152602001600e8201548152505081526020019060010190610a67565b505050508152505081526020019060010190610a15565b5050505081525050905090565b610c99610c93611e08565b82611ec9565b610cd8576040517f08c379a0000000000000000000000000000000000000000000000000000000008152600401610ccf90614fb1565b60405180910390fd5b610ce3838383611f5e565b505050565b610d0383838360405180602001604052806000815250611234565b505050565b62278d0060195442610d1a9190615000565b1115610d2957610d286121c5565b5b5050565b6000601260008373ffffffffffffffffffffffffffffffffffffffff1673ffffffffffffffffffffffffffffffffffffffff16815260200190815260200160002060009054906101000a900460ff1615610d8a5760019050610d8f565b600090505b919050565b6000806002600084815260200190815260200160002060009054906101000a900473ffffffffffffffffffffffffffffffffffffffff169050600073ffffffffffffffffffffffffffffffffffffffff168173ffffffffffffffffffffffffffffffffffffffff161415610e3d576040517f08c379a0000000000000000000000000000000000000000000000000000000008152600401610e3490615080565b60405180910390fd5b80915050919050565b60006060600080158015610e69575062278d0060195442610e679190615000565b115b9250509250929050565b60008073ffffffffffffffffffffffffffffffffffffffff168273ffffffffffffffffffffffffffffffffffffffff161415610ee4576040517f08c379a0000000000000000000000000000000000000000000000000000000008152600401610edb90615112565b60405180910390fd5b600360008373ffffffffffffffffffffffffffffffffffffffff1673ffffffffffffffffffffffffffffffffffffffff168152602001908152602001600020549050919050565b606060018054610f3a90614de9565b80601f0160208091040260200160405190810160405280929190818152602001828054610f6690614de9565b8015610fb35780601f10610f8857610100808354040283529160200191610fb3565b820191906000526020600020905b815481529060010190602001808311610f9657829003601f168201915b5050505050905090565b610fc56139d8565b601760008381526020019081526020016000206040518060400160405290816000820154815260200160018201805480602002602001604051908101604052809291908181526020016000905b8282101561120f57838290600052602060002090600f02016040518060e00160405290816000820160009054906101000a900473ffffffffffffffffffffffffffffffffffffffff1673ffffffffffffffffffffffffffffffffffffffff1673ffffffffffffffffffffffffffffffffffffffff1681526020016001820154815260200160028201604051806101200160405290816000820160009054906101000a900473ffffffffffffffffffffffffffffffffffffffff1673ffffffffffffffffffffffffffffffffffffffff1673ffffffffffffffffffffffffffffffffffffffff16815260200160018201805461110c90614de9565b80601f016020809104026020016040519081016040528092919081815260200182805461113890614de9565b80156111855780601f1061115a57610100808354040283529160200191611185565b820191906000526020600020905b81548152906001019060200180831161116857829003601f168201915b505050505081526020016002820154815260200160038201548152602001600482015481526020016005820154815260200160068201548152602001600782015481526020016008820154815250508152602001600b8201548152602001600c8201548152602001600d8201548152602001600e8201548152505081526020019060010190611012565b50505050815250509050919050565b611230611229611e08565b83836123bd565b5050565b61124561123f611e08565b83611ec9565b611284576040517f08c379a000000000000000000000000000000000000000000000000000000000815260040161127b90614fb1565b60405180910390fd5b6112908484848461252a565b50505050565b60606112a182611dbd565b60006112ab612586565b905060008151116112cb57604051806020016040528060008152506112f6565b806112d58461259d565b6040516020016112e692919061516e565b6040516020818303038152906040525b915050919050565b60195481565b600047905090565b6000600560008473ffffffffffffffffffffffffffffffffffffffff1673ffffffffffffffffffffffffffffffffffffffff16815260200190815260200160002060008373ffffffffffffffffffffffffffffffffffffffff1673ffffffffffffffffffffffffffffffffffffffff16815260200190815260200160002060009054906101000a900460ff16905092915050565b3382601560008373ffffffffffffffffffffffffffffffffffffffff1673ffffffffffffffffffffffffffffffffffffffff168152602001908152602001600020600082815260200190815260200160002060000160009054906101000a900473ffffffffffffffffffffffffffffffffffffffff1673ffffffffffffffffffffffffffffffffffffffff168273ffffffffffffffffffffffffffffffffffffffff16148015611483575061145481610d94565b73ffffffffffffffffffffffffffffffffffffffff168273ffffffffffffffffffffffffffffffffffffffff16145b6114c2576040517f08c379a00000000000000000000000000000000000000000000000000000000081526004016114b9906151de565b60405180910390fd5b346019811015611507576040517f08c379a00000000000000000000000000000000000000000000000000000000081526004016114fe90615270565b60405180910390fd5b60004290506000606460178761151d9190615290565b6115279190615319565b90506000606460498861153a9190615290565b6115449190615319565b905081601560003373ffffffffffffffffffffffffffffffffffffffff1673ffffffffffffffffffffffffffffffffffffffff16815260200190815260200160002060008a815260200190815260200160002060070160008282546115a9919061534a565b9250508190555080601560003373ffffffffffffffffffffffffffffffffffffffff1673ffffffffffffffffffffffffffffffffffffffff16815260200190815260200160002060008a81526020019081526020016000206008016000828254611613919061534a565b9250508190555080601460003373ffffffffffffffffffffffffffffffffffffffff1673ffffffffffffffffffffffffffffffffffffffff16815260200190815260200160002060008a8152602001908152602001600020600082825461167a919061534a565b9250508190555081601360003373ffffffffffffffffffffffffffffffffffffffff1673ffffffffffffffffffffffffffffffffffffffff16815260200190815260200160002060008a815260200190815260200160002060008282546116e1919061534a565b9250508190555061187e601560003373ffffffffffffffffffffffffffffffffffffffff1673ffffffffffffffffffffffffffffffffffffffff16815260200190815260200160002060008a8152602001908152602001600020604051806101200160405290816000820160009054906101000a900473ffffffffffffffffffffffffffffffffffffffff1673ffffffffffffffffffffffffffffffffffffffff1673ffffffffffffffffffffffffffffffffffffffff1681526020016001820180546117ad90614de9565b80601f01602080910402602001604051908101604052809291908181526020018280546117d990614de9565b80156118265780601f106117fb57610100808354040283529160200191611826565b820191906000526020600020905b81548152906001019060200180831161180957829003601f168201915b50505050508152602001600282015481526020016003820154815260200160048201548152602001600582015481526020016006820154815260200160078201548152602001600882015481525050888585856126fe565b7fb68157fc00953269b00318b57b774667db6be7c9d901a0bd8a337628df9b9bc5601560003373ffffffffffffffffffffffffffffffffffffffff1673ffffffffffffffffffffffffffffffffffffffff16815260200190815260200160002060008a815260200190815260200160002060000160009054906101000a900473ffffffffffffffffffffffffffffffffffffffff168885604051611924939291906153ff565b60405180910390a15050505050505050565b34601981101561197b576040517f08c379a000000000000000000000000000000000000000000000000000000000815260040161197290615270565b60405180910390fd5b61198433610d2d565b156119c4576040517f08c379a00000000000000000000000000000000000000000000000000000000081526004016119bb90615482565b60405180910390fd5b6012841015611a08576040517f08c379a00000000000000000000000000000000000000000000000000000000081526004016119ff90615514565b60405180910390fd5b60006301e1338085611a1a9190615290565b905060004290506000611a2d600661291f565b9050611a39600661292d565b611a433382612943565b6000836372a94580611a559190615000565b905060008184611a65919061534a565b9050600062278d008060195484611a7c9190615000565b611a869190615319565b611a90919061534a565b905060006040518061012001604052803373ffffffffffffffffffffffffffffffffffffffff1681526020018d81526020018c81526020018b81526020018481526020018781526020018681526020016000815260200160008152509050611af8818a612961565b80601560003373ffffffffffffffffffffffffffffffffffffffff1673ffffffffffffffffffffffffffffffffffffffff168152602001908152602001600020600087815260200190815260200160002060008201518160000160006101000a81548173ffffffffffffffffffffffffffffffffffffffff021916908373ffffffffffffffffffffffffffffffffffffffff1602179055506020820151816001019080519060200190611bac9291906139f2565b5060408201518160020155606082015181600301556080820151816004015560a0820151816005015560c0820151816006015560e0820151816007015561010082015181600801559050506016600083815260200190815260200160002081908060018154018082558091505060019003906000526020600020906009020160009091909190915060008201518160000160006101000a81548173ffffffffffffffffffffffffffffffffffffffff021916908373ffffffffffffffffffffffffffffffffffffffff1602179055506020820151816001019080519060200190611c979291906139f2565b5060408201518160020155606082015181600301556080820151816004015560a0820151816005015560c0820151816006015560e08201518160070155610100820151816008015550506001601260003373ffffffffffffffffffffffffffffffffffffffff1673ffffffffffffffffffffffffffffffffffffffff16815260200190815260200160002060006101000a81548160ff021916908315150217905550505050505050505050505050565b60068060000154905081565b60007f01ffc9a7000000000000000000000000000000000000000000000000000000007bffffffffffffffffffffffffffffffffffffffffffffffffffffffff1916827bffffffffffffffffffffffffffffffffffffffffffffffffffffffff1916149050919050565b611dc681612c8d565b611e05576040517f08c379a0000000000000000000000000000000000000000000000000000000008152600401611dfc90615080565b60405180910390fd5b50565b600033905090565b816004600083815260200190815260200160002060006101000a81548173ffffffffffffffffffffffffffffffffffffffff021916908373ffffffffffffffffffffffffffffffffffffffff160217905550808273ffffffffffffffffffffffffffffffffffffffff16611e8383610d94565b73ffffffffffffffffffffffffffffffffffffffff167f8c5be1e5ebec7d5bd14f71427d1e84f3dd0314c0f7b2291e5b200ac8c7c3b92560405160405180910390a45050565b600080611ed583610d94565b90508073ffffffffffffffffffffffffffffffffffffffff168473ffffffffffffffffffffffffffffffffffffffff161480611f175750611f16818561130c565b5b80611f5557508373ffffffffffffffffffffffffffffffffffffffff16611f3d8461070f565b73ffffffffffffffffffffffffffffffffffffffff16145b91505092915050565b8273ffffffffffffffffffffffffffffffffffffffff16611f7e82610d94565b73ffffffffffffffffffffffffffffffffffffffff1614611fd4576040517f08c379a0000000000000000000000000000000000000000000000000000000008152600401611fcb906155a6565b60405180910390fd5b600073ffffffffffffffffffffffffffffffffffffffff168273ffffffffffffffffffffffffffffffffffffffff161415612044576040517f08c379a000000000000000000000000000000000000000000000000000000000815260040161203b90615638565b60405180910390fd5b61204f838383612cf9565b61205a600082611e10565b6001600360008573ffffffffffffffffffffffffffffffffffffffff1673ffffffffffffffffffffffffffffffffffffffff16815260200190815260200160002060008282546120aa9190615000565b925050819055506001600360008473ffffffffffffffffffffffffffffffffffffffff1673ffffffffffffffffffffffffffffffffffffffff1681526020019081526020016000206000828254612101919061534a565b92505081905550816002600083815260200190815260200160002060006101000a81548173ffffffffffffffffffffffffffffffffffffffff021916908373ffffffffffffffffffffffffffffffffffffffff160217905550808273ffffffffffffffffffffffffffffffffffffffff168473ffffffffffffffffffffffffffffffffffffffff167fddf252ad1be2c89b69c2b068fc378daa952ba7f163c4a11628f55a4df523b3ef60405160405180910390a46121c0838383612cfe565b505050565b60076004016017600060195481526020019081526020016000209080600181540180825580915050600190039060005260206000209060020201600090919091909150600082015481600001556001820181600101908054612228929190613a78565b5050506017600060195481526020019081526020016000206000015460076001016000828254612258919061534a565b92505081905550601860006019548152602001908152602001600020600101546007600201600082825461228c919061534a565b9250508190555060006007600201546007600101546122ab9190615658565b9050600081121561230d57806122c0906156ec565b600760000160008282546122d49190615658565b92505081905550806122e5906156ec565b600760010160008282546122f9919061534a565b92505081905550612308612d03565b612349565b600081131561233f5761231e612d03565b80600760000160008282546123339190615735565b92505081905550612348565b612347612d03565b5b5b4260198190555061235b60195461303a565b6000600e6001816001815401808255809150500390600052602060002090600202019050806017600060195481526020019081526020016000206000820154816000015560018201816001019080546123b5929190613a78565b509050505050565b8173ffffffffffffffffffffffffffffffffffffffff168373ffffffffffffffffffffffffffffffffffffffff16141561242c576040517f08c379a000000000000000000000000000000000000000000000000000000000815260040161242390615815565b60405180910390fd5b80600560008573ffffffffffffffffffffffffffffffffffffffff1673ffffffffffffffffffffffffffffffffffffffff16815260200190815260200160002060008473ffffffffffffffffffffffffffffffffffffffff1673ffffffffffffffffffffffffffffffffffffffff16815260200190815260200160002060006101000a81548160ff0219169083151502179055508173ffffffffffffffffffffffffffffffffffffffff168373ffffffffffffffffffffffffffffffffffffffff167f17307eab39ab6107e8899845ad3d59bd9653f200f220920489ca2b5937696c318360405161251d9190613f20565b60405180910390a3505050565b612535848484611f5e565b61254184848484613224565b612580576040517f08c379a0000000000000000000000000000000000000000000000000000000008152600401612577906158a7565b60405180910390fd5b50505050565b606060405180602001604052806000815250905090565b606060008214156125e5576040518060400160405280600181526020017f300000000000000000000000000000000000000000000000000000000000000081525090506126f9565b600082905060005b60008214612617578080612600906158c7565b915050600a826126109190615319565b91506125ed565b60008167ffffffffffffffff81111561263357612632614a68565b5b6040519080825280601f01601f1916602001820160405280156126655781602001600182028036833780820191505090505b5090505b600085146126f25760018261267e9190615000565b9150600a8561268d9190615910565b6030612699919061534a565b60f81b8183815181106126af576126ae615941565b5b60200101907effffffffffffffffffffffffffffffffffffffffffffffffffffffffffffff1916908160001a905350600a856126eb9190615319565b9450612669565b8093505050505b919050565b6000836040516020016127119190615991565b604051602081830303815290604052805190602001209050846017600060195481526020019081526020016000206000016000828254612751919061534a565b925050819055506017600060195481526020019081526020016000206001016040518060e00160405280886000015173ffffffffffffffffffffffffffffffffffffffff1681526020018381526020018881526020018681526020018581526020018481526020018781525090806001815401808255809150506001900390600052602060002090600f020160009091909190915060008201518160000160006101000a81548173ffffffffffffffffffffffffffffffffffffffff021916908373ffffffffffffffffffffffffffffffffffffffff1602179055506020820151816001015560408201518160020160008201518160000160006101000a81548173ffffffffffffffffffffffffffffffffffffffff021916908373ffffffffffffffffffffffffffffffffffffffff16021790555060208201518160010190805190602001906128a39291906139f2565b5060408201518160020155606082015181600301556080820151816004015560a0820151816005015560c0820151816006015560e0820151816007015561010082015181600801555050606082015181600b0155608082015181600c015560a082015181600d015560c082015181600e01555050505050505050565b600081600001549050919050565b6001816000016000828254019250508190555050565b61295d8282604051806020016040528060008152506133bb565b5050565b6000429050600060646017846129779190615290565b6129819190615319565b9050600060646049856129949190615290565b61299e9190615319565b9050818560e0018181516129b2919061534a565b915081815250508085610100018181516129cc919061534a565b9150818152505080601460003373ffffffffffffffffffffffffffffffffffffffff1673ffffffffffffffffffffffffffffffffffffffff16815260200190815260200160002060008760c0015181526020019081526020016000206000828254612a37919061534a565b9250508190555081601360003373ffffffffffffffffffffffffffffffffffffffff1673ffffffffffffffffffffffffffffffffffffffff16815260200190815260200160002060008760c0015181526020019081526020016000206000828254612aa2919061534a565b92505081905550612c43601560003373ffffffffffffffffffffffffffffffffffffffff1673ffffffffffffffffffffffffffffffffffffffff16815260200190815260200160002060008760c001518152602001908152602001600020604051806101200160405290816000820160009054906101000a900473ffffffffffffffffffffffffffffffffffffffff1673ffffffffffffffffffffffffffffffffffffffff1673ffffffffffffffffffffffffffffffffffffffff168152602001600182018054612b7290614de9565b80601f0160208091040260200160405190810160405280929190818152602001828054612b9e90614de9565b8015612beb5780601f10612bc057610100808354040283529160200191612beb565b820191906000526020600020905b815481529060010190602001808311612bce57829003601f168201915b50505050508152602001600282015481526020016003820154815260200160048201548152602001600582015481526020016006820154815260200160078201548152602001600882015481525050858585856126fe565b7fb68157fc00953269b00318b57b774667db6be7c9d901a0bd8a337628df9b9bc58560000151858760a00151604051612c7e939291906153ff565b60405180910390a15050505050565b60008073ffffffffffffffffffffffffffffffffffffffff166002600084815260200190815260200160002060009054906101000a900473ffffffffffffffffffffffffffffffffffffffff1673ffffffffffffffffffffffffffffffffffffffff1614159050919050565b505050565b505050565b60006007600301805480602002602001604051908101604052809291908181526020016000905b82821015612e4d5783829060005260206000209060030201604051806060016040529081600082015481526020016001820154815260200160028201805480602002602001604051908101604052809291908181526020016000905b82821015612e3657838290600052602060002090600502016040518060a00160405290816000820160009054906101000a900473ffffffffffffffffffffffffffffffffffffffff1673ffffffffffffffffffffffffffffffffffffffff1673ffffffffffffffffffffffffffffffffffffffff16815260200160018201548152602001600282015481526020016003820154815260200160048201548152505081526020019060010190612d86565b505050508152505081526020019060010190612d2a565b50505050905060005b8151811115613036576000828281518110612e7457612e73615941565b5b602002602001015160400151905060005b8151811115613021576000828281518110612ea357612ea2615941565b5b60200260200101519050806000015173ffffffffffffffffffffffffffffffffffffffff166108fc82602001519081150290604051600060405180830381858888f19350505050158015612efb573d6000803e3d6000fd5b50806020015160076002016000828254612f159190615000565b92505081905550806020015160076001016000828254612f359190615000565b92505081905550806000015173ffffffffffffffffffffffffffffffffffffffff166108fc82602001519081150290604051600060405180830381858888f19350505050158015612f8a573d6000803e3d6000fd5b50806020015181606001818151612fa1919061534a565b91508181525050806080015181606001511061300d57828281518110612fca57612fc9615941565b5b60200260200101612fd9613c40565b81525060008351141561300c57848481518110612ff957612ff8615941565b5b60200260200101613008613c85565b8152505b5b508080613019906158c7565b915050612e85565b5050808061302e906158c7565b915050612e56565b5050565b600060166000838152602001908152602001600020805480602002602001604051908101604052809291908181526020016000905b828210156131d05783829060005260206000209060090201604051806101200160405290816000820160009054906101000a900473ffffffffffffffffffffffffffffffffffffffff1673ffffffffffffffffffffffffffffffffffffffff1673ffffffffffffffffffffffffffffffffffffffff1681526020016001820180546130f990614de9565b80601f016020809104026020016040519081016040528092919081815260200182805461312590614de9565b80156131725780601f1061314757610100808354040283529160200191613172565b820191906000526020600020905b81548152906001019060200180831161315557829003601f168201915b505050505081526020016002820154815260200160038201548152602001600482015481526020016005820154815260200160068201548152602001600782015481526020016008820154815250508152602001906001019061306f565b50505050905060005b815181111561321f5760008282815181106131f7576131f6615941565b5b6020026020010151905061320b8185613416565b508080613217906158c7565b9150506131d9565b505050565b60006132458473ffffffffffffffffffffffffffffffffffffffff16613671565b156133ae578373ffffffffffffffffffffffffffffffffffffffff1663150b7a0261326e611e08565b8786866040518563ffffffff1660e01b815260040161329094939291906159ac565b602060405180830381600087803b1580156132aa57600080fd5b505af19250505080156132db57506040513d601f19601f820116820180604052508101906132d89190615a0d565b60015b61335e573d806000811461330b576040519150601f19603f3d011682016040523d82523d6000602084013e613310565b606091505b50600081511415613356576040517f08c379a000000000000000000000000000000000000000000000000000000000815260040161334d906158a7565b60405180910390fd5b805181602001fd5b63150b7a0260e01b7bffffffffffffffffffffffffffffffffffffffffffffffffffffffff1916817bffffffffffffffffffffffffffffffffffffffffffffffffffffffff1916149150506133b3565b600190505b949350505050565b6133c58383613694565b6133d26000848484613224565b613411576040517f08c379a0000000000000000000000000000000000000000000000000000000008152600401613408906158a7565b60405180910390fd5b505050565b600060136000846000015173ffffffffffffffffffffffffffffffffffffffff1673ffffffffffffffffffffffffffffffffffffffff16815260200190815260200160002060008460c001518152602001908152602001600020549050600060146000856000015173ffffffffffffffffffffffffffffffffffffffff1673ffffffffffffffffffffffffffffffffffffffff16815260200190815260200160002060008560c001518152602001908152602001600020549050600081836134de919061534a565b90506000600c6015836134f19190615319565b6134fb9190615319565b9050600061350c876020015161386e565b905060006040518060a00160405280896000015173ffffffffffffffffffffffffffffffffffffffff16815260200184815260200183815260200160008152602001858152509050806080015160186000898152602001908152602001600020600001600082825461357e919061534a565b9250508190555080602001516018600089815260200190815260200160002060010160008282546135af919061534a565b925050819055506018600088815260200190815260200160002060020181908060018154018082558091505060019003906000526020600020906005020160009091909190915060008201518160000160006101000a81548173ffffffffffffffffffffffffffffffffffffffff021916908373ffffffffffffffffffffffffffffffffffffffff1602179055506020820151816001015560408201518160020155606082015181600301556080820151816004015550505050505050505050565b6000808273ffffffffffffffffffffffffffffffffffffffff163b119050919050565b600073ffffffffffffffffffffffffffffffffffffffff168273ffffffffffffffffffffffffffffffffffffffff161415613704576040517f08c379a00000000000000000000000000000000000000000000000000000000081526004016136fb90615a86565b60405180910390fd5b61370d81612c8d565b1561374d576040517f08c379a000000000000000000000000000000000000000000000000000000000815260040161374490615af2565b60405180910390fd5b61375960008383612cf9565b6001600360008473ffffffffffffffffffffffffffffffffffffffff1673ffffffffffffffffffffffffffffffffffffffff16815260200190815260200160002060008282546137a9919061534a565b92505081905550816002600083815260200190815260200160002060006101000a81548173ffffffffffffffffffffffffffffffffffffffff021916908373ffffffffffffffffffffffffffffffffffffffff160217905550808273ffffffffffffffffffffffffffffffffffffffff16600073ffffffffffffffffffffffffffffffffffffffff167fddf252ad1be2c89b69c2b068fc378daa952ba7f163c4a11628f55a4df523b3ef60405160405180910390a461386a60008383612cfe565b5050565b60006138af826040518060400160405280600481526020017f6d616c6500000000000000000000000000000000000000000000000000000000815250613950565b156138db57600c6372a94580639fc619806138ca9190615000565b6138d49190615319565b905061394b565b61391a826040518060400160405280600681526020017f66656d616c650000000000000000000000000000000000000000000000000000815250613950565b1561394657600c6372a9458063966018006139359190615000565b61393f9190615319565b905061394b565b600090505b919050565b6000816040516020016139639190615b12565b604051602081830303815290604052805190602001208360405160200161398a9190615b12565b6040516020818303038152906040528051906020012014905092915050565b6040518060a0016040528060008152602001600081526020016000815260200160608152602001606081525090565b604051806040016040528060008152602001606081525090565b8280546139fe90614de9565b90600052602060002090601f016020900481019282613a205760008555613a67565b82601f10613a3957805160ff1916838001178555613a67565b82800160010185558215613a67579182015b82811115613a66578251825591602001919060010190613a4b565b5b509050613a749190613ca6565b5090565b82805482825590600052602060002090600f028101928215613c2f57600052602060002091600f0282015b82811115613c2e5782826000820160009054906101000a900473ffffffffffffffffffffffffffffffffffffffff168160000160006101000a81548173ffffffffffffffffffffffffffffffffffffffff021916908373ffffffffffffffffffffffffffffffffffffffff1602179055506001820154816001015560028201816002016000820160009054906101000a900473ffffffffffffffffffffffffffffffffffffffff168160000160006101000a81548173ffffffffffffffffffffffffffffffffffffffff021916908373ffffffffffffffffffffffffffffffffffffffff1602179055506001820181600101908054613ba190614de9565b613bac929190613cc3565b50600282015481600201556003820154816003015560048201548160040155600582015481600501556006820154816006015560078201548160070155600882015481600801555050600b82015481600b0155600c82015481600c0155600d82015481600d0155600e82015481600e0155505091600f019190600f0190613aa3565b5b509050613c3c9190613d50565b5090565b6040518060a00160405280600073ffffffffffffffffffffffffffffffffffffffff168152602001600081526020016000815260200160008152602001600081525090565b60405180606001604052806000815260200160008152602001606081525090565b5b80821115613cbf576000816000905550600101613ca7565b5090565b828054613ccf90614de9565b90600052602060002090601f016020900481019282613cf15760008555613d3f565b82601f10613d025780548555613d3f565b82800160010185558215613d3f57600052602060002091601f016020900482015b82811115613d3e578254825591600101919060010190613d23565b5b509050613d4c9190613ca6565b5090565b5b80821115613e2857600080820160006101000a81549073ffffffffffffffffffffffffffffffffffffffff0219169055600182016000905560028201600080820160006101000a81549073ffffffffffffffffffffffffffffffffffffffff0219169055600182016000613dc59190613e2c565b60028201600090556003820160009055600482016000905560058201600090556006820160009055600782016000905560088201600090555050600b820160009055600c820160009055600d820160009055600e82016000905550600f01613d51565b5090565b508054613e3890614de9565b6000825580601f10613e4a5750613e69565b601f016020900490600052602060002090810190613e689190613ca6565b5b50565b6000604051905090565b600080fd5b600080fd5b60007fffffffff0000000000000000000000000000000000000000000000000000000082169050919050565b613eb581613e80565b8114613ec057600080fd5b50565b600081359050613ed281613eac565b92915050565b600060208284031215613eee57613eed613e76565b5b6000613efc84828501613ec3565b91505092915050565b60008115159050919050565b613f1a81613f05565b82525050565b6000602082019050613f356000830184613f11565b92915050565b600081519050919050565b600082825260208201905092915050565b60005b83811015613f75578082015181840152602081019050613f5a565b83811115613f84576000848401525b50505050565b6000601f19601f8301169050919050565b6000613fa682613f3b565b613fb08185613f46565b9350613fc0818560208601613f57565b613fc981613f8a565b840191505092915050565b60006020820190508181036000830152613fee8184613f9b565b905092915050565b6000819050919050565b61400981613ff6565b811461401457600080fd5b50565b60008135905061402681614000565b92915050565b60006020828403121561404257614041613e76565b5b600061405084828501614017565b91505092915050565b600073ffffffffffffffffffffffffffffffffffffffff82169050919050565b600061408482614059565b9050919050565b61409481614079565b82525050565b60006020820190506140af600083018461408b565b92915050565b6140be81614079565b81146140c957600080fd5b50565b6000813590506140db816140b5565b92915050565b600080604083850312156140f8576140f7613e76565b5b6000614106858286016140cc565b925050602061411785828601614017565b9150509250929050565b6000819050919050565b61413481614121565b82525050565b61414381613ff6565b82525050565b600081519050919050565b600082825260208201905092915050565b6000819050602082019050919050565b600081519050919050565b600082825260208201905092915050565b6000819050602082019050919050565b60006141ac82614059565b9050919050565b6141bc816141a1565b82525050565b60a0820160008201516141d860008501826141b3565b5060208201516141eb602085018261413a565b5060408201516141fe604085018261413a565b506060820151614211606085018261413a565b506080820151614224608085018261413a565b50505050565b600061423683836141c2565b60a08301905092915050565b6000602082019050919050565b600061425a82614175565b6142648185614180565b935061426f83614191565b8060005b838110156142a0578151614287888261422a565b975061429283614242565b925050600181019050614273565b5085935050505092915050565b60006060830160008301516142c5600086018261413a565b5060208301516142d8602086018261413a565b50604083015184820360408601526142f0828261424f565b9150508091505092915050565b600061430983836142ad565b905092915050565b6000602082019050919050565b600061432982614149565b6143338185614154565b93508360208202850161434585614165565b8060005b85811015614381578484038952815161436285826142fd565b945061436d83614311565b925060208a01995050600181019050614349565b50829750879550505050505092915050565b600081519050919050565b600082825260208201905092915050565b6000819050602082019050919050565b600081519050919050565b600082825260208201905092915050565b6000819050602082019050919050565b6000819050919050565b6143fe816143eb565b82525050565b600082825260208201905092915050565b600061442082613f3b565b61442a8185614404565b935061443a818560208601613f57565b61444381613f8a565b840191505092915050565b60006101208301600083015161446760008601826141b3565b506020830151848203602086015261447f8282614415565b9150506040830151614494604086018261413a565b5060608301516144a7606086018261413a565b5060808301516144ba608086018261413a565b5060a08301516144cd60a086018261413a565b5060c08301516144e060c086018261413a565b5060e08301516144f360e086018261413a565b5061010083015161450861010086018261413a565b508091505092915050565b600060e08301600083015161452b60008601826141b3565b50602083015161453e60208601826143f5565b5060408301518482036040860152614556828261444e565b915050606083015161456b606086018261413a565b50608083015161457e608086018261413a565b5060a083015161459160a086018261413a565b5060c08301516145a460c086018261413a565b508091505092915050565b60006145bb8383614513565b905092915050565b6000602082019050919050565b60006145db826143bf565b6145e581856143ca565b9350836020820285016145f7856143db565b8060005b85811015614633578484038952815161461485826145af565b945061461f836145c3565b925060208a019950506001810190506145fb565b50829750879550505050505092915050565b600060408301600083015161465d600086018261413a565b506020830151848203602086015261467582826145d0565b9150508091505092915050565b600061468e8383614645565b905092915050565b6000602082019050919050565b60006146ae82614393565b6146b8818561439e565b9350836020820285016146ca856143af565b8060005b8581101561470657848403895281516146e78582614682565b94506146f283614696565b925060208a019950506001810190506146ce565b50829750879550505050505092915050565b600060a083016000830151614730600086018261412b565b506020830151614743602086018261413a565b506040830151614756604086018261413a565b506060830151848203606086015261476e828261431e565b9150506080830151848203608086015261478882826146a3565b9150508091505092915050565b600060208201905081810360008301526147af8184614718565b905092915050565b6000806000606084860312156147d0576147cf613e76565b5b60006147de868287016140cc565b93505060206147ef868287016140cc565b925050604061480086828701614017565b9150509250925092565b600080fd5b600080fd5b600080fd5b60008083601f84011261482f5761482e61480a565b5b8235905067ffffffffffffffff81111561484c5761484b61480f565b5b60208301915083600182028301111561486857614867614814565b5b9250929050565b6000806020838503121561488657614885613e76565b5b600083013567ffffffffffffffff8111156148a4576148a3613e7b565b5b6148b085828601614819565b92509250509250929050565b6000602082840312156148d2576148d1613e76565b5b60006148e0848285016140cc565b91505092915050565b600081519050919050565b600082825260208201905092915050565b6000614910826148e9565b61491a81856148f4565b935061492a818560208601613f57565b61493381613f8a565b840191505092915050565b60006040820190506149536000830185613f11565b81810360208301526149658184614905565b90509392505050565b61497781613ff6565b82525050565b6000602082019050614992600083018461496e565b92915050565b60006040830160008301516149b0600086018261413a565b50602083015184820360208601526149c882826145d0565b9150508091505092915050565b600060208201905081810360008301526149ef8184614998565b905092915050565b614a0081613f05565b8114614a0b57600080fd5b50565b600081359050614a1d816149f7565b92915050565b60008060408385031215614a3a57614a39613e76565b5b6000614a48858286016140cc565b9250506020614a5985828601614a0e565b9150509250929050565b600080fd5b7f4e487b7100000000000000000000000000000000000000000000000000000000600052604160045260246000fd5b614aa082613f8a565b810181811067ffffffffffffffff82111715614abf57614abe614a68565b5b80604052505050565b6000614ad2613e6c565b9050614ade8282614a97565b919050565b600067ffffffffffffffff821115614afe57614afd614a68565b5b614b0782613f8a565b9050602081019050919050565b82818337600083830152505050565b6000614b36614b3184614ae3565b614ac8565b905082815260208101848484011115614b5257614b51614a63565b5b614b5d848285614b14565b509392505050565b600082601f830112614b7a57614b7961480a565b5b8135614b8a848260208601614b23565b91505092915050565b60008060008060808587031215614bad57614bac613e76565b5b6000614bbb878288016140cc565b9450506020614bcc878288016140cc565b9350506040614bdd87828801614017565b925050606085013567ffffffffffffffff811115614bfe57614bfd613e7b565b5b614c0a87828801614b65565b91505092959194509250565b60008060408385031215614c2d57614c2c613e76565b5b6000614c3b858286016140cc565b9250506020614c4c858286016140cc565b9150509250929050565b60008060408385031215614c6d57614c6c613e76565b5b6000614c7b85828601614017565b9250506020614c8c85828601614017565b9150509250929050565b600067ffffffffffffffff821115614cb157614cb0614a68565b5b614cba82613f8a565b9050602081019050919050565b6000614cda614cd584614c96565b614ac8565b905082815260208101848484011115614cf657614cf5614a63565b5b614d01848285614b14565b509392505050565b600082601f830112614d1e57614d1d61480a565b5b8135614d2e848260208601614cc7565b91505092915050565b60008060008060808587031215614d5157614d50613e76565b5b600085013567ffffffffffffffff811115614d6f57614d6e613e7b565b5b614d7b87828801614d09565b9450506020614d8c87828801614017565b9350506040614d9d87828801614017565b9250506060614dae87828801614017565b91505092959194509250565b7f4e487b7100000000000000000000000000000000000000000000000000000000600052602260045260246000fd5b60006002820490506001821680614e0157607f821691505b60208210811415614e1557614e14614dba565b5b50919050565b7f4552433732313a20617070726f76616c20746f2063757272656e74206f776e6560008201527f7200000000000000000000000000000000000000000000000000000000000000602082015250565b6000614e77602183613f46565b9150614e8282614e1b565b604082019050919050565b60006020820190508181036000830152614ea681614e6a565b9050919050565b7f4552433732313a20617070726f76652063616c6c6572206973206e6f7420746f60008201527f6b656e206f776e6572206e6f7220617070726f76656420666f7220616c6c0000602082015250565b6000614f09603e83613f46565b9150614f1482614ead565b604082019050919050565b60006020820190508181036000830152614f3881614efc565b9050919050565b7f4552433732313a2063616c6c6572206973206e6f7420746f6b656e206f776e6560008201527f72206e6f7220617070726f766564000000000000000000000000000000000000602082015250565b6000614f9b602e83613f46565b9150614fa682614f3f565b604082019050919050565b60006020820190508181036000830152614fca81614f8e565b9050919050565b7f4e487b7100000000000000000000000000000000000000000000000000000000600052601160045260246000fd5b600061500b82613ff6565b915061501683613ff6565b92508282101561502957615028614fd1565b5b828203905092915050565b7f4552433732313a20696e76616c696420746f6b656e2049440000000000000000600082015250565b600061506a601883613f46565b915061507582615034565b602082019050919050565b600060208201905081810360008301526150998161505d565b9050919050565b7f4552433732313a2061646472657373207a65726f206973206e6f74206120766160008201527f6c6964206f776e65720000000000000000000000000000000000000000000000602082015250565b60006150fc602983613f46565b9150615107826150a0565b604082019050919050565b6000602082019050818103600083015261512b816150ef565b9050919050565b600081905092915050565b600061514882613f3b565b6151528185615132565b9350615162818560208601613f57565b80840191505092915050565b600061517a828561513d565b9150615186828461513d565b91508190509392505050565b7f596f7520646f6e2774206f776e20746869732070656e73696f6e000000000000600082015250565b60006151c8601a83613f46565b91506151d382615192565b602082019050919050565b600060208201905081810360008301526151f7816151bb565b9050919050565b7f54686520616d6f756e7420646f65736e277420726561636820746865206d696e60008201527f696d756d20726571756972656400000000000000000000000000000000000000602082015250565b600061525a602d83613f46565b9150615265826151fe565b604082019050919050565b600060208201905081810360008301526152898161524d565b9050919050565b600061529b82613ff6565b91506152a683613ff6565b9250817fffffffffffffffffffffffffffffffffffffffffffffffffffffffffffffffff04831182151516156152df576152de614fd1565b5b828202905092915050565b7f4e487b7100000000000000000000000000000000000000000000000000000000600052601260045260246000fd5b600061532482613ff6565b915061532f83613ff6565b92508261533f5761533e6152ea565b5b828204905092915050565b600061535582613ff6565b915061536083613ff6565b9250827fffffffffffffffffffffffffffffffffffffffffffffffffffffffffffffffff0382111561539557615394614fd1565b5b828201905092915050565b6000819050919050565b60006153c56153c06153bb84614059565b6153a0565b614059565b9050919050565b60006153d7826153aa565b9050919050565b60006153e9826153cc565b9050919050565b6153f9816153de565b82525050565b600060608201905061541460008301866153f0565b615421602083018561496e565b61542e604083018461496e565b949350505050565b7f416c72656164792067656e657261746564206869732070656e73696f6e000000600082015250565b600061546c601d83613f46565b915061547782615436565b602082019050919050565b6000602082019050818103600083015261549b8161545f565b9050919050565b7f596f75206d757374206265203138207965617273206f72206f6c64657220746f60008201527f2067656e657261746520612070656e73696f6e00000000000000000000000000602082015250565b60006154fe603383613f46565b9150615509826154a2565b604082019050919050565b6000602082019050818103600083015261552d816154f1565b9050919050565b7f4552433732313a207472616e736665722066726f6d20696e636f72726563742060008201527f6f776e6572000000000000000000000000000000000000000000000000000000602082015250565b6000615590602583613f46565b915061559b82615534565b604082019050919050565b600060208201905081810360008301526155bf81615583565b9050919050565b7f4552433732313a207472616e7366657220746f20746865207a65726f2061646460008201527f7265737300000000000000000000000000000000000000000000000000000000602082015250565b6000615622602483613f46565b915061562d826155c6565b604082019050919050565b6000602082019050818103600083015261565181615615565b9050919050565b600061566382614121565b915061566e83614121565b9250827f8000000000000000000000000000000000000000000000000000000000000000018212600084121516156156a9576156a8614fd1565b5b827f7fffffffffffffffffffffffffffffffffffffffffffffffffffffffffffffff0182136000841216156156e1576156e0614fd1565b5b828203905092915050565b60006156f782614121565b91507f800000000000000000000000000000000000000000000000000000000000000082141561572a57615729614fd1565b5b816000039050919050565b600061574082614121565b915061574b83614121565b9250817f7fffffffffffffffffffffffffffffffffffffffffffffffffffffffffffffff0383136000831215161561578657615785614fd1565b5b817f80000000000000000000000000000000000000000000000000000000000000000383126000831216156157be576157bd614fd1565b5b828201905092915050565b7f4552433732313a20617070726f766520746f2063616c6c657200000000000000600082015250565b60006157ff601983613f46565b915061580a826157c9565b602082019050919050565b6000602082019050818103600083015261582e816157f2565b9050919050565b7f4552433732313a207472616e7366657220746f206e6f6e20455243373231526560008201527f63656976657220696d706c656d656e7465720000000000000000000000000000602082015250565b6000615891603283613f46565b915061589c82615835565b604082019050919050565b600060208201905081810360008301526158c081615884565b9050919050565b60006158d282613ff6565b91507fffffffffffffffffffffffffffffffffffffffffffffffffffffffffffffffff82141561590557615904614fd1565b5b600182019050919050565b600061591b82613ff6565b915061592683613ff6565b925082615936576159356152ea565b5b828206905092915050565b7f4e487b7100000000000000000000000000000000000000000000000000000000600052603260045260246000fd5b6000819050919050565b61598b61598682613ff6565b615970565b82525050565b600061599d828461597a565b60208201915081905092915050565b60006080820190506159c1600083018761408b565b6159ce602083018661408b565b6159db604083018561496e565b81810360608301526159ed8184614905565b905095945050505050565b600081519050615a0781613eac565b92915050565b600060208284031215615a2357615a22613e76565b5b6000615a31848285016159f8565b91505092915050565b7f4552433732313a206d696e7420746f20746865207a65726f2061646472657373600082015250565b6000615a70602083613f46565b9150615a7b82615a3a565b602082019050919050565b60006020820190508181036000830152615a9f81615a63565b9050919050565b7f4552433732313a20746f6b656e20616c7265616479206d696e74656400000000600082015250565b6000615adc601c83613f46565b9150615ae782615aa6565b602082019050919050565b60006020820190508181036000830152615b0b81615acf565b9050919050565b6000615b1e828461513d565b91508190509291505056fea264697066735822122088abd150f516012af2230ffe1c433357327ed8be8cc3c7c427eacfbbb0ee21c064736f6c63430008090033",
  "linkReferences": {},
  "deployedLinkReferences": {}
}